{"abi":[{"type":"constructor","inputs":[{"name":"_implementation","type":"address","internalType":"address"}],"stateMutability":"nonpayable"},{"type":"function","name":"MAX_FEE","inputs":[],"outputs":[{"name":"","type":"uint256","internalType":"uint256"}],"stateMutability":"view"},{"type":"function","name":"ZERO_FEE_INDICATOR","inputs":[],"outputs":[{"name":"","type":"uint256","internalType":"uint256"}],"stateMutability":"view"},{"type":"function","name":"allPools","inputs":[{"name":"","type":"uint256","internalType":"uint256"}],"outputs":[{"name":"","type":"address","internalType":"address"}],"stateMutability":"view"},{"type":"function","name":"allPoolsLength","inputs":[],"outputs":[{"name":"","type":"uint256","internalType":"uint256"}],"stateMutability":"view"},{"type":"function","name":"createPool","inputs":[{"name":"tokenA","type":"address","internalType":"address"},{"name":"tokenB","type":"address","internalType":"address"},{"name":"stable","type":"bool","internalType":"bool"}],"outputs":[{"name":"pool","type":"address","internalType":"address"}],"stateMutability":"nonpayable"},{"type":"function","name":"createPool","inputs":[{"name":"tokenA","type":"address","internalType":"address"},{"name":"tokenB","type":"address","internalType":"address"},{"name":"fee","type":"uint24","internalType":"uint24"}],"outputs":[{"name":"pool","type":"address","internalType":"address"}],"stateMutability":"nonpayable"},{"type":"function","name":"customFee","inputs":[{"name":"","type":"address","internalType":"address"}],"outputs":[{"name":"","type":"uint256","internalType":"uint256"}],"stateMutability":"view"},{"type":"function","name":"feeManager","inputs":[],"outputs":[{"name":"","type":"address","internalType":"address"}],"stateMutability":"view"},{"type":"function","name":"getFee","inputs":[{"name":"pool","type":"address","internalType":"address"},{"name":"_stable","type":"bool","internalType":"bool"}],"outputs":[{"name":"","type":"uint256","internalType":"uint256"}],"stateMutability":"view"},{"type":"function","name":"getPool","inputs":[{"name":"tokenA","type":"address","internalType":"address"},{"name":"tokenB","type":"address","internalType":"address"},{"name":"fee","type":"uint24","internalType":"uint24"}],"outputs":[{"name":"","type":"address","internalType":"address"}],"stateMutability":"view"},{"type":"function","name":"getPool","inputs":[{"name":"tokenA","type":"address","internalType":"address"},{"name":"tokenB","type":"address","internalType":"address"},{"name":"stable","type":"bool","internalType":"bool"}],"outputs":[{"name":"","type":"address","internalType":"address"}],"stateMutability":"view"},{"type":"function","name":"implementation","inputs":[],"outputs":[{"name":"","type":"address","internalType":"address"}],"stateMutability":"view"},{"type":"function","name":"isPaused","inputs":[],"outputs":[{"name":"","type":"bool","internalType":"bool"}],"stateMutability":"view"},{"type":"function","name":"isPool","inputs":[{"name":"pool","type":"address","internalType":"address"}],"outputs":[{"name":"","type":"bool","internalType":"bool"}],"stateMutability":"view"},{"type":"function","name":"pauser","inputs":[],"outputs":[{"name":"","type":"address","internalType":"address"}],"stateMutability":"view"},{"type":"function","name":"setCustomFee","inputs":[{"name":"pool","type":"address","internalType":"address"},{"name":"fee","type":"uint256","internalType":"uint256"}],"outputs":[],"stateMutability":"nonpayable"},{"type":"function","name":"setFee","inputs":[{"name":"_stable","type":"bool","internalType":"bool"},{"name":"_fee","type":"uint256","internalType":"uint256"}],"outputs":[],"stateMutability":"nonpayable"},{"type":"function","name":"setFeeManager","inputs":[{"name":"_feeManager","type":"address","internalType":"address"}],"outputs":[],"stateMutability":"nonpayable"},{"type":"function","name":"setPauseState","inputs":[{"name":"_state","type":"bool","internalType":"bool"}],"outputs":[],"stateMutability":"nonpayable"},{"type":"function","name":"setPauser","inputs":[{"name":"_pauser","type":"address","internalType":"address"}],"outputs":[],"stateMutability":"nonpayable"},{"type":"function","name":"setVoter","inputs":[{"name":"_voter","type":"address","internalType":"address"}],"outputs":[],"stateMutability":"nonpayable"},{"type":"function","name":"stableFee","inputs":[],"outputs":[{"name":"","type":"uint256","internalType":"uint256"}],"stateMutability":"view"},{"type":"function","name":"volatileFee","inputs":[],"outputs":[{"name":"","type":"uint256","internalType":"uint256"}],"stateMutability":"view"},{"type":"function","name":"voter","inputs":[],"outputs":[{"name":"","type":"address","internalType":"address"}],"stateMutability":"view"},{"type":"event","name":"PoolCreated","inputs":[{"name":"token0","type":"address","indexed":true,"internalType":"address"},{"name":"token1","type":"address","indexed":true,"internalType":"address"},{"name":"stable","type":"bool","indexed":true,"internalType":"bool"},{"name":"pool","type":"address","indexed":false,"internalType":"address"},{"name":"","type":"uint256","indexed":false,"internalType":"uint256"}],"anonymous":false},{"type":"event","name":"SetCustomFee","inputs":[{"name":"pool","type":"address","indexed":true,"internalType":"address"},{"name":"fee","type":"uint256","indexed":false,"internalType":"uint256"}],"anonymous":false},{"type":"event","name":"SetFeeManager","inputs":[{"name":"feeManager","type":"address","indexed":false,"internalType":"address"}],"anonymous":false},{"type":"event","name":"SetPauseState","inputs":[{"name":"state","type":"bool","indexed":false,"internalType":"bool"}],"anonymous":false},{"type":"event","name":"SetPauser","inputs":[{"name":"pauser","type":"address","indexed":false,"internalType":"address"}],"anonymous":false},{"type":"event","name":"SetVoter","inputs":[{"name":"voter","type":"address","indexed":false,"internalType":"address"}],"anonymous":false},{"type":"error","name":"FeeInvalid","inputs":[]},{"type":"error","name":"FeeTooHigh","inputs":[]},{"type":"error","name":"InvalidPool","inputs":[]},{"type":"error","name":"NotFeeManager","inputs":[]},{"type":"error","name":"NotPauser","inputs":[]},{"type":"error","name":"NotVoter","inputs":[]},{"type":"error","name":"PoolAlreadyExists","inputs":[]},{"type":"error","name":"SameAddress","inputs":[]},{"type":"error","name":"ZeroAddress","inputs":[]},{"type":"error","name":"ZeroFee","inputs":[]}],"bytecode":{"object":"0x60a060405234801561001057600080fd5b50604051610e9a380380610e9a83398101604081905261002f9161008c565b6001600160a01b031660805260048054336001600160a01b03199182168117909255600080546003805490931684179092556001600160a81b031990911661010090920260ff19169190911790556005600155601e6002556100bc565b60006020828403121561009e57600080fd5b81516001600160a01b03811681146100b557600080fd5b9392505050565b608051610dbc6100de6000396000818161028b01526106090152610dbc6000f3fe608060405234801561001057600080fd5b50600436106101585760003560e01c80635c60da1b116100c3578063cc56b2c51161007c578063cc56b2c514610332578063cdb88ad114610345578063d0fb020314610358578063d49466a81461036b578063e1f76b441461037e578063efde4e641461039157600080fd5b80635c60da1b1461028657806379bc57d5146102ad5780639fd0506d146102f1578063a167129514610309578063b187bd261461031c578063bc063e1a1461032957600080fd5b806346c96aac1161011557806346c96aac146101e8578063472d35b9146101fb5780634bc2a6571461020e5780634d419abc146102215780635084ed03146102415780635b16ebb71461024a57600080fd5b80631698ee821461015d5780632d88af4a1461018d57806336bf95a0146101a257806338c55d46146101b557806340bbd775146101cc57806341d1de97146101d5575b600080fd5b61017061016b366004610c15565b610399565b6040516001600160a01b0390911681526020015b60405180910390f35b6101a061019b366004610c64565b61042b565b005b6101706101b0366004610c96565b6104df565b6101be6101a481565b604051908152602001610184565b6101be60015481565b6101706101e3366004610cd9565b61079e565b600454610170906001600160a01b031681565b6101a0610209366004610c64565b6107c8565b6101a061021c366004610c64565b610868565b6101be61022f366004610c64565b60086020526000908152604090205481565b6101be60025481565b610276610258366004610c64565b6001600160a01b031660009081526007602052604090205460ff1690565b6040519015158152602001610184565b6101707f000000000000000000000000000000000000000000000000000000000000000081565b6101706102bb366004610c96565b6001600160a01b039283166000908152600560209081526040808320948616835293815283822092151582529190915220541690565b6000546101709061010090046001600160a01b031681565b610170610317366004610c15565b6108e1565b6000546102769060ff1681565b6101be61012c81565b6101be610340366004610cf2565b610927565b6101a0610353366004610d25565b610979565b600354610170906001600160a01b031681565b6101a0610379366004610d40565b6109ea565b6101a061038c366004610d6a565b610ad7565b6006546101be565b600060018262ffffff1611610420578162ffffff166001146103ea576001600160a01b0380851660009081526005602090815260408083208785168452825280832083805290915290205416610423565b6001600160a01b038085166000908152600560209081526040808320878516845282528083206001845290915290205416610423565b60005b949350505050565b60005461010090046001600160a01b0316331461045b5760405163492f678160e01b815260040160405180910390fd5b6001600160a01b0381166104825760405163d92e233d60e01b815260040160405180910390fd5b60008054610100600160a81b0319166101006001600160a01b038416908102919091179091556040519081527fe02efb9e8f0fc21546730ab32d594f62d586e1bbb15bb5045edd0b1878a77b35906020015b60405180910390a150565b6000826001600160a01b0316846001600160a01b0316036105135760405163367558c360e01b815260040160405180910390fd5b600080846001600160a01b0316866001600160a01b031610610536578486610539565b85855b90925090506001600160a01b0382166105655760405163d92e233d60e01b815260040160405180910390fd5b6001600160a01b03828116600090815260056020908152604080832085851684528252808320881515845290915290205416156105b557604051630188c99160e11b815260040160405180910390fd5b6040516bffffffffffffffffffffffff19606084811b8216602084015283901b16603482015284151560f81b604882015260009060490160405160208183030381529060405280519060200120905061062e7f000000000000000000000000000000000000000000000000000000000000000082610b58565b604051631c9776b560e31b81526001600160a01b038581166004830152848116602483015287151560448301529195509085169063e4bbb5a890606401600060405180830381600087803b15801561068557600080fd5b505af1158015610699573d6000803e3d6000fd5b505050506001600160a01b0383811660008181526005602081815260408084208887168086529083528185208c15158087529084528286208054988d166001600160a01b0319998a16811790915582875294845282862087875284528286208187528452828620805489168617905560068054600181810183557ff652222313e28459528d920b65115c16c04f3efc82aaedc97be59f3f377c0d3f9091018054909a1687179099558587526007855295839020805460ff191690981790975593548151938452918301919091529192917f2128d88d14c80cb081c1252a5acff7a264671bf199ce226b53788fb26065005e910160405180910390a45050509392505050565b600681815481106107ae57600080fd5b6000918252602090912001546001600160a01b0316905081565b6003546001600160a01b031633146107f35760405163f5d267eb60e01b815260040160405180910390fd5b6001600160a01b03811661081a5760405163d92e233d60e01b815260040160405180910390fd5b600380546001600160a01b0319166001600160a01b0383169081179091556040519081527f5d0517e3a4eabea892d9750138cd21d4a6cf3b935b43d0598df7055f463819b2906020016104d4565b6004546001600160a01b031633146108935760405163c18384c160e01b815260040160405180910390fd5b600480546001600160a01b0319166001600160a01b0383169081179091556040519081527fc6ff127433b785c51da9ae4088ee184c909b1a55b9afd82ae6c64224d3bc15d2906020016104d4565b600060018262ffffff16111561090a576040516352dadcf960e01b815260040160405180910390fd5b600162ffffff83161461091e8585836104df565b95945050505050565b6001600160a01b0382166000908152600860205260408120546101a4811461096c5780600003610966578261095e5760025461096f565b60015461096f565b8061096f565b60005b9150505b92915050565b60005461010090046001600160a01b031633146109a95760405163492f678160e01b815260040160405180910390fd5b6000805460ff19168215159081179091556040519081527f0d76538efc408318a051137c2720a9e82902acdbd46b802d488b74ca3a09a116906020016104d4565b6003546001600160a01b03163314610a155760405163f5d267eb60e01b815260040160405180910390fd5b61012c81118015610a2857506101a48114155b15610a465760405163cd4e616760e01b815260040160405180910390fd5b6001600160a01b03821660009081526007602052604090205460ff16610a7e5760405162820f3560e61b815260040160405180910390fd5b6001600160a01b03821660008181526008602052604090819020839055517fae468ce586f9a87660fdffc1448cee942042c16ae2f02046b134b5224f31936b90610acb9084815260200190565b60405180910390a25050565b6003546001600160a01b03163314610b025760405163f5d267eb60e01b815260040160405180910390fd5b61012c811115610b255760405163cd4e616760e01b815260040160405180910390fd5b80600003610b465760405163af13986d60e01b815260040160405180910390fd5b8115610b525760015550565b60025550565b6000763d602d80600a3d3981f3363d3d373d3d3d363d730000008360601b60e81c176000526e5af43d82803e903d91602b57fd5bf38360781b1760205281603760096000f590506001600160a01b0381166109735760405162461bcd60e51b815260206004820152601760248201527f455243313136373a2063726561746532206661696c6564000000000000000000604482015260640160405180910390fd5b80356001600160a01b0381168114610c1057600080fd5b919050565b600080600060608486031215610c2a57600080fd5b610c3384610bf9565b9250610c4160208501610bf9565b9150604084013562ffffff81168114610c5957600080fd5b809150509250925092565b600060208284031215610c7657600080fd5b610c7f82610bf9565b9392505050565b80358015158114610c1057600080fd5b600080600060608486031215610cab57600080fd5b610cb484610bf9565b9250610cc260208501610bf9565b9150610cd060408501610c86565b90509250925092565b600060208284031215610ceb57600080fd5b5035919050565b60008060408385031215610d0557600080fd5b610d0e83610bf9565b9150610d1c60208401610c86565b90509250929050565b600060208284031215610d3757600080fd5b610c7f82610c86565b60008060408385031215610d5357600080fd5b610d5c83610bf9565b946020939093013593505050565b60008060408385031215610d7d57600080fd5b610d5c83610c8656fea26469706673582212202b9d57130a9c7434175bcc19d8600ffc6722235dc4783534691c9c404e15cc8064736f6c63430008130033","linkReferences":{}},"methodIdentifiers":{"MAX_FEE()":"bc063e1a","ZERO_FEE_INDICATOR()":"38c55d46","allPools(uint256)":"41d1de97","allPoolsLength()":"efde4e64","createPool(address,address,bool)":"36bf95a0","createPool(address,address,uint24)":"a1671295","customFee(address)":"4d419abc","feeManager()":"d0fb0203","getFee(address,bool)":"cc56b2c5","getPool(address,address,bool)":"79bc57d5","getPool(address,address,uint24)":"1698ee82","implementation()":"5c60da1b","isPaused()":"b187bd26","isPool(address)":"5b16ebb7","pauser()":"9fd0506d","setCustomFee(address,uint256)":"d49466a8","setFee(bool,uint256)":"e1f76b44","setFeeManager(address)":"472d35b9","setPauseState(bool)":"cdb88ad1","setPauser(address)":"2d88af4a","setVoter(address)":"4bc2a657","stableFee()":"40bbd775","volatileFee()":"5084ed03","voter()":"46c96aac"},"id":18}