{"abi":[{"type":"constructor","inputs":[{"name":"_forwarder","type":"address","internalType":"address"},{"name":"_ve","type":"address","internalType":"contract IVotes"},{"name":"_minter","type":"address","internalType":"address"},{"name":"_voter","type":"address","internalType":"contract IVoter"}],"stateMutability":"nonpayable"},{"type":"receive","stateMutability":"payable"},{"type":"function","name":"BALLOT_TYPEHASH","inputs":[],"outputs":[{"name":"","type":"bytes32","internalType":"bytes32"}],"stateMutability":"view"},{"type":"function","name":"CLOCK_MODE","inputs":[],"outputs":[{"name":"","type":"string","internalType":"string"}],"stateMutability":"view"},{"type":"function","name":"COMMENT_DENOMINATOR","inputs":[],"outputs":[{"name":"","type":"uint256","internalType":"uint256"}],"stateMutability":"view"},{"type":"function","name":"COUNTING_MODE","inputs":[],"outputs":[{"name":"","type":"string","internalType":"string"}],"stateMutability":"pure"},{"type":"function","name":"EXTENDED_BALLOT_TYPEHASH","inputs":[],"outputs":[{"name":"","type":"bytes32","internalType":"bytes32"}],"stateMutability":"view"},{"type":"function","name":"_voter","inputs":[],"outputs":[{"name":"","type":"address","internalType":"contract IVoter"}],"stateMutability":"view"},{"type":"function","name":"castVote","inputs":[{"name":"proposalId","type":"uint256","internalType":"uint256"},{"name":"tokenId","type":"uint256","internalType":"uint256"},{"name":"support","type":"uint8","internalType":"uint8"}],"outputs":[{"name":"","type":"uint256","internalType":"uint256"}],"stateMutability":"nonpayable"},{"type":"function","name":"castVoteBySig","inputs":[{"name":"proposalId","type":"uint256","internalType":"uint256"},{"name":"tokenId","type":"uint256","internalType":"uint256"},{"name":"support","type":"uint8","internalType":"uint8"},{"name":"v","type":"uint8","internalType":"uint8"},{"name":"r","type":"bytes32","internalType":"bytes32"},{"name":"s","type":"bytes32","internalType":"bytes32"}],"outputs":[{"name":"","type":"uint256","internalType":"uint256"}],"stateMutability":"nonpayable"},{"type":"function","name":"castVoteWithReason","inputs":[{"name":"proposalId","type":"uint256","internalType":"uint256"},{"name":"tokenId","type":"uint256","internalType":"uint256"},{"name":"support","type":"uint8","internalType":"uint8"},{"name":"reason","type":"string","internalType":"string"}],"outputs":[{"name":"","type":"uint256","internalType":"uint256"}],"stateMutability":"nonpayable"},{"type":"function","name":"castVoteWithReasonAndParams","inputs":[{"name":"proposalId","type":"uint256","internalType":"uint256"},{"name":"tokenId","type":"uint256","internalType":"uint256"},{"name":"support","type":"uint8","internalType":"uint8"},{"name":"reason","type":"string","internalType":"string"},{"name":"params","type":"bytes","internalType":"bytes"}],"outputs":[{"name":"","type":"uint256","internalType":"uint256"}],"stateMutability":"nonpayable"},{"type":"function","name":"castVoteWithReasonAndParamsBySig","inputs":[{"name":"proposalId","type":"uint256","internalType":"uint256"},{"name":"tokenId","type":"uint256","internalType":"uint256"},{"name":"support","type":"uint8","internalType":"uint8"},{"name":"reason","type":"string","internalType":"string"},{"name":"params","type":"bytes","internalType":"bytes"},{"name":"v","type":"uint8","internalType":"uint8"},{"name":"r","type":"bytes32","internalType":"bytes32"},{"name":"s","type":"bytes32","internalType":"bytes32"}],"outputs":[{"name":"","type":"uint256","internalType":"uint256"}],"stateMutability":"nonpayable"},{"type":"function","name":"clock","inputs":[],"outputs":[{"name":"","type":"uint48","internalType":"uint48"}],"stateMutability":"view"},{"type":"function","name":"comment","inputs":[{"name":"proposalId","type":"uint256","internalType":"uint256"},{"name":"tokenId","type":"uint256","internalType":"uint256"},{"name":"message","type":"string","internalType":"string"}],"outputs":[],"stateMutability":"nonpayable"},{"type":"function","name":"eip712Domain","inputs":[],"outputs":[{"name":"fields","type":"bytes1","internalType":"bytes1"},{"name":"name","type":"string","internalType":"string"},{"name":"version","type":"string","internalType":"string"},{"name":"chainId","type":"uint256","internalType":"uint256"},{"name":"verifyingContract","type":"address","internalType":"address"},{"name":"salt","type":"bytes32","internalType":"bytes32"},{"name":"extensions","type":"uint256[]","internalType":"uint256[]"}],"stateMutability":"view"},{"type":"function","name":"escrow","inputs":[],"outputs":[{"name":"","type":"address","internalType":"contract IVotingEscrow"}],"stateMutability":"view"},{"type":"function","name":"execute","inputs":[{"name":"targets","type":"address[]","internalType":"address[]"},{"name":"values","type":"uint256[]","internalType":"uint256[]"},{"name":"calldatas","type":"bytes[]","internalType":"bytes[]"},{"name":"descriptionHash","type":"bytes32","internalType":"bytes32"}],"outputs":[{"name":"","type":"uint256","internalType":"uint256"}],"stateMutability":"payable"},{"type":"function","name":"getVotes","inputs":[{"name":"account","type":"address","internalType":"address"},{"name":"tokenId","type":"uint256","internalType":"uint256"},{"name":"timepoint","type":"uint256","internalType":"uint256"}],"outputs":[{"name":"","type":"uint256","internalType":"uint256"}],"stateMutability":"view"},{"type":"function","name":"getVotes","inputs":[{"name":"tokenId","type":"uint256","internalType":"uint256"},{"name":"timepoint","type":"uint256","internalType":"uint256"}],"outputs":[{"name":"","type":"uint256","internalType":"uint256"}],"stateMutability":"view"},{"type":"function","name":"getVotesWithParams","inputs":[{"name":"account","type":"address","internalType":"address"},{"name":"tokenId","type":"uint256","internalType":"uint256"},{"name":"timepoint","type":"uint256","internalType":"uint256"},{"name":"params","type":"bytes","internalType":"bytes"}],"outputs":[{"name":"","type":"uint256","internalType":"uint256"}],"stateMutability":"view"},{"type":"function","name":"hasVoted","inputs":[{"name":"proposalId","type":"uint256","internalType":"uint256"},{"name":"tokenId","type":"uint256","internalType":"uint256"}],"outputs":[{"name":"","type":"bool","internalType":"bool"}],"stateMutability":"view"},{"type":"function","name":"hashProposal","inputs":[{"name":"targets","type":"address[]","internalType":"address[]"},{"name":"values","type":"uint256[]","internalType":"uint256[]"},{"name":"calldatas","type":"bytes[]","internalType":"bytes[]"},{"name":"epochStart","type":"bytes32","internalType":"bytes32"}],"outputs":[{"name":"","type":"uint256","internalType":"uint256"}],"stateMutability":"pure"},{"type":"function","name":"isTrustedForwarder","inputs":[{"name":"forwarder","type":"address","internalType":"address"}],"outputs":[{"name":"","type":"bool","internalType":"bool"}],"stateMutability":"view"},{"type":"function","name":"minter","inputs":[],"outputs":[{"name":"","type":"address","internalType":"address"}],"stateMutability":"view"},{"type":"function","name":"name","inputs":[],"outputs":[{"name":"","type":"string","internalType":"string"}],"stateMutability":"view"},{"type":"function","name":"onERC1155BatchReceived","inputs":[{"name":"","type":"address","internalType":"address"},{"name":"","type":"address","internalType":"address"},{"name":"","type":"uint256[]","internalType":"uint256[]"},{"name":"","type":"uint256[]","internalType":"uint256[]"},{"name":"","type":"bytes","internalType":"bytes"}],"outputs":[{"name":"","type":"bytes4","internalType":"bytes4"}],"stateMutability":"nonpayable"},{"type":"function","name":"onERC1155Received","inputs":[{"name":"","type":"address","internalType":"address"},{"name":"","type":"address","internalType":"address"},{"name":"","type":"uint256","internalType":"uint256"},{"name":"","type":"uint256","internalType":"uint256"},{"name":"","type":"bytes","internalType":"bytes"}],"outputs":[{"name":"","type":"bytes4","internalType":"bytes4"}],"stateMutability":"nonpayable"},{"type":"function","name":"onERC721Received","inputs":[{"name":"","type":"address","internalType":"address"},{"name":"","type":"address","internalType":"address"},{"name":"","type":"uint256","internalType":"uint256"},{"name":"","type":"bytes","internalType":"bytes"}],"outputs":[{"name":"","type":"bytes4","internalType":"bytes4"}],"stateMutability":"nonpayable"},{"type":"function","name":"proposalDeadline","inputs":[{"name":"proposalId","type":"uint256","internalType":"uint256"}],"outputs":[{"name":"","type":"uint256","internalType":"uint256"}],"stateMutability":"view"},{"type":"function","name":"proposalSnapshot","inputs":[{"name":"proposalId","type":"uint256","internalType":"uint256"}],"outputs":[{"name":"","type":"uint256","internalType":"uint256"}],"stateMutability":"view"},{"type":"function","name":"proposalThreshold","inputs":[],"outputs":[{"name":"","type":"uint256","internalType":"uint256"}],"stateMutability":"view"},{"type":"function","name":"proposalVotes","inputs":[{"name":"proposalId","type":"uint256","internalType":"uint256"}],"outputs":[{"name":"againstVotes","type":"uint256","internalType":"uint256"},{"name":"forVotes","type":"uint256","internalType":"uint256"},{"name":"abstainVotes","type":"uint256","internalType":"uint256"}],"stateMutability":"view"},{"type":"function","name":"propose","inputs":[{"name":"tokenId","type":"uint256","internalType":"uint256"},{"name":"targets","type":"address[]","internalType":"address[]"},{"name":"values","type":"uint256[]","internalType":"uint256[]"},{"name":"calldatas","type":"bytes[]","internalType":"bytes[]"},{"name":"","type":"string","internalType":"string"}],"outputs":[{"name":"","type":"uint256","internalType":"uint256"}],"stateMutability":"nonpayable"},{"type":"function","name":"result","inputs":[],"outputs":[{"name":"","type":"uint8","internalType":"enum IGovernor.ProposalState"}],"stateMutability":"view"},{"type":"function","name":"state","inputs":[{"name":"proposalId","type":"uint256","internalType":"uint256"}],"outputs":[{"name":"","type":"uint8","internalType":"enum IGovernor.ProposalState"}],"stateMutability":"view"},{"type":"function","name":"supportsInterface","inputs":[{"name":"interfaceId","type":"bytes4","internalType":"bytes4"}],"outputs":[{"name":"","type":"bool","internalType":"bool"}],"stateMutability":"view"},{"type":"function","name":"token","inputs":[],"outputs":[{"name":"","type":"address","internalType":"contract IVotes"}],"stateMutability":"view"},{"type":"function","name":"ve","inputs":[],"outputs":[{"name":"","type":"address","internalType":"contract IVotingEscrow"}],"stateMutability":"view"},{"type":"function","name":"version","inputs":[],"outputs":[{"name":"","type":"string","internalType":"string"}],"stateMutability":"view"},{"type":"function","name":"votingDelay","inputs":[],"outputs":[{"name":"","type":"uint256","internalType":"uint256"}],"stateMutability":"pure"},{"type":"function","name":"votingPeriod","inputs":[],"outputs":[{"name":"","type":"uint256","internalType":"uint256"}],"stateMutability":"pure"},{"type":"event","name":"Comment","inputs":[{"name":"proposalId","type":"uint256","indexed":true,"internalType":"uint256"},{"name":"account","type":"address","indexed":true,"internalType":"address"},{"name":"tokenId","type":"uint256","indexed":true,"internalType":"uint256"},{"name":"comment","type":"string","indexed":false,"internalType":"string"}],"anonymous":false},{"type":"event","name":"EIP712DomainChanged","inputs":[],"anonymous":false},{"type":"event","name":"ProposalCanceled","inputs":[{"name":"proposalId","type":"uint256","indexed":false,"internalType":"uint256"}],"anonymous":false},{"type":"event","name":"ProposalCreated","inputs":[{"name":"proposalId","type":"uint256","indexed":false,"internalType":"uint256"},{"name":"proposer","type":"address","indexed":false,"internalType":"address"},{"name":"targets","type":"address[]","indexed":false,"internalType":"address[]"},{"name":"values","type":"uint256[]","indexed":false,"internalType":"uint256[]"},{"name":"signatures","type":"string[]","indexed":false,"internalType":"string[]"},{"name":"calldatas","type":"bytes[]","indexed":false,"internalType":"bytes[]"},{"name":"voteStart","type":"uint256","indexed":false,"internalType":"uint256"},{"name":"voteEnd","type":"uint256","indexed":false,"internalType":"uint256"},{"name":"description","type":"string","indexed":false,"internalType":"string"}],"anonymous":false},{"type":"event","name":"ProposalExecuted","inputs":[{"name":"proposalId","type":"uint256","indexed":false,"internalType":"uint256"}],"anonymous":false},{"type":"event","name":"VoteCast","inputs":[{"name":"voter","type":"address","indexed":true,"internalType":"address"},{"name":"tokenId","type":"uint256","indexed":true,"internalType":"uint256"},{"name":"proposalId","type":"uint256","indexed":false,"internalType":"uint256"},{"name":"support","type":"uint8","indexed":false,"internalType":"uint8"},{"name":"weight","type":"uint256","indexed":false,"internalType":"uint256"},{"name":"reason","type":"string","indexed":false,"internalType":"string"}],"anonymous":false},{"type":"event","name":"VoteCastWithParams","inputs":[{"name":"voter","type":"address","indexed":true,"internalType":"address"},{"name":"tokenId","type":"uint256","indexed":true,"internalType":"uint256"},{"name":"proposalId","type":"uint256","indexed":false,"internalType":"uint256"},{"name":"support","type":"uint8","indexed":false,"internalType":"uint8"},{"name":"weight","type":"uint256","indexed":false,"internalType":"uint256"},{"name":"reason","type":"string","indexed":false,"internalType":"string"},{"name":"params","type":"bytes","indexed":false,"internalType":"bytes"}],"anonymous":false},{"type":"error","name":"StringTooLong","inputs":[{"name":"str","type":"string","internalType":"string"}]}],"bytecode":{"object":"0x6102006040523480156200001257600080fd5b5060405162004b5d38038062004b5d8339810160408190526200003591620002b3565b82846040518060400160405280600e81526020016d22b837b1b41023b7bb32b93737b960911b81525084848262000071620001fa60201b60201c565b6001600160a01b0386166080526200008b82600062000215565b610100526200009c81600162000215565b61012052815160208084019190912061014052815190820120610160524660c0526200012c6101405161016051604080517f8b73c3c69bb8fe3d512ecc4cf759cc79239f7b179b0ffacaa9a75d522b39400f60208201529081019290925260608201524660808201523060a082015260009060c00160405160208183030381529060405280519060200120905090565b60a05250503060e0526002620001438482620003c0565b50600380546001600160a01b0319166001600160a01b0384811691909117909155811661018081905260408051630fc2838b60e11b81529051631f850716916004808201926020929091908290030181865afa158015620001a8573d6000803e3d6000fd5b505050506040513d601f19601f82011682018060405250810190620001ce91906200048c565b6001600160a01b039081166101a052949094166101c08190526101e05250620005289650505050505050565b6040805180820190915260018152603160f81b602082015290565b600060208351101562000235576200022d836200024e565b905062000248565b81620002428482620003c0565b50600090505b92915050565b600080829050601f8151111562000285578260405163305a27a960e01b81526004016200027c9190620004b3565b60405180910390fd5b8051620002928262000503565b179392505050565b6001600160a01b0381168114620002b057600080fd5b50565b60008060008060808587031215620002ca57600080fd5b8451620002d7816200029a565b6020860151909450620002ea816200029a565b6040860151909350620002fd816200029a565b606086015190925062000310816200029a565b939692955090935050565b634e487b7160e01b600052604160045260246000fd5b600181811c908216806200034657607f821691505b6020821081036200036757634e487b7160e01b600052602260045260246000fd5b50919050565b601f821115620003bb57600081815260208120601f850160051c81016020861015620003965750805b601f850160051c820191505b81811015620003b757828155600101620003a2565b5050505b505050565b81516001600160401b03811115620003dc57620003dc6200031b565b620003f481620003ed845462000331565b846200036d565b602080601f8311600181146200042c5760008415620004135750858301515b600019600386901b1c1916600185901b178555620003b7565b600085815260208120601f198616915b828110156200045d578886015182559484019460019091019084016200043c565b50858210156200047c5787850151600019600388901b60f8161c191681555b5050505050600190811b01905550565b6000602082840312156200049f57600080fd5b8151620004ac816200029a565b9392505050565b600060208083528351808285015260005b81811015620004e257858101830151858201604001528201620004c4565b506000604082860101526040601f19601f8301168501019250505092915050565b80516020808301519190811015620003675760001960209190910360031b1b16919050565b60805160a05160c05160e05161010051610120516101405161016051610180516101a0516101c0516101e05161453a62000623600039600081816103870152818161172c01528181611bb001528181611d5f01528181611de301528181611e3c01528181611f7d0152611ff90152600081816108c6015281816115350152818161167f01528181611cd301528181611ee5015261207301526000818161082601526112c101526000818161048401526111d4015260006132b70152600061328f0152600061162b01526000611601015260006131ea015260006132140152600061323e0152600081816105840152611a51015261453a6000f3fe60806040526004361061023f5760003560e01c806364390ff11161012e578063c59057e4116100ab578063e2fdcc171161006f578063e2fdcc1714610814578063f23a6e6114610848578063f945970a14610874578063fa25f37714610894578063fc0c546a146108b457600080fd5b8063c59057e41461073a578063cf781d451461075a578063dd4e2ba51461077a578063dea112a6146107c0578063deaaa7cc146107e057600080fd5b8063b58131b0116100f2578063b58131b014610681578063bc197c8114610695578063be443ad0146106c1578063c01f9e37146106e1578063c2e863e41461071a57600080fd5b806364390ff1146105b457806365372147146105f357806384b0196e1461060d57806391ddadf41461063557806391f366331461066157600080fd5b80632d63f693116101bc5780633e4f49e6116101805780633e4f49e6146104a65780634bf5d7e9146104d3578063544ffc9c146104e857806354fd4d501461053d578063572b6c051461056757600080fd5b80632d63f693146103d45780632fe3e2611461040a578063380a243a1461043e5780633932abb11461045e5780633db9b42a1461047257600080fd5b806311fd26f41161020357806311fd26f41461031c578063150b7a021461033c5780631f8507161461037557806322b36ac6146103a95780632656227d146103c157600080fd5b806301ffc9a71461024d57806302a251a31461028257806306fdde03146102a257806307546172146102c45780630f8a8836146102fc57600080fd5b3661024857005b005b600080fd5b34801561025957600080fd5b5061026d610268366004613559565b6108e8565b60405190151581526020015b60405180910390f35b34801561028e57600080fd5b5062093a805b604051908152602001610279565b3480156102ae57600080fd5b506102b7610955565b60405161027991906135d3565b3480156102d057600080fd5b506003546102e4906001600160a01b031681565b6040516001600160a01b039091168152602001610279565b34801561030857600080fd5b50610294610317366004613827565b6109e7565b34801561032857600080fd5b506102946103373660046138f1565b610f41565b34801561034857600080fd5b5061035c610357366004613926565b610f6d565b6040516001600160e01b03199091168152602001610279565b34801561038157600080fd5b506102e47f000000000000000000000000000000000000000000000000000000000000000081565b3480156103b557600080fd5b50610294633b9aca0081565b6102946103cf366004613991565b610f7e565b3480156103e057600080fd5b506102946103ef366004613a20565b6000908152600460205260409020546001600160401b031690565b34801561041657600080fd5b506102947fb3b3f3b703cd84ce352197dcff232b1b5d3cfb2025ce47cf04742d0651f1af8881565b34801561044a57600080fd5b50610246610459366004613a81565b611104565b34801561046a57600080fd5b506001610294565b34801561047e57600080fd5b506102e47f000000000000000000000000000000000000000000000000000000000000000081565b3480156104b257600080fd5b506104c66104c1366004613a20565b611417565b6040516102799190613ae9565b3480156104df57600080fd5b506102b7611531565b3480156104f457600080fd5b50610522610503366004613a20565b6000908152600860205260409020805460018201546002909201549092565b60408051938452602084019290925290820152606001610279565b34801561054957600080fd5b506040805180820190915260018152603160f81b60208201526102b7565b34801561057357600080fd5b5061026d610582366004613b11565b7f00000000000000000000000000000000000000000000000000000000000000006001600160a01b0390811691161490565b3480156105c057600080fd5b5061026d6105cf366004613b2e565b60009182526008602090815260408084209284526003909201905290205460ff1690565b3480156105ff57600080fd5b506005546104c69060ff1681565b34801561061957600080fd5b506106226115f3565b6040516102799796959493929190613b8b565b34801561064157600080fd5b5061064a61167b565b60405165ffffffffffff9091168152602001610279565b34801561066d57600080fd5b5061029461067c366004613b2e565b611709565b34801561068d57600080fd5b506000610294565b3480156106a157600080fd5b5061035c6106b0366004613bfb565b63bc197c8160e01b95945050505050565b3480156106cd57600080fd5b506102946106dc366004613cac565b6117b4565b3480156106ed57600080fd5b506102946106fc366004613a20565b6000908152600460205260409020600101546001600160401b031690565b34801561072657600080fd5b50610294610735366004613d37565b611812565b34801561074657600080fd5b50610294610755366004613991565b61186d565b34801561076657600080fd5b50610294610775366004613d9e565b6118a7565b34801561078657600080fd5b506040805180820190915260208082527f737570706f72743d627261766f2671756f72756d3d666f722c6162737461696e908201526102b7565b3480156107cc57600080fd5b506102946107db366004613de8565b6118be565b3480156107ec57600080fd5b506102947f150214d74d59b7d1e90c73fc22ef3d991dd0a76b046543d4d80ab92d2a50328f81565b34801561082057600080fd5b506102e47f000000000000000000000000000000000000000000000000000000000000000081565b34801561085457600080fd5b5061035c610863366004613e1d565b63f23a6e6160e01b95945050505050565b34801561088057600080fd5b5061029461088f366004613e85565b6118e7565b3480156108a057600080fd5b506102946108af366004613f35565b6119e1565b3480156108c057600080fd5b506102e47f000000000000000000000000000000000000000000000000000000000000000081565b60006001600160e01b03198216632003110360e01b148061091957506001600160e01b03198216632a1ea86760e21b145b8061093457506001600160e01b03198216630271189760e51b145b8061094f57506301ffc9a760e01b6001600160e01b03198316145b92915050565b60606002805461096490613f8d565b80601f016020809104026020016040519081016040528092919081815260200182805461099090613f8d565b80156109dd5780601f106109b2576101008083540402835291602001916109dd565b820191906000526020600020905b8154815290600101906020018083116109c057829003601f168201915b5050505050905090565b6000806109f2611a4d565b905060006109fe61167b565b65ffffffffffff1690506000610a1a838a610337600186613fdd565b1015610a935760405162461bcd60e51b815260206004820152603760248201527f476f7665726e6f7253696d706c653a2070726f706f73657220766f746573206260448201527f656c6f772070726f706f73616c207468726573686f6c6400000000000000000060648201526084015b60405180910390fd5b8651600114610af45760405162461bcd60e51b815260206004820152602760248201527f476f7665726e6f7253696d706c653a206f6e6c79206f6e652074617267657420604482015266185b1b1bddd95960ca1b6064820152608401610a8a565b60035487516001600160a01b03909116908890600090610b1657610b16613ff0565b60200260200101516001600160a01b031614610b805760405162461bcd60e51b815260206004820152602360248201527f476f7665726e6f7253696d706c653a206f6e6c79206d696e74657220616c6c6f6044820152621dd95960ea1b6064820152608401610a8a565b8451600114610be35760405162461bcd60e51b815260206004820152602960248201527f476f7665726e6f7253696d706c653a206f6e6c79206f6e652063616c6c6461746044820152681848185b1b1bddd95960ba1b6064820152608401610a8a565b8451634804532160e11b908690600090610bff57610bff613ff0565b6020026020010151610c1090614006565b6001600160e01b03191614610c725760405162461bcd60e51b815260206004820152602260248201527f476f7665726e6f7253696d706c653a206f6e6c79206e7564676520616c6c6f77604482015261195960f21b6064820152608401610a8a565b6000610c834262093a808106900390565b610c909062093a8061403d565b90506000610ca08989898561186d565b90506000895111610cf35760405162461bcd60e51b815260206004820152601e60248201527f476f7665726e6f7253696d706c653a20656d7074792070726f706f73616c00006044820152606401610a8a565b600081815260046020526040902054600160401b90046001600160a01b031615610d6f5760405162461bcd60e51b815260206004820152602760248201527f476f7665726e6f7253696d706c653a2070726f706f73616c20616c72656164796044820152662065786973747360c81b6064820152608401610a8a565b6000610d7c60018561403d565b90506000610d8d62093a808361403d565b90506040518060e00160405280610da384611a91565b6001600160401b031681526001600160a01b038816602082015260006040820152606001610dd083611a91565b6001600160401b039081168252600060208084018290526040808501839052606094850183905288835260048252918290208551815492870151878501519186166001600160e01b031990941693909317600160401b6001600160a01b039094168402176001600160e01b0316600160e01b60e09290921c91909102178155938501516080860151908416921c0217600183015560a08301516002909201805460c09094015161ffff1990941692151561ff00191692909217610100931515939093029290921790558b517f7d84a6263ae0d98d3329bd7b46bb4e8d6f98cd35a7adb45c274c8b7fd5ebd5e091859189918f918f91811115610ed457610ed46135e6565b604051908082528060200260200182016040528015610f0757816020015b6060815260200190600190039081610ef25790505b508e8888610f148d611afd565b604051610f29999897969594939291906140de565b60405180910390a150909a9950505050505050505050565b6000610f63848484610f5e60408051602081019091526000815290565b611b8f565b90505b9392505050565b630a85bd0160e11b5b949350505050565b600080610f904262093a808106900390565b90506000610fa08787878561186d565b90506000610fad82611417565b90506004816007811115610fc357610fc3613ad3565b1480610fe057506003816007811115610fde57610fde613ad3565b145b80610ffc57506006816007811115610ffa57610ffa613ad3565b145b6110585760405162461bcd60e51b815260206004820152602760248201527f476f7665726e6f7253696d706c653a2070726f706f73616c206e6f742073756360448201526618d95cdcd99d5b60ca1b6064820152608401610a8a565b60008281526004602052604090819020600201805460ff19166001179055517f712ae1383f79ac853f8d882153778e0260ef8f03b504e2866e0593e04d2b291f906110a69084815260200190565b60405180910390a16005805482919060ff191660018360078111156110cd576110cd613ad3565b02179055506110df82898989896120eb565b6110ec8289898989612178565b6110f982898989896120eb565b509695505050505050565b600084815260046020526040812060609161111e87611417565b9050600181600781111561113457611134613ad3565b14806111515750600081600781111561114f5761114f613ad3565b145b6111a95760405162461bcd60e51b8152602060048201526024808201527f45706f6368476f7665726e6f723a206e6f7420616374697665206f722070656e60448201526364696e6760e01b6064820152608401610a8a565b81546001600160401b031660006111be611a4d565b905060006111ce828a8589611b8f565b905060007f00000000000000000000000000000000000000000000000000000000000000006001600160a01b0316630c340a246040518163ffffffff1660e01b8152600401602060405180830381865afa158015611230573d6000803e3d6000fd5b505050506040513d601f19601f8201168201806040525081019061125491906141b5565b6001600160a01b031663525f9c3e6040518163ffffffff1660e01b8152600401602060405180830381865afa158015611291573d6000803e3d6000fd5b505050506040513d601f19601f820116820180604052508101906112b591906141d2565b90506000633b9aca00827f00000000000000000000000000000000000000000000000000000000000000006001600160a01b0316638e539e8c886040518263ffffffff1660e01b815260040161130d91815260200190565b602060405180830381865afa15801561132a573d6000803e3d6000fd5b505050506040513d601f19601f8201168201806040525081019061134e91906141d2565b61135891906141eb565b6113629190614218565b90508083116113c45760405162461bcd60e51b815260206004820152602860248201527f45706f6368476f7665726e6f723a20696e73756666696369656e7420766f74696044820152673733903837bbb2b960c11b6064820152608401610a8a565b8a846001600160a01b03168d7fdb700dee4c69422ecdfd4ad68ffe25aa39c6ddffef4657f727571e095b642cc58d8d60405161140192919061422c565b60405180910390a4505050505050505050505050565b6000818152600460205260408120600281015460ff161561143b5750600792915050565b6002810154610100900460ff16156114565750600292915050565b6000838152600460205260408120546001600160401b0316908190036114ca5760405162461bcd60e51b815260206004820152602360248201527f476f7665726e6f7253696d706c653a20756e6b6e6f776e2070726f706f73616c604482015262081a5960ea1b6064820152608401610a8a565b60006114d461167b565b65ffffffffffff1690508082106114f057506000949350505050565b6000858152600460205260409020600101546001600160401b031681811061151e5750600195945050505050565b6115278661227a565b9695505050505050565b60607f00000000000000000000000000000000000000000000000000000000000000006001600160a01b0316634bf5d7e96040518163ffffffff1660e01b8152600401600060405180830381865afa9250505080156115b257506040513d6000823e601f3d908101601f191682016040526115af919081019061425b565b60015b6115ee575060408051808201909152601d81527f6d6f64653d626c6f636b6e756d6265722666726f6d3d64656661756c74000000602082015290565b919050565b6000606080828080836116267f0000000000000000000000000000000000000000000000000000000000000000836122de565b6116517f000000000000000000000000000000000000000000000000000000000000000060016122de565b60408051600080825260208201909252600f60f81b9b939a50919850469750309650945092509050565b60007f00000000000000000000000000000000000000000000000000000000000000006001600160a01b03166391ddadf46040518163ffffffff1660e01b8152600401602060405180830381865afa9250505080156116f7575060408051601f3d908101601f191682019092526116f4918101906142c8565b60015b6115ee576117044361238a565b905090565b6040516331a9108f60e11b81526004810183905260009081906001600160a01b037f00000000000000000000000000000000000000000000000000000000000000001690636352211e90602401602060405180830381865afa158015611773573d6000803e3d6000fd5b505050506040513d601f19601f8201168201806040525081019061179791906141b5565b9050610f7681858560405180602001604052806000815250611b8f565b6000806117bf611a4d565b90506118068882898989898080601f0160208091040260200160405190810160405280939291908181526020018383808284376000920191909152508b92506123f1915050565b98975050505050505050565b60008061181d611a4d565b90506118628782888888888080601f01602080910402602001604051908101604052809392919081815260200183838082843760009201919091525061255192505050565b979650505050505050565b60008484848460405160200161188694939291906142f0565b60408051601f19818403018152919052805160209091012095945050505050565b60006118b585858585611b8f565b95945050505050565b6000806118c9611a4d565b90506118b58582868660405180602001604052806000815250612551565b60008061198b6119837fb3b3f3b703cd84ce352197dcff232b1b5d3cfb2025ce47cf04742d0651f1af888d8c8c8c60405161192392919061433b565b60405180910390208b80519060200120604051602001611968959493929190948552602085019390935260ff9190911660408401526060830152608082015260a00190565b60405160208183030381529060405280519060200120612575565b8686866125a2565b90506119d28b828c8c8c8c8080601f0160208091040260200160405190810160405280939291908181526020018383808284376000920191909152508e92506123f1915050565b9b9a5050505050505050505050565b604080517f150214d74d59b7d1e90c73fc22ef3d991dd0a76b046543d4d80ab92d2a50328f602082015290810187905260ff851660608201526000908190611a2f9061198390608001611968565b90506118068882898960405180602001604052806000815250612551565b60007f00000000000000000000000000000000000000000000000000000000000000006001600160a01b03163303611a8c575060131936013560601c90565b503390565b60006001600160401b03821115611af95760405162461bcd60e51b815260206004820152602660248201527f53616665436173743a2076616c756520646f65736e27742066697420696e203660448201526534206269747360d01b6064820152608401610a8a565b5090565b60606000611b0a836125ca565b60010190506000816001600160401b03811115611b2957611b296135e6565b6040519080825280601f01601f191660200182016040528015611b53576020820181803683370190505b5090508181016020015b600019016f181899199a1a9b1b9c1cb0b131b232b360811b600a86061a8153600a8504945084611b5d57509392505050565b60405161f8e560ef1b81526004810184905260009081906001600160a01b037f00000000000000000000000000000000000000000000000000000000000000001690637c72800090602401602060405180830381865afa158015611bf7573d6000803e3d6000fd5b505050506040513d601f19601f82011682018060405250810190611c1b919061434b565b90506002816002811115611c3157611c31613ad3565b03611c8d5760405162461bcd60e51b815260206004820152602660248201527f45706f6368476f7665726e6f723a206d616e61676564206e66742063616e6e6f6044820152657420766f746560d01b6064820152608401610a8a565b6000816002811115611ca157611ca1613ad3565b03611d4657604051634d6fb77560e01b81526001600160a01b03878116600483015260248201879052604482018690527f00000000000000000000000000000000000000000000000000000000000000001690634d6fb77590606401602060405180830381865afa158015611d1a573d6000803e3d6000fd5b505050506040513d601f19601f82011682018060405250810190611d3e91906141d2565b915050610f76565b6040516319a0a9d560e01b8152600481018690526000907f00000000000000000000000000000000000000000000000000000000000000006001600160a01b0316906319a0a9d590602401602060405180830381865afa158015611dae573d6000803e3d6000fd5b505050506040513d601f19601f82011682018060405250810190611dd291906141d2565b90506000611e0a6001600160a01b037f00000000000000000000000000000000000000000000000000000000000000001683886126a2565b604051631e09967560e31b81526004810184905265ffffffffffff821660248201529091506000906001600160a01b037f0000000000000000000000000000000000000000000000000000000000000000169063f04cb3a890604401608060405180830381865afa158015611e83573d6000803e3d6000fd5b505050506040513d601f19601f82011682018060405250810190611ea7919061436c565b6060015190508060000361204657604051634d6fb77560e01b81526001600160a01b038a81166004830152602482018a9052604482018990526000917f000000000000000000000000000000000000000000000000000000000000000090911690634d6fb77590606401602060405180830381865afa158015611f2e573d6000803e3d6000fd5b505050506040513d601f19601f82011682018060405250810190611f5291906141d2565b60405163145615f560e21b8152600481018b9052602481018690529091506000906001600160a01b037f0000000000000000000000000000000000000000000000000000000000000000169063515857d490604401602060405180830381865afa158015611fc4573d6000803e3d6000fd5b505050506040513d601f19601f82011682018060405250810190611fe891906141d2565b905060006120216001600160a01b037f000000000000000000000000000000000000000000000000000000000000000016878d8d612993565b90508261202e828461403d565b612038919061403d565b975050505050505050610f76565b604051634d6fb77560e01b81526001600160a01b038a81166004830152602482018a9052604482018990527f00000000000000000000000000000000000000000000000000000000000000001690634d6fb77590606401602060405180830381865afa1580156120ba573d6000803e3d6000fd5b505050506040513d601f19601f820116820180604052508101906120de91906141d2565b9998505050505050505050565b612171565b8181101561216e57306001600160a01b031686828151811061211457612114613ff0565b60200260200101516001600160a01b03160361215e5761215e84828151811061213f5761213f613ff0565b6020026020010151805190602001206006612f7a90919063ffffffff16565b612167816143d7565b90506120f0565b50505b5050505050565b60006040518060600160405280602781526020016144de60279139855190915060005b81811015612270576000808883815181106121b8576121b8613ff0565b60200260200101516001600160a01b03168884815181106121db576121db613ff0565b60200260200101518885815181106121f5576121f5613ff0565b602002602001015160405161220a91906143f0565b60006040518083038185875af1925050503d8060008114612247576040519150601f19603f3d011682016040523d82523d6000602084013e61224c565b606091505b509150915061225c828287612fbf565b50505080612269906143d7565b905061219b565b5050505050505050565b600081815260086020526040812080546001820154600283015481831180156122a257508083115b156122b35750600395945050505050565b82821180156122c157508082115b156122d25750600495945050505050565b50600695945050505050565b606060ff8316156122f9576122f283612fd8565b905061094f565b81805461230590613f8d565b80601f016020809104026020016040519081016040528092919081815260200182805461233190613f8d565b801561237e5780601f106123535761010080835404028352916020019161237e565b820191906000526020600020905b81548152906001019060200180831161236157829003601f168201915b5050505050905061094f565b600065ffffffffffff821115611af95760405162461bcd60e51b815260206004820152602660248201527f53616665436173743a2076616c756520646f65736e27742066697420696e203460448201526538206269747360d01b6064820152608401610a8a565b6000868152600460205260408120600161240a89611417565b600781111561241b5761241b613ad3565b1461247a5760405162461bcd60e51b815260206004820152602960248201527f476f7665726e6f7253696d706c653a20766f7465206e6f742063757272656e746044820152686c792061637469766560b81b6064820152608401610a8a565b805460009061249690899089906001600160401b031687611b8f565b90506124a5898888848861300d565b83516000036124fb5786886001600160a01b03167f02ecdb7f59712b7ae7cb6851cce1c64e98f94e5b51ec63809112c054622b25548b89858a6040516124ee949392919061440c565b60405180910390a3611806565b86886001600160a01b03167f7dcdc52e34b09364e599a32b0e3ccb5b730a7b952ddbdf4f237ea785da228ce78b89858a8a60405161253d959493929190614434565b60405180910390a398975050505050505050565b6000611527868686868661257060408051602081019091526000815290565b6123f1565b600061094f6125826131dd565b8360405161190160f01b8152600281019290925260228201526042902090565b60008060006125b387878787613308565b915091506125c0816133cc565b5095945050505050565b60008072184f03e93ff9f4daa797ed6e38ed64bf6a1f0160401b83106126095772184f03e93ff9f4daa797ed6e38ed64bf6a1f0160401b830492506040015b6d04ee2d6d415b85acef81000000008310612635576d04ee2d6d415b85acef8100000000830492506020015b662386f26fc10000831061265357662386f26fc10000830492506010015b6305f5e100831061266b576305f5e100830492506008015b612710831061267f57612710830492506004015b60648310612691576064830492506002015b600a831061094f5760010192915050565b604051635058979360e01b81526004810183905260009081906001600160a01b03861690635058979390602401602060405180830381865afa1580156126ec573d6000803e3d6000fd5b505050506040513d601f19601f8201168201806040525081019061271091906142c8565b90508065ffffffffffff1660000361272c576000915050610f66565b826001600160a01b03861663f04cb3a88661274860018661446e565b6040516001600160e01b031960e085901b168152600481019290925265ffffffffffff166024820152604401608060405180830381865afa158015612791573d6000803e3d6000fd5b505050506040513d601f19601f820116820180604052508101906127b5919061436c565b51116127ce576127c660018261446e565b915050610f66565b604051631e09967560e31b8152600481018590526000602482015283906001600160a01b0387169063f04cb3a890604401608060405180830381865afa15801561281c573d6000803e3d6000fd5b505050506040513d601f19601f82011682018060405250810190612840919061436c565b511115612851576000915050610f66565b60008061285f60018461446e565b905061289560405180608001604052806000815260200160006001600160a01b0316815260200160008152602001600081525090565b8265ffffffffffff168265ffffffffffff16111561298757600060026128bb858561446e565b6128c59190614494565b6128cf908461446e565b604051631e09967560e31b8152600481018a905265ffffffffffff821660248201529091506001600160a01b038a169063f04cb3a890604401608060405180830381865afa158015612925573d6000803e3d6000fd5b505050506040513d601f19601f82011682018060405250810190612949919061436c565b915086826000015103612962579450610f669350505050565b815187111561297357809350612981565b61297e60018261446e565b92505b50612895565b50909695505050505050565b60405163539c6d4160e11b81526004810184905260009081906001600160a01b0387169063a738da8290602401602060405180830381865afa1580156129dd573d6000803e3d6000fd5b505050506040513d601f19601f82011682018060405250810190612a0191906141b5565b604051635058979360e01b8152600481018690529091506001600160a01b03821690635058979390602401602060405180830381865afa158015612a49573d6000803e3d6000fd5b505050506040513d601f19601f82011682018060405250810190612a6d91906141d2565b600003612a7e576000915050610f76565b6000866001600160a01b031663fc0c546a6040518163ffffffff1660e01b8152600401602060405180830381865afa158015612abe573d6000803e3d6000fd5b505050506040513d601f19601f82011682018060405250810190612ae291906141b5565b60405163f25e55a560e01b81526001600160a01b038083166004830152602482018890529192506000916001918391612b6e919087169063f25e55a590604401602060405180830381865afa158015612b3f573d6000803e3d6000fd5b505050506040513d601f19601f82011682018060405250810190612b6391906141d2565b62093a808106900390565b6040516328a3532760e21b8152600481018a9052602481018290529091506000906001600160a01b0387169063a28d4c9c90604401602060405180830381865afa158015612bc0573d6000803e3d6000fd5b505050506040513d601f19601f82011682018060405250810190612be491906141d2565b604051631277308160e21b8152600481018b90526024810182905290915060009081906001600160a01b038916906349dcc204906044016040805180830381865afa158015612c37573d6000803e3d6000fd5b505050506040513d601f19601f82011682018060405250810190612c5b91906144b9565b9092509050612c718462093a8084068403613519565b9350600062093a80612c8986828e068e038301613fdd565b612c939190614218565b905060008115612f675760005b82811015612f65576001600160a01b038b1663a28d4c9c8f6001612cc762093a808c61403d565b612cd19190613fdd565b6040516001600160e01b031960e085901b16815260048101929092526024820152604401602060405180830381865afa158015612d12573d6000803e3d6000fd5b505050506040513d601f19601f82011682018060405250810190612d3691906141d2565b95508a6001600160a01b03166349dcc2048f886040518363ffffffff1660e01b8152600401612d6f929190918252602082015260400190565b6040805180830381865afa158015612d8b573d6000803e3d6000fd5b505050506040513d601f19601f82011682018060405250810190612daf91906144b9565b90955093506001600160a01b038b1663f7412baf816376f4be366001612dd862093a808d61403d565b612de29190613fdd565b6040518263ffffffff1660e01b8152600401612e0091815260200190565b602060405180830381865afa158015612e1d573d6000803e3d6000fd5b505050506040513d601f19601f82011682018060405250810190612e4191906141d2565b6040518263ffffffff1660e01b8152600401612e5f91815260200190565b6040805180830381865afa158015612e7b573d6000803e3d6000fd5b505050506040513d601f19601f82011682018060405250810190612e9f91906144b9565b9250612eae9050826001613519565b6040516392777b2960e01b81526001600160a01b038c81166004830152602482018a905291995089918d16906392777b2990604401602060405180830381865afa158015612f00573d6000803e3d6000fd5b505050506040513d601f19601f82011682018060405250810190612f2491906141d2565b612f2e90866141eb565b612f389190614218565b612f42908a61403d565b9850612f5162093a808861403d565b965080612f5d816143d7565b915050612ca0565b505b50959d9c50505050505050505050505050565b8154600160801b90819004600f0b6000818152600180860160205260409091209390935583546fffffffffffffffffffffffffffffffff908116939091011602179055565b60608315612fce575081610f66565b610f66838361352f565b60408051602080825281830190925260609160ff84169160009180820181803683375050509182525060208101929092525090565b6000858152600860209081526040808320878452600381019092529091205460ff161561308c5760405162461bcd60e51b815260206004820152602760248201527f476f7665726e6f72566f74696e6753696d706c653a20766f746520616c726561604482015266191e4818d85cdd60ca1b6064820152608401610a8a565b600083116130ed5760405162461bcd60e51b815260206004820152602860248201527f476f7665726e6f72566f74696e6753696d706c653a207a65726f20766f74696e60448201526719c81dd95a59da1d60c21b6064820152608401610a8a565b60008581526003820160205260409020805460ff1916600117905560ff841661312f5782816000016000828254613124919061403d565b909155506131d59050565b60001960ff85160161314f5782816001016000828254613124919061403d565b60011960ff85160161316f5782816002016000828254613124919061403d565b60405162461bcd60e51b815260206004820152603560248201527f476f7665726e6f72566f74696e6753696d706c653a20696e76616c69642076616044820152746c756520666f7220656e756d20566f74655479706560581b6064820152608401610a8a565b505050505050565b6000306001600160a01b037f00000000000000000000000000000000000000000000000000000000000000001614801561323657507f000000000000000000000000000000000000000000000000000000000000000046145b1561326057507f000000000000000000000000000000000000000000000000000000000000000090565b611704604080517f8b73c3c69bb8fe3d512ecc4cf759cc79239f7b179b0ffacaa9a75d522b39400f60208201527f0000000000000000000000000000000000000000000000000000000000000000918101919091527f000000000000000000000000000000000000000000000000000000000000000060608201524660808201523060a082015260009060c00160405160208183030381529060405280519060200120905090565b6000807f7fffffffffffffffffffffffffffffff5d576e7357a4501ddfe92f46681b20a083111561333f57506000905060036133c3565b6040805160008082526020820180845289905260ff881692820192909252606081018690526080810185905260019060a0016020604051602081039080840390855afa158015613393573d6000803e3d6000fd5b5050604051601f1901519150506001600160a01b0381166133bc576000600192509250506133c3565b9150600090505b94509492505050565b60008160048111156133e0576133e0613ad3565b036133e85750565b60018160048111156133fc576133fc613ad3565b036134495760405162461bcd60e51b815260206004820152601860248201527f45434453413a20696e76616c6964207369676e617475726500000000000000006044820152606401610a8a565b600281600481111561345d5761345d613ad3565b036134aa5760405162461bcd60e51b815260206004820152601f60248201527f45434453413a20696e76616c6964207369676e6174757265206c656e677468006044820152606401610a8a565b60038160048111156134be576134be613ad3565b036135165760405162461bcd60e51b815260206004820152602260248201527f45434453413a20696e76616c6964207369676e6174757265202773272076616c604482015261756560f01b6064820152608401610a8a565b50565b60008183116135285781610f66565b5090919050565b81511561353f5781518083602001fd5b8060405162461bcd60e51b8152600401610a8a91906135d3565b60006020828403121561356b57600080fd5b81356001600160e01b031981168114610f6657600080fd5b60005b8381101561359e578181015183820152602001613586565b50506000910152565b600081518084526135bf816020860160208601613583565b601f01601f19169290920160200192915050565b602081526000610f6660208301846135a7565b634e487b7160e01b600052604160045260246000fd5b604051601f8201601f191681016001600160401b0381118282101715613624576136246135e6565b604052919050565b60006001600160401b03821115613645576136456135e6565b5060051b60200190565b6001600160a01b038116811461351657600080fd5b600082601f83011261367557600080fd5b8135602061368a6136858361362c565b6135fc565b82815260059290921b840181019181810190868411156136a957600080fd5b8286015b848110156110f95780356136c08161364f565b83529183019183016136ad565b600082601f8301126136de57600080fd5b813560206136ee6136858361362c565b82815260059290921b8401810191818101908684111561370d57600080fd5b8286015b848110156110f95780358352918301918301613711565b60006001600160401b03821115613741576137416135e6565b50601f01601f191660200190565b600061375d61368584613728565b905082815283838301111561377157600080fd5b828260208301376000602084830101529392505050565b600082601f83011261379957600080fd5b610f668383356020850161374f565b600082601f8301126137b957600080fd5b813560206137c96136858361362c565b82815260059290921b840181019181810190868411156137e857600080fd5b8286015b848110156110f95780356001600160401b0381111561380b5760008081fd5b6138198986838b0101613788565b8452509183019183016137ec565b600080600080600060a0868803121561383f57600080fd5b8535945060208601356001600160401b038082111561385d57600080fd5b61386989838a01613664565b9550604088013591508082111561387f57600080fd5b61388b89838a016136cd565b945060608801359150808211156138a157600080fd5b6138ad89838a016137a8565b935060808801359150808211156138c357600080fd5b508601601f810188136138d557600080fd5b6138e48882356020840161374f565b9150509295509295909350565b60008060006060848603121561390657600080fd5b83356139118161364f565b95602085013595506040909401359392505050565b6000806000806080858703121561393c57600080fd5b84356139478161364f565b935060208501356139578161364f565b92506040850135915060608501356001600160401b0381111561397957600080fd5b61398587828801613788565b91505092959194509250565b600080600080608085870312156139a757600080fd5b84356001600160401b03808211156139be57600080fd5b6139ca88838901613664565b955060208701359150808211156139e057600080fd5b6139ec888389016136cd565b94506040870135915080821115613a0257600080fd5b50613a0f878288016137a8565b949793965093946060013593505050565b600060208284031215613a3257600080fd5b5035919050565b60008083601f840112613a4b57600080fd5b5081356001600160401b03811115613a6257600080fd5b602083019150836020828501011115613a7a57600080fd5b9250929050565b60008060008060608587031215613a9757600080fd5b843593506020850135925060408501356001600160401b03811115613abb57600080fd5b613ac787828801613a39565b95989497509550505050565b634e487b7160e01b600052602160045260246000fd5b6020810160088310613b0b57634e487b7160e01b600052602160045260246000fd5b91905290565b600060208284031215613b2357600080fd5b8135610f668161364f565b60008060408385031215613b4157600080fd5b50508035926020909101359150565b600081518084526020808501945080840160005b83811015613b8057815187529582019590820190600101613b64565b509495945050505050565b60ff60f81b8816815260e060208201526000613baa60e08301896135a7565b8281036040840152613bbc81896135a7565b606084018890526001600160a01b038716608085015260a0840186905283810360c08501529050613bed8185613b50565b9a9950505050505050505050565b600080600080600060a08688031215613c1357600080fd5b8535613c1e8161364f565b94506020860135613c2e8161364f565b935060408601356001600160401b0380821115613c4a57600080fd5b613c5689838a016136cd565b94506060880135915080821115613c6c57600080fd5b613c7889838a016136cd565b93506080880135915080821115613c8e57600080fd5b506138e488828901613788565b803560ff811681146115ee57600080fd5b60008060008060008060a08789031215613cc557600080fd5b8635955060208701359450613cdc60408801613c9b565b935060608701356001600160401b0380821115613cf857600080fd5b613d048a838b01613a39565b90955093506080890135915080821115613d1d57600080fd5b50613d2a89828a01613788565b9150509295509295509295565b600080600080600060808688031215613d4f57600080fd5b8535945060208601359350613d6660408701613c9b565b925060608601356001600160401b03811115613d8157600080fd5b613d8d88828901613a39565b969995985093965092949392505050565b60008060008060808587031215613db457600080fd5b8435613dbf8161364f565b9350602085013592506040850135915060608501356001600160401b0381111561397957600080fd5b600080600060608486031215613dfd57600080fd5b8335925060208401359150613e1460408501613c9b565b90509250925092565b600080600080600060a08688031215613e3557600080fd5b8535613e408161364f565b94506020860135613e508161364f565b9350604086013592506060860135915060808601356001600160401b03811115613e7957600080fd5b6138e488828901613788565b60008060008060008060008060006101008a8c031215613ea457600080fd5b8935985060208a01359750613ebb60408b01613c9b565b965060608a01356001600160401b0380821115613ed757600080fd5b613ee38d838e01613a39565b909850965060808c0135915080821115613efc57600080fd5b50613f098c828d01613788565b945050613f1860a08b01613c9b565b925060c08a0135915060e08a013590509295985092959850929598565b60008060008060008060c08789031215613f4e57600080fd5b8635955060208701359450613f6560408801613c9b565b9350613f7360608801613c9b565b92506080870135915060a087013590509295509295509295565b600181811c90821680613fa157607f821691505b602082108103613fc157634e487b7160e01b600052602260045260246000fd5b50919050565b634e487b7160e01b600052601160045260246000fd5b8181038181111561094f5761094f613fc7565b634e487b7160e01b600052603260045260246000fd5b805160208201516001600160e01b031980821692919060048310156140355780818460040360031b1b83161693505b505050919050565b8082018082111561094f5761094f613fc7565b600081518084526020808501945080840160005b83811015613b805781516001600160a01b031687529582019590820190600101614064565b600081518084526020808501808196508360051b8101915082860160005b858110156140d15782840389526140bf8483516135a7565b988501989350908401906001016140a7565b5091979650505050505050565b60006101208b8352602060018060a01b038c16818501528160408501526141078285018c614050565b9150838203606085015261411b828b613b50565b915083820360808501528189518084528284019150828160051b850101838c0160005b8381101561416c57601f1987840301855261415a8383516135a7565b9486019492509085019060010161413e565b505086810360a0880152614180818c614089565b9450505050508560c08401528460e08401528281036101008401526141a581856135a7565b9c9b505050505050505050505050565b6000602082840312156141c757600080fd5b8151610f668161364f565b6000602082840312156141e457600080fd5b5051919050565b808202811582820484141761094f5761094f613fc7565b634e487b7160e01b600052601260045260246000fd5b60008261422757614227614202565b500490565b60208152816020820152818360408301376000818301604090810191909152601f909201601f19160101919050565b60006020828403121561426d57600080fd5b81516001600160401b0381111561428357600080fd5b8201601f8101841361429457600080fd5b80516142a261368582613728565b8181528560208385010111156142b757600080fd5b6118b5826020830160208601613583565b6000602082840312156142da57600080fd5b815165ffffffffffff81168114610f6657600080fd5b6080815260006143036080830187614050565b82810360208401526143158187613b50565b905082810360408401526143298186614089565b91505082606083015295945050505050565b8183823760009101908152919050565b60006020828403121561435d57600080fd5b815160038110610f6657600080fd5b60006080828403121561437e57600080fd5b604051608081018181106001600160401b03821117156143a0576143a06135e6565b6040528251815260208301516143b58161364f565b6020820152604083810151908201526060928301519281019290925250919050565b6000600182016143e9576143e9613fc7565b5060010190565b60008251614402818460208701613583565b9190910192915050565b84815260ff8416602082015282604082015260806060820152600061152760808301846135a7565b85815260ff8516602082015283604082015260a06060820152600061445c60a08301856135a7565b828103608084015261180681856135a7565b65ffffffffffff82811682821603908082111561448d5761448d613fc7565b5092915050565b600065ffffffffffff808416806144ad576144ad614202565b92169190910492915050565b600080604083850312156144cc57600080fd5b50508051602090910151909290915056fe476f7665726e6f723a2063616c6c20726576657274656420776974686f7574206d657373616765a2646970667358221220e25963b3973e28ef72353221f53c5cfdbd48dafa00f6943c49b21ba23ed54a2564736f6c63430008130033","linkReferences":{}},"methodIdentifiers":{"BALLOT_TYPEHASH()":"deaaa7cc","CLOCK_MODE()":"4bf5d7e9","COMMENT_DENOMINATOR()":"22b36ac6","COUNTING_MODE()":"dd4e2ba5","EXTENDED_BALLOT_TYPEHASH()":"2fe3e261","_voter()":"3db9b42a","castVote(uint256,uint256,uint8)":"dea112a6","castVoteBySig(uint256,uint256,uint8,uint8,bytes32,bytes32)":"fa25f377","castVoteWithReason(uint256,uint256,uint8,string)":"c2e863e4","castVoteWithReasonAndParams(uint256,uint256,uint8,string,bytes)":"be443ad0","castVoteWithReasonAndParamsBySig(uint256,uint256,uint8,string,bytes,uint8,bytes32,bytes32)":"f945970a","clock()":"91ddadf4","comment(uint256,uint256,string)":"380a243a","eip712Domain()":"84b0196e","escrow()":"e2fdcc17","execute(address[],uint256[],bytes[],bytes32)":"2656227d","getVotes(address,uint256,uint256)":"11fd26f4","getVotes(uint256,uint256)":"91f36633","getVotesWithParams(address,uint256,uint256,bytes)":"cf781d45","hasVoted(uint256,uint256)":"64390ff1","hashProposal(address[],uint256[],bytes[],bytes32)":"c59057e4","isTrustedForwarder(address)":"572b6c05","minter()":"07546172","name()":"06fdde03","onERC1155BatchReceived(address,address,uint256[],uint256[],bytes)":"bc197c81","onERC1155Received(address,address,uint256,uint256,bytes)":"f23a6e61","onERC721Received(address,address,uint256,bytes)":"150b7a02","proposalDeadline(uint256)":"c01f9e37","proposalSnapshot(uint256)":"2d63f693","proposalThreshold()":"b58131b0","proposalVotes(uint256)":"544ffc9c","propose(uint256,address[],uint256[],bytes[],string)":"0f8a8836","result()":"65372147","state(uint256)":"3e4f49e6","supportsInterface(bytes4)":"01ffc9a7","token()":"fc0c546a","ve()":"1f850716","version()":"54fd4d50","votingDelay()":"3932abb1","votingPeriod()":"02a251a3"},"id":0}