{"abi":[{"type":"constructor","inputs":[{"name":"_DOMAIN_SEPARATOR","type":"bytes32","internalType":"bytes32"}],"stateMutability":"nonpayable"},{"type":"function","name":"DELEGATION_TYPEHASH","inputs":[],"outputs":[{"name":"","type":"bytes32","internalType":"bytes32"}],"stateMutability":"view"},{"type":"function","name":"getTypedDataHash","inputs":[{"name":"_delegation","type":"tuple","internalType":"struct SigUtils.Delegation","components":[{"name":"delegator","type":"uint256","internalType":"uint256"},{"name":"delegatee","type":"uint256","internalType":"uint256"},{"name":"nonce","type":"uint256","internalType":"uint256"},{"name":"deadline","type":"uint256","internalType":"uint256"}]}],"outputs":[{"name":"","type":"bytes32","internalType":"bytes32"}],"stateMutability":"view"}],"bytecode":{"object":"0x608060405234801561001057600080fd5b5060405161024038038061024083398101604081905261002f91610037565b600055610050565b60006020828403121561004957600080fd5b5051919050565b6101e18061005f6000396000f3fe608060405234801561001057600080fd5b50600436106100365760003560e01c806340c51ea81461003b578063e7a324dc14610060575b600080fd5b61004e610049366004610137565b610087565b60405190815260200160405180910390f35b61004e7f9947d5709c1682eaa3946b2d84115c9c0d1c946b149d76e69b457458b42ea29e81565b60008054610094836100d0565b60405161190160f01b6020820152602281019290925260428201526062015b604051602081830303815290604052805190602001209050919050565b8051602080830151604080850151606086015191516000956100b3957f9947d5709c1682eaa3946b2d84115c9c0d1c946b149d76e69b457458b42ea29e95919491939201948552602085019390935260408401919091526060830152608082015260a00190565b60006080828403121561014957600080fd5b6040516080810181811067ffffffffffffffff8211171561017a57634e487b7160e01b600052604160045260246000fd5b806040525082358152602083013560208201526040830135604082015260608301356060820152809150509291505056fea264697066735822122081f7fb4f4bfe780969c2c0b89fc3d580c6f7f6950c3a00ecd92542a0939fad2a64736f6c63430008130033","linkReferences":{}},"methodIdentifiers":{"DELEGATION_TYPEHASH()":"e7a324dc","getTypedDataHash((uint256,uint256,uint256,uint256))":"40c51ea8"},"id":167}