{"abi":[{"type":"constructor","inputs":[{"name":"_forwarder","type":"address","internalType":"address"},{"name":"_voter","type":"address","internalType":"address"},{"name":"_rewards","type":"address[]","internalType":"address[]"}],"stateMutability":"nonpayable"},{"type":"function","name":"DURATION","inputs":[],"outputs":[{"name":"","type":"uint256","internalType":"uint256"}],"stateMutability":"view"},{"type":"function","name":"_deposit","inputs":[{"name":"amount","type":"uint256","internalType":"uint256"},{"name":"tokenId","type":"uint256","internalType":"uint256"}],"outputs":[],"stateMutability":"nonpayable"},{"type":"function","name":"_withdraw","inputs":[{"name":"amount","type":"uint256","internalType":"uint256"},{"name":"tokenId","type":"uint256","internalType":"uint256"}],"outputs":[],"stateMutability":"nonpayable"},{"type":"function","name":"authorized","inputs":[],"outputs":[{"name":"","type":"address","internalType":"address"}],"stateMutability":"view"},{"type":"function","name":"balanceOf","inputs":[{"name":"","type":"uint256","internalType":"uint256"}],"outputs":[{"name":"","type":"uint256","internalType":"uint256"}],"stateMutability":"view"},{"type":"function","name":"checkpoints","inputs":[{"name":"","type":"uint256","internalType":"uint256"},{"name":"","type":"uint256","internalType":"uint256"}],"outputs":[{"name":"timestamp","type":"uint256","internalType":"uint256"},{"name":"balanceOf","type":"uint256","internalType":"uint256"}],"stateMutability":"view"},{"type":"function","name":"earned","inputs":[{"name":"token","type":"address","internalType":"address"},{"name":"tokenId","type":"uint256","internalType":"uint256"}],"outputs":[{"name":"","type":"uint256","internalType":"uint256"}],"stateMutability":"view"},{"type":"function","name":"getPriorBalanceIndex","inputs":[{"name":"tokenId","type":"uint256","internalType":"uint256"},{"name":"timestamp","type":"uint256","internalType":"uint256"}],"outputs":[{"name":"","type":"uint256","internalType":"uint256"}],"stateMutability":"view"},{"type":"function","name":"getPriorSupplyIndex","inputs":[{"name":"timestamp","type":"uint256","internalType":"uint256"}],"outputs":[{"name":"","type":"uint256","internalType":"uint256"}],"stateMutability":"view"},{"type":"function","name":"getReward","inputs":[{"name":"tokenId","type":"uint256","internalType":"uint256"},{"name":"tokens","type":"address[]","internalType":"address[]"}],"outputs":[],"stateMutability":"nonpayable"},{"type":"function","name":"isReward","inputs":[{"name":"","type":"address","internalType":"address"}],"outputs":[{"name":"","type":"bool","internalType":"bool"}],"stateMutability":"view"},{"type":"function","name":"isTrustedForwarder","inputs":[{"name":"forwarder","type":"address","internalType":"address"}],"outputs":[{"name":"","type":"bool","internalType":"bool"}],"stateMutability":"view"},{"type":"function","name":"lastEarn","inputs":[{"name":"","type":"address","internalType":"address"},{"name":"","type":"uint256","internalType":"uint256"}],"outputs":[{"name":"","type":"uint256","internalType":"uint256"}],"stateMutability":"view"},{"type":"function","name":"notifyRewardAmount","inputs":[{"name":"token","type":"address","internalType":"address"},{"name":"amount","type":"uint256","internalType":"uint256"}],"outputs":[],"stateMutability":"nonpayable"},{"type":"function","name":"numCheckpoints","inputs":[{"name":"","type":"uint256","internalType":"uint256"}],"outputs":[{"name":"","type":"uint256","internalType":"uint256"}],"stateMutability":"view"},{"type":"function","name":"rewards","inputs":[{"name":"","type":"uint256","internalType":"uint256"}],"outputs":[{"name":"","type":"address","internalType":"address"}],"stateMutability":"view"},{"type":"function","name":"rewardsListLength","inputs":[],"outputs":[{"name":"","type":"uint256","internalType":"uint256"}],"stateMutability":"view"},{"type":"function","name":"supplyCheckpoints","inputs":[{"name":"","type":"uint256","internalType":"uint256"}],"outputs":[{"name":"timestamp","type":"uint256","internalType":"uint256"},{"name":"supply","type":"uint256","internalType":"uint256"}],"stateMutability":"view"},{"type":"function","name":"supplyNumCheckpoints","inputs":[],"outputs":[{"name":"","type":"uint256","internalType":"uint256"}],"stateMutability":"view"},{"type":"function","name":"tokenRewardsPerEpoch","inputs":[{"name":"","type":"address","internalType":"address"},{"name":"","type":"uint256","internalType":"uint256"}],"outputs":[{"name":"","type":"uint256","internalType":"uint256"}],"stateMutability":"view"},{"type":"function","name":"totalSupply","inputs":[],"outputs":[{"name":"","type":"uint256","internalType":"uint256"}],"stateMutability":"view"},{"type":"function","name":"ve","inputs":[],"outputs":[{"name":"","type":"address","internalType":"address"}],"stateMutability":"view"},{"type":"function","name":"voter","inputs":[],"outputs":[{"name":"","type":"address","internalType":"address"}],"stateMutability":"view"},{"type":"event","name":"ClaimRewards","inputs":[{"name":"from","type":"address","indexed":true,"internalType":"address"},{"name":"reward","type":"address","indexed":true,"internalType":"address"},{"name":"amount","type":"uint256","indexed":false,"internalType":"uint256"}],"anonymous":false},{"type":"event","name":"Deposit","inputs":[{"name":"from","type":"address","indexed":true,"internalType":"address"},{"name":"tokenId","type":"uint256","indexed":true,"internalType":"uint256"},{"name":"amount","type":"uint256","indexed":false,"internalType":"uint256"}],"anonymous":false},{"type":"event","name":"NotifyReward","inputs":[{"name":"from","type":"address","indexed":true,"internalType":"address"},{"name":"reward","type":"address","indexed":true,"internalType":"address"},{"name":"epoch","type":"uint256","indexed":true,"internalType":"uint256"},{"name":"amount","type":"uint256","indexed":false,"internalType":"uint256"}],"anonymous":false},{"type":"event","name":"Withdraw","inputs":[{"name":"from","type":"address","indexed":true,"internalType":"address"},{"name":"tokenId","type":"uint256","indexed":true,"internalType":"uint256"},{"name":"amount","type":"uint256","indexed":false,"internalType":"uint256"}],"anonymous":false},{"type":"error","name":"InvalidReward","inputs":[]},{"type":"error","name":"NotAuthorized","inputs":[]},{"type":"error","name":"NotEscrowToken","inputs":[]},{"type":"error","name":"NotGauge","inputs":[]},{"type":"error","name":"NotSingleToken","inputs":[]},{"type":"error","name":"NotVotingEscrow","inputs":[]},{"type":"error","name":"NotWhitelisted","inputs":[]},{"type":"error","name":"ZeroAmount","inputs":[]}],"bytecode":{"object":"0x60e06040523480156200001157600080fd5b5060405162001ba738038062001ba7833981016040819052620000349162000233565b6001600160a01b038084166080526001600055821660a081905260408051630fc2838b60e11b81529051859285928592859285929091631f850716916004808201926020929091908290030181865afa15801562000096573d6000803e3d6000fd5b505050506040513d601f19601f82011682018060405250810190620000bc91906200032d565b6001600160a01b031660c0525050805160005b81811015620001d15760006001600160a01b0316838281518110620000f857620000f862000352565b60200260200101516001600160a01b031614620001bc576001600760008584815181106200012a576200012a62000352565b60200260200101516001600160a01b03166001600160a01b0316815260200190815260200160002060006101000a81548160ff021916908315150217905550600683828151811062000180576200018062000352565b60209081029190910181015182546001810184556000938452919092200180546001600160a01b0319166001600160a01b039092169190911790555b80620001c88162000368565b915050620000cf565b5050600180546001600160a01b0319166001600160a01b03939093169290921790915550620003909350505050565b80516001600160a01b03811681146200021857600080fd5b919050565b634e487b7160e01b600052604160045260246000fd5b6000806000606084860312156200024957600080fd5b620002548462000200565b925060206200026581860162000200565b60408601519093506001600160401b03808211156200028357600080fd5b818701915087601f8301126200029857600080fd5b815181811115620002ad57620002ad6200021d565b8060051b604051601f19603f83011681018181108582111715620002d557620002d56200021d565b60405291825284820192508381018501918a831115620002f457600080fd5b938501935b828510156200031d576200030d8562000200565b84529385019392850192620002f9565b8096505050505050509250925092565b6000602082840312156200034057600080fd5b6200034b8262000200565b9392505050565b634e487b7160e01b600052603260045260246000fd5b6000600182016200038957634e487b7160e01b600052601160045260246000fd5b5060010190565b60805160a05160c0516117c4620003e36000396000818161017d01528181610ba50152610c8a0152600081816101e2015281816109880152610c1e0152600081816102ae0152610d3001526117c46000f3fe608060405234801561001057600080fd5b506004361061014d5760003560e01c806392777b29116100c3578063e8111a121161007c578063e8111a121461037f578063f25e55a514610388578063f301af42146103b3578063f3207723146103c6578063f5f8d365146103d9578063f7412baf146103ec57600080fd5b806392777b29146102f15780639cc7f7081461031c5780639e2bf22c1461033c578063a28d4c9c14610351578063b66503cf14610364578063e68863961461037757600080fd5b806346c96aac1161011557806346c96aac146101dd57806349dcc204146102045780634d5ce0381461024b578063505897931461027e578063572b6c051461029e57806376f4be36146102de57600080fd5b806318160ddd146101525780631be052891461016e5780631f850716146101785780633e491d47146101b7578063456cb7c6146101ca575b600080fd5b61015b60025481565b6040519081526020015b60405180910390f35b61015b62093a8081565b61019f7f000000000000000000000000000000000000000000000000000000000000000081565b6040516001600160a01b039091168152602001610165565b61015b6101c53660046114cd565b610413565b60015461019f906001600160a01b031681565b61019f7f000000000000000000000000000000000000000000000000000000000000000081565b6102366102123660046114f9565b60086020908152600092835260408084209091529082529020805460019091015482565b60408051928352602083019190915201610165565b61026e61025936600461151b565b60076020526000908152604090205460ff1681565b6040519015158152602001610165565b61015b61028c366004611538565b60096020526000908152604090205481565b61026e6102ac36600461151b565b7f00000000000000000000000000000000000000000000000000000000000000006001600160a01b0390811691161490565b61015b6102ec366004611538565b6105f9565b61015b6102ff3660046114cd565b600460209081526000928352604080842090915290825290205481565b61015b61032a366004611538565b60036020526000908152604090205481565b61034f61034a3660046114f9565b61072d565b005b61015b61035f3660046114f9565b61080d565b61034f6103723660046114cd565b610952565b60065461015b565b61015b600b5481565b61015b6103963660046114cd565b600560209081526000928352604080842090915290825290205481565b61019f6103c1366004611538565b610a6d565b61034f6103d43660046114f9565b610a97565b61034f6103e7366004611567565b610b6a565b6102366103fa366004611538565b600a602052600090815260409020805460019091015482565b6000818152600960205260408120548103610430575060006105f3565b6001600160a01b038316600090815260056020908152604080832085845290915281205460019062093a80810690038261046a868361080d565b60008781526008602090815260408083208484528252918290208251808401909352805480845260019091015491830191909152919250906104b590849062093a8081069003610d16565b9250600062093a806104cc8542838106900361164e565b6104d69190611661565b905080156105ea5760005b818110156105e8576105068960016104fc62093a8089611683565b61035f919061164e565b60008a815260086020908152604080832084845282528083208151808301909252805482526001908101549282019290925292965091945061057a91600a91906105619061055762093a808b611683565b6102ec919061164e565b8152602001908152602001600020600101546001610d16565b6001600160a01b038b1660009081526004602090815260408083208984528252909120549085015191975087916105b19190611696565b6105bb9190611661565b6105c59088611683565b96506105d462093a8086611683565b9450806105e0816116ad565b9150506104e1565b505b50939450505050505b92915050565b600b5460009080820361060f5750600092915050565b82600a600061061f60018561164e565b815260200190815260200160002060000154116106485761064160018261164e565b9392505050565b60008052600a6020527f13da86008ba1c6922daee3e07db95305ef49ebced9f5467a0b8613fcc6b343e3548310156106835750600092915050565b60008061069160018461164e565b90505b8181111561072557600060026106aa848461164e565b6106b49190611661565b6106be908361164e565b6000818152600a60209081526040918290208251808401909352805480845260019091015491830191909152919250908790036106ff575095945050505050565b80518711156107105781935061071e565b61071b60018361164e565b92505b5050610694565b509392505050565b6000610737610d2c565b6001549091506001600160a01b038083169116146107685760405163ea8e4eb560e01b815260040160405180910390fd5b826002600082825461077a919061164e565b90915550506000828152600360205260408120805485929061079d90849061164e565b90915550506000828152600360205260409020546107bc908390610d70565b6107c4610e7a565b81816001600160a01b03167ff279e6a1f5e320cca91135676d9cb6e44ca8a08c0b88342bcdb1144f6511b5688560405161080091815260200190565b60405180910390a3505050565b60008281526009602052604081205480820361082d5760009150506105f3565b6000848152600860205260408120849161084860018561164e565b815260200190815260200160002060000154116108725761086a60018261164e565b9150506105f3565b600084815260086020908152604080832083805290915290205483101561089d5760009150506105f3565b6000806108ab60018461164e565b90505b8181111561094957600060026108c4848461164e565b6108ce9190611661565b6108d8908361164e565b6000888152600860209081526040808320848452825291829020825180840190935280548084526001909101549183019190915291925090879003610923575093506105f392505050565b805187111561093457819350610942565b61093f60018361164e565b92505b50506108ae565b50949350505050565b61095a610f32565b6000610964610d2c565b60405163c4f0816560e01b81526001600160a01b03808316600483015291925030917f0000000000000000000000000000000000000000000000000000000000000000169063c4f0816590602401602060405180830381865afa1580156109cf573d6000803e3d6000fd5b505050506040513d601f19601f820116820180604052508101906109f391906116c6565b6001600160a01b031614610a1a576040516304639b6160e11b815260040160405180910390fd5b6001600160a01b03831660009081526007602052604090205460ff16610a53576040516314414f4160e11b815260040160405180910390fd5b610a5e818484610f90565b50610a696001600055565b5050565b60068181548110610a7d57600080fd5b6000918252602090912001546001600160a01b0316905081565b6000610aa1610d2c565b6001549091506001600160a01b03808316911614610ad25760405163ea8e4eb560e01b815260040160405180910390fd5b8260026000828254610ae49190611683565b909155505060008281526003602052604081208054859290610b07908490611683565b9091555050600082815260036020526040902054610b26908390610d70565b610b2e610e7a565b81816001600160a01b03167f90890809c654f11d6e72a28fa60149770a0d11ec6c92319d6ceb2bb0a4ea1a158560405161080091815260200190565b610b72610f32565b6000610b7c610d2c565b60405163430c208160e01b81526001600160a01b038083166004830152602482018690529192507f00000000000000000000000000000000000000000000000000000000000000009091169063430c2081906044016020604051808303816000875af1158015610bf0573d6000803e3d6000fd5b505050506040513d601f19601f82011682018060405250810190610c1491906116e3565b158015610c5357507f00000000000000000000000000000000000000000000000000000000000000006001600160a01b0316816001600160a01b031614155b15610c715760405163ea8e4eb560e01b815260040160405180910390fd5b6040516331a9108f60e11b8152600481018490526000907f00000000000000000000000000000000000000000000000000000000000000006001600160a01b031690636352211e90602401602060405180830381865afa158015610cd9573d6000803e3d6000fd5b505050506040513d601f19601f82011682018060405250810190610cfd91906116c6565b9050610d0a81858561106a565b5050610a696001600055565b6000818311610d255781610641565b5090919050565b60007f00000000000000000000000000000000000000000000000000000000000000006001600160a01b03163303610d6b575060131936013560601c90565b503390565b600082815260096020526040902054428115801590610dce575062093a80810681036000858152600860205260408120610dcc91610daf60018761164e565b81526020019081526020016000206000015462093a808106900390565b145b15610e24576040805180820182528281526020808201869052600087815260089091529182209091610e0160018661164e565b815260208082019290925260400160002082518155910151600190910155610e74565b6040805180820182528281526020808201868152600088815260088352848120878252909252929020905181559051600191820155610e64908390611683565b6000858152600960205260409020555b50505050565b600b54428115801590610ea4575062093a8081068103610ea2600a6000610daf60018761164e565b145b15610eef57604080518082019091528181526002546020820152600a6000610ecd60018661164e565b8152602080820192909252604001600020825181559101516001909101555050565b60408051808201825282815260025460208083019182526000868152600a90915292909220905181559051600191820155610f2b908390611683565b600b555050565b600260005403610f895760405162461bcd60e51b815260206004820152601f60248201527f5265656e7472616e637947756172643a207265656e7472616e742063616c6c0060448201526064015b60405180910390fd5b6002600055565b80600003610fb157604051631f2a200560e01b815260040160405180910390fd5b610fc66001600160a01b0383168430846111a3565b6000610fd74262093a808106900390565b6001600160a01b038416600090815260046020908152604080832084845290915281208054929350849290919061100f908490611683565b9250508190555080836001600160a01b0316856001600160a01b03167f52977ea98a2220a03ee9ba5cb003ada08d394ea10155483c95dc2dc77a7eb24b8560405161105c91815260200190565b60405180910390a450505050565b805160005b8181101561119c57600061109c84838151811061108e5761108e611705565b602002602001015186610413565b905042600560008685815181106110b5576110b5611705565b6020908102919091018101516001600160a01b031682528181019290925260409081016000908120898252909252902055801561112357611123868286858151811061110357611103611705565b60200260200101516001600160a01b031661120e9092919063ffffffff16565b83828151811061113557611135611705565b60200260200101516001600160a01b0316866001600160a01b03167f9aa05b3d70a9e3e2f004f039648839560576334fb45c81f91b6db03ad9e2efc98360405161118191815260200190565b60405180910390a35080611194816116ad565b91505061106f565b5050505050565b6040516001600160a01b0380851660248301528316604482015260648101829052610e749085906323b872dd60e01b906084015b60408051601f198184030181529190526020810180516001600160e01b03166001600160e01b031990931692909217909152611243565b6040516001600160a01b03831660248201526044810182905261123e90849063a9059cbb60e01b906064016111d7565b505050565b6000611298826040518060400160405280602081526020017f5361666545524332303a206c6f772d6c6576656c2063616c6c206661696c6564815250856001600160a01b03166113159092919063ffffffff16565b80519091501561123e57808060200190518101906112b691906116e3565b61123e5760405162461bcd60e51b815260206004820152602a60248201527f5361666545524332303a204552433230206f7065726174696f6e20646964206e6044820152691bdd081cdd58d8d9595960b21b6064820152608401610f80565b6060611324848460008561132c565b949350505050565b60608247101561138d5760405162461bcd60e51b815260206004820152602660248201527f416464726573733a20696e73756666696369656e742062616c616e636520666f6044820152651c8818d85b1b60d21b6064820152608401610f80565b600080866001600160a01b031685876040516113a9919061173f565b60006040518083038185875af1925050503d80600081146113e6576040519150601f19603f3d011682016040523d82523d6000602084013e6113eb565b606091505b50915091506113fc87838387611407565b979650505050505050565b6060831561147657825160000361146f576001600160a01b0385163b61146f5760405162461bcd60e51b815260206004820152601d60248201527f416464726573733a2063616c6c20746f206e6f6e2d636f6e74726163740000006044820152606401610f80565b5081611324565b611324838381511561148b5781518083602001fd5b8060405162461bcd60e51b8152600401610f80919061175b565b6001600160a01b03811681146114ba57600080fd5b50565b80356114c8816114a5565b919050565b600080604083850312156114e057600080fd5b82356114eb816114a5565b946020939093013593505050565b6000806040838503121561150c57600080fd5b50508035926020909101359150565b60006020828403121561152d57600080fd5b8135610641816114a5565b60006020828403121561154a57600080fd5b5035919050565b634e487b7160e01b600052604160045260246000fd5b6000806040838503121561157a57600080fd5b8235915060208084013567ffffffffffffffff8082111561159a57600080fd5b818601915086601f8301126115ae57600080fd5b8135818111156115c0576115c0611551565b8060051b604051601f19603f830116810181811085821117156115e5576115e5611551565b60405291825284820192508381018501918983111561160357600080fd5b938501935b8285101561162857611619856114bd565b84529385019392850192611608565b8096505050505050509250929050565b634e487b7160e01b600052601160045260246000fd5b818103818111156105f3576105f3611638565b60008261167e57634e487b7160e01b600052601260045260246000fd5b500490565b808201808211156105f3576105f3611638565b80820281158282048414176105f3576105f3611638565b6000600182016116bf576116bf611638565b5060010190565b6000602082840312156116d857600080fd5b8151610641816114a5565b6000602082840312156116f557600080fd5b8151801515811461064157600080fd5b634e487b7160e01b600052603260045260246000fd5b60005b8381101561173657818101518382015260200161171e565b50506000910152565b6000825161175181846020870161171b565b9190910192915050565b602081526000825180602084015261177a81604085016020870161171b565b601f01601f1916919091016040019291505056fea26469706673582212201588dceb43fc59f249bb09403a4a5d1864e61f697f22d37cfe3c78057308270b64736f6c63430008130033","linkReferences":{}},"methodIdentifiers":{"DURATION()":"1be05289","_deposit(uint256,uint256)":"f3207723","_withdraw(uint256,uint256)":"9e2bf22c","authorized()":"456cb7c6","balanceOf(uint256)":"9cc7f708","checkpoints(uint256,uint256)":"49dcc204","earned(address,uint256)":"3e491d47","getPriorBalanceIndex(uint256,uint256)":"a28d4c9c","getPriorSupplyIndex(uint256)":"76f4be36","getReward(uint256,address[])":"f5f8d365","isReward(address)":"4d5ce038","isTrustedForwarder(address)":"572b6c05","lastEarn(address,uint256)":"f25e55a5","notifyRewardAmount(address,uint256)":"b66503cf","numCheckpoints(uint256)":"50589793","rewards(uint256)":"f301af42","rewardsListLength()":"e6886396","supplyCheckpoints(uint256)":"f7412baf","supplyNumCheckpoints()":"e8111a12","tokenRewardsPerEpoch(address,uint256)":"92777b29","totalSupply()":"18160ddd","ve()":"1f850716","voter()":"46c96aac"},"id":56}