{"abi":[{"type":"constructor","inputs":[{"name":"_ve","type":"address","internalType":"contract IVotes"},{"name":"_voter","type":"address","internalType":"contract IVoter"}],"stateMutability":"nonpayable"},{"type":"receive","stateMutability":"payable"},{"type":"function","name":"BALLOT_TYPEHASH","inputs":[],"outputs":[{"name":"","type":"bytes32","internalType":"bytes32"}],"stateMutability":"view"},{"type":"function","name":"CLOCK_MODE","inputs":[],"outputs":[{"name":"","type":"string","internalType":"string"}],"stateMutability":"view"},{"type":"function","name":"COMMENT_DENOMINATOR","inputs":[],"outputs":[{"name":"","type":"uint256","internalType":"uint256"}],"stateMutability":"view"},{"type":"function","name":"COUNTING_MODE","inputs":[],"outputs":[{"name":"","type":"string","internalType":"string"}],"stateMutability":"pure"},{"type":"function","name":"EXTENDED_BALLOT_TYPEHASH","inputs":[],"outputs":[{"name":"","type":"bytes32","internalType":"bytes32"}],"stateMutability":"view"},{"type":"function","name":"MAX_PROPOSAL_NUMERATOR","inputs":[],"outputs":[{"name":"","type":"uint256","internalType":"uint256"}],"stateMutability":"view"},{"type":"function","name":"PROPOSAL_DENOMINATOR","inputs":[],"outputs":[{"name":"","type":"uint256","internalType":"uint256"}],"stateMutability":"view"},{"type":"function","name":"acceptTeam","inputs":[],"outputs":[],"stateMutability":"nonpayable"},{"type":"function","name":"acceptVetoer","inputs":[],"outputs":[],"stateMutability":"nonpayable"},{"type":"function","name":"cancel","inputs":[{"name":"targets","type":"address[]","internalType":"address[]"},{"name":"values","type":"uint256[]","internalType":"uint256[]"},{"name":"calldatas","type":"bytes[]","internalType":"bytes[]"},{"name":"descriptionHash","type":"bytes32","internalType":"bytes32"}],"outputs":[{"name":"","type":"uint256","internalType":"uint256"}],"stateMutability":"nonpayable"},{"type":"function","name":"castVote","inputs":[{"name":"proposalId","type":"uint256","internalType":"uint256"},{"name":"tokenId","type":"uint256","internalType":"uint256"},{"name":"support","type":"uint8","internalType":"uint8"}],"outputs":[{"name":"","type":"uint256","internalType":"uint256"}],"stateMutability":"nonpayable"},{"type":"function","name":"castVoteBySig","inputs":[{"name":"proposalId","type":"uint256","internalType":"uint256"},{"name":"tokenId","type":"uint256","internalType":"uint256"},{"name":"support","type":"uint8","internalType":"uint8"},{"name":"v","type":"uint8","internalType":"uint8"},{"name":"r","type":"bytes32","internalType":"bytes32"},{"name":"s","type":"bytes32","internalType":"bytes32"}],"outputs":[{"name":"","type":"uint256","internalType":"uint256"}],"stateMutability":"nonpayable"},{"type":"function","name":"castVoteWithReason","inputs":[{"name":"proposalId","type":"uint256","internalType":"uint256"},{"name":"tokenId","type":"uint256","internalType":"uint256"},{"name":"support","type":"uint8","internalType":"uint8"},{"name":"reason","type":"string","internalType":"string"}],"outputs":[{"name":"","type":"uint256","internalType":"uint256"}],"stateMutability":"nonpayable"},{"type":"function","name":"castVoteWithReasonAndParams","inputs":[{"name":"proposalId","type":"uint256","internalType":"uint256"},{"name":"tokenId","type":"uint256","internalType":"uint256"},{"name":"support","type":"uint8","internalType":"uint8"},{"name":"reason","type":"string","internalType":"string"},{"name":"params","type":"bytes","internalType":"bytes"}],"outputs":[{"name":"","type":"uint256","internalType":"uint256"}],"stateMutability":"nonpayable"},{"type":"function","name":"castVoteWithReasonAndParamsBySig","inputs":[{"name":"proposalId","type":"uint256","internalType":"uint256"},{"name":"tokenId","type":"uint256","internalType":"uint256"},{"name":"support","type":"uint8","internalType":"uint8"},{"name":"reason","type":"string","internalType":"string"},{"name":"params","type":"bytes","internalType":"bytes"},{"name":"v","type":"uint8","internalType":"uint8"},{"name":"r","type":"bytes32","internalType":"bytes32"},{"name":"s","type":"bytes32","internalType":"bytes32"}],"outputs":[{"name":"","type":"uint256","internalType":"uint256"}],"stateMutability":"nonpayable"},{"type":"function","name":"clock","inputs":[],"outputs":[{"name":"","type":"uint48","internalType":"uint48"}],"stateMutability":"view"},{"type":"function","name":"comment","inputs":[{"name":"proposalId","type":"uint256","internalType":"uint256"},{"name":"tokenId","type":"uint256","internalType":"uint256"},{"name":"message","type":"string","internalType":"string"}],"outputs":[],"stateMutability":"nonpayable"},{"type":"function","name":"commentWeighting","inputs":[],"outputs":[{"name":"","type":"uint256","internalType":"uint256"}],"stateMutability":"view"},{"type":"function","name":"eip712Domain","inputs":[],"outputs":[{"name":"fields","type":"bytes1","internalType":"bytes1"},{"name":"name","type":"string","internalType":"string"},{"name":"version","type":"string","internalType":"string"},{"name":"chainId","type":"uint256","internalType":"uint256"},{"name":"verifyingContract","type":"address","internalType":"address"},{"name":"salt","type":"bytes32","internalType":"bytes32"},{"name":"extensions","type":"uint256[]","internalType":"uint256[]"}],"stateMutability":"view"},{"type":"function","name":"escrow","inputs":[],"outputs":[{"name":"","type":"address","internalType":"contract IVotingEscrow"}],"stateMutability":"view"},{"type":"function","name":"execute","inputs":[{"name":"targets","type":"address[]","internalType":"address[]"},{"name":"values","type":"uint256[]","internalType":"uint256[]"},{"name":"calldatas","type":"bytes[]","internalType":"bytes[]"},{"name":"descriptionHash","type":"bytes32","internalType":"bytes32"},{"name":"proposer","type":"address","internalType":"address"}],"outputs":[{"name":"","type":"uint256","internalType":"uint256"}],"stateMutability":"payable"},{"type":"function","name":"getVotes","inputs":[{"name":"account","type":"address","internalType":"address"},{"name":"tokenId","type":"uint256","internalType":"uint256"},{"name":"timepoint","type":"uint256","internalType":"uint256"}],"outputs":[{"name":"","type":"uint256","internalType":"uint256"}],"stateMutability":"view"},{"type":"function","name":"getVotes","inputs":[{"name":"tokenId","type":"uint256","internalType":"uint256"},{"name":"timepoint","type":"uint256","internalType":"uint256"}],"outputs":[{"name":"","type":"uint256","internalType":"uint256"}],"stateMutability":"view"},{"type":"function","name":"getVotesWithParams","inputs":[{"name":"account","type":"address","internalType":"address"},{"name":"tokenId","type":"uint256","internalType":"uint256"},{"name":"timepoint","type":"uint256","internalType":"uint256"},{"name":"params","type":"bytes","internalType":"bytes"}],"outputs":[{"name":"","type":"uint256","internalType":"uint256"}],"stateMutability":"view"},{"type":"function","name":"hasVoted","inputs":[{"name":"proposalId","type":"uint256","internalType":"uint256"},{"name":"tokenId","type":"uint256","internalType":"uint256"}],"outputs":[{"name":"","type":"bool","internalType":"bool"}],"stateMutability":"view"},{"type":"function","name":"hashProposal","inputs":[{"name":"targets","type":"address[]","internalType":"address[]"},{"name":"values","type":"uint256[]","internalType":"uint256[]"},{"name":"calldatas","type":"bytes[]","internalType":"bytes[]"},{"name":"descriptionHash","type":"bytes32","internalType":"bytes32"},{"name":"proposer","type":"address","internalType":"address"}],"outputs":[{"name":"","type":"uint256","internalType":"uint256"}],"stateMutability":"pure"},{"type":"function","name":"lateQuorumVoteExtension","inputs":[],"outputs":[{"name":"","type":"uint64","internalType":"uint64"}],"stateMutability":"view"},{"type":"function","name":"name","inputs":[],"outputs":[{"name":"","type":"string","internalType":"string"}],"stateMutability":"view"},{"type":"function","name":"onERC1155BatchReceived","inputs":[{"name":"","type":"address","internalType":"address"},{"name":"","type":"address","internalType":"address"},{"name":"","type":"uint256[]","internalType":"uint256[]"},{"name":"","type":"uint256[]","internalType":"uint256[]"},{"name":"","type":"bytes","internalType":"bytes"}],"outputs":[{"name":"","type":"bytes4","internalType":"bytes4"}],"stateMutability":"nonpayable"},{"type":"function","name":"onERC1155Received","inputs":[{"name":"","type":"address","internalType":"address"},{"name":"","type":"address","internalType":"address"},{"name":"","type":"uint256","internalType":"uint256"},{"name":"","type":"uint256","internalType":"uint256"},{"name":"","type":"bytes","internalType":"bytes"}],"outputs":[{"name":"","type":"bytes4","internalType":"bytes4"}],"stateMutability":"nonpayable"},{"type":"function","name":"onERC721Received","inputs":[{"name":"","type":"address","internalType":"address"},{"name":"","type":"address","internalType":"address"},{"name":"","type":"uint256","internalType":"uint256"},{"name":"","type":"bytes","internalType":"bytes"}],"outputs":[{"name":"","type":"bytes4","internalType":"bytes4"}],"stateMutability":"nonpayable"},{"type":"function","name":"pendingTeam","inputs":[],"outputs":[{"name":"","type":"address","internalType":"address"}],"stateMutability":"view"},{"type":"function","name":"pendingVetoer","inputs":[],"outputs":[{"name":"","type":"address","internalType":"address"}],"stateMutability":"view"},{"type":"function","name":"proposalDeadline","inputs":[{"name":"proposalId","type":"uint256","internalType":"uint256"}],"outputs":[{"name":"","type":"uint256","internalType":"uint256"}],"stateMutability":"view"},{"type":"function","name":"proposalNumerator","inputs":[],"outputs":[{"name":"","type":"uint256","internalType":"uint256"}],"stateMutability":"view"},{"type":"function","name":"proposalSnapshot","inputs":[{"name":"proposalId","type":"uint256","internalType":"uint256"}],"outputs":[{"name":"","type":"uint256","internalType":"uint256"}],"stateMutability":"view"},{"type":"function","name":"proposalThreshold","inputs":[],"outputs":[{"name":"","type":"uint256","internalType":"uint256"}],"stateMutability":"view"},{"type":"function","name":"proposalVotes","inputs":[{"name":"proposalId","type":"uint256","internalType":"uint256"}],"outputs":[{"name":"againstVotes","type":"uint256","internalType":"uint256"},{"name":"forVotes","type":"uint256","internalType":"uint256"},{"name":"abstainVotes","type":"uint256","internalType":"uint256"}],"stateMutability":"view"},{"type":"function","name":"propose","inputs":[{"name":"tokenId","type":"uint256","internalType":"uint256"},{"name":"targets","type":"address[]","internalType":"address[]"},{"name":"values","type":"uint256[]","internalType":"uint256[]"},{"name":"calldatas","type":"bytes[]","internalType":"bytes[]"},{"name":"description","type":"string","internalType":"string"}],"outputs":[{"name":"","type":"uint256","internalType":"uint256"}],"stateMutability":"nonpayable"},{"type":"function","name":"quorum","inputs":[{"name":"timepoint","type":"uint256","internalType":"uint256"}],"outputs":[{"name":"","type":"uint256","internalType":"uint256"}],"stateMutability":"view"},{"type":"function","name":"quorumDenominator","inputs":[],"outputs":[{"name":"","type":"uint256","internalType":"uint256"}],"stateMutability":"view"},{"type":"function","name":"quorumNumerator","inputs":[{"name":"timepoint","type":"uint256","internalType":"uint256"}],"outputs":[{"name":"","type":"uint256","internalType":"uint256"}],"stateMutability":"view"},{"type":"function","name":"quorumNumerator","inputs":[],"outputs":[{"name":"","type":"uint256","internalType":"uint256"}],"stateMutability":"view"},{"type":"function","name":"relay","inputs":[{"name":"target","type":"address","internalType":"address"},{"name":"value","type":"uint256","internalType":"uint256"},{"name":"data","type":"bytes","internalType":"bytes"}],"outputs":[],"stateMutability":"payable"},{"type":"function","name":"renounceVetoer","inputs":[],"outputs":[],"stateMutability":"nonpayable"},{"type":"function","name":"setCommentWeighting","inputs":[{"name":"_commentWeighting","type":"uint256","internalType":"uint256"}],"outputs":[],"stateMutability":"nonpayable"},{"type":"function","name":"setLateQuorumVoteExtension","inputs":[{"name":"newVoteExtension","type":"uint64","internalType":"uint64"}],"outputs":[],"stateMutability":"nonpayable"},{"type":"function","name":"setProposalNumerator","inputs":[{"name":"numerator","type":"uint256","internalType":"uint256"}],"outputs":[],"stateMutability":"nonpayable"},{"type":"function","name":"setTeam","inputs":[{"name":"_pendingTeam","type":"address","internalType":"address"}],"outputs":[],"stateMutability":"nonpayable"},{"type":"function","name":"setVetoer","inputs":[{"name":"_vetoer","type":"address","internalType":"address"}],"outputs":[],"stateMutability":"nonpayable"},{"type":"function","name":"state","inputs":[{"name":"proposalId","type":"uint256","internalType":"uint256"}],"outputs":[{"name":"","type":"uint8","internalType":"enum IVetoGovernor.ProposalState"}],"stateMutability":"view"},{"type":"function","name":"supportsInterface","inputs":[{"name":"interfaceId","type":"bytes4","internalType":"bytes4"}],"outputs":[{"name":"","type":"bool","internalType":"bool"}],"stateMutability":"view"},{"type":"function","name":"team","inputs":[],"outputs":[{"name":"","type":"address","internalType":"address"}],"stateMutability":"view"},{"type":"function","name":"token","inputs":[],"outputs":[{"name":"","type":"address","internalType":"contract IVotes"}],"stateMutability":"view"},{"type":"function","name":"updateQuorumNumerator","inputs":[{"name":"newQuorumNumerator","type":"uint256","internalType":"uint256"}],"outputs":[],"stateMutability":"nonpayable"},{"type":"function","name":"ve","inputs":[],"outputs":[{"name":"","type":"address","internalType":"contract IVotingEscrow"}],"stateMutability":"view"},{"type":"function","name":"version","inputs":[],"outputs":[{"name":"","type":"string","internalType":"string"}],"stateMutability":"view"},{"type":"function","name":"veto","inputs":[{"name":"_proposalId","type":"uint256","internalType":"uint256"}],"outputs":[],"stateMutability":"nonpayable"},{"type":"function","name":"vetoer","inputs":[],"outputs":[{"name":"","type":"address","internalType":"address"}],"stateMutability":"view"},{"type":"function","name":"voter","inputs":[],"outputs":[{"name":"","type":"address","internalType":"contract IVoter"}],"stateMutability":"view"},{"type":"function","name":"votingDelay","inputs":[],"outputs":[{"name":"","type":"uint256","internalType":"uint256"}],"stateMutability":"pure"},{"type":"function","name":"votingPeriod","inputs":[],"outputs":[{"name":"","type":"uint256","internalType":"uint256"}],"stateMutability":"pure"},{"type":"event","name":"AcceptTeam","inputs":[{"name":"newTeam","type":"address","indexed":true,"internalType":"address"}],"anonymous":false},{"type":"event","name":"AcceptVetoer","inputs":[{"name":"vetoer","type":"address","indexed":true,"internalType":"address"}],"anonymous":false},{"type":"event","name":"Comment","inputs":[{"name":"proposalId","type":"uint256","indexed":true,"internalType":"uint256"},{"name":"account","type":"address","indexed":true,"internalType":"address"},{"name":"tokenId","type":"uint256","indexed":true,"internalType":"uint256"},{"name":"comment","type":"string","indexed":false,"internalType":"string"}],"anonymous":false},{"type":"event","name":"EIP712DomainChanged","inputs":[],"anonymous":false},{"type":"event","name":"LateQuorumVoteExtensionSet","inputs":[{"name":"oldVoteExtension","type":"uint64","indexed":false,"internalType":"uint64"},{"name":"newVoteExtension","type":"uint64","indexed":false,"internalType":"uint64"}],"anonymous":false},{"type":"event","name":"ProposalCanceled","inputs":[{"name":"proposalId","type":"uint256","indexed":false,"internalType":"uint256"}],"anonymous":false},{"type":"event","name":"ProposalCreated","inputs":[{"name":"proposalId","type":"uint256","indexed":false,"internalType":"uint256"},{"name":"proposer","type":"address","indexed":false,"internalType":"address"},{"name":"targets","type":"address[]","indexed":false,"internalType":"address[]"},{"name":"values","type":"uint256[]","indexed":false,"internalType":"uint256[]"},{"name":"signatures","type":"string[]","indexed":false,"internalType":"string[]"},{"name":"calldatas","type":"bytes[]","indexed":false,"internalType":"bytes[]"},{"name":"voteStart","type":"uint256","indexed":false,"internalType":"uint256"},{"name":"voteEnd","type":"uint256","indexed":false,"internalType":"uint256"},{"name":"description","type":"string","indexed":false,"internalType":"string"}],"anonymous":false},{"type":"event","name":"ProposalExecuted","inputs":[{"name":"proposalId","type":"uint256","indexed":false,"internalType":"uint256"}],"anonymous":false},{"type":"event","name":"ProposalExtended","inputs":[{"name":"proposalId","type":"uint256","indexed":true,"internalType":"uint256"},{"name":"extendedDeadline","type":"uint64","indexed":false,"internalType":"uint64"}],"anonymous":false},{"type":"event","name":"ProposalVetoed","inputs":[{"name":"proposalId","type":"uint256","indexed":false,"internalType":"uint256"}],"anonymous":false},{"type":"event","name":"QuorumNumeratorUpdated","inputs":[{"name":"oldQuorumNumerator","type":"uint256","indexed":false,"internalType":"uint256"},{"name":"newQuorumNumerator","type":"uint256","indexed":false,"internalType":"uint256"}],"anonymous":false},{"type":"event","name":"RenounceVetoer","inputs":[],"anonymous":false},{"type":"event","name":"SetCommentWeighting","inputs":[{"name":"commentWeighting","type":"uint256","indexed":false,"internalType":"uint256"}],"anonymous":false},{"type":"event","name":"SetProposalNumerator","inputs":[{"name":"proposalNumerator","type":"uint256","indexed":true,"internalType":"uint256"}],"anonymous":false},{"type":"event","name":"VoteCast","inputs":[{"name":"voter","type":"address","indexed":true,"internalType":"address"},{"name":"tokenId","type":"uint256","indexed":true,"internalType":"uint256"},{"name":"proposalId","type":"uint256","indexed":false,"internalType":"uint256"},{"name":"support","type":"uint8","indexed":false,"internalType":"uint8"},{"name":"weight","type":"uint256","indexed":false,"internalType":"uint256"},{"name":"reason","type":"string","indexed":false,"internalType":"string"}],"anonymous":false},{"type":"event","name":"VoteCastWithParams","inputs":[{"name":"voter","type":"address","indexed":true,"internalType":"address"},{"name":"tokenId","type":"uint256","indexed":true,"internalType":"uint256"},{"name":"proposalId","type":"uint256","indexed":false,"internalType":"uint256"},{"name":"support","type":"uint8","indexed":false,"internalType":"uint8"},{"name":"weight","type":"uint256","indexed":false,"internalType":"uint256"},{"name":"reason","type":"string","indexed":false,"internalType":"string"},{"name":"params","type":"bytes","indexed":false,"internalType":"bytes"}],"anonymous":false},{"type":"error","name":"CommentWeightingTooHigh","inputs":[]},{"type":"error","name":"Empty","inputs":[]},{"type":"error","name":"NotGovernor","inputs":[]},{"type":"error","name":"NotPendingTeam","inputs":[]},{"type":"error","name":"NotPendingVetoer","inputs":[]},{"type":"error","name":"NotTeam","inputs":[]},{"type":"error","name":"NotVetoer","inputs":[]},{"type":"error","name":"ProposalNumeratorTooHigh","inputs":[]},{"type":"error","name":"StringTooLong","inputs":[{"name":"str","type":"string","internalType":"string"}]},{"type":"error","name":"ZeroAddress","inputs":[]}],"bytecode":{"object":"0x6101e0604052610fa060035560646010553480156200001d57600080fd5b506040516200658838038062006588833981016040819052620000409162000851565b6202a300601983604051806040016040528060128152602001712b32b637b23937b6b29023b7bb32b93737b960711b815250858162000084620001b560201b60201c565b62000091826000620001d0565b60e052620000a1816001620001d0565b61010052815160208084019190912061012052815190820120610140524660a052620001316101205161014051604080517f8b73c3c69bb8fe3d512ecc4cf759cc79239f7b179b0ffacaa9a75d522b39400f60208201529081019290925260608201524660808201523060a082015260009060c00160405160208183030381529060405280519060200120905090565b60805250503060c052600262000148838262000935565b506001600160a01b0390811661016052919091166101808190526101a05250620001728162000209565b506200017e816200038c565b50600e8054336001600160a01b03199182168117909255600c805490911690911790556001600160a01b03166101c0525062000ac2565b6040805180820190915260018152603160f81b602082015290565b6000602083511015620001f057620001e883620003f5565b905062000203565b81620001fd848262000935565b50600090505b92915050565b6064811115620002925760405162461bcd60e51b815260206004820152604360248201527f476f7665726e6f72566f74657351756f72756d4672616374696f6e3a2071756f60448201527f72756d4e756d657261746f72206f7665722071756f72756d44656e6f6d696e616064820152623a37b960e91b608482015260a4015b60405180910390fd5b60006200029e62000438565b90508015801590620002b05750600954155b156200031857604080518082019091526000815260099060208101620002d68462000467565b6001600160e01b0390811690915282546001810184556000938452602093849020835194909301519091166401000000000263ffffffff909316929092179101555b6200034d620003386200032a620004d6565b65ffffffffffff166200054d565b620003438462000467565b60099190620005b4565b505060408051828152602081018490527f0553476bf02ef2726e8ce5ced78d63e26e602e4a2257b1f559418e24b4633997910160405180910390a15050565b600a54604080516001600160401b03928316815291831660208301527f7ca4ac117ed3cdce75c1161d8207c440389b1a15d69d096831664657c07dafc2910160405180910390a1600a80546001600160401b0319166001600160401b0392909216919091179055565b600080829050601f8151111562000423578260405163305a27a960e01b815260040162000289919062000a01565b8051620004308262000a51565b179392505050565b600954600090156200045e57620004506009620005d1565b6001600160e01b0316905090565b6008545b905090565b60006001600160e01b03821115620004d25760405162461bcd60e51b815260206004820152602760248201527f53616665436173743a2076616c756520646f65736e27742066697420696e20326044820152663234206269747360c81b606482015260840162000289565b5090565b6000610180516001600160a01b03166391ddadf46040518163ffffffff1660e01b8152600401602060405180830381865afa92505050801562000538575060408051601f3d908101601f19168201909252620005359181019062000a76565b60015b620005485762000462436200061f565b919050565b600063ffffffff821115620004d25760405162461bcd60e51b815260206004820152602660248201527f53616665436173743a2076616c756520646f65736e27742066697420696e203360448201526532206269747360d01b606482015260840162000289565b600080620005c485858562000688565b915091505b935093915050565b805460009080156200061557620005fd83620005ef60018462000aa0565b600091825260209091200190565b5464010000000090046001600160e01b031662000618565b60005b9392505050565b600065ffffffffffff821115620004d25760405162461bcd60e51b815260206004820152602660248201527f53616665436173743a2076616c756520646f65736e27742066697420696e203460448201526538206269747360d01b606482015260840162000289565b825460009081908015620007dd576000620006aa87620005ef60018562000aa0565b60408051808201909152905463ffffffff8082168084526401000000009092046001600160e01b0316602084015291925090871610156200072e5760405162461bcd60e51b815260206004820152601b60248201527f436865636b706f696e743a2064656372656173696e67206b6579730000000000604482015260640162000289565b805163ffffffff8088169116036200077c57846200075388620005ef60018662000aa0565b80546001600160e01b03929092166401000000000263ffffffff909216919091179055620007cc565b6040805180820190915263ffffffff80881682526001600160e01b0380881660208085019182528b54600181018d5560008d81529190912094519151909216640100000000029216919091179101555b602001519250839150620005c99050565b50506040805180820190915263ffffffff80851682526001600160e01b0380851660208085019182528854600181018a5560008a815291822095519251909316640100000000029190931617920191909155905081620005c9565b6001600160a01b03811681146200084e57600080fd5b50565b600080604083850312156200086557600080fd5b8251620008728162000838565b6020840151909250620008858162000838565b809150509250929050565b634e487b7160e01b600052604160045260246000fd5b600181811c90821680620008bb57607f821691505b602082108103620008dc57634e487b7160e01b600052602260045260246000fd5b50919050565b601f8211156200093057600081815260208120601f850160051c810160208610156200090b5750805b601f850160051c820191505b818110156200092c5782815560010162000917565b5050505b505050565b81516001600160401b0381111562000951576200095162000890565b6200096981620009628454620008a6565b84620008e2565b602080601f831160018114620009a15760008415620009885750858301515b600019600386901b1c1916600185901b1785556200092c565b600085815260208120601f198616915b82811015620009d257888601518255948401946001909101908401620009b1565b5085821015620009f15787850151600019600388901b60f8161c191681555b5050505050600190811b01905550565b600060208083528351808285015260005b8181101562000a305785810183015185820160400152820162000a12565b506000604082860101526040601f19601f8301168501019250505092915050565b80516020808301519190811015620008dc5760001960209190910360031b1b16919050565b60006020828403121562000a8957600080fd5b815165ffffffffffff811681146200061857600080fd5b818103818111156200020357634e487b7160e01b600052601160045260246000fd5b60805160a05160c05160e05161010051610120516101405161016051610180516101a0516101c0516159cf62000bb96000396000818161069a01526116e301526000818161052101528181611c7401528181612600015281816127aa0152818161282e01528181612887015281816129c80152612a44015260008181610c56015281816117d301528181611bc701528181611dec015281816121990152818161271e015281816129300152612abe015260008181610b96015261130f0152600061405c0152600061403401526000611b7301526000611b4901526000613f8f01526000613fb901526000613fe301526159cf6000f3fe6080604052600436106103b15760003560e01c806367e2e078116101e7578063c01f9e371161010d578063dea112a6116100a0578063f8ce560a1161006f578063f8ce560a14610be4578063f945970a14610c04578063fa25f37714610c24578063fc0c546a14610c4457600080fd5b8063dea112a614610b30578063deaaa7cc14610b50578063e2fdcc1714610b84578063f23a6e6114610bb857600080fd5b8063d07f91e9116100dc578063d07f91e914610a8a578063d152a32e14610aaa578063d8bff44014610aca578063dd4e2ba514610aea57600080fd5b8063c01f9e3714610a17578063c28bc2fa14610a37578063c2e863e414610a4a578063cf781d4514610a6a57600080fd5b80639f8b339211610185578063b58131b011610154578063b58131b0146109a1578063b5cc143a146109b6578063bc197c81146109cb578063be443ad0146109f757600080fd5b80639f8b339214610936578063a67d06351461094c578063a7713a701461096c578063aedbfe331461098157600080fd5b806391ddadf4116101c157806391ddadf4146108c157806391f36633146108ed57806395b6d6bd1461090d57806397c3d3341461092257600080fd5b806367e2e0781461086357806384b0196e1461087957806385f2aef2146108a157600080fd5b80633932abb1116102d7578063544ffc9c1161026a57806360c4247f1161023957806360c4247f146107dc57806360e69a7b146107fc578063638663ac1461080f57806364390ff11461082457600080fd5b8063544ffc9c1461071d57806354fd4d5014610772578063592a84941461079c57806359d46ffc146107bc57600080fd5b806349758df2116102a657806349758df2146106bc5780634bf5d7e9146106dc578063501fa8bd146106f1578063525f9c3e1461070757600080fd5b80633932abb1146106255780633e4f49e61461063b578063452115d61461066857806346c96aac1461068857600080fd5b8063150b7a021161034f5780632d63f6931161031e5780632d63f693146105735780632fe3e261146105a957806332b8113e146105dd578063380a243a1461060557600080fd5b8063150b7a02146104b65780631d28dec7146104ef5780631f8507161461050f57806322b36ac61461055b57600080fd5b806306fdde031161038b57806306fdde0314610434578063095cf5c6146104565780630f8a88361461047657806311fd26f41461049657600080fd5b806301ffc9a7146103bf57806302a251a3146103f457806306f3f9e61461041457600080fd5b366103ba57005b005b600080fd5b3480156103cb57600080fd5b506103df6103da366004614842565b610c78565b60405190151581526020015b60405180910390f35b34801561040057600080fd5b50620697805b6040519081526020016103eb565b34801561042057600080fd5b506103b861042f36600461486c565b610ce5565b34801561044057600080fd5b50610449610d30565b6040516103eb91906148d5565b34801561046257600080fd5b506103b86104713660046148fd565b610dc2565b34801561048257600080fd5b50610406610491366004614b46565b610e36565b3480156104a257600080fd5b506104066104b1366004614c10565b6111d9565b3480156104c257600080fd5b506104d66104d1366004614c45565b611205565b6040516001600160e01b031990911681526020016103eb565b3480156104fb57600080fd5b506103b861050a36600461486c565b611216565b34801561051b57600080fd5b506105437f000000000000000000000000000000000000000000000000000000000000000081565b6040516001600160a01b0390911681526020016103eb565b34801561056757600080fd5b50610406633b9aca0081565b34801561057f57600080fd5b5061040661058e36600461486c565b6000908152600460205260409020546001600160401b031690565b3480156105b557600080fd5b506104067fb3b3f3b703cd84ce352197dcff232b1b5d3cfb2025ce47cf04742d0651f1af8881565b3480156105e957600080fd5b50600a546040516001600160401b0390911681526020016103eb565b34801561061157600080fd5b506103b8610620366004614cf8565b61124e565b34801561063157600080fd5b506202a300610406565b34801561064757600080fd5b5061065b61065636600461486c565b61145f565b6040516103eb9190614d60565b34801561067457600080fd5b50610406610683366004614d88565b6115ad565b34801561069457600080fd5b506105437f000000000000000000000000000000000000000000000000000000000000000081565b3480156106c857600080fd5b506103b86106d736600461486c565b6116bc565b3480156106e857600080fd5b506104496117cf565b3480156106fd57600080fd5b506104066101f481565b34801561071357600080fd5b5061040660035481565b34801561072957600080fd5b5061075761073836600461486c565b6000908152600760205260409020805460018201546002909201549092565b604080519384526020840192909252908201526060016103eb565b34801561077e57600080fd5b506040805180820190915260018152603160f81b6020820152610449565b3480156107a857600080fd5b506103b86107b736600461486c565b611891565b3480156107c857600080fd5b50600d54610543906001600160a01b031681565b3480156107e857600080fd5b506104066107f736600461486c565b611912565b61040661080a366004614e17565b6119c3565b34801561081b57600080fd5b506103b8611ad5565b34801561083057600080fd5b506103df61083f366004614ebd565b60009182526007602090815260408084209284526003909201905290205460ff1690565b34801561086f57600080fd5b5061040661271081565b34801561088557600080fd5b5061088e611b3b565b6040516103eb9796959493929190614f1a565b3480156108ad57600080fd5b50600c54610543906001600160a01b031681565b3480156108cd57600080fd5b506108d6611bc3565b60405165ffffffffffff90911681526020016103eb565b3480156108f957600080fd5b50610406610908366004614ebd565b611c51565b34801561091957600080fd5b506103b8611cfc565b34801561092e57600080fd5b506064610406565b34801561094257600080fd5b5061040660105481565b34801561095857600080fd5b50600f54610543906001600160a01b031681565b34801561097857600080fd5b50610406611d7b565b34801561098d57600080fd5b5061040661099c366004614e17565b611da5565b3480156109ad57600080fd5b50610406611de2565b3480156109c257600080fd5b506103b8611e99565b3480156109d757600080fd5b506104d66109e6366004614f8a565b63bc197c8160e01b95945050505050565b348015610a0357600080fd5b50610406610a1236600461503b565b611f18565b348015610a2357600080fd5b50610406610a3236600461486c565b611f6f565b6103b8610a453660046150c6565b611f7a565b348015610a5657600080fd5b50610406610a65366004615109565b612041565b348015610a7657600080fd5b50610406610a85366004615170565b61208a565b348015610a9657600080fd5b506103b8610aa53660046151ba565b6120a1565b348015610ab657600080fd5b506103b8610ac53660046148fd565b6120e0565b348015610ad657600080fd5b50600e54610543906001600160a01b031681565b348015610af657600080fd5b506040805180820190915260208082527f737570706f72743d627261766f2671756f72756d3d666f722c6162737461696e90820152610449565b348015610b3c57600080fd5b50610406610b4b3660046151e3565b612154565b348015610b5c57600080fd5b506104067f150214d74d59b7d1e90c73fc22ef3d991dd0a76b046543d4d80ab92d2a50328f81565b348015610b9057600080fd5b506105437f000000000000000000000000000000000000000000000000000000000000000081565b348015610bc457600080fd5b506104d6610bd3366004615218565b63f23a6e6160e01b95945050505050565b348015610bf057600080fd5b50610406610bff36600461486c565b612176565b348015610c1057600080fd5b50610406610c1f366004615280565b612220565b348015610c3057600080fd5b50610406610c3f366004615330565b61231a565b348015610c5057600080fd5b506105437f000000000000000000000000000000000000000000000000000000000000000081565b60006001600160e01b031982166367276c3760e01b1480610ca957506001600160e01b03198216631debdb9560e31b145b80610cc457506001600160e01b03198216630271189760e51b145b80610cdf57506301ffc9a760e01b6001600160e01b03198316145b92915050565b333014610d0d5760405162461bcd60e51b8152600401610d0490615388565b60405180910390fd5b610d24565b80610d1d6005612386565b03610d1257505b610d2d81612405565b50565b606060028054610d3f906153cf565b80601f0160208091040260200160405190810160405280929190818152602001828054610d6b906153cf565b8015610db85780601f10610d8d57610100808354040283529160200191610db8565b820191906000526020600020905b815481529060010190602001808311610d9b57829003601f168201915b5050505050905090565b6001600160a01b038116610de95760405163d92e233d60e01b815260040160405180910390fd5b600c546001600160a01b03163314610e1457604051633a7cfa5d60e21b815260040160405180910390fd5b600d80546001600160a01b0319166001600160a01b0392909216919091179055565b60003381610e42611bc3565b65ffffffffffff169050610e54611de2565b610e64838a6104b160018661541f565b1015610ecc5760405162461bcd60e51b815260206004820152603160248201527f476f7665726e6f723a2070726f706f73657220766f7465732062656c6f7720706044820152701c9bdc1bdcd85b081d1a1c995cda1bdb19607a1b6064820152608401610d04565b6000610ee2888888888051906020012087611da5565b90508651885114610f055760405162461bcd60e51b8152600401610d0490615432565b8551885114610f265760405162461bcd60e51b8152600401610d0490615432565b6000885111610f775760405162461bcd60e51b815260206004820152601860248201527f476f7665726e6f723a20656d7074792070726f706f73616c00000000000000006044820152606401610d04565b600081815260046020526040902054600160401b90046001600160a01b031615610fed5760405162461bcd60e51b815260206004820152602160248201527f476f7665726e6f723a2070726f706f73616c20616c72656164792065786973746044820152607360f81b6064820152608401610d04565b6000610ffc6202a30084615473565b9050600061100d6206978083615473565b905060405180610100016040528061102484612573565b6001600160401b031681526001600160a01b03871660208201526000604082015260600161105183612573565b6001600160401b0390811682526000602080840182905260408085018390526060808601849052608095860184905289845260048352928190208651815493880151888401519187166001600160e01b031990951694909417600160401b6001600160a01b039095168502176001600160e01b0316600160e01b60e092831c0217825593870151958701519585169590911c90910293909317600184015560a08401516002909301805460c0860151929095015161ffff1990951693151561ff00191693909317610100911515919091021762ff0000191662010000931515939093029290921790558a517f7d84a6263ae0d98d3329bd7b46bb4e8d6f98cd35a7adb45c274c8b7fd5ebd5e091859188918e918e918111156111755761117561491a565b6040519080825280602002602001820160405280156111a857816020015b60608152602001906001900390816111935790505b508d88888f6040516111c299989796959493929190615514565b60405180910390a150909998505050505050505050565b60006111fb8484846111f660408051602081019091526000815290565b6125df565b90505b9392505050565b630a85bd0160e11b5b949350505050565b600e546001600160a01b0316331461124157604051636184ba1160e01b815260040160405180910390fd5b61124a81612b36565b5050565b60008481526004602052604081206060916112688761145f565b9050600181600881111561127e5761127e614d4a565b148061129b5750600081600881111561129957611299614d4a565b145b6112e75760405162461bcd60e51b815260206004820152601f60248201527f476f7665726e6f723a206e6f7420616374697665206f722070656e64696e67006044820152606401610d04565b81546001600160401b0316336000611301828a85896125df565b90506000633b9aca006003547f00000000000000000000000000000000000000000000000000000000000000006001600160a01b0316638e539e8c876040518263ffffffff1660e01b815260040161135b91815260200190565b602060405180830381865afa158015611378573d6000803e3d6000fd5b505050506040513d601f19601f8201168201806040525081019061139c91906155eb565b6113a69190615604565b6113b09190615631565b905080821161140d5760405162461bcd60e51b815260206004820152602360248201527f476f7665726e6f723a20696e73756666696369656e7420766f74696e6720706f6044820152623bb2b960e91b6064820152608401610d04565b89836001600160a01b03168c7fdb700dee4c69422ecdfd4ad68ffe25aa39c6ddffef4657f727571e095b642cc58c8c60405161144a929190615645565b60405180910390a45050505050505050505050565b6000818152600460205260408120600281015460ff16156114835750600792915050565b6002810154610100900460ff161561149e5750600292915050565b600281015462010000900460ff16156114ba5750600892915050565b6000838152600460205260408120546001600160401b0316908190036115225760405162461bcd60e51b815260206004820152601d60248201527f476f7665726e6f723a20756e6b6e6f776e2070726f706f73616c2069640000006044820152606401610d04565b600061152c611bc3565b65ffffffffffff16905080821061154857506000949350505050565b600061155386611f6f565b90508181106115685750600195945050505050565b61157186612c61565b8015611590575060008681526007602052604090208054600190910154115b156115a15750600495945050505050565b50600395945050505050565b600033816115be8787878786611da5565b905060006115cb8261145f565b60088111156115dc576115dc614d4a565b146116295760405162461bcd60e51b815260206004820152601c60248201527f476f7665726e6f723a20746f6f206c61746520746f2063616e63656c000000006044820152606401610d04565b6000818152600460205260409020546001600160a01b03838116600160401b90920416146116a45760405162461bcd60e51b815260206004820152602260248201527f476f7665726e6f723a206f6e6c792070726f706f7365722063616e2063616e63604482015261195b60f21b6064820152608401610d04565b6116b18787878786612cad565b979650505050505050565b633b9aca008111156116e157604051634fa0e5e360e01b815260040160405180910390fd5b7f00000000000000000000000000000000000000000000000000000000000000006001600160a01b0316630c340a246040518163ffffffff1660e01b8152600401602060405180830381865afa15801561173f573d6000803e3d6000fd5b505050506040513d601f19601f820116820180604052508101906117639190615674565b6001600160a01b0316336001600160a01b03161461179457604051633b8d9d7560e21b815260040160405180910390fd5b60038190556040518181527f5abd4079db52a376d0f48814132d5f1f10624699a317971509682d7ec6db0a4f9060200160405180910390a150565b60607f00000000000000000000000000000000000000000000000000000000000000006001600160a01b0316634bf5d7e96040518163ffffffff1660e01b8152600401600060405180830381865afa92505050801561185057506040513d6000823e601f3d908101601f1916820160405261184d9190810190615691565b60015b61188c575060408051808201909152601d81527f6d6f64653d626c6f636b6e756d6265722666726f6d3d64656661756c74000000602082015290565b919050565b600c546001600160a01b031633146118bc57604051633a7cfa5d60e21b815260040160405180910390fd5b6101f48111156118df576040516314263b7360e11b815260040160405180910390fd5b601081905560405181907f586fc658003980a786f5709cd2ad386034e0424082c948c863d3116f8f66566990600090a250565b600954600090808203611929575050600854919050565b6000600961193860018461541f565b81548110611948576119486156fe565b60009182526020918290206040805180820190915291015463ffffffff8116808352600160201b9091046001600160e01b0316928201929092529150841061199e57602001516001600160e01b03169392505050565b6119b26119aa85612deb565b600990612e50565b6001600160e01b0316949350505050565b6000806119d38787878787611da5565b905060006119e08261145f565b905060048160088111156119f6576119f6614d4a565b14611a4d5760405162461bcd60e51b815260206004820152602160248201527f476f7665726e6f723a2070726f706f73616c206e6f74207375636365737366756044820152601b60fa1b6064820152608401610d04565b60008281526004602052604090819020600201805460ff19166001179055517f712ae1383f79ac853f8d882153778e0260ef8f03b504e2866e0593e04d2b291f90611a9b9084815260200190565b60405180910390a1611ab08289898989612f03565b611abd8289898989612f8d565b611aca8289898989612f03565b509695505050505050565b600e546001600160a01b03163314611b0057604051636184ba1160e01b815260040160405180910390fd5b600e80546001600160a01b03191690556040517f62acb1bd035e6b0070db32c18d981d7ef3d5921d59efd75de499c7632df8dd7990600090a1565b600060608082808083611b6e7f00000000000000000000000000000000000000000000000000000000000000008361308f565b611b997f0000000000000000000000000000000000000000000000000000000000000000600161308f565b60408051600080825260208201909252600f60f81b9b939a50919850469750309650945092509050565b60007f00000000000000000000000000000000000000000000000000000000000000006001600160a01b03166391ddadf46040518163ffffffff1660e01b8152600401602060405180830381865afa925050508015611c3f575060408051601f3d908101601f19168201909252611c3c91810190615714565b60015b61188c57611c4c4361313b565b905090565b6040516331a9108f60e11b81526004810183905260009081906001600160a01b037f00000000000000000000000000000000000000000000000000000000000000001690636352211e90602401602060405180830381865afa158015611cbb573d6000803e3d6000fd5b505050506040513d601f19601f82011682018060405250810190611cdf9190615674565b905061120e818585604051806020016040528060008152506125df565b600f546001600160a01b03163314611d275760405163f37fda0760e01b815260040160405180910390fd5b600f8054600e80546001600160a01b0383166001600160a01b031991821681179092559091169091556040517f03ae59c1e4263c9049c7aab44b77283fa0484d5d0f714e102cd9857f8fc5274d90600090a2565b60095460009015611d9e57611d9060096131a2565b6001600160e01b0316905090565b5060085490565b60008585858585604051602001611dc095949392919061573c565b60408051601f1981840301815291905280516020909101209695505050505050565b60006127106010547f00000000000000000000000000000000000000000000000000000000000000006001600160a01b0316638e539e8c600142611e26919061541f565b6040518263ffffffff1660e01b8152600401611e4491815260200190565b602060405180830381865afa158015611e61573d6000803e3d6000fd5b505050506040513d601f19601f82011682018060405250810190611e8591906155eb565b611e8f9190615604565b611c4c9190615631565b600d546001600160a01b03163314611ec45760405163071110c760e51b815260040160405180910390fd5b600d8054600c80546001600160a01b0383166001600160a01b031991821681179092559091169091556040517fe25466fe8250322bee73bc230e10775fe0da57be723ebdabfdc8b62b4ba0d10c90600090a2565b600080339050611f638882898989898080601f0160208091040260200160405190810160405280939291908181526020018383808284376000920191909152508b92506131db915050565b98975050505050505050565b6000610cdf826131eb565b333014611f995760405162461bcd60e51b8152600401610d0490615388565b611fb0565b80611fa96005612386565b03611f9e57505b600080856001600160a01b0316858585604051611fce9291906153bf565b60006040518083038185875af1925050503d806000811461200b576040519150601f19603f3d011682016040523d82523d6000602084013e612010565b606091505b5091509150612038828260405180606001604052806028815260200161594b60289139613227565b50505050505050565b6000803390506116b18782888888888080601f01602080910402602001604051908101604052809392919081815260200183838082843760009201919091525061324092505050565b6000612098858585856125df565b95945050505050565b3330146120c05760405162461bcd60e51b8152600401610d0490615388565b6120d7565b806120d06005612386565b036120c557505b610d2d8161326e565b600e546001600160a01b0316331461210b57604051636184ba1160e01b815260040160405180910390fd5b6001600160a01b0381166121325760405163d92e233d60e01b815260040160405180910390fd5b600f80546001600160a01b0319166001600160a01b0392909216919091179055565b6000803390506120988582868660405180602001604052806000815250613240565b6000606461218383611912565b604051632394e7a360e21b8152600481018590527f00000000000000000000000000000000000000000000000000000000000000006001600160a01b031690638e539e8c90602401602060405180830381865afa1580156121e8573d6000803e3d6000fd5b505050506040513d601f19601f8201168201806040525081019061220c91906155eb565b6122169190615604565b610cdf9190615631565b6000806122c46122bc7fb3b3f3b703cd84ce352197dcff232b1b5d3cfb2025ce47cf04742d0651f1af888d8c8c8c60405161225c9291906153bf565b60405180910390208b805190602001206040516020016122a1959493929190948552602085019390935260ff9190911660408401526060830152608082015260a00190565b604051602081830303815290604052805190602001206132d8565b868686613305565b905061230b8b828c8c8c8c8080601f0160208091040260200160405190810160405280939291908181526020018383808284376000920191909152508e92506131db915050565b9b9a5050505050505050505050565b604080517f150214d74d59b7d1e90c73fc22ef3d991dd0a76b046543d4d80ab92d2a50328f602082015290810187905260ff851660608201526000908190612368906122bc906080016122a1565b9050611f638882898960405180602001604052806000815250613240565b60006123a18254600f81810b600160801b909204900b131590565b156123bf57604051631ed9509560e11b815260040160405180910390fd5b508054600f0b6000818152600180840160205260408220805492905583546fffffffffffffffffffffffffffffffff191692016001600160801b03169190911790915590565b60648111156124885760405162461bcd60e51b815260206004820152604360248201527f476f7665726e6f72566f74657351756f72756d4672616374696f6e3a2071756f60448201527f72756d4e756d657261746f72206f7665722071756f72756d44656e6f6d696e616064820152623a37b960e91b608482015260a401610d04565b6000612492611d7b565b905080158015906124a35750600954155b15612507576040805180820190915260008152600990602081016124c68461332d565b6001600160e01b039081169091528254600181018455600093845260209384902083519490930151909116600160201b0263ffffffff909316929092179101555b612534612522612515611bc3565b65ffffffffffff16612deb565b61252b8461332d565b60099190613396565b505060408051828152602081018490527f0553476bf02ef2726e8ce5ced78d63e26e602e4a2257b1f559418e24b4633997910160405180910390a15050565b60006001600160401b038211156125db5760405162461bcd60e51b815260206004820152602660248201527f53616665436173743a2076616c756520646f65736e27742066697420696e203660448201526534206269747360d01b6064820152608401610d04565b5090565b60405161f8e560ef1b81526004810184905260009081906001600160a01b037f00000000000000000000000000000000000000000000000000000000000000001690637c72800090602401602060405180830381865afa158015612647573d6000803e3d6000fd5b505050506040513d601f19601f8201168201806040525081019061266b9190615798565b9050600281600281111561268157612681614d4a565b036126d85760405162461bcd60e51b815260206004820152602160248201527f476f7665726e6f723a206d616e61676564206e66742063616e6e6f7420766f746044820152606560f81b6064820152608401610d04565b60008160028111156126ec576126ec614d4a565b0361279157604051634d6fb77560e01b81526001600160a01b03878116600483015260248201879052604482018690527f00000000000000000000000000000000000000000000000000000000000000001690634d6fb77590606401602060405180830381865afa158015612765573d6000803e3d6000fd5b505050506040513d601f19601f8201168201806040525081019061278991906155eb565b91505061120e565b6040516319a0a9d560e01b8152600481018690526000907f00000000000000000000000000000000000000000000000000000000000000006001600160a01b0316906319a0a9d590602401602060405180830381865afa1580156127f9573d6000803e3d6000fd5b505050506040513d601f19601f8201168201806040525081019061281d91906155eb565b905060006128556001600160a01b037f00000000000000000000000000000000000000000000000000000000000000001683886133b1565b604051631e09967560e31b81526004810184905265ffffffffffff821660248201529091506000906001600160a01b037f0000000000000000000000000000000000000000000000000000000000000000169063f04cb3a890604401608060405180830381865afa1580156128ce573d6000803e3d6000fd5b505050506040513d601f19601f820116820180604052508101906128f291906157b9565b60600151905080600003612a9157604051634d6fb77560e01b81526001600160a01b038a81166004830152602482018a9052604482018990526000917f000000000000000000000000000000000000000000000000000000000000000090911690634d6fb77590606401602060405180830381865afa158015612979573d6000803e3d6000fd5b505050506040513d601f19601f8201168201806040525081019061299d91906155eb565b60405163145615f560e21b8152600481018b9052602481018690529091506000906001600160a01b037f0000000000000000000000000000000000000000000000000000000000000000169063515857d490604401602060405180830381865afa158015612a0f573d6000803e3d6000fd5b505050506040513d601f19601f82011682018060405250810190612a3391906155eb565b90506000612a6c6001600160a01b037f000000000000000000000000000000000000000000000000000000000000000016878d8d6136a2565b905082612a798284615473565b612a839190615473565b97505050505050505061120e565b604051634d6fb77560e01b81526001600160a01b038a81166004830152602482018a9052604482018990527f00000000000000000000000000000000000000000000000000000000000000001690634d6fb77590606401602060405180830381865afa158015612b05573d6000803e3d6000fd5b505050506040513d601f19601f82011682018060405250810190612b2991906155eb565b9998505050505050505050565b600080612b428361145f565b90506008816008811115612b5857612b58614d4a565b14158015612b7857506002816008811115612b7557612b75614d4a565b14155b8015612b9657506005816008811115612b9357612b93614d4a565b14155b8015612bb457506007816008811115612bb157612bb1614d4a565b14155b612c005760405162461bcd60e51b815260206004820152601d60248201527f476f7665726e6f723a2070726f706f73616c206e6f74206163746976650000006044820152606401610d04565b60008381526004602052604090819020600201805462ff0000191662010000179055517fde0cea2a3a0097cc3d981d40c375407760e85bc9c5e69aea449ac3885f8615c690612c529085815260200190565b60405180910390a15090919050565b600081815260076020526040812060028101546001820154612c839190615473565b600084815260046020526040902054612ca4906001600160401b0316612176565b11159392505050565b600080612cbd8787878787611da5565b90506000612cca8261145f565b90506008816008811115612ce057612ce0614d4a565b14158015612d0057506002816008811115612cfd57612cfd614d4a565b14155b8015612d1e57506005816008811115612d1b57612d1b614d4a565b14155b8015612d3c57506007816008811115612d3957612d39614d4a565b14155b612d885760405162461bcd60e51b815260206004820152601d60248201527f476f7665726e6f723a2070726f706f73616c206e6f74206163746976650000006044820152606401610d04565b60008281526004602052604090819020600201805461ff001916610100179055517f789cf55be980739dad1d0699b93b58e806b51c9d96619bfa8fe0a28abaa7b30c90612dd89084815260200190565b60405180910390a1509695505050505050565b600063ffffffff8211156125db5760405162461bcd60e51b815260206004820152602660248201527f53616665436173743a2076616c756520646f65736e27742066697420696e203360448201526532206269747360d01b6064820152608401610d04565b815460009081816005811115612ead576000612e6b84613c89565b612e75908561541f565b60008881526020902090915081015463ffffffff9081169087161015612e9d57809150612eab565b612ea8816001615473565b92505b505b6000612ebb87878585613d71565b90508015612ef657612ee087612ed260018461541f565b600091825260209091200190565b54600160201b90046001600160e01b03166116b1565b6000979650505050505050565b612f86565b8181101561203857306001600160a01b0316868281518110612f2c57612f2c6156fe565b60200260200101516001600160a01b031603612f7657612f76848281518110612f5757612f576156fe565b6020026020010151805190602001206005613dcf90919063ffffffff16565b612f7f81615824565b9050612f08565b5050505050565b600060405180606001604052806027815260200161597360279139855190915060005b8181101561308557600080888381518110612fcd57612fcd6156fe565b60200260200101516001600160a01b0316888481518110612ff057612ff06156fe565b602002602001015188858151811061300a5761300a6156fe565b602002602001015160405161301f919061583d565b60006040518083038185875af1925050503d806000811461305c576040519150601f19603f3d011682016040523d82523d6000602084013e613061565b606091505b5091509150613071828287613227565b5050508061307e90615824565b9050612fb0565b5050505050505050565b606060ff8316156130aa576130a383613e0b565b9050610cdf565b8180546130b6906153cf565b80601f01602080910402602001604051908101604052809291908181526020018280546130e2906153cf565b801561312f5780601f106131045761010080835404028352916020019161312f565b820191906000526020600020905b81548152906001019060200180831161311257829003601f168201915b50505050509050610cdf565b600065ffffffffffff8211156125db5760405162461bcd60e51b815260206004820152602660248201527f53616665436173743a2076616c756520646f65736e27742066697420696e203460448201526538206269747360d01b6064820152608401610d04565b805460009080156131d2576131bc83612ed260018461541f565b54600160201b90046001600160e01b03166111fe565b60009392505050565b60006116b1878787878787613e40565b600081815260046020526040812060010154610cdf906001600160401b03166000848152600b60205260409020546001600160401b0316613f42565b606083156132365750816111fe565b6111fe8383613f58565b6000613264868686868661325f60408051602081019091526000815290565b6131db565b9695505050505050565b600a54604080516001600160401b03928316815291831660208301527f7ca4ac117ed3cdce75c1161d8207c440389b1a15d69d096831664657c07dafc2910160405180910390a1600a805467ffffffffffffffff19166001600160401b0392909216919091179055565b6000610cdf6132e5613f82565b8360405161190160f01b8152600281019290925260228201526042902090565b6000806000613316878787876140ad565b9150915061332381614171565b5095945050505050565b60006001600160e01b038211156125db5760405162461bcd60e51b815260206004820152602760248201527f53616665436173743a2076616c756520646f65736e27742066697420696e20326044820152663234206269747360c81b6064820152608401610d04565b6000806133a48585856142bb565b915091505b935093915050565b604051635058979360e01b81526004810183905260009081906001600160a01b03861690635058979390602401602060405180830381865afa1580156133fb573d6000803e3d6000fd5b505050506040513d601f19601f8201168201806040525081019061341f9190615714565b90508065ffffffffffff1660000361343b5760009150506111fe565b826001600160a01b03861663f04cb3a886613457600186615859565b6040516001600160e01b031960e085901b168152600481019290925265ffffffffffff166024820152604401608060405180830381865afa1580156134a0573d6000803e3d6000fd5b505050506040513d601f19601f820116820180604052508101906134c491906157b9565b51116134dd576134d5600182615859565b9150506111fe565b604051631e09967560e31b8152600481018590526000602482015283906001600160a01b0387169063f04cb3a890604401608060405180830381865afa15801561352b573d6000803e3d6000fd5b505050506040513d601f19601f8201168201806040525081019061354f91906157b9565b5111156135605760009150506111fe565b60008061356e600184615859565b90506135a460405180608001604052806000815260200160006001600160a01b0316815260200160008152602001600081525090565b8265ffffffffffff168265ffffffffffff16111561369657600060026135ca8585615859565b6135d4919061587f565b6135de9084615859565b604051631e09967560e31b8152600481018a905265ffffffffffff821660248201529091506001600160a01b038a169063f04cb3a890604401608060405180830381865afa158015613634573d6000803e3d6000fd5b505050506040513d601f19601f8201168201806040525081019061365891906157b9565b9150868260000151036136715794506111fe9350505050565b815187111561368257809350613690565b61368d600182615859565b92505b506135a4565b50909695505050505050565b60405163539c6d4160e11b81526004810184905260009081906001600160a01b0387169063a738da8290602401602060405180830381865afa1580156136ec573d6000803e3d6000fd5b505050506040513d601f19601f820116820180604052508101906137109190615674565b604051635058979360e01b8152600481018690529091506001600160a01b03821690635058979390602401602060405180830381865afa158015613758573d6000803e3d6000fd5b505050506040513d601f19601f8201168201806040525081019061377c91906155eb565b60000361378d57600091505061120e565b6000866001600160a01b031663fc0c546a6040518163ffffffff1660e01b8152600401602060405180830381865afa1580156137cd573d6000803e3d6000fd5b505050506040513d601f19601f820116820180604052508101906137f19190615674565b60405163f25e55a560e01b81526001600160a01b03808316600483015260248201889052919250600091600191839161387d919087169063f25e55a590604401602060405180830381865afa15801561384e573d6000803e3d6000fd5b505050506040513d601f19601f8201168201806040525081019061387291906155eb565b62093a808106900390565b6040516328a3532760e21b8152600481018a9052602481018290529091506000906001600160a01b0387169063a28d4c9c90604401602060405180830381865afa1580156138cf573d6000803e3d6000fd5b505050506040513d601f19601f820116820180604052508101906138f391906155eb565b604051631277308160e21b8152600481018b90526024810182905290915060009081906001600160a01b038916906349dcc204906044016040805180830381865afa158015613946573d6000803e3d6000fd5b505050506040513d601f19601f8201168201806040525081019061396a91906158a4565b90925090506139808462093a8084068403613f42565b9350600062093a8061399886828e068e03830161541f565b6139a29190615631565b905060008115613c765760005b82811015613c74576001600160a01b038b1663a28d4c9c8f60016139d662093a808c615473565b6139e0919061541f565b6040516001600160e01b031960e085901b16815260048101929092526024820152604401602060405180830381865afa158015613a21573d6000803e3d6000fd5b505050506040513d601f19601f82011682018060405250810190613a4591906155eb565b95508a6001600160a01b03166349dcc2048f886040518363ffffffff1660e01b8152600401613a7e929190918252602082015260400190565b6040805180830381865afa158015613a9a573d6000803e3d6000fd5b505050506040513d601f19601f82011682018060405250810190613abe91906158a4565b90955093506001600160a01b038b1663f7412baf816376f4be366001613ae762093a808d615473565b613af1919061541f565b6040518263ffffffff1660e01b8152600401613b0f91815260200190565b602060405180830381865afa158015613b2c573d6000803e3d6000fd5b505050506040513d601f19601f82011682018060405250810190613b5091906155eb565b6040518263ffffffff1660e01b8152600401613b6e91815260200190565b6040805180830381865afa158015613b8a573d6000803e3d6000fd5b505050506040513d601f19601f82011682018060405250810190613bae91906158a4565b9250613bbd9050826001613f42565b6040516392777b2960e01b81526001600160a01b038c81166004830152602482018a905291995089918d16906392777b2990604401602060405180830381865afa158015613c0f573d6000803e3d6000fd5b505050506040513d601f19601f82011682018060405250810190613c3391906155eb565b613c3d9086615604565b613c479190615631565b613c51908a615473565b9850613c6062093a8088615473565b965080613c6c81615824565b9150506139af565b505b50959d9c50505050505050505050505050565b600081600003613c9b57506000919050565b60006001613ca88461445a565b901c6001901b90506001818481613cc157613cc161561b565b048201901c90506001818481613cd957613cd961561b565b048201901c90506001818481613cf157613cf161561b565b048201901c90506001818481613d0957613d0961561b565b048201901c90506001818481613d2157613d2161561b565b048201901c90506001818481613d3957613d3961561b565b048201901c90506001818481613d5157613d5161561b565b048201901c90506111fe81828581613d6b57613d6b61561b565b046144ee565b60005b81831015613dc7576000613d8884846144fd565b60008781526020902090915063ffffffff86169082015463ffffffff161115613db357809250613dc1565b613dbe816001615473565b93505b50613d74565b509392505050565b8154600160801b90819004600f0b6000818152600180860160205260409091209390935583546001600160801b03908116939091011602179055565b60408051602080825281830190925260609160ff84169160009180820181803683375050509182525060208101929092525090565b600080613e51888888888888614518565b6000898152600b60205260409020549091506001600160401b0316158015613e7d5750613e7d88612c61565b156116b1576000613e96600a546001600160401b031690565b613e9e611bc3565b65ffffffffffff16613eb091906158c8565b9050613ebb89611f6f565b816001600160401b03161115613f0a576040516001600160401b038216815289907f541f725fb9f7c98a30cc9c0ff32fbb14358cd7159c847a3aa20a2bdc442ba5119060200160405180910390a25b6000898152600b60205260409020805467ffffffffffffffff19166001600160401b0392909216919091179055979650505050505050565b6000818311613f5157816111fe565b5090919050565b815115613f685781518083602001fd5b8060405162461bcd60e51b8152600401610d0491906148d5565b6000306001600160a01b037f000000000000000000000000000000000000000000000000000000000000000016148015613fdb57507f000000000000000000000000000000000000000000000000000000000000000046145b1561400557507f000000000000000000000000000000000000000000000000000000000000000090565b611c4c604080517f8b73c3c69bb8fe3d512ecc4cf759cc79239f7b179b0ffacaa9a75d522b39400f60208201527f0000000000000000000000000000000000000000000000000000000000000000918101919091527f000000000000000000000000000000000000000000000000000000000000000060608201524660808201523060a082015260009060c00160405160208183030381529060405280519060200120905090565b6000807f7fffffffffffffffffffffffffffffff5d576e7357a4501ddfe92f46681b20a08311156140e45750600090506003614168565b6040805160008082526020820180845289905260ff881692820192909252606081018690526080810185905260019060a0016020604051602081039080840390855afa158015614138573d6000803e3d6000fd5b5050604051601f1901519150506001600160a01b03811661416157600060019250925050614168565b9150600090505b94509492505050565b600081600481111561418557614185614d4a565b0361418d5750565b60018160048111156141a1576141a1614d4a565b036141ee5760405162461bcd60e51b815260206004820152601860248201527f45434453413a20696e76616c6964207369676e617475726500000000000000006044820152606401610d04565b600281600481111561420257614202614d4a565b0361424f5760405162461bcd60e51b815260206004820152601f60248201527f45434453413a20696e76616c6964207369676e6174757265206c656e677468006044820152606401610d04565b600381600481111561426357614263614d4a565b03610d2d5760405162461bcd60e51b815260206004820152602260248201527f45434453413a20696e76616c6964207369676e6174757265202773272076616c604482015261756560f01b6064820152608401610d04565b8254600090819080156144015760006142d987612ed260018561541f565b60408051808201909152905463ffffffff808216808452600160201b9092046001600160e01b03166020840152919250908716101561435a5760405162461bcd60e51b815260206004820152601b60248201527f436865636b706f696e743a2064656372656173696e67206b65797300000000006044820152606401610d04565b805163ffffffff8088169116036143a2578461437b88612ed260018661541f565b80546001600160e01b0392909216600160201b0263ffffffff9092169190911790556143f1565b6040805180820190915263ffffffff80881682526001600160e01b0380881660208085019182528b54600181018d5560008d81529190912094519151909216600160201b029216919091179101555b6020015192508391506133a99050565b50506040805180820190915263ffffffff80851682526001600160e01b0380851660208085019182528854600181018a5560008a815291822095519251909316600160201b0291909316179201919091559050816133a9565b600080608083901c1561446f57608092831c92015b604083901c1561448157604092831c92015b602083901c1561449357602092831c92015b601083901c156144a557601092831c92015b600883901c156144b757600892831c92015b600483901c156144c957600492831c92015b600283901c156144db57600292831c92015b600183901c15610cdf5760010192915050565b6000818310613f5157816111fe565b600061450c6002848418615631565b6111fe90848416615473565b600086815260046020526040812060016145318961145f565b600881111561454257614542614d4a565b1461459b5760405162461bcd60e51b815260206004820152602360248201527f476f7665726e6f723a20766f7465206e6f742063757272656e746c792061637460448201526269766560e81b6064820152608401610d04565b80546000906145b790899089906001600160401b0316876125df565b90506145c68988888488614672565b835160000361461c5786886001600160a01b03167f02ecdb7f59712b7ae7cb6851cce1c64e98f94e5b51ec63809112c054622b25548b89858a60405161460f94939291906158e8565b60405180910390a3611f63565b86886001600160a01b03167f7dcdc52e34b09364e599a32b0e3ccb5b730a7b952ddbdf4f237ea785da228ce78b89858a8a60405161465e959493929190615910565b60405180910390a398975050505050505050565b6000858152600760209081526040808320878452600381019092529091205460ff16156146f15760405162461bcd60e51b815260206004820152602760248201527f476f7665726e6f72566f74696e6753696d706c653a20766f746520616c726561604482015266191e4818d85cdd60ca1b6064820152608401610d04565b600083116147525760405162461bcd60e51b815260206004820152602860248201527f476f7665726e6f72566f74696e6753696d706c653a207a65726f20766f74696e60448201526719c81dd95a59da1d60c21b6064820152608401610d04565b60008581526003820160205260409020805460ff1916600117905560ff841661479457828160000160008282546147899190615473565b9091555061483a9050565b60001960ff8516016147b457828160010160008282546147899190615473565b60011960ff8516016147d457828160020160008282546147899190615473565b60405162461bcd60e51b815260206004820152603560248201527f476f7665726e6f72566f74696e6753696d706c653a20696e76616c69642076616044820152746c756520666f7220656e756d20566f74655479706560581b6064820152608401610d04565b505050505050565b60006020828403121561485457600080fd5b81356001600160e01b0319811681146111fe57600080fd5b60006020828403121561487e57600080fd5b5035919050565b60005b838110156148a0578181015183820152602001614888565b50506000910152565b600081518084526148c1816020860160208601614885565b601f01601f19169290920160200192915050565b6020815260006111fe60208301846148a9565b6001600160a01b0381168114610d2d57600080fd5b60006020828403121561490f57600080fd5b81356111fe816148e8565b634e487b7160e01b600052604160045260246000fd5b604051601f8201601f191681016001600160401b03811182821017156149585761495861491a565b604052919050565b60006001600160401b038211156149795761497961491a565b5060051b60200190565b600082601f83011261499457600080fd5b813560206149a96149a483614960565b614930565b82815260059290921b840181019181810190868411156149c857600080fd5b8286015b84811015611aca5780356149df816148e8565b83529183019183016149cc565b600082601f8301126149fd57600080fd5b81356020614a0d6149a483614960565b82815260059290921b84018101918181019086841115614a2c57600080fd5b8286015b84811015611aca5780358352918301918301614a30565b60006001600160401b03821115614a6057614a6061491a565b50601f01601f191660200190565b6000614a7c6149a484614a47565b9050828152838383011115614a9057600080fd5b828260208301376000602084830101529392505050565b600082601f830112614ab857600080fd5b6111fe83833560208501614a6e565b600082601f830112614ad857600080fd5b81356020614ae86149a483614960565b82815260059290921b84018101918181019086841115614b0757600080fd5b8286015b84811015611aca5780356001600160401b03811115614b2a5760008081fd5b614b388986838b0101614aa7565b845250918301918301614b0b565b600080600080600060a08688031215614b5e57600080fd5b8535945060208601356001600160401b0380821115614b7c57600080fd5b614b8889838a01614983565b95506040880135915080821115614b9e57600080fd5b614baa89838a016149ec565b94506060880135915080821115614bc057600080fd5b614bcc89838a01614ac7565b93506080880135915080821115614be257600080fd5b508601601f81018813614bf457600080fd5b614c0388823560208401614a6e565b9150509295509295909350565b600080600060608486031215614c2557600080fd5b8335614c30816148e8565b95602085013595506040909401359392505050565b60008060008060808587031215614c5b57600080fd5b8435614c66816148e8565b93506020850135614c76816148e8565b92506040850135915060608501356001600160401b03811115614c9857600080fd5b614ca487828801614aa7565b91505092959194509250565b60008083601f840112614cc257600080fd5b5081356001600160401b03811115614cd957600080fd5b602083019150836020828501011115614cf157600080fd5b9250929050565b60008060008060608587031215614d0e57600080fd5b843593506020850135925060408501356001600160401b03811115614d3257600080fd5b614d3e87828801614cb0565b95989497509550505050565b634e487b7160e01b600052602160045260246000fd5b6020810160098310614d8257634e487b7160e01b600052602160045260246000fd5b91905290565b60008060008060808587031215614d9e57600080fd5b84356001600160401b0380821115614db557600080fd5b614dc188838901614983565b95506020870135915080821115614dd757600080fd5b614de3888389016149ec565b94506040870135915080821115614df957600080fd5b50614e0687828801614ac7565b949793965093946060013593505050565b600080600080600060a08688031215614e2f57600080fd5b85356001600160401b0380821115614e4657600080fd5b614e5289838a01614983565b96506020880135915080821115614e6857600080fd5b614e7489838a016149ec565b95506040880135915080821115614e8a57600080fd5b50614e9788828901614ac7565b935050606086013591506080860135614eaf816148e8565b809150509295509295909350565b60008060408385031215614ed057600080fd5b50508035926020909101359150565b600081518084526020808501945080840160005b83811015614f0f57815187529582019590820190600101614ef3565b509495945050505050565b60ff60f81b8816815260e060208201526000614f3960e08301896148a9565b8281036040840152614f4b81896148a9565b606084018890526001600160a01b038716608085015260a0840186905283810360c08501529050614f7c8185614edf565b9a9950505050505050505050565b600080600080600060a08688031215614fa257600080fd5b8535614fad816148e8565b94506020860135614fbd816148e8565b935060408601356001600160401b0380821115614fd957600080fd5b614fe589838a016149ec565b94506060880135915080821115614ffb57600080fd5b61500789838a016149ec565b9350608088013591508082111561501d57600080fd5b50614c0388828901614aa7565b803560ff8116811461188c57600080fd5b60008060008060008060a0878903121561505457600080fd5b863595506020870135945061506b6040880161502a565b935060608701356001600160401b038082111561508757600080fd5b6150938a838b01614cb0565b909550935060808901359150808211156150ac57600080fd5b506150b989828a01614aa7565b9150509295509295509295565b600080600080606085870312156150dc57600080fd5b84356150e7816148e8565b93506020850135925060408501356001600160401b03811115614d3257600080fd5b60008060008060006080868803121561512157600080fd5b85359450602086013593506151386040870161502a565b925060608601356001600160401b0381111561515357600080fd5b61515f88828901614cb0565b969995985093965092949392505050565b6000806000806080858703121561518657600080fd5b8435615191816148e8565b9350602085013592506040850135915060608501356001600160401b03811115614c9857600080fd5b6000602082840312156151cc57600080fd5b81356001600160401b03811681146111fe57600080fd5b6000806000606084860312156151f857600080fd5b833592506020840135915061520f6040850161502a565b90509250925092565b600080600080600060a0868803121561523057600080fd5b853561523b816148e8565b9450602086013561524b816148e8565b9350604086013592506060860135915060808601356001600160401b0381111561527457600080fd5b614c0388828901614aa7565b60008060008060008060008060006101008a8c03121561529f57600080fd5b8935985060208a013597506152b660408b0161502a565b965060608a01356001600160401b03808211156152d257600080fd5b6152de8d838e01614cb0565b909850965060808c01359150808211156152f757600080fd5b506153048c828d01614aa7565b94505061531360a08b0161502a565b925060c08a0135915060e08a013590509295985092959850929598565b60008060008060008060c0878903121561534957600080fd5b86359550602087013594506153606040880161502a565b935061536e6060880161502a565b92506080870135915060a087013590509295509295509295565b60208082526018908201527f476f7665726e6f723a206f6e6c79476f7665726e616e63650000000000000000604082015260600190565b8183823760009101908152919050565b600181811c908216806153e357607f821691505b60208210810361540357634e487b7160e01b600052602260045260246000fd5b50919050565b634e487b7160e01b600052601160045260246000fd5b81810381811115610cdf57610cdf615409565b60208082526021908201527f476f7665726e6f723a20696e76616c69642070726f706f73616c206c656e67746040820152600d60fb1b606082015260800190565b80820180821115610cdf57610cdf615409565b600081518084526020808501945080840160005b83811015614f0f5781516001600160a01b03168752958201959082019060010161549a565b600081518084526020808501808196508360051b8101915082860160005b858110156155075782840389526154f58483516148a9565b988501989350908401906001016154dd565b5091979650505050505050565b60006101208b8352602060018060a01b038c168185015281604085015261553d8285018c615486565b91508382036060850152615551828b614edf565b915083820360808501528189518084528284019150828160051b850101838c0160005b838110156155a257601f198784030185526155908383516148a9565b94860194925090850190600101615574565b505086810360a08801526155b6818c6154bf565b9450505050508560c08401528460e08401528281036101008401526155db81856148a9565b9c9b505050505050505050505050565b6000602082840312156155fd57600080fd5b5051919050565b8082028115828204841417610cdf57610cdf615409565b634e487b7160e01b600052601260045260246000fd5b6000826156405761564061561b565b500490565b60208152816020820152818360408301376000818301604090810191909152601f909201601f19160101919050565b60006020828403121561568657600080fd5b81516111fe816148e8565b6000602082840312156156a357600080fd5b81516001600160401b038111156156b957600080fd5b8201601f810184136156ca57600080fd5b80516156d86149a482614a47565b8181528560208385010111156156ed57600080fd5b612098826020830160208601614885565b634e487b7160e01b600052603260045260246000fd5b60006020828403121561572657600080fd5b815165ffffffffffff811681146111fe57600080fd5b60a08152600061574f60a0830188615486565b82810360208401526157618188614edf565b9050828103604084015261577581876154bf565b606084019590955250506001600160a01b03919091166080909101529392505050565b6000602082840312156157aa57600080fd5b8151600381106111fe57600080fd5b6000608082840312156157cb57600080fd5b604051608081018181106001600160401b03821117156157ed576157ed61491a565b604052825181526020830151615802816148e8565b6020820152604083810151908201526060928301519281019290925250919050565b60006001820161583657615836615409565b5060010190565b6000825161584f818460208701614885565b9190910192915050565b65ffffffffffff82811682821603908082111561587857615878615409565b5092915050565b600065ffffffffffff808416806158985761589861561b565b92169190910492915050565b600080604083850312156158b757600080fd5b505080516020909101519092909150565b6001600160401b0381811683821601908082111561587857615878615409565b84815260ff8416602082015282604082015260806060820152600061326460808301846148a9565b85815260ff8516602082015283604082015260a06060820152600061593860a08301856148a9565b8281036080840152611f6381856148a956fe476f7665726e6f723a2072656c617920726576657274656420776974686f7574206d657373616765476f7665726e6f723a2063616c6c20726576657274656420776974686f7574206d657373616765a26469706673582212207a487a233c22262d18952e53f0b4fad78adb327355eb5e1273750dc259ee299864736f6c63430008130033","linkReferences":{}},"methodIdentifiers":{"BALLOT_TYPEHASH()":"deaaa7cc","CLOCK_MODE()":"4bf5d7e9","COMMENT_DENOMINATOR()":"22b36ac6","COUNTING_MODE()":"dd4e2ba5","EXTENDED_BALLOT_TYPEHASH()":"2fe3e261","MAX_PROPOSAL_NUMERATOR()":"501fa8bd","PROPOSAL_DENOMINATOR()":"67e2e078","acceptTeam()":"b5cc143a","acceptVetoer()":"95b6d6bd","cancel(address[],uint256[],bytes[],bytes32)":"452115d6","castVote(uint256,uint256,uint8)":"dea112a6","castVoteBySig(uint256,uint256,uint8,uint8,bytes32,bytes32)":"fa25f377","castVoteWithReason(uint256,uint256,uint8,string)":"c2e863e4","castVoteWithReasonAndParams(uint256,uint256,uint8,string,bytes)":"be443ad0","castVoteWithReasonAndParamsBySig(uint256,uint256,uint8,string,bytes,uint8,bytes32,bytes32)":"f945970a","clock()":"91ddadf4","comment(uint256,uint256,string)":"380a243a","commentWeighting()":"525f9c3e","eip712Domain()":"84b0196e","escrow()":"e2fdcc17","execute(address[],uint256[],bytes[],bytes32,address)":"60e69a7b","getVotes(address,uint256,uint256)":"11fd26f4","getVotes(uint256,uint256)":"91f36633","getVotesWithParams(address,uint256,uint256,bytes)":"cf781d45","hasVoted(uint256,uint256)":"64390ff1","hashProposal(address[],uint256[],bytes[],bytes32,address)":"aedbfe33","lateQuorumVoteExtension()":"32b8113e","name()":"06fdde03","onERC1155BatchReceived(address,address,uint256[],uint256[],bytes)":"bc197c81","onERC1155Received(address,address,uint256,uint256,bytes)":"f23a6e61","onERC721Received(address,address,uint256,bytes)":"150b7a02","pendingTeam()":"59d46ffc","pendingVetoer()":"a67d0635","proposalDeadline(uint256)":"c01f9e37","proposalNumerator()":"9f8b3392","proposalSnapshot(uint256)":"2d63f693","proposalThreshold()":"b58131b0","proposalVotes(uint256)":"544ffc9c","propose(uint256,address[],uint256[],bytes[],string)":"0f8a8836","quorum(uint256)":"f8ce560a","quorumDenominator()":"97c3d334","quorumNumerator()":"a7713a70","quorumNumerator(uint256)":"60c4247f","relay(address,uint256,bytes)":"c28bc2fa","renounceVetoer()":"638663ac","setCommentWeighting(uint256)":"49758df2","setLateQuorumVoteExtension(uint64)":"d07f91e9","setProposalNumerator(uint256)":"592a8494","setTeam(address)":"095cf5c6","setVetoer(address)":"d152a32e","state(uint256)":"3e4f49e6","supportsInterface(bytes4)":"01ffc9a7","team()":"85f2aef2","token()":"fc0c546a","updateQuorumNumerator(uint256)":"06f3f9e6","ve()":"1f850716","version()":"54fd4d50","veto(uint256)":"1d28dec7","vetoer()":"d8bff440","voter()":"46c96aac","votingDelay()":"3932abb1","votingPeriod()":"02a251a3"},"id":9}