{"abi":[{"type":"receive","stateMutability":"payable"},{"type":"function","name":"approve","inputs":[{"name":"_token","type":"address","internalType":"address"},{"name":"_spender","type":"address","internalType":"address"},{"name":"_amount","type":"uint256","internalType":"uint256"}],"outputs":[],"stateMutability":"nonpayable"},{"type":"function","name":"deposit","inputs":[{"name":"_gauge","type":"address","internalType":"address"},{"name":"_amount","type":"uint256","internalType":"uint256"}],"outputs":[],"stateMutability":"nonpayable"},{"type":"function","name":"getGaugeReward","inputs":[{"name":"_gauge","type":"address","internalType":"address"},{"name":"_account","type":"address","internalType":"address"}],"outputs":[],"stateMutability":"nonpayable"},{"type":"function","name":"transfer","inputs":[{"name":"_token","type":"address","internalType":"address"},{"name":"_to","type":"address","internalType":"address"},{"name":"_amount","type":"uint256","internalType":"uint256"}],"outputs":[],"stateMutability":"nonpayable"},{"type":"function","name":"withdrawGauge","inputs":[{"name":"_gauge","type":"address","internalType":"address"},{"name":"_amount","type":"uint256","internalType":"uint256"}],"outputs":[],"stateMutability":"nonpayable"}],"bytecode":{"object":"0x608060405234801561001057600080fd5b50610379806100206000396000f3fe60806040526004361061004e5760003560e01c80631d320c221461005a57806347e7ef241461007c5780636b42318a1461009c578063beabacc8146100bc578063e1f21c67146100dc57600080fd5b3661005557005b600080fd5b34801561006657600080fd5b5061007a610075366004610281565b6100fc565b005b34801561008857600080fd5b5061007a6100973660046102b4565b61015c565b3480156100a857600080fd5b5061007a6100b73660046102b4565b610189565b3480156100c857600080fd5b5061007a6100d73660046102de565b6101b6565b3480156100e857600080fd5b5061007a6100f73660046102de565b610230565b604051630c00007b60e41b81526001600160a01b03828116600483015283169063c00007b0906024015b600060405180830381600087803b15801561014057600080fd5b505af1158015610154573d6000803e3d6000fd5b505050505050565b60405163b6b55f2560e01b8152600481018290526001600160a01b0383169063b6b55f2590602401610126565b604051632e1a7d4d60e01b8152600481018290526001600160a01b03831690632e1a7d4d90602401610126565b60405163a9059cbb60e01b81526001600160a01b0383811660048301526024820183905284169063a9059cbb906044015b6020604051808303816000875af1158015610206573d6000803e3d6000fd5b505050506040513d601f19601f8201168201806040525081019061022a919061031a565b50505050565b60405163095ea7b360e01b81526001600160a01b0383811660048301526024820183905284169063095ea7b3906044016101e7565b80356001600160a01b038116811461027c57600080fd5b919050565b6000806040838503121561029457600080fd5b61029d83610265565b91506102ab60208401610265565b90509250929050565b600080604083850312156102c757600080fd5b6102d083610265565b946020939093013593505050565b6000806000606084860312156102f357600080fd5b6102fc84610265565b925061030a60208501610265565b9150604084013590509250925092565b60006020828403121561032c57600080fd5b8151801515811461033c57600080fd5b939250505056fea26469706673582212207ccd4af7d7a0a3de9e02b84fcda2b19abc918cdba35f4f3d2b08ab0cb67ee1f064736f6c63430008130033","linkReferences":{}},"methodIdentifiers":{"approve(address,address,uint256)":"e1f21c67","deposit(address,uint256)":"47e7ef24","getGaugeReward(address,address)":"1d320c22","transfer(address,address,uint256)":"beabacc8","withdrawGauge(address,uint256)":"6b42318a"},"id":168}