{"abi":[{"type":"constructor","inputs":[{"name":"_forwarder","type":"address","internalType":"address"},{"name":"_stakingToken","type":"address","internalType":"address"},{"name":"_feesVotingReward","type":"address","internalType":"address"},{"name":"_rewardToken","type":"address","internalType":"address"},{"name":"_voter","type":"address","internalType":"address"},{"name":"_isPool","type":"bool","internalType":"bool"}],"stateMutability":"nonpayable"},{"type":"function","name":"balanceOf","inputs":[{"name":"","type":"address","internalType":"address"}],"outputs":[{"name":"","type":"uint256","internalType":"uint256"}],"stateMutability":"view"},{"type":"function","name":"deposit","inputs":[{"name":"_amount","type":"uint256","internalType":"uint256"},{"name":"_recipient","type":"address","internalType":"address"}],"outputs":[],"stateMutability":"nonpayable"},{"type":"function","name":"deposit","inputs":[{"name":"_amount","type":"uint256","internalType":"uint256"}],"outputs":[],"stateMutability":"nonpayable"},{"type":"function","name":"earned","inputs":[{"name":"_account","type":"address","internalType":"address"}],"outputs":[{"name":"","type":"uint256","internalType":"uint256"}],"stateMutability":"view"},{"type":"function","name":"fees0","inputs":[],"outputs":[{"name":"","type":"uint256","internalType":"uint256"}],"stateMutability":"view"},{"type":"function","name":"fees1","inputs":[],"outputs":[{"name":"","type":"uint256","internalType":"uint256"}],"stateMutability":"view"},{"type":"function","name":"feesVotingReward","inputs":[],"outputs":[{"name":"","type":"address","internalType":"address"}],"stateMutability":"view"},{"type":"function","name":"getReward","inputs":[{"name":"_account","type":"address","internalType":"address"}],"outputs":[],"stateMutability":"nonpayable"},{"type":"function","name":"isPool","inputs":[],"outputs":[{"name":"","type":"bool","internalType":"bool"}],"stateMutability":"view"},{"type":"function","name":"isTrustedForwarder","inputs":[{"name":"forwarder","type":"address","internalType":"address"}],"outputs":[{"name":"","type":"bool","internalType":"bool"}],"stateMutability":"view"},{"type":"function","name":"lastTimeRewardApplicable","inputs":[],"outputs":[{"name":"","type":"uint256","internalType":"uint256"}],"stateMutability":"view"},{"type":"function","name":"lastUpdateTime","inputs":[],"outputs":[{"name":"","type":"uint256","internalType":"uint256"}],"stateMutability":"view"},{"type":"function","name":"left","inputs":[],"outputs":[{"name":"","type":"uint256","internalType":"uint256"}],"stateMutability":"view"},{"type":"function","name":"notifyRewardAmount","inputs":[{"name":"_amount","type":"uint256","internalType":"uint256"}],"outputs":[],"stateMutability":"nonpayable"},{"type":"function","name":"notifyRewardWithoutClaim","inputs":[{"name":"_amount","type":"uint256","internalType":"uint256"}],"outputs":[],"stateMutability":"nonpayable"},{"type":"function","name":"periodFinish","inputs":[],"outputs":[{"name":"","type":"uint256","internalType":"uint256"}],"stateMutability":"view"},{"type":"function","name":"rewardPerToken","inputs":[],"outputs":[{"name":"","type":"uint256","internalType":"uint256"}],"stateMutability":"view"},{"type":"function","name":"rewardPerTokenStored","inputs":[],"outputs":[{"name":"","type":"uint256","internalType":"uint256"}],"stateMutability":"view"},{"type":"function","name":"rewardRate","inputs":[],"outputs":[{"name":"","type":"uint256","internalType":"uint256"}],"stateMutability":"view"},{"type":"function","name":"rewardRateByEpoch","inputs":[{"name":"","type":"uint256","internalType":"uint256"}],"outputs":[{"name":"","type":"uint256","internalType":"uint256"}],"stateMutability":"view"},{"type":"function","name":"rewardToken","inputs":[],"outputs":[{"name":"","type":"address","internalType":"address"}],"stateMutability":"view"},{"type":"function","name":"rewards","inputs":[{"name":"","type":"address","internalType":"address"}],"outputs":[{"name":"","type":"uint256","internalType":"uint256"}],"stateMutability":"view"},{"type":"function","name":"stakingToken","inputs":[],"outputs":[{"name":"","type":"address","internalType":"address"}],"stateMutability":"view"},{"type":"function","name":"team","inputs":[],"outputs":[{"name":"","type":"address","internalType":"address"}],"stateMutability":"view"},{"type":"function","name":"totalSupply","inputs":[],"outputs":[{"name":"","type":"uint256","internalType":"uint256"}],"stateMutability":"view"},{"type":"function","name":"userRewardPerTokenPaid","inputs":[{"name":"","type":"address","internalType":"address"}],"outputs":[{"name":"","type":"uint256","internalType":"uint256"}],"stateMutability":"view"},{"type":"function","name":"voter","inputs":[],"outputs":[{"name":"","type":"address","internalType":"address"}],"stateMutability":"view"},{"type":"function","name":"withdraw","inputs":[{"name":"_amount","type":"uint256","internalType":"uint256"}],"outputs":[],"stateMutability":"nonpayable"},{"type":"event","name":"ClaimFees","inputs":[{"name":"from","type":"address","indexed":true,"internalType":"address"},{"name":"claimed0","type":"uint256","indexed":false,"internalType":"uint256"},{"name":"claimed1","type":"uint256","indexed":false,"internalType":"uint256"}],"anonymous":false},{"type":"event","name":"ClaimRewards","inputs":[{"name":"from","type":"address","indexed":true,"internalType":"address"},{"name":"amount","type":"uint256","indexed":false,"internalType":"uint256"}],"anonymous":false},{"type":"event","name":"Deposit","inputs":[{"name":"from","type":"address","indexed":true,"internalType":"address"},{"name":"to","type":"address","indexed":true,"internalType":"address"},{"name":"amount","type":"uint256","indexed":false,"internalType":"uint256"}],"anonymous":false},{"type":"event","name":"NotifyReward","inputs":[{"name":"from","type":"address","indexed":true,"internalType":"address"},{"name":"amount","type":"uint256","indexed":false,"internalType":"uint256"}],"anonymous":false},{"type":"event","name":"Withdraw","inputs":[{"name":"from","type":"address","indexed":true,"internalType":"address"},{"name":"amount","type":"uint256","indexed":false,"internalType":"uint256"}],"anonymous":false},{"type":"error","name":"NotAlive","inputs":[]},{"type":"error","name":"NotAuthorized","inputs":[]},{"type":"error","name":"NotTeam","inputs":[]},{"type":"error","name":"NotVoter","inputs":[]},{"type":"error","name":"RewardRateTooHigh","inputs":[]},{"type":"error","name":"ZeroAmount","inputs":[]},{"type":"error","name":"ZeroRewardRate","inputs":[]}],"bytecode":{"object":"0x6101606040523480156200001257600080fd5b5060405162001acb38038062001acb833981016040819052620000359162000166565b6001600160a01b03808716608052600160005585811660a05284811660e05283811660c05282166101008190528115156101405260408051630fc2838b60e11b81529051631f850716916004808201926020929091908290030181865afa158015620000a5573d6000803e3d6000fd5b505050506040513d601f19601f82011682018060405250810190620000cb9190620001ef565b6001600160a01b03166385f2aef26040518163ffffffff1660e01b8152600401602060405180830381865afa15801562000109573d6000803e3d6000fd5b505050506040513d601f19601f820116820180604052508101906200012f9190620001ef565b6001600160a01b0316610120525062000214945050505050565b80516001600160a01b03811681146200016157600080fd5b919050565b60008060008060008060c087890312156200018057600080fd5b6200018b8762000149565b95506200019b6020880162000149565b9450620001ab6040880162000149565b9350620001bb6060880162000149565b9250620001cb6080880162000149565b915060a08701518015158114620001e157600080fd5b809150509295509295509295565b6000602082840312156200020257600080fd5b6200020d8262000149565b9392505050565b60805160a05160c05160e0516101005161012051610140516117de620002ed600039600081816104390152610a9201526000818161037601526108bb01526000818161028b0152818161063c01528181610731015261107201526000818161021301528181610c2401528181610c6f01528181610cf50152610d40015260008181610469015281816107cc01528181610e3c01528181610ea70152610f3c01526000818161033e015281816105ae01528181610ac001528181610b8201526111240152600081816102c6015261099801526117de6000f3fe608060405234801561001057600080fd5b50600436106101c35760003560e01c806380faa57d116100f9578063c8f33c9111610097578063df136d6511610071578063df136d651461042b578063e2e1c6db14610434578063ebe2b12b1461045b578063f7c618c11461046457600080fd5b8063c8f33c9114610407578063cd3daf9d14610410578063dcdc18dc1461041857600080fd5b806393f1c442116100d357806393f1c442146103b857806394af5b63146103c1578063b6b55f25146103e1578063c00007b0146103f457600080fd5b806380faa57d1461036957806385f2aef2146103715780638b8763471461039857600080fd5b806346c96aac116101665780636e553f65116101405780636e553f651461030657806370a082311461031957806372f702f3146103395780637b0a47ee1461036057600080fd5b806346c96aac146102865780634c02a21c146102ad578063572b6c05146102b657600080fd5b806316e64048116101a257806316e640481461024d57806318160ddd146102555780632e1a7d4d1461025e5780633c6b16ab1461027357600080fd5b80628cc262146101c85780630700037d146101ee5780630fe2f7111461020e575b600080fd5b6101db6101d63660046115cc565b61048b565b6040519081526020015b60405180910390f35b6101db6101fc3660046115cc565b60086020526000908152604090205481565b6102357f000000000000000000000000000000000000000000000000000000000000000081565b6040516001600160a01b0390911681526020016101e5565b6101db610508565b6101db60055481565b61027161026c3660046115e9565b61053f565b005b6102716102813660046115e9565b610626565b6102357f000000000000000000000000000000000000000000000000000000000000000081565b6101db600b5481565b6102f66102c43660046115cc565b7f00000000000000000000000000000000000000000000000000000000000000006001600160a01b0390811691161490565b60405190151581526020016101e5565b610271610314366004611602565b6106cc565b6101db6103273660046115cc565b60066020526000908152604090205481565b6102357f000000000000000000000000000000000000000000000000000000000000000081565b6101db60025481565b6101db6106da565b6102357f000000000000000000000000000000000000000000000000000000000000000081565b6101db6103a63660046115cc565b60076020526000908152604090205481565b6101db600a5481565b6101db6103cf3660046115e9565b60096020526000908152604090205481565b6102716103ef3660046115e9565b6106ed565b6102716104023660046115cc565b6106fe565b6101db60035481565b6101db610843565b6102716104263660046115e9565b6108a5565b6101db60045481565b6102f67f000000000000000000000000000000000000000000000000000000000000000081565b6101db60015481565b6102357f000000000000000000000000000000000000000000000000000000000000000081565b6001600160a01b0381166000908152600860209081526040808320546007909252822054670de0b6b3a7640000906104c1610843565b6104cb9190611648565b6001600160a01b0385166000908152600660205260409020546104ee919061165b565b6104f89190611672565b6105029190611694565b92915050565b600060015442106105195750600090565b6000426001546105299190611648565b905060025481610539919061165b565b91505090565b610547610936565b6000610551610994565b905061055c816109d8565b816005600082825461056e9190611648565b90915550506001600160a01b0381166000908152600660205260408120805484929061059b908490611648565b909155506105d590506001600160a01b037f0000000000000000000000000000000000000000000000000000000000000000168284610a25565b806001600160a01b03167f884edad9ce6fa2440d8a54cc123490eb96d2768479d49ff9c7366125a94243648360405161061091815260200190565b60405180910390a2506106236001600055565b50565b61062e610936565b6000610638610994565b90507f00000000000000000000000000000000000000000000000000000000000000006001600160a01b0316816001600160a01b03161461068c5760405163c18384c160e01b815260040160405180910390fd5b816000036106ad57604051631f2a200560e01b815260040160405180910390fd5b6106b5610a8d565b50506106c18183610e03565b506106236001600055565b6106d68282611034565b5050565b60006106e8426001546111ea565b905090565b610623816106f9610994565b611034565b610706610936565b6000610710610994565b9050816001600160a01b0316816001600160a01b03161415801561076657507f00000000000000000000000000000000000000000000000000000000000000006001600160a01b0316816001600160a01b031614155b156107845760405163ea8e4eb560e01b815260040160405180910390fd5b61078d826109d8565b6001600160a01b0382166000908152600860205260409020548015610837576001600160a01b038084166000908152600860205260408120556107f3907f0000000000000000000000000000000000000000000000000000000000000000168483610a25565b826001600160a01b03167f1f89f96333d3133000ee447473151fa9606543368f02271c9d95ae14f13bcc678260405161082e91815260200190565b60405180910390a25b50506106236001600055565b6000600554600003610856575060045490565b600554670de0b6b3a76400006002546003546108706106da565b61087a9190611648565b610884919061165b565b61088e919061165b565b6108989190611672565b6004546106e89190611694565b6108ad610936565b60006108b7610994565b90507f00000000000000000000000000000000000000000000000000000000000000006001600160a01b0316816001600160a01b03161461090b57604051633a7cfa5d60e21b815260040160405180910390fd5b8160000361092c57604051631f2a200560e01b815260040160405180910390fd5b6106c18183610e03565b60026000540361098d5760405162461bcd60e51b815260206004820152601f60248201527f5265656e7472616e637947756172643a207265656e7472616e742063616c6c0060448201526064015b60405180910390fd5b6002600055565b60007f00000000000000000000000000000000000000000000000000000000000000006001600160a01b031633036109d3575060131936013560601c90565b503390565b6109e0610843565b6004556109eb6106da565b6003556109f78161048b565b6001600160a01b03909116600090815260086020908152604080832093909355600454600790915291902055565b6040516001600160a01b038316602482015260448101829052610a8890849063a9059cbb60e01b906064015b60408051601f198184030181529190526020810180516001600160e01b03166001600160e01b031990931692909217909152611202565b505050565b6000807f0000000000000000000000000000000000000000000000000000000000000000610abe5750600091829150565b7f00000000000000000000000000000000000000000000000000000000000000006001600160a01b031663d294f0936040518163ffffffff1660e01b815260040160408051808303816000875af1158015610b1d573d6000803e3d6000fd5b505050506040513d601f19601f82011682018060405250810190610b4191906116a7565b909250905081151580610b545750600081115b15610dff57600082600a54610b699190611694565b9050600082600b54610b7b9190611694565b90506000807f00000000000000000000000000000000000000000000000000000000000000006001600160a01b0316639d63848a6040518163ffffffff1660e01b81526004016040805180830381865afa158015610bdd573d6000803e3d6000fd5b505050506040513d601f19601f82011682018060405250810190610c0191906116cb565b9150915062093a80841115610cd0576000600a55610c496001600160a01b0383167f0000000000000000000000000000000000000000000000000000000000000000866112d4565b60405163b66503cf60e01b81526001600160a01b038381166004830152602482018690527f0000000000000000000000000000000000000000000000000000000000000000169063b66503cf90604401600060405180830381600087803b158015610cb357600080fd5b505af1158015610cc7573d6000803e3d6000fd5b50505050610cd6565b600a8490555b62093a80831115610da1576000600b55610d1a6001600160a01b0382167f0000000000000000000000000000000000000000000000000000000000000000856112d4565b60405163b66503cf60e01b81526001600160a01b038281166004830152602482018590527f0000000000000000000000000000000000000000000000000000000000000000169063b66503cf90604401600060405180830381600087803b158015610d8457600080fd5b505af1158015610d98573d6000803e3d6000fd5b50505050610da7565b600b8390555b610daf610994565b6001600160a01b03167fbc567d6cbad26368064baa0ab5a757be46aae4d70f707f9203d9d9b6c8ccbfa38787604051610df2929190918252602082015260400190565b60405180910390a2505050505b9091565b610e0b610843565b600455426000610e248262093a80808206820301611648565b90506001548210610e7657610e646001600160a01b037f0000000000000000000000000000000000000000000000000000000000000000168530866113e9565b610e6e8184611672565b600255610eea565b600082600154610e869190611648565b9050600060025482610e98919061165b565b9050610ecf6001600160a01b037f0000000000000000000000000000000000000000000000000000000000000000168730886113e9565b82610eda8287611694565b610ee49190611672565b60025550505b60025462093a8083068303600090815260096020526040812082905503610f24576040516307ced7af60e01b815260040160405180910390fd5b6040516370a0823160e01b81523060048201526000907f00000000000000000000000000000000000000000000000000000000000000006001600160a01b0316906370a0823190602401602060405180830381865afa158015610f8b573d6000803e3d6000fd5b505050506040513d601f19601f82011682018060405250810190610faf91906116fa565b9050610fbb8282611672565b6002541115610fdd57604051633c6be1b360e01b815260040160405180910390fd5b6003839055610fec8284611694565b6001556040518481526001600160a01b038616907f095667752957714306e1a6ad83495404412df6fdb932fca6dc849a7ee910d4c19060200160405180910390a25050505050565b61103c610936565b8160000361105d57604051631f2a200560e01b815260040160405180910390fd5b604051631703e5f960e01b81523060048201527f00000000000000000000000000000000000000000000000000000000000000006001600160a01b031690631703e5f990602401602060405180830381865afa1580156110c1573d6000803e3d6000fd5b505050506040513d601f19601f820116820180604052508101906110e59190611713565b611102576040516310f3d9c960e01b815260040160405180910390fd5b600061110c610994565b9050611117826109d8565b61114c6001600160a01b037f0000000000000000000000000000000000000000000000000000000000000000168230866113e9565b826005600082825461115e9190611694565b90915550506001600160a01b0382166000908152600660205260408120805485929061118b908490611694565b92505081905550816001600160a01b0316816001600160a01b03167f5548c837ab068cf56a2c2479df0882a4922fd203edb7517321831d95078c5f62856040516111d791815260200190565b60405180910390a3506106d66001600055565b60008183106111f957816111fb565b825b9392505050565b6000611257826040518060400160405280602081526020017f5361666545524332303a206c6f772d6c6576656c2063616c6c206661696c6564815250856001600160a01b03166114279092919063ffffffff16565b805190915015610a8857808060200190518101906112759190611713565b610a885760405162461bcd60e51b815260206004820152602a60248201527f5361666545524332303a204552433230206f7065726174696f6e20646964206e6044820152691bdd081cdd58d8d9595960b21b6064820152608401610984565b80158061134e5750604051636eb1769f60e11b81523060048201526001600160a01b03838116602483015284169063dd62ed3e90604401602060405180830381865afa158015611328573d6000803e3d6000fd5b505050506040513d601f19601f8201168201806040525081019061134c91906116fa565b155b6113b95760405162461bcd60e51b815260206004820152603660248201527f5361666545524332303a20617070726f76652066726f6d206e6f6e2d7a65726f60448201527520746f206e6f6e2d7a65726f20616c6c6f77616e636560501b6064820152608401610984565b6040516001600160a01b038316602482015260448101829052610a8890849063095ea7b360e01b90606401610a51565b6040516001600160a01b03808516602483015283166044820152606481018290526114219085906323b872dd60e01b90608401610a51565b50505050565b6060611436848460008561143e565b949350505050565b60608247101561149f5760405162461bcd60e51b815260206004820152602660248201527f416464726573733a20696e73756666696369656e742062616c616e636520666f6044820152651c8818d85b1b60d21b6064820152608401610984565b600080866001600160a01b031685876040516114bb9190611759565b60006040518083038185875af1925050503d80600081146114f8576040519150601f19603f3d011682016040523d82523d6000602084013e6114fd565b606091505b509150915061150e87838387611519565b979650505050505050565b60608315611588578251600003611581576001600160a01b0385163b6115815760405162461bcd60e51b815260206004820152601d60248201527f416464726573733a2063616c6c20746f206e6f6e2d636f6e74726163740000006044820152606401610984565b5081611436565b611436838381511561159d5781518083602001fd5b8060405162461bcd60e51b81526004016109849190611775565b6001600160a01b038116811461062357600080fd5b6000602082840312156115de57600080fd5b81356111fb816115b7565b6000602082840312156115fb57600080fd5b5035919050565b6000806040838503121561161557600080fd5b823591506020830135611627816115b7565b809150509250929050565b634e487b7160e01b600052601160045260246000fd5b8181038181111561050257610502611632565b808202811582820484141761050257610502611632565b60008261168f57634e487b7160e01b600052601260045260246000fd5b500490565b8082018082111561050257610502611632565b600080604083850312156116ba57600080fd5b505080516020909101519092909150565b600080604083850312156116de57600080fd5b82516116e9816115b7565b6020840151909250611627816115b7565b60006020828403121561170c57600080fd5b5051919050565b60006020828403121561172557600080fd5b815180151581146111fb57600080fd5b60005b83811015611750578181015183820152602001611738565b50506000910152565b6000825161176b818460208701611735565b9190910192915050565b6020815260008251806020840152611794816040850160208701611735565b601f01601f1916919091016040019291505056fea2646970667358221220daac700598c91d1d1ecc2f8288037e83394ef3fa3f240731426f1b5cbd58adf064736f6c63430008130033","linkReferences":{}},"methodIdentifiers":{"balanceOf(address)":"70a08231","deposit(uint256)":"b6b55f25","deposit(uint256,address)":"6e553f65","earned(address)":"008cc262","fees0()":"93f1c442","fees1()":"4c02a21c","feesVotingReward()":"0fe2f711","getReward(address)":"c00007b0","isPool()":"e2e1c6db","isTrustedForwarder(address)":"572b6c05","lastTimeRewardApplicable()":"80faa57d","lastUpdateTime()":"c8f33c91","left()":"16e64048","notifyRewardAmount(uint256)":"3c6b16ab","notifyRewardWithoutClaim(uint256)":"dcdc18dc","periodFinish()":"ebe2b12b","rewardPerToken()":"cd3daf9d","rewardPerTokenStored()":"df136d65","rewardRate()":"7b0a47ee","rewardRateByEpoch(uint256)":"94af5b63","rewardToken()":"f7c618c1","rewards(address)":"0700037d","stakingToken()":"72f702f3","team()":"85f2aef2","totalSupply()":"18160ddd","userRewardPerTokenPaid(address)":"8b876347","voter()":"46c96aac","withdraw(uint256)":"2e1a7d4d"},"id":20}