{"abi":[{"type":"function","name":"DURATION","inputs":[],"outputs":[{"name":"","type":"uint256","internalType":"uint256"}],"stateMutability":"view"}],"bytecode":{"object":"0x6089610038600b82828239805160001a607314602b57634e487b7160e01b600052600060045260246000fd5b30600052607381538281f3fe730000000000000000000000000000000000000000301460806040526004361060335760003560e01c80631be05289146038575b600080fd5b604162093a8081565b60405190815260200160405180910390f3fea264697066735822122001c5dacb5a6527308d807f489b36012f756c10f252e8ae98279a116d26bacfde64736f6c63430008130033","linkReferences":{}},"methodIdentifiers":{"DURATION()":"1be05289"},"id":51}