{"abi":[{"type":"constructor","inputs":[{"name":"_ve","type":"address","internalType":"address"}],"stateMutability":"nonpayable"},{"type":"function","name":"circles","inputs":[{"name":"cfg","type":"tuple","internalType":"struct IVeArtProxy.Config","components":[{"name":"_tokenId","type":"int256","internalType":"int256"},{"name":"_balanceOf","type":"int256","internalType":"int256"},{"name":"_lockedEnd","type":"int256","internalType":"int256"},{"name":"_lockedAmount","type":"int256","internalType":"int256"},{"name":"shape","type":"int256","internalType":"int256"},{"name":"palette","type":"uint256","internalType":"uint256"},{"name":"maxLines","type":"int256","internalType":"int256"},{"name":"dash","type":"int256","internalType":"int256"},{"name":"seed1","type":"int256","internalType":"int256"},{"name":"seed2","type":"int256","internalType":"int256"},{"name":"seed3","type":"int256","internalType":"int256"}]},{"name":"l","type":"int256","internalType":"int256"}],"outputs":[{"name":"Line","type":"tuple[100]","internalType":"struct IVeArtProxy.Point[100]","components":[{"name":"x","type":"int256","internalType":"int256"},{"name":"y","type":"int256","internalType":"int256"}]}],"stateMutability":"pure"},{"type":"function","name":"corners","inputs":[{"name":"cfg","type":"tuple","internalType":"struct IVeArtProxy.Config","components":[{"name":"_tokenId","type":"int256","internalType":"int256"},{"name":"_balanceOf","type":"int256","internalType":"int256"},{"name":"_lockedEnd","type":"int256","internalType":"int256"},{"name":"_lockedAmount","type":"int256","internalType":"int256"},{"name":"shape","type":"int256","internalType":"int256"},{"name":"palette","type":"uint256","internalType":"uint256"},{"name":"maxLines","type":"int256","internalType":"int256"},{"name":"dash","type":"int256","internalType":"int256"},{"name":"seed1","type":"int256","internalType":"int256"},{"name":"seed2","type":"int256","internalType":"int256"},{"name":"seed3","type":"int256","internalType":"int256"}]},{"name":"l","type":"int256","internalType":"int256"}],"outputs":[{"name":"Line","type":"tuple[100]","internalType":"struct IVeArtProxy.Point[100]","components":[{"name":"x","type":"int256","internalType":"int256"},{"name":"y","type":"int256","internalType":"int256"}]}],"stateMutability":"pure"},{"type":"function","name":"curves","inputs":[{"name":"cfg","type":"tuple","internalType":"struct IVeArtProxy.Config","components":[{"name":"_tokenId","type":"int256","internalType":"int256"},{"name":"_balanceOf","type":"int256","internalType":"int256"},{"name":"_lockedEnd","type":"int256","internalType":"int256"},{"name":"_lockedAmount","type":"int256","internalType":"int256"},{"name":"shape","type":"int256","internalType":"int256"},{"name":"palette","type":"uint256","internalType":"uint256"},{"name":"maxLines","type":"int256","internalType":"int256"},{"name":"dash","type":"int256","internalType":"int256"},{"name":"seed1","type":"int256","internalType":"int256"},{"name":"seed2","type":"int256","internalType":"int256"},{"name":"seed3","type":"int256","internalType":"int256"}]},{"name":"l","type":"int256","internalType":"int256"}],"outputs":[{"name":"Line","type":"tuple[100]","internalType":"struct IVeArtProxy.Point[100]","components":[{"name":"x","type":"int256","internalType":"int256"},{"name":"y","type":"int256","internalType":"int256"}]}],"stateMutability":"pure"},{"type":"function","name":"explosion","inputs":[{"name":"cfg","type":"tuple","internalType":"struct IVeArtProxy.Config","components":[{"name":"_tokenId","type":"int256","internalType":"int256"},{"name":"_balanceOf","type":"int256","internalType":"int256"},{"name":"_lockedEnd","type":"int256","internalType":"int256"},{"name":"_lockedAmount","type":"int256","internalType":"int256"},{"name":"shape","type":"int256","internalType":"int256"},{"name":"palette","type":"uint256","internalType":"uint256"},{"name":"maxLines","type":"int256","internalType":"int256"},{"name":"dash","type":"int256","internalType":"int256"},{"name":"seed1","type":"int256","internalType":"int256"},{"name":"seed2","type":"int256","internalType":"int256"},{"name":"seed3","type":"int256","internalType":"int256"}]},{"name":"l","type":"int256","internalType":"int256"}],"outputs":[{"name":"Line","type":"tuple[100]","internalType":"struct IVeArtProxy.Point[100]","components":[{"name":"x","type":"int256","internalType":"int256"},{"name":"y","type":"int256","internalType":"int256"}]}],"stateMutability":"pure"},{"type":"function","name":"generateConfig","inputs":[{"name":"_tokenId","type":"uint256","internalType":"uint256"}],"outputs":[{"name":"cfg","type":"tuple","internalType":"struct IVeArtProxy.Config","components":[{"name":"_tokenId","type":"int256","internalType":"int256"},{"name":"_balanceOf","type":"int256","internalType":"int256"},{"name":"_lockedEnd","type":"int256","internalType":"int256"},{"name":"_lockedAmount","type":"int256","internalType":"int256"},{"name":"shape","type":"int256","internalType":"int256"},{"name":"palette","type":"uint256","internalType":"uint256"},{"name":"maxLines","type":"int256","internalType":"int256"},{"name":"dash","type":"int256","internalType":"int256"},{"name":"seed1","type":"int256","internalType":"int256"},{"name":"seed2","type":"int256","internalType":"int256"},{"name":"seed3","type":"int256","internalType":"int256"}]}],"stateMutability":"view"},{"type":"function","name":"interlockingCircles","inputs":[{"name":"cfg","type":"tuple","internalType":"struct IVeArtProxy.Config","components":[{"name":"_tokenId","type":"int256","internalType":"int256"},{"name":"_balanceOf","type":"int256","internalType":"int256"},{"name":"_lockedEnd","type":"int256","internalType":"int256"},{"name":"_lockedAmount","type":"int256","internalType":"int256"},{"name":"shape","type":"int256","internalType":"int256"},{"name":"palette","type":"uint256","internalType":"uint256"},{"name":"maxLines","type":"int256","internalType":"int256"},{"name":"dash","type":"int256","internalType":"int256"},{"name":"seed1","type":"int256","internalType":"int256"},{"name":"seed2","type":"int256","internalType":"int256"},{"name":"seed3","type":"int256","internalType":"int256"}]},{"name":"l","type":"int256","internalType":"int256"}],"outputs":[{"name":"Line","type":"tuple[100]","internalType":"struct IVeArtProxy.Point[100]","components":[{"name":"x","type":"int256","internalType":"int256"},{"name":"y","type":"int256","internalType":"int256"}]}],"stateMutability":"pure"},{"type":"function","name":"lineArtPathsOnly","inputs":[{"name":"_tokenId","type":"uint256","internalType":"uint256"}],"outputs":[{"name":"output","type":"bytes","internalType":"bytes"}],"stateMutability":"view"},{"type":"function","name":"spiral","inputs":[{"name":"cfg","type":"tuple","internalType":"struct IVeArtProxy.Config","components":[{"name":"_tokenId","type":"int256","internalType":"int256"},{"name":"_balanceOf","type":"int256","internalType":"int256"},{"name":"_lockedEnd","type":"int256","internalType":"int256"},{"name":"_lockedAmount","type":"int256","internalType":"int256"},{"name":"shape","type":"int256","internalType":"int256"},{"name":"palette","type":"uint256","internalType":"uint256"},{"name":"maxLines","type":"int256","internalType":"int256"},{"name":"dash","type":"int256","internalType":"int256"},{"name":"seed1","type":"int256","internalType":"int256"},{"name":"seed2","type":"int256","internalType":"int256"},{"name":"seed3","type":"int256","internalType":"int256"}]},{"name":"l","type":"int256","internalType":"int256"}],"outputs":[{"name":"Line","type":"tuple[100]","internalType":"struct IVeArtProxy.Point[100]","components":[{"name":"x","type":"int256","internalType":"int256"},{"name":"y","type":"int256","internalType":"int256"}]}],"stateMutability":"pure"},{"type":"function","name":"tokenURI","inputs":[{"name":"_tokenId","type":"uint256","internalType":"uint256"}],"outputs":[{"name":"output","type":"string","internalType":"string"}],"stateMutability":"view"},{"type":"function","name":"twoStripes","inputs":[{"name":"cfg","type":"tuple","internalType":"struct IVeArtProxy.Config","components":[{"name":"_tokenId","type":"int256","internalType":"int256"},{"name":"_balanceOf","type":"int256","internalType":"int256"},{"name":"_lockedEnd","type":"int256","internalType":"int256"},{"name":"_lockedAmount","type":"int256","internalType":"int256"},{"name":"shape","type":"int256","internalType":"int256"},{"name":"palette","type":"uint256","internalType":"uint256"},{"name":"maxLines","type":"int256","internalType":"int256"},{"name":"dash","type":"int256","internalType":"int256"},{"name":"seed1","type":"int256","internalType":"int256"},{"name":"seed2","type":"int256","internalType":"int256"},{"name":"seed3","type":"int256","internalType":"int256"}]},{"name":"l","type":"int256","internalType":"int256"}],"outputs":[{"name":"Line","type":"tuple[100]","internalType":"struct IVeArtProxy.Point[100]","components":[{"name":"x","type":"int256","internalType":"int256"},{"name":"y","type":"int256","internalType":"int256"}]}],"stateMutability":"pure"},{"type":"function","name":"ve","inputs":[],"outputs":[{"name":"","type":"address","internalType":"contract IVotingEscrow"}],"stateMutability":"view"},{"type":"function","name":"wormhole","inputs":[{"name":"cfg","type":"tuple","internalType":"struct IVeArtProxy.Config","components":[{"name":"_tokenId","type":"int256","internalType":"int256"},{"name":"_balanceOf","type":"int256","internalType":"int256"},{"name":"_lockedEnd","type":"int256","internalType":"int256"},{"name":"_lockedAmount","type":"int256","internalType":"int256"},{"name":"shape","type":"int256","internalType":"int256"},{"name":"palette","type":"uint256","internalType":"uint256"},{"name":"maxLines","type":"int256","internalType":"int256"},{"name":"dash","type":"int256","internalType":"int256"},{"name":"seed1","type":"int256","internalType":"int256"},{"name":"seed2","type":"int256","internalType":"int256"},{"name":"seed3","type":"int256","internalType":"int256"}]},{"name":"l","type":"int256","internalType":"int256"}],"outputs":[{"name":"Line","type":"tuple[100]","internalType":"struct IVeArtProxy.Point[100]","components":[{"name":"x","type":"int256","internalType":"int256"},{"name":"y","type":"int256","internalType":"int256"}]}],"stateMutability":"pure"}],"bytecode":{"object":"0x660234530413130360cc1b6101e0908152660234343393230360cc1b61020052660234133373530360cc1b61022052660233343343135360cc1b610240819052662341334133413360c81b61026081905260a09283526608d10d0c110c1160ca1b610280908152660468262607060760cb1b6102a05266119b9a981b181b60c91b6102c0526102e083905261030082905260c052662330333434344360c81b610320908152661198181aa31b2160c91b61034052662330303843394560c81b610360526103808390526103a082905260e052662331413530463160c81b6103c09081526611989b9a18212160c91b6103e0526611989819231c2160c91b6104005261042083905261044082905261010052662343354243384560c81b610460908152660466c726c6e6a760cb1b6104805266119a1a9a1c1a3160c91b6104a0526104c08390526104e082905261012052662346443538323160c81b6105009081526611a31919a2981960c91b610520526611a1a0999a181960c91b6105405261056083905261058082905261014052660236234383631360cc1b6105a0908152662331323332393160c81b6105c0526611b1b3199a981960c91b6105e052610600839052610620829052610160526608cdcc4e514c0d60ca1b610640908152662338444239324560c81b61066052662341394435344360c81b610680526106a08390526106c082905261018052662331313045303760c81b6106e081815261070091909152662333413339333560c81b610720526107408390526107608290526101a052610820604052662343433134353560c81b610780908152662341373131343560c81b6107a05266119c191822199b60c91b6107c0526107e092909252610800526101c0526200029790600090600a62000320565b506040805160a081018252600360fc1b8152603160f81b6020820181905291810191909152601960f91b606082018190526080820152620002dd90601490600562000372565b50348015620002eb57600080fd5b5060405162004241380380620042418339810160408190526200030e91620004cf565b6001600160a01b031660805262000501565b60148301918390821562000360579160200282015b82811115620003605782516200034f90839060056200040a565b509160200191906002019062000335565b506200036e9291506200049c565b5090565b600183019183908215620003fc5791602002820160005b83821115620003ca57835183826101000a81548161ffff021916908360f01c0217905550926020019260020160208160010104928301926001030262000389565b8015620003fa5782816101000a81549061ffff0219169055600201602081600101049283019260010302620003ca565b505b506200036e929150620004b8565b600283019183908215620003fc5791602002820160005b838211156200046757835183826101000a8154816001600160401b03021916908360c01c0217905550926020019260080160208160070104928301926001030262000421565b8015620003fa5782816101000a8154906001600160401b03021916905560080160208160070104928301926001030262000467565b808211156200036e57600080825560018201556002016200049c565b5b808211156200036e5760008155600101620004b9565b600060208284031215620004e257600080fd5b81516001600160a01b0381168114620004fa57600080fd5b9392505050565b608051613d176200052a6000396000818160e701528181611d0a0152611d9b0152613d176000f3fe608060405234801561001057600080fd5b50600436106100b45760003560e01c80638165ae85116100715780638165ae851461016d5780638e1ba1a3146101805780639108138b14610193578063990379fa146101a6578063a707e80d1461023e578063c87b56dd1461025e57600080fd5b80631e7a79c4146100b95780631f850716146100e257806334ef880c146101215780635d32636714610134578063751ee4d11461014757806376a07fbb1461015a575b600080fd5b6100cc6100c7366004612f87565b610271565b6040516100d9919061302a565b60405180910390f35b6101097f000000000000000000000000000000000000000000000000000000000000000081565b6040516001600160a01b0390911681526020016100d9565b6100cc61012f366004612f87565b610512565b6100cc610142366004612f87565b6106b7565b6100cc610155366004612f87565b610a34565b6100cc610168366004612f87565b610d9b565b6100cc61017b366004612f87565b611309565b6100cc61018e366004612f87565b611643565b6100cc6101a1366004612f87565b611918565b6101b96101b4366004613068565b611c8e565b6040516100d99190600061016082019050825182526020830151602083015260408301516040830152606083015160608301526080830151608083015260a083015160a083015260c083015160c083015260e083015160e083015261010080840151818401525061012080840151818401525061014080840151818401525092915050565b61025161024c366004613068565b611eaf565b6040516100d991906130d1565b61025161026c366004613068565b611eee565b610279612eff565b6000606484610100015161028d9190613101565b61029890601e61312b565b6102a4906101f461315b565b9050600060648561012001516102ba9190613101565b6102c590601e61312b565b6102d1906101f461315b565b905060006102e085600161315b565b6102eb90606461312b565b60fa8761014001516102fd9190613101565b6103089060fa61315b565b610312919061315b565b905060006001610323600288613101565b61032e90600261312b565b6103389190613183565b905060005b606481101561050757600060638261035e672b992ddfa23249d660026131a3565b61037090670de0b6b3a76400006131a3565b61037a91906131a3565b61038491906131ba565b604080518082019182905263cb5cc10960e01b9091526044810182905290915080670de0b6b3a764000073__$f5dabb00d97932a7084857b7b479ed7ab3$__63cb5cc10960648401602060405180830381865af41580156103e9573d6000803e3d6000fd5b505050506040513d601f19601f8201168201806040525081019061040d91906131ce565b610417908861312b565b61042191906131e7565b61042b908961315b565b8152602001670de0b6b3a764000073__$f5dabb00d97932a7084857b7b479ed7ab3$__63a58b00ba856040518263ffffffff1660e01b815260040161047291815260200190565b602060405180830381865af415801561048f573d6000803e3d6000fd5b505050506040513d601f19601f820116820180604052508101906104b391906131ce565b6104bd888861312b565b6104c7919061312b565b6104d191906131e7565b6104db908861315b565b90528783606481106104ef576104ef613215565b602002015250806104ff8161322b565b91505061033d565b505050505092915050565b61051a612eff565b60c083015160009061052e846104e261312b565b61053891906131e7565b61012085015161054a9061089861315b565b610554919061315b565b600261056185600161315b565b61056b9190613101565b610575919061312b565b60c0850151610586856104e261312b565b61059091906131e7565b6101408601516105a19060c861315b565b6105ab919061315b565b6105b6600286613101565b6105c0919061312b565b6105ca919061315b565b9050600060028561010001516105e09190613101565b90506000600286610100015160016105f8919061315b565b6106029190613101565b90506000610610848461312b565b9050600061061e858461312b565b905060005b60648112156106ab5760405180604001604052808486846029610646919061312b565b610650919061312b565b61065a919061315b565b8152602001838761066c85602961312b565b610676919061312b565b610680919061315b565b905287826064811061069457610694613215565b6020020152806106a381613244565b915050610623565b50505050505092915050565b6106bf612eff565b6000620f424073__$f5dabb00d97932a7084857b7b479ed7ab3$__633925b56d6106ea86605a61312b565b6040518263ffffffff1660e01b815260040161070891815260200190565b602060405180830381865af4158015610725573d6000803e3d6000fd5b505050506040513d601f19601f8201168201806040525081019061074991906131ce565b61075485606461312b565b61075e919061312b565b61076891906131e7565b61010085015161077a906105dc61315b565b610784919061315b565b90506000620f424073__$f5dabb00d97932a7084857b7b479ed7ab3$__6348e5916b6107b187605a61312b565b6040518263ffffffff1660e01b81526004016107cf91815260200190565b602060405180830381865af41580156107ec573d6000803e3d6000fd5b505050506040513d601f19601f8201168201806040525081019061081091906131ce565b61081b86606461312b565b610825919061312b565b61082f91906131e7565b610120860151610841906105dc61315b565b61084b919061315b565b9050600061085a85600161315b565b61086590606461312b565b905060005b6064811015610a2a57600060638261088b672b992ddfa23249d660026131a3565b61089d90670de0b6b3a76400006131a3565b6108a791906131a3565b6108b191906131ba565b60408051808201918290526352c5805d60e11b9091526044810182905290915080670de0b6b3a764000073__$f5dabb00d97932a7084857b7b479ed7ab3$__63a58b00ba60648401602060405180830381865af4158015610916573d6000803e3d6000fd5b505050506040513d601f19601f8201168201806040525081019061093a91906131ce565b610944908761312b565b61094e91906131e7565b610958908861315b565b8152602001670de0b6b3a764000073__$f5dabb00d97932a7084857b7b479ed7ab3$__63cb5cc109856040518263ffffffff1660e01b815260040161099f91815260200190565b602060405180830381865af41580156109bc573d6000803e3d6000fd5b505050506040513d601f19601f820116820180604052508101906109e091906131ce565b6109ea908761312b565b6109f491906131e7565b6109fe908761315b565b9052868360648110610a1257610a12613215565b60200201525080610a228161322b565b91505061086a565b5050505092915050565b610a3c612eff565b60006064846101000151610a509190613101565b610a5b90601e61312b565b610a67906101f461315b565b905060006064856101200151610a7d9190613101565b610a8890601e61312b565b610a94906101f461315b565b905060008560c0015185610168610aab919061312b565b610ab591906131e7565b604051633925b56d60e01b81526004810182905290915060009073__$f5dabb00d97932a7084857b7b479ed7ab3$__90633925b56d90602401602060405180830381865af4158015610b0b573d6000803e3d6000fd5b505050506040513d601f19601f82011682018060405250810190610b2f91906131ce565b6040516348e5916b60e01b81526004810184905290915060009073__$f5dabb00d97932a7084857b7b479ed7ab3$__906348e5916b90602401602060405180830381865af4158015610b85573d6000803e3d6000fd5b505050506040513d601f19601f82011682018060405250810190610ba991906131ce565b905060005b60648112156106ab576000610bc482600361312b565b610bce908661315b565b6040805180820191829052633925b56d60e01b9091526044810182905290915080620f424073__$f5dabb00d97932a7084857b7b479ed7ab3$__633925b56d60648401602060405180830381865af4158015610c2e573d6000803e3d6000fd5b505050506040513d601f19601f82011682018060405250810190610c5291906131ce565b610c5d86602861312b565b610c67919061312b565b610c7191906131e7565b620f4240610c818861014561312b565b610c8b91906131e7565b610c95908b61315b565b610c9f919061315b565b8152602001620f424073__$f5dabb00d97932a7084857b7b479ed7ab3$__6348e5916b856040518263ffffffff1660e01b8152600401610ce191815260200190565b602060405180830381865af4158015610cfe573d6000803e3d6000fd5b505050506040513d601f19601f82011682018060405250810190610d2291906131ce565b610d2d86602861312b565b610d37919061312b565b610d4191906131e7565b620f4240610d518761014561312b565b610d5b91906131e7565b610d65908a61315b565b610d6f919061315b565b9052888360648110610d8357610d83613215565b60200201525080610d9381613244565b915050610bae565b610da3612eff565b60006103e8846101000151610168610dbb919061312b565b610dc591906131e7565b905060006103e88561010001516101f4610ddf919061315b565b610deb9061016861312b565b610df591906131e7565b90506000620f424073__$f5dabb00d97932a7084857b7b479ed7ab3$__633925b56d846040518263ffffffff1660e01b8152600401610e3691815260200190565b602060405180830381865af4158015610e53573d6000803e3d6000fd5b505050506040513d601f19601f82011682018060405250810190610e7791906131ce565b610e83906104b061312b565b6002610e9088600161315b565b610e9a9190613101565b610ea4919061312b565b610eae91906131e7565b604051633925b56d60e01b815260048101859052620f42409073__$f5dabb00d97932a7084857b7b479ed7ab3$__90633925b56d90602401602060405180830381865af4158015610f03573d6000803e3d6000fd5b505050506040513d601f19601f82011682018060405250810190610f2791906131ce565b610f32600289613101565b610f3e906104b061312b565b610f48919061312b565b610f5291906131e7565b610f5e906107d061315b565b610f68919061315b565b90506000620f424073__$f5dabb00d97932a7084857b7b479ed7ab3$__6348e5916b856040518263ffffffff1660e01b8152600401610fa991815260200190565b602060405180830381865af4158015610fc6573d6000803e3d6000fd5b505050506040513d601f19601f82011682018060405250810190610fea91906131ce565b610ff6906104b061312b565b600261100389600161315b565b61100d9190613101565b611017919061312b565b61102191906131e7565b6040516348e5916b60e01b815260048101869052620f42409073__$f5dabb00d97932a7084857b7b479ed7ab3$__906348e5916b90602401602060405180830381865af4158015611076573d6000803e3d6000fd5b505050506040513d601f19601f8201168201806040525081019061109a91906131ce565b6110a560028a613101565b6110b1906104b061312b565b6110bb919061312b565b6110c591906131e7565b6110d1906107d061315b565b6110db919061315b565b9050600060048860c001518860016110f3919061315b565b6110ff90610fa061312b565b61110991906131e7565b61111391906131e7565b61111e90606461315b565b905060005b60648112156106ab576000606361113c8361016861312b565b61114691906131e7565b60c08b01516111578b61016861312b565b61116191906131e7565b61116b919061315b565b6040805180820191829052633925b56d60e01b9091526044810182905290915080620f424073__$f5dabb00d97932a7084857b7b479ed7ab3$__633925b56d60648401602060405180830381865af41580156111cb573d6000803e3d6000fd5b505050506040513d601f19601f820116820180604052508101906111ef91906131ce565b6111f9908761312b565b61120391906131e7565b61120d908861315b565b8152602001620f424073__$f5dabb00d97932a7084857b7b479ed7ab3$__6348e5916b856040518263ffffffff1660e01b815260040161124f91815260200190565b602060405180830381865af415801561126c573d6000803e3d6000fd5b505050506040513d601f19601f8201168201806040525081019061129091906131ce565b86600160028f6112a09190613101565b6112ab90600261312b565b6112b59190613183565b6112bf919061312b565b6112c9919061312b565b6112d391906131e7565b6112dd908761315b565b90528883606481106112f1576112f1613215565b6020020152508061130181613244565b915050611123565b611311612eff565b60006096611322846201000061312b565b61132c91906131e7565b9050600084610100015162010000611344919061312b565b905060006002866101000151600161135c919061315b565b6113669190613101565b90506000600287610100015161137c9190613101565b905060008760c0015187611068611393919061312b565b61139d91906131e7565b6113a99060631961315b565b905060005b60648112156106ab57600073__$f5dabb00d97932a7084857b7b479ed7ab3$__63cb5cc1096063846113e9672b992ddfa23249d660026131a3565b6113fb90670de0b6b3a76400006131a3565b61140591906131a3565b61140f91906131ba565b6040518263ffffffff1660e01b815260040161142d91815260200190565b602060405180830381865af415801561144a573d6000803e3d6000fd5b505050506040513d601f19601f8201168201806040525081019061146e91906131ce565b9050600073__$2af77e0425348cf2cf5810f3ba584fd810$__63657d14d1896107d061149d876201000061312b565b6114a791906131e7565b6040516001600160e01b031960e085901b16815260048101929092526024820152604481018a9052606401602060405180830381865af41580156114ef573d6000803e3d6000fd5b505050506040513d601f19601f8201168201806040525081019061151391906131ce565b90506000670de0b6b3a76400006201000061152e848661312b565b61153a906106a461312b565b61154491906131e7565b61154e91906131e7565b606361155c8661106861312b565b61156691906131e7565b6115729060631961315b565b61157c919061315b565b90506000670de0b6b3a764000062010000611597858761312b565b6115a390613a9861312b565b6115ad91906131e7565b6115b791906131e7565b6115c1908761315b565b9050604051806040016040528082896115da919061312b565b6115e4858c61312b565b6115ee919061315b565b81526020016115fd848a61312b565b611607848c61312b565b611611919061315b565b90528b866064811061162557611625613215565b60200201525083925061163b9150829050613244565b9150506113ae565b61164b612eff565b6000606484610100015161165f9190613101565b61166a90601461312b565b611676906103e861315b565b90506000606485610120015161168c9190613101565b61169790601461312b565b6116a3906103e861315b565b905060008560c00151856101686116ba919061312b565b6116c491906131e7565b9050600061012c60026116d888600161315b565b6116e29190613391565b8861014001516116f2919061312b565b6116fc9190613101565b6117089061012c61315b565b604051633925b56d60e01b81526004810184905290915060009073__$f5dabb00d97932a7084857b7b479ed7ab3$__90633925b56d90602401602060405180830381865af415801561175e573d6000803e3d6000fd5b505050506040513d601f19601f8201168201806040525081019061178291906131ce565b6040516348e5916b60e01b81526004810185905290915060009073__$f5dabb00d97932a7084857b7b479ed7ab3$__906348e5916b90602401602060405180830381865af41580156117d8573d6000803e3d6000fd5b505050506040513d601f19601f820116820180604052508101906117fc91906131ce565b905060005b606481121561190b576040518060400160405280620f424085606385610fa061182a919061312b565b61183491906131e7565b61183e919061312b565b61184891906131e7565b620f4240611856878961312b565b61186091906131e7565b61186a908b61315b565b611874919061315b565b8152602001620f424084606361188c86610fa061312b565b61189691906131e7565b6118a0919061312b565b6118aa91906131e7565b620f42406118b8868961312b565b6118c291906131e7565b6118cc908a61315b565b6118d6919061315b565b9052886118e48360636133a0565b606481106118f4576118f4613215565b60200201528061190381613244565b915050611801565b5050505050505092915050565b611920612eff565b60008361010001516003611934919061312b565b611940906101f461315b565b905060008461012001516003611956919061312b565b611962906101f461315b565b905060008560c0015185610168611979919061312b565b61198391906131e7565b604051633925b56d60e01b81526004810182905290915060009073__$f5dabb00d97932a7084857b7b479ed7ab3$__90633925b56d90602401602060405180830381865af41580156119d9573d6000803e3d6000fd5b505050506040513d601f19601f820116820180604052508101906119fd91906131ce565b6040516348e5916b60e01b81526004810184905290915060009073__$f5dabb00d97932a7084857b7b479ed7ab3$__906348e5916b90602401602060405180830381865af4158015611a53573d6000803e3d6000fd5b505050506040513d601f19601f82011682018060405250810190611a7791906131ce565b905060008861010001516003611a8d919061312b565b611a9990610dac613183565b905060008961012001516003611aaf919061312b565b611abb90610dac613183565b905060005b6064811215611c8057604051806040016040528060638584611ae2919061312b565b611aec91906131e7565b620f42406063611afc8682613183565b6063611b0a8861138861312b565b611b1491906131e7565b611b1e908c61312b565b611b28919061312b565b611b3291906131e7565b611b3c91906131e7565b620f4240611b4b8a60fa61312b565b611b5591906131e7565b6063611b618782613183565b611b6b908f61312b565b611b7591906131e7565b611b7f919061315b565b611b89919061315b565b611b93919061315b565b81526020016063611ba4858561312b565b611bae91906131e7565b620f42406063611bbe8682613183565b6063611bcc8861138861312b565b611bd691906131e7565b611be0908b61312b565b611bea919061312b565b611bf491906131e7565b611bfe91906131e7565b620f4240611c0d8960fa61312b565b611c1791906131e7565b6063611c238782613183565b611c2d908e61312b565b611c3791906131e7565b611c41919061315b565b611c4b919061315b565b611c55919061315b565b9052898260648110611c6957611c69613215565b602002015280611c7881613244565b915050611ac0565b505050505050505092915050565b611ceb60405180610160016040528060008152602001600081526020016000815260200160008152602001600081526020016000815260200160008152602001600081526020016000815260200160008152602001600081525090565b818152604051637028a55d60e11b8152600481018390524260248201527f00000000000000000000000000000000000000000000000000000000000000006001600160a01b03169063e0514aba90604401602060405180830381865afa158015611d59573d6000803e3d6000fd5b505050506040513d601f19601f82011682018060405250810190611d7d91906131ce565b6020820152604051635a2d1e0760e11b8152600481018390526000907f00000000000000000000000000000000000000000000000000000000000000006001600160a01b03169063b45a3c0e90602401606060405180830381865afa158015611dea573d6000803e3d6000fd5b505050506040513d601f19601f82011682018060405250810190611e0e91906133b3565b602081015160408401528051600f0b606084015290506008611e2f84612019565b611e399190613101565b6080830152611e4783612065565b60a08301526020820151611e5a9061209f565b60c0830152611e6883612019565b610100830152611e88611e8384670de0b6b3a76400006131a3565b612019565b610120830152611ea3611e8384671bc16d674ec800006131a3565b61014083015250919050565b60606000611ebc83611c8e565b9050611ec7816120d4565b604051602001611ed79190613452565b604051602081830303815290604052915050919050565b60606000611efb83611c8e565b9050611f06816120d4565b604051602001611f16919061346e565b60405160208183030381529060405291506000611f368260200151612172565b90506000611f478360600151612172565b90506000806000611f5b866040015161220c565b919450925090506000611f6d84612232565b611f7684612232565b611f7f84612232565b8888604051602001611f9595949392919061351d565b60405160208183030381529060405290506000611fe8611fb889600001516122c5565b611fc18b612337565b84604051602001611fd493929190613674565b604051602081830303815290604052612337565b905080604051602001611ffb91906138ac565b60405160208183030381529060405298505050505050505050919050565b60006103e78260405160200161203191815260200190565b6040516020818303038152906040528051906020012060001c61205491906138f1565b61205f90600161315b565b92915050565b6000600a8260405160200161207c91815260200190565b6040516020818303038152906040528051906020012060001c61205f91906138f1565b600060026120ac8361248a565b6120b790600461312b565b9150806120c38461248a565b12156120ce57600091505b50919050565b606081608001516000036120eb5761205f826124c7565b81608001516001036121005761205f82612528565b81608001516002036121155761205f82612589565b816080015160030361212a5761205f826125ea565b816080015160040361213f5761205f8261264b565b81608001516005036121545761205f826126ac565b81608001516006036121695761205f8261270d565b61205f8261276e565b60606000612188670de0b6b3a7640000846131ba565b9050600061219e670de0b6b3a7640000856138f1565b905060006121b467016345785d8a0000836131ba565b9050606082156121f7576121c784612232565b6121d083612232565b6040516020016121e1929190613905565b6040516020818303038152906040529050612203565b61220084612232565b90505b95945050505050565b6000808061222561222062015180866131ba565b6127cf565b9196909550909350915050565b6060600061223f83612943565b600101905060008167ffffffffffffffff81111561225f5761225f612f39565b6040519080825280601f01601f191660200182016040528015612289576020820181803683370190505b5090508181016020015b600019016f181899199a1a9b1b9c1cb0b131b232b360811b600a86061a8153600a850494508461229357509392505050565b6060600082126122e457604051806020016040528060008152506122ff565b604051806040016040528060018152602001602d60f81b8152505b61231061230b84612a1b565b612232565b604051602001612321929190613941565b6040516020818303038152906040529050919050565b6060815160000361235657505060408051602081019091526000815290565b6000604051806060016040528060408152602001613ca260409139905060006003845160026123859190613970565b61238f91906131ba565b61239a9060046131a3565b67ffffffffffffffff8111156123b2576123b2612f39565b6040519080825280601f01601f1916602001820160405280156123dc576020820181803683370190505b509050600182016020820185865187015b80821015612448576003820191508151603f8160121c168501518453600184019350603f81600c1c168501518453600184019350603f8160061c168501518453600184019350603f81168501518453506001830192506123ed565b505060038651066001811461246457600281146124775761247f565b603d6001830353603d600283035361247f565b603d60018303535b509195945050505050565b60008061249f670de0b6b3a7640000846131ba565b90505b80156120ce576124b3600a826131ba565b9050816124bf81613244565b9250506124a2565b606060005b8260c001518112156120ce5760006124e48483610271565b9050826124f2838684612a32565b604051602001612503929190613941565b604051602081830303815290604052925050808061252090613244565b9150506124cc565b606060005b8260c001518112156120ce5760006125458483610512565b905082612553838684612a32565b604051602001612564929190613941565b604051602081830303815290604052925050808061258190613244565b91505061252d565b606060005b8260c001518112156120ce5760006125a684836106b7565b9050826125b4838684612a32565b6040516020016125c5929190613941565b60405160208183030381529060405292505080806125e290613244565b91505061258e565b606060005b8260c001518112156120ce5760006126078483610d9b565b905082612615838684612a32565b604051602001612626929190613941565b604051602081830303815290604052925050808061264390613244565b9150506125ef565b606060005b8260c001518112156120ce5760006126688483611309565b905082612676838684612a32565b604051602001612687929190613941565b60405160208183030381529060405292505080806126a490613244565b915050612650565b606060005b8260c001518112156120ce5760006126c98483610a34565b9050826126d7838684612a32565b6040516020016126e8929190613941565b604051602081830303815290604052925050808061270590613244565b9150506126b1565b606060005b8260c001518112156120ce57600061272a8483611643565b905082612738838684612a32565b604051602001612749929190613941565b604051602081830303815290604052925050808061276690613244565b915050612712565b606060005b8260c001518112156120ce57600061278b8483611918565b905082612799838684612a32565b6040516020016127aa929190613941565b60405160208183030381529060405292505080806127c790613244565b915050612773565b60008080838162253d8c6127e68362010bd961315b565b6127f0919061315b565b9050600062023ab161280383600461312b565b61280d91906131e7565b9050600461281e8262023ab161312b565b61282990600361315b565b61283391906131e7565b61283d9083613183565b9150600062164b0961285084600161315b565b61285c90610fa061312b565b61286691906131e7565b90506004612876826105b561312b565b61288091906131e7565b61288a9084613183565b61289590601f61315b565b9250600061098f6128a785605061312b565b6128b191906131e7565b9050600060506128c38361098f61312b565b6128cd91906131e7565b6128d79086613183565b90506128e4600b836131e7565b94506128f185600c61312b565b6128fc83600261315b565b6129069190613183565b91508483612915603187613183565b61292090606461312b565b61292a919061315b565b612934919061315b565b9a919950975095505050505050565b60008072184f03e93ff9f4daa797ed6e38ed64bf6a1f0160401b83106129825772184f03e93ff9f4daa797ed6e38ed64bf6a1f0160401b830492506040015b6d04ee2d6d415b85acef810000000083106129ae576d04ee2d6d415b85acef8100000000830492506020015b662386f26fc1000083106129cc57662386f26fc10000830492506010015b6305f5e10083106129e4576305f5e100830492506008015b61271083106129f857612710830492506004015b60648310612a0a576064830492506002015b600a831061205f5760010192915050565b600080821215612a2e578160000361205f565b5090565b606080600060015b6064811015612b3257600080868360648110612a5857612a58613215565b602002015151878460648110612a7057612a70613215565b6020020151602001519150915060c71982138015612a8f575061106882125b8015612a9c575060c71981135b8015612aa9575061106881125b15612b18578315612af35784612abe836122c5565b612ac7836122c5565b604051602001612ad993929190613983565b604051602081830303815290604052945060009350612b1d565b84612afd836122c5565b612b06836122c5565b604051602001612ad9939291906139e2565b600193505b50508080612b2a9061322b565b915050612a3a565b506000612b3f8688612c3e565b855151909150612b4e906122c5565b855160200151612b5d906122c5565b84612b6b8460400151612232565b612b756032612232565b612b828660600151612232565b612b8c6019612232565b604051602001612ba29796959493929190613a12565b604051602081830303815290604052935083612bc18260800151612232565b8251602084015160149060058110612bdb57612bdb613215565b601091828204019190066002029054906101000a900460f01b612c018560a00151612232565b612c0e8660800151612232565b604051602001612c2396959493929190613b23565b60405160208183030381529060405293505050509392505050565b612c816040518060c0016040528060006001600160c01b031916815260200160008152602001600081526020016000815260200160008152602001600081525090565b60a08301518290600090600a8110612c9b57612c9b613215565b60020201600585600001518660400151612cb5919061315b565b612cc086601461315b565b612cca919061312b565b604051602001612cdc91815260200190565b6040516020818303038152906040528051906020012060001c612cff91906138f1565b60058110612d0f57612d0f613215565b60048104919091015460039091166008026101000a900460c01b6001600160c01b031916825283516040850151600591612d489161315b565b612d5385600161315b565b612d5d919061312b565b604051602001612d6f91815260200190565b6040516020818303038152906040528051906020012060001c612d9291906138f1565b602083015283516040850151600291603291612dae919061315b565b612db986600161315b565b612dc3919061312b565b604051602001612dd591815260200190565b6040516020818303038152906040528051906020012060001c612df891906138f1565b612e0291906131ba565b612e0d9060026131a3565b612e189060056131a3565b60408301819052612e2b906002906131ba565b612e369060056131a3565b60608301819052604083015160199190612e5290603290613970565b612e5c9190613970565b612e669190613970565b60808301526006612e78826001613970565b856101200151612e8891906131ba565b612e9291906138f1565b15612ef857600f612ea382806131a3565b612eae906001613970565b856101400151866101000151612ec4919061312b565b612ece91906131ba565b612ed891906138f1565b612ee390600a613970565b8260800151612ef291906131a3565b60a08301525b5092915050565b60405180610c8001604052806064905b6040805180820190915260008082526020820152815260200190600190039081612f0f5790505090565b634e487b7160e01b600052604160045260246000fd5b604051610160810167ffffffffffffffff81118282101715612f8157634e487b7160e01b600052604160045260246000fd5b60405290565b600080828403610180811215612f9c57600080fd5b61016080821215612fac57600080fd5b612fb4612f4f565b853581526020808701359082015260408087013590820152606080870135908201526080808701359082015260a0808701359082015260c0808701359082015260e08087013590820152610100808701359082015261012080870135908201526101408087013590820152969401359450505050565b6119008101818360005b606481101561305f578151805184526020908101518185015260409093019290910190600101613034565b50505092915050565b60006020828403121561307a57600080fd5b5035919050565b60005b8381101561309c578181015183820152602001613084565b50506000910152565b600081518084526130bd816020860160208601613081565b601f01601f19169290920160200192915050565b6020815260006130e460208301846130a5565b9392505050565b634e487b7160e01b600052601260045260246000fd5b600082613110576131106130eb565b500790565b634e487b7160e01b600052601160045260246000fd5b80820260008212600160ff1b8414161561314757613147613115565b818105831482151761205f5761205f613115565b808201828112600083128015821682158216171561317b5761317b613115565b505092915050565b8181036000831280158383131683831282161715612ef857612ef8613115565b808202811582820484141761205f5761205f613115565b6000826131c9576131c96130eb565b500490565b6000602082840312156131e057600080fd5b5051919050565b6000826131f6576131f66130eb565b600160ff1b82146000198414161561321057613210613115565b500590565b634e487b7160e01b600052603260045260246000fd5b60006001820161323d5761323d613115565b5060010190565b60006001600160ff1b01820161323d5761323d613115565b80825b600180861161326e57506132a1565b6001600160ff1b0382900482111561328857613288613115565b8086161561329557918102915b9490941c93800261325f565b935093915050565b60008280156132bf57600181146132c9576132d2565b600191505061205f565b8291505061205f565b50816132e05750600061205f565b506001600082138082146132f957801561331857613332565b6001600160ff1b0383900483111561331357613313613115565b613332565b6001600160ff1b0383900583121561333257613332613115565b508083161561333e5750805b61334e8360011c8384028361325c565b600082136001600160ff1b038290048311161561336d5761336d613115565b60008212600160ff1b8290058312161561338957613389613115565b029392505050565b60006130e460ff8416836132a9565b8181038181111561205f5761205f613115565b6000606082840312156133c557600080fd5b6040516060810181811067ffffffffffffffff821117156133f657634e487b7160e01b600052604160045260246000fd5b6040528251600f81900b811461340b57600080fd5b8152602083810151908201526040830151801515811461342a57600080fd5b60408201529392505050565b60008151613448818560208601613081565b9290920192915050565b60008251613464818460208701613081565b9190910192915050565b7f3c7376672077696474683d2233353022206865696768743d223335302220766981527f6577426f783d2230203020343030302034303030222066696c6c3d226e6f6e6560208201527f2220786d6c6e733d22687474703a2f2f7777772e77332e6f72672f323030302f60408201526439bb33911f60d91b606082015260008251613500816065850160208701613081565b651e17b9bb339f60d11b6065939091019283015250606b01919050565b7f7b202274726169745f74797065223a2022556e6c6f636b2044617465222c20228152683b30b63ab2911d101160b91b602082015260008651613567816029850160208b01613081565b8083019050602d60f81b806029830152875161358a81602a850160208c01613081565b602a92019182015285516135a581602b840160208a01613081565b630113e96160e51b602b92909101918201527f7b202274726169745f74797065223a2022566f74696e6720506f776572222c20602f82015269113b30b63ab2911d101160b11b604f82015261366861365a613654613619613609605986018a613436565b630113e96160e51b815260040190565b7f7b202274726169745f74797065223a20224c6f636b65642056454c4f222c20228152683b30b63ab2911d101160b91b602082015260290190565b86613436565b61227d60f01b815260020190565b98975050505050505050565b6f7b226e616d65223a20226c6f636b202360801b815283516000906136a0816010850160208901613081565b7f222c20226261636b67726f756e645f636f6c6f72223a2022313231613236222c6010918401918201527f20226465736372697074696f6e223a202256656c6f64726f6d652046696e616e60308201527f63652069732061206e6578742d67656e65726174696f6e20414d4d207468617460508201527f20636f6d62696e6573207468652062657374206f662043757276652c20536f6c60708201527f69646c7920616e6420556e69737761702c2064657369676e656420746f20736560908201527f72766520617320746865204f7074696d69736d2063656e7472616c206c69717560b08201527f6964697479206875622e2056656c6f64726f6d65204e46547320766f7465206f60d08201527f6e20746f6b656e20656d697373696f6e7320616e64207265636569766520627260f08201527f6962657320616e6420666565732067656e6572617465642062792074686520706101108201527f726f746f636f6c2e222c2022696d616765223a2022646174613a696d6167652f6101308201526e1cdd99cade1b5b0ed8985cd94d8d0b608a1b6101508201526138a261389561388861388261386761385861015f87018b613436565b6201116160ed1b815260030190565b6e2261747472696275746573223a205b60881b8152600f0190565b87613436565b605d60f81b815260010190565b607d60f81b815260010190565b9695505050505050565b7f646174613a6170706c69636174696f6e2f6a736f6e3b6261736536342c0000008152600082516138e481601d850160208701613081565b91909101601d0192915050565b600082613900576139006130eb565b500690565b60008351613917818460208801613081565b601760f91b9083019081528351613935816001840160208801613081565b01600101949350505050565b60008351613953818460208801613081565b835190830190613967818360208801613081565b01949350505050565b8082018082111561205f5761205f613115565b60008451613995818460208901613081565b604d60f81b90830190815284516139b3816001840160208901613081565b600b60fa1b6001929091019182015283516139d5816002840160208801613081565b0160020195945050505050565b600084516139f4818460208901613081565b601360fa1b90830190815284516139b3816001840160208901613081565b693c7061746820643d224d60b01b81528751600090613a3881600a850160208d01613081565b8083019050600b60fa1b80600a8301528951613a5b81600b850160208e01613081565b8951920191613a7181600b850160208d01613081565b601160f91b600b93909101928301527f207374796c653d227374726f6b652d6461736861727261793a20000000000000600c8301528751613ab9816026850160208c01613081565b6026920191820152613b15613afe613af1613882613ade613aeb81602788018d613436565b600b60fa1b815260010190565b8a613436565b603b60f81b815260010190565b6a0101696b7b33339b2ba1d160ad1b8152600b0190565b9a9950505050505050505050565b60008751613b35818460208c01613081565b875190830190613b49818360208c01613081565b603b60f81b91018181526801039ba3937b5b29d160bd1b60018201526001600160c01b03198816600a82015260128101919091526d1039ba3937b5b296bbb4b23a341d60911b60138201526001600160f01b031986166021820152602560f81b60238201526e1d91103830ba342632b733ba341e9160891b6024820152613c94613c45613c37613882613bf0613be2603387018b613436565b61111f60f11b815260020190565b7f3c616e696d617465206174747269627574654e616d653d227374726f6b652d648152746173686f6666736574222076616c7565733d22303b60581b602082015260350190565b61011160f51b815260020190565b7f6475723d223473222063616c634d6f64653d226c696e6561722220726570656181527f74436f756e743d22696e646566696e69746522202f3e3c2f706174683e0000006020820152603d0190565b999850505050505050505056fe4142434445464748494a4b4c4d4e4f505152535455565758595a6162636465666768696a6b6c6d6e6f707172737475767778797a303132333435363738392b2fa2646970667358221220357f64c28804d318f70de67b92f2063359fffd9cf1b8b1108e28ec7b6174c8a664736f6c63430008130033","linkReferences":{"contracts/art/PerlinNoise.sol":{"PerlinNoise":[{"start":6558,"length":20}]},"contracts/art/Trig.sol":{"Trig":[{"start":2266,"length":20},{"start":2405,"length":20},{"start":3057,"length":20},{"start":3256,"length":20},{"start":3591,"length":20},{"start":3730,"length":20},{"start":4091,"length":20},{"start":4213,"length":20},{"start":4383,"length":20},{"start":4564,"length":20},{"start":4905,"length":20},{"start":5107,"length":20},{"start":5276,"length":20},{"start":5478,"length":20},{"start":5820,"length":20},{"start":5954,"length":20},{"start":6373,"length":20},{"start":7246,"length":20},{"start":7368,"length":20},{"start":7881,"length":20},{"start":8003,"length":20}]}}},"methodIdentifiers":{"circles((int256,int256,int256,int256,int256,uint256,int256,int256,int256,int256,int256),int256)":"1e7a79c4","corners((int256,int256,int256,int256,int256,uint256,int256,int256,int256,int256,int256),int256)":"76a07fbb","curves((int256,int256,int256,int256,int256,uint256,int256,int256,int256,int256,int256),int256)":"8165ae85","explosion((int256,int256,int256,int256,int256,uint256,int256,int256,int256,int256,int256),int256)":"8e1ba1a3","generateConfig(uint256)":"990379fa","interlockingCircles((int256,int256,int256,int256,int256,uint256,int256,int256,int256,int256,int256),int256)":"5d326367","lineArtPathsOnly(uint256)":"a707e80d","spiral((int256,int256,int256,int256,int256,uint256,int256,int256,int256,int256,int256),int256)":"751ee4d1","tokenURI(uint256)":"c87b56dd","twoStripes((int256,int256,int256,int256,int256,uint256,int256,int256,int256,int256,int256),int256)":"34ef880c","ve()":"1f850716","wormhole((int256,int256,int256,int256,int256,uint256,int256,int256,int256,int256,int256),int256)":"9108138b"},"id":6}