{"abi":[{"type":"constructor","inputs":[],"stateMutability":"nonpayable"},{"type":"receive","stateMutability":"payable"},{"type":"function","name":"EIP712_DOMAIN_TYPE","inputs":[],"outputs":[{"name":"","type":"string","internalType":"string"}],"stateMutability":"view"},{"type":"function","name":"GENERIC_PARAMS","inputs":[],"outputs":[{"name":"","type":"string","internalType":"string"}],"stateMutability":"view"},{"type":"function","name":"_getEncoded","inputs":[{"name":"req","type":"tuple","internalType":"struct IForwarder.ForwardRequest","components":[{"name":"from","type":"address","internalType":"address"},{"name":"to","type":"address","internalType":"address"},{"name":"value","type":"uint256","internalType":"uint256"},{"name":"gas","type":"uint256","internalType":"uint256"},{"name":"nonce","type":"uint256","internalType":"uint256"},{"name":"data","type":"bytes","internalType":"bytes"},{"name":"validUntil","type":"uint256","internalType":"uint256"}]},{"name":"requestTypeHash","type":"bytes32","internalType":"bytes32"},{"name":"suffixData","type":"bytes","internalType":"bytes"}],"outputs":[{"name":"","type":"bytes","internalType":"bytes"}],"stateMutability":"pure"},{"type":"function","name":"domains","inputs":[{"name":"","type":"bytes32","internalType":"bytes32"}],"outputs":[{"name":"","type":"bool","internalType":"bool"}],"stateMutability":"view"},{"type":"function","name":"execute","inputs":[{"name":"req","type":"tuple","internalType":"struct IForwarder.ForwardRequest","components":[{"name":"from","type":"address","internalType":"address"},{"name":"to","type":"address","internalType":"address"},{"name":"value","type":"uint256","internalType":"uint256"},{"name":"gas","type":"uint256","internalType":"uint256"},{"name":"nonce","type":"uint256","internalType":"uint256"},{"name":"data","type":"bytes","internalType":"bytes"},{"name":"validUntil","type":"uint256","internalType":"uint256"}]},{"name":"domainSeparator","type":"bytes32","internalType":"bytes32"},{"name":"requestTypeHash","type":"bytes32","internalType":"bytes32"},{"name":"suffixData","type":"bytes","internalType":"bytes"},{"name":"sig","type":"bytes","internalType":"bytes"}],"outputs":[{"name":"success","type":"bool","internalType":"bool"},{"name":"ret","type":"bytes","internalType":"bytes"}],"stateMutability":"payable"},{"type":"function","name":"getNonce","inputs":[{"name":"from","type":"address","internalType":"address"}],"outputs":[{"name":"","type":"uint256","internalType":"uint256"}],"stateMutability":"view"},{"type":"function","name":"registerDomainSeparator","inputs":[{"name":"name","type":"string","internalType":"string"},{"name":"version","type":"string","internalType":"string"}],"outputs":[],"stateMutability":"nonpayable"},{"type":"function","name":"registerRequestType","inputs":[{"name":"typeName","type":"string","internalType":"string"},{"name":"typeSuffix","type":"string","internalType":"string"}],"outputs":[],"stateMutability":"nonpayable"},{"type":"function","name":"typeHashes","inputs":[{"name":"","type":"bytes32","internalType":"bytes32"}],"outputs":[{"name":"","type":"bool","internalType":"bool"}],"stateMutability":"view"},{"type":"function","name":"verify","inputs":[{"name":"req","type":"tuple","internalType":"struct IForwarder.ForwardRequest","components":[{"name":"from","type":"address","internalType":"address"},{"name":"to","type":"address","internalType":"address"},{"name":"value","type":"uint256","internalType":"uint256"},{"name":"gas","type":"uint256","internalType":"uint256"},{"name":"nonce","type":"uint256","internalType":"uint256"},{"name":"data","type":"bytes","internalType":"bytes"},{"name":"validUntil","type":"uint256","internalType":"uint256"}]},{"name":"domainSeparator","type":"bytes32","internalType":"bytes32"},{"name":"requestTypeHash","type":"bytes32","internalType":"bytes32"},{"name":"suffixData","type":"bytes","internalType":"bytes"},{"name":"sig","type":"bytes","internalType":"bytes"}],"outputs":[],"stateMutability":"view"},{"type":"event","name":"DomainRegistered","inputs":[{"name":"domainSeparator","type":"bytes32","indexed":true,"internalType":"bytes32"},{"name":"domainValue","type":"bytes","indexed":false,"internalType":"bytes"}],"anonymous":false},{"type":"event","name":"RequestTypeRegistered","inputs":[{"name":"typeHash","type":"bytes32","indexed":true,"internalType":"bytes32"},{"name":"typeStr","type":"string","indexed":false,"internalType":"string"}],"anonymous":false}],"bytecode":{"object":"0x60806040523480156200001157600080fd5b5060006040518060800160405280605d8152602001620013b0605d9139604051602001620000409190620000ee565b60408051601f1981840301815291905290506200005d8162000064565b5062000167565b8051602080830191909120600081815291829052604091829020805460ff19166001179055905181907f64d6bce64323458c44643c51fe45113efc882082f7b7fd5f09f0d69d2eedb20290620000bc90859062000132565b60405180910390a25050565b60005b83811015620000e5578181015183820152602001620000cb565b50506000910152565b6e08cdee4eec2e4c8a4cae2eacae6e85608b1b8152600082516200011a81600f850160208701620000c8565b602960f81b600f939091019283015250601001919050565b602081526000825180602084015262000153816040850160208701620000c8565b601f01601f19169190910160400192915050565b61123980620001776000396000f3fe6080604052600436106100955760003560e01c8063c3f28abd11610059578063c3f28abd14610192578063c722f177146101a7578063d9210be5146101d7578063e024dc7f146101f7578063e2b62f2d1461021857600080fd5b8063066a310c146100a157806321fe98df146100cc5780632d0335ab1461010c5780639c7b459214610150578063ad9f99c71461017257600080fd5b3661009c57005b600080fd5b3480156100ad57600080fd5b506100b6610238565b6040516100c39190610d30565b60405180910390f35b3480156100d857600080fd5b506100fc6100e7366004610d4a565b60006020819052908152604090205460ff1681565b60405190151581526020016100c3565b34801561011857600080fd5b50610142610127366004610d63565b6001600160a01b031660009081526002602052604090205490565b6040519081526020016100c3565b34801561015c57600080fd5b5061017061016b366004610dce565b610254565b005b34801561017e57600080fd5b5061017061018d366004610e52565b61034b565b34801561019e57600080fd5b506100b661036c565b3480156101b357600080fd5b506100fc6101c2366004610d4a565b60016020526000908152604090205460ff1681565b3480156101e357600080fd5b506101706101f2366004610dce565b610388565b61020a610205366004610e52565b61048b565b6040516100c3929190610efa565b34801561022457600080fd5b506100b6610233366004610f1d565b6106a2565b6040518060800160405280605d8152602001611155605d913981565b600046905060006040518060800160405280605281526020016111b26052913980519060200120868660405161028b929190610f74565b604051809103902085856040516102a3929190610f74565b6040805191829003822060208301949094528101919091526060810191909152608081018390523060a082015260c00160408051601f198184030181528282528051602080830191909120600081815260019283905293909320805460ff1916909117905592509081907f4bc68689cbe89a4a6333a3ab0a70093874da3e5bfb71e93102027f3f073687d89061033a908590610d30565b60405180910390a250505050505050565b6103548761073c565b610363878787878787876107b9565b50505050505050565b6040518060800160405280605281526020016111b26052913981565b60005b838110156104365760008585838181106103a7576103a7610f84565b909101356001600160f81b031916915050600560fb1b81148015906103da5750602960f81b6001600160f81b0319821614155b6104235760405162461bcd60e51b81526020600482015260156024820152744657443a20696e76616c696420747970656e616d6560581b60448201526064015b60405180910390fd5b508061042e81610fb0565b91505061038b565b50600084846040518060800160405280605d8152602001611155605d9139858560405160200161046a959493929190610fc9565b604051602081830303815290604052905061048481610981565b5050505050565b6000606061049e898989898989896107b9565b6104a7896109e3565b60c089013515806104bb5750438960c00135115b6104fe5760405162461bcd60e51b81526020600482015260146024820152731195d10e881c995c5d595cdd08195e1c1a5c995960621b604482015260640161041a565b600060408a01351561050f5750619c405b600061051e60a08c018c611017565b61052b60208e018e610d63565b60405160200161053d9392919061105e565b60408051601f19818403018152919052905061055d8260608d0135611084565b60405a61056b90603f611097565b61057591906110ae565b10156105bb5760405162461bcd60e51b81526020600482015260156024820152744657443a20696e73756666696369656e742067617360581b604482015260640161041a565b6105cb60408c0160208d01610d63565b6001600160a01b03168b606001358c60400135836040516105ec91906110d0565b600060405180830381858888f193505050503d806000811461062a576040519150601f19603f3d011682016040523d82523d6000602084013e61062f565b606091505b50909450925060408b0135158015906106485750600047115b156106945761065a60208c018c610d63565b6001600160a01b03166108fc479081150290604051600060405180830381858888f19350505050158015610692573d6000803e3d6000fd5b505b505097509795505050505050565b6060836106b26020870187610d63565b6001600160a01b03166106cb6040880160208901610d63565b6001600160a01b03166040880135606089013560808a01356106f060a08c018c611017565b6040516106fe929190610f74565b6040519081900381206107239796959493929160c08e0135908c908c906020016110ec565b6040516020818303038152906040529050949350505050565b6080810135600260006107526020850185610d63565b6001600160a01b03166001600160a01b0316815260200190815260200160002054146107b65760405162461bcd60e51b815260206004820152601360248201527208cae887440dcdedcc6ca40dad2e6dac2e8c6d606b1b604482015260640161041a565b50565b60008681526001602052604090205460ff166108175760405162461bcd60e51b815260206004820152601d60248201527f4657443a20756e7265676973746572656420646f6d61696e207365702e000000604482015260640161041a565b60008581526020819052604090205460ff166108755760405162461bcd60e51b815260206004820152601a60248201527f4657443a20756e72656769737465726564207479706568617368000000000000604482015260640161041a565b600086610884898888886106a2565b80516020918201206040516108b093920161190160f01b81526002810192909252602282015260420190565b60408051601f19818403018152919052805160209182012091506108d690890189610d63565b6001600160a01b031661092184848080601f0160208091040260200160405190810160405280939291908181526020018383808284376000920191909152508693925050610a679050565b6001600160a01b0316146109775760405162461bcd60e51b815260206004820152601760248201527f4657443a207369676e6174757265206d69736d61746368000000000000000000604482015260640161041a565b5050505050505050565b8051602080830191909120600081815291829052604091829020805460ff19166001179055905181907f64d6bce64323458c44643c51fe45113efc882082f7b7fd5f09f0d69d2eedb202906109d7908590610d30565b60405180910390a25050565b6080810135600260006109f96020850185610d63565b6001600160a01b0316815260208101919091526040016000908120805491610a2083610fb0565b91905055146107b65760405162461bcd60e51b815260206004820152601360248201527208cae887440dcdedcc6ca40dad2e6dac2e8c6d606b1b604482015260640161041a565b6000806000610a768585610a8d565b91509150610a8381610ad2565b5090505b92915050565b6000808251604103610ac35760208301516040840151606085015160001a610ab787828585610c1c565b94509450505050610acb565b506000905060025b9250929050565b6000816004811115610ae657610ae661113e565b03610aee5750565b6001816004811115610b0257610b0261113e565b03610b4f5760405162461bcd60e51b815260206004820152601860248201527f45434453413a20696e76616c6964207369676e61747572650000000000000000604482015260640161041a565b6002816004811115610b6357610b6361113e565b03610bb05760405162461bcd60e51b815260206004820152601f60248201527f45434453413a20696e76616c6964207369676e6174757265206c656e67746800604482015260640161041a565b6003816004811115610bc457610bc461113e565b036107b65760405162461bcd60e51b815260206004820152602260248201527f45434453413a20696e76616c6964207369676e6174757265202773272076616c604482015261756560f01b606482015260840161041a565b6000807f7fffffffffffffffffffffffffffffff5d576e7357a4501ddfe92f46681b20a0831115610c535750600090506003610cd7565b6040805160008082526020820180845289905260ff881692820192909252606081018690526080810185905260019060a0016020604051602081039080840390855afa158015610ca7573d6000803e3d6000fd5b5050604051601f1901519150506001600160a01b038116610cd057600060019250925050610cd7565b9150600090505b94509492505050565b60005b83811015610cfb578181015183820152602001610ce3565b50506000910152565b60008151808452610d1c816020860160208601610ce0565b601f01601f19169290920160200192915050565b602081526000610d436020830184610d04565b9392505050565b600060208284031215610d5c57600080fd5b5035919050565b600060208284031215610d7557600080fd5b81356001600160a01b0381168114610d4357600080fd5b60008083601f840112610d9e57600080fd5b50813567ffffffffffffffff811115610db657600080fd5b602083019150836020828501011115610acb57600080fd5b60008060008060408587031215610de457600080fd5b843567ffffffffffffffff80821115610dfc57600080fd5b610e0888838901610d8c565b90965094506020870135915080821115610e2157600080fd5b50610e2e87828801610d8c565b95989497509550505050565b600060e08284031215610e4c57600080fd5b50919050565b600080600080600080600060a0888a031215610e6d57600080fd5b873567ffffffffffffffff80821115610e8557600080fd5b610e918b838c01610e3a565b985060208a0135975060408a0135965060608a0135915080821115610eb557600080fd5b610ec18b838c01610d8c565b909650945060808a0135915080821115610eda57600080fd5b50610ee78a828b01610d8c565b989b979a50959850939692959293505050565b8215158152604060208201526000610f156040830184610d04565b949350505050565b60008060008060608587031215610f3357600080fd5b843567ffffffffffffffff80821115610f4b57600080fd5b610f5788838901610e3a565b9550602087013594506040870135915080821115610e2157600080fd5b8183823760009101908152919050565b634e487b7160e01b600052603260045260246000fd5b634e487b7160e01b600052601160045260246000fd5b600060018201610fc257610fc2610f9a565b5060010190565b848682376000858201600560fb1b81528551610fec816001840160208a01610ce0565b600b60fa1b600192909101918201528385600283013760009301600201928352509095945050505050565b6000808335601e1984360301811261102e57600080fd5b83018035915067ffffffffffffffff82111561104957600080fd5b602001915036819003821315610acb57600080fd5b8284823760609190911b6bffffffffffffffffffffffff19169101908152601401919050565b80820180821115610a8757610a87610f9a565b8082028115828204841417610a8757610a87610f9a565b6000826110cb57634e487b7160e01b600052601260045260246000fd5b500490565b600082516110e2818460208701610ce0565b9190910192915050565b8a81528960208201528860408201528760608201528660808201528560a08201528460c08201528360e082015260006101008385828501376000929093019092019081529a9950505050505050505050565b634e487b7160e01b600052602160045260246000fdfe616464726573732066726f6d2c6164647265737320746f2c75696e743235362076616c75652c75696e74323536206761732c75696e74323536206e6f6e63652c627974657320646174612c75696e743235362076616c6964556e74696c454950373132446f6d61696e28737472696e67206e616d652c737472696e672076657273696f6e2c75696e7432353620636861696e49642c6164647265737320766572696679696e67436f6e747261637429a2646970667358221220ebd8ba4ca78584b0727dc54406cf69e372a6d4334d2a3657b3e2549fedc09daa64736f6c63430008130033616464726573732066726f6d2c6164647265737320746f2c75696e743235362076616c75652c75696e74323536206761732c75696e74323536206e6f6e63652c627974657320646174612c75696e743235362076616c6964556e74696c","linkReferences":{}},"methodIdentifiers":{"EIP712_DOMAIN_TYPE()":"c3f28abd","GENERIC_PARAMS()":"066a310c","_getEncoded((address,address,uint256,uint256,uint256,bytes,uint256),bytes32,bytes)":"e2b62f2d","domains(bytes32)":"c722f177","execute((address,address,uint256,uint256,uint256,bytes,uint256),bytes32,bytes32,bytes,bytes)":"e024dc7f","getNonce(address)":"2d0335ab","registerDomainSeparator(string,string)":"9c7b4592","registerRequestType(string,string)":"d9210be5","typeHashes(bytes32)":"21fe98df","verify((address,address,uint256,uint256,uint256,bytes,uint256),bytes32,bytes32,bytes,bytes)":"ad9f99c7"},"id":83}