{"abi":[{"type":"constructor","inputs":[{"name":"_ve","type":"address","internalType":"address"}],"stateMutability":"nonpayable"},{"type":"function","name":"WEEK","inputs":[],"outputs":[{"name":"","type":"uint256","internalType":"uint256"}],"stateMutability":"view"},{"type":"function","name":"checkpointToken","inputs":[],"outputs":[],"stateMutability":"nonpayable"},{"type":"function","name":"claim","inputs":[{"name":"_tokenId","type":"uint256","internalType":"uint256"}],"outputs":[{"name":"","type":"uint256","internalType":"uint256"}],"stateMutability":"nonpayable"},{"type":"function","name":"claimMany","inputs":[{"name":"_tokenIds","type":"uint256[]","internalType":"uint256[]"}],"outputs":[{"name":"","type":"bool","internalType":"bool"}],"stateMutability":"nonpayable"},{"type":"function","name":"claimable","inputs":[{"name":"_tokenId","type":"uint256","internalType":"uint256"}],"outputs":[{"name":"claimable_","type":"uint256","internalType":"uint256"}],"stateMutability":"view"},{"type":"function","name":"lastTokenTime","inputs":[],"outputs":[{"name":"","type":"uint256","internalType":"uint256"}],"stateMutability":"view"},{"type":"function","name":"minter","inputs":[],"outputs":[{"name":"","type":"address","internalType":"address"}],"stateMutability":"view"},{"type":"function","name":"setMinter","inputs":[{"name":"_minter","type":"address","internalType":"address"}],"outputs":[],"stateMutability":"nonpayable"},{"type":"function","name":"startTime","inputs":[],"outputs":[{"name":"","type":"uint256","internalType":"uint256"}],"stateMutability":"view"},{"type":"function","name":"timeCursorOf","inputs":[{"name":"","type":"uint256","internalType":"uint256"}],"outputs":[{"name":"","type":"uint256","internalType":"uint256"}],"stateMutability":"view"},{"type":"function","name":"token","inputs":[],"outputs":[{"name":"","type":"address","internalType":"address"}],"stateMutability":"view"},{"type":"function","name":"tokenLastBalance","inputs":[],"outputs":[{"name":"","type":"uint256","internalType":"uint256"}],"stateMutability":"view"},{"type":"function","name":"tokensPerWeek","inputs":[{"name":"","type":"uint256","internalType":"uint256"}],"outputs":[{"name":"","type":"uint256","internalType":"uint256"}],"stateMutability":"view"},{"type":"function","name":"ve","inputs":[],"outputs":[{"name":"","type":"address","internalType":"contract IVotingEscrow"}],"stateMutability":"view"},{"type":"event","name":"CheckpointToken","inputs":[{"name":"time","type":"uint256","indexed":false,"internalType":"uint256"},{"name":"tokens","type":"uint256","indexed":false,"internalType":"uint256"}],"anonymous":false},{"type":"event","name":"Claimed","inputs":[{"name":"tokenId","type":"uint256","indexed":true,"internalType":"uint256"},{"name":"epochStart","type":"uint256","indexed":true,"internalType":"uint256"},{"name":"epochEnd","type":"uint256","indexed":true,"internalType":"uint256"},{"name":"amount","type":"uint256","indexed":false,"internalType":"uint256"}],"anonymous":false},{"type":"error","name":"NotManagedOrNormalNFT","inputs":[]},{"type":"error","name":"NotMinter","inputs":[]},{"type":"error","name":"UpdatePeriod","inputs":[]}],"bytecode":{"object":"0x60a06040523480156200001157600080fd5b5060405162001de138038062001de18339810160408190526200003491620004ec565b600062093a806200004681426200051e565b62000052919062000541565b600081815560028290556001600160a01b038416608081905260408051637e062a3560e11b815290519394509192909163fc0c546a9160048083019260209291908290030181865afa158015620000ad573d6000803e3d6000fd5b505050506040513d601f19601f82011682018060405250810190620000d39190620004ec565b66038d7ea4c6800380546001600160a01b0383166001600160a01b0319918216811790925566038d7ea4c680048054909116331790559091506200011b908460001962000124565b50505062000624565b801580620001a25750604051636eb1769f60e11b81523060048201526001600160a01b03838116602483015284169063dd62ed3e90604401602060405180830381865afa1580156200017a573d6000803e3d6000fd5b505050506040513d601f19601f82011682018060405250810190620001a091906200056d565b155b6200021a5760405162461bcd60e51b815260206004820152603660248201527f5361666545524332303a20617070726f76652066726f6d206e6f6e2d7a65726f60448201527f20746f206e6f6e2d7a65726f20616c6c6f77616e63650000000000000000000060648201526084015b60405180910390fd5b604080516001600160a01b038416602482015260448082018490528251808303909101815260649091019091526020810180516001600160e01b0390811663095ea7b360e01b17909152620002729185916200027716565b505050565b6040805180820190915260208082527f5361666545524332303a206c6f772d6c6576656c2063616c6c206661696c656490820152600090620002c6906001600160a01b03851690849062000348565b805190915015620002725780806020019051810190620002e7919062000587565b620002725760405162461bcd60e51b815260206004820152602a60248201527f5361666545524332303a204552433230206f7065726174696f6e20646964206e6044820152691bdd081cdd58d8d9595960b21b606482015260840162000211565b606062000359848460008562000361565b949350505050565b606082471015620003c45760405162461bcd60e51b815260206004820152602660248201527f416464726573733a20696e73756666696369656e742062616c616e636520666f6044820152651c8818d85b1b60d21b606482015260840162000211565b600080866001600160a01b03168587604051620003e29190620005d1565b60006040518083038185875af1925050503d806000811462000421576040519150601f19603f3d011682016040523d82523d6000602084013e62000426565b606091505b5090925090506200043a8783838762000445565b979650505050505050565b60608315620004b9578251600003620004b1576001600160a01b0385163b620004b15760405162461bcd60e51b815260206004820152601d60248201527f416464726573733a2063616c6c20746f206e6f6e2d636f6e7472616374000000604482015260640162000211565b508162000359565b620003598383815115620004d05781518083602001fd5b8060405162461bcd60e51b8152600401620002119190620005ef565b600060208284031215620004ff57600080fd5b81516001600160a01b03811681146200051757600080fd5b9392505050565b6000826200053c57634e487b7160e01b600052601260045260246000fd5b500490565b80820281158282048414176200056757634e487b7160e01b600052601160045260246000fd5b92915050565b6000602082840312156200058057600080fd5b5051919050565b6000602082840312156200059a57600080fd5b815180151581146200051757600080fd5b60005b83811015620005c8578181015183820152602001620005ae565b50506000910152565b60008251620005e5818460208701620005ab565b9190910192915050565b602081526000825180602084015262000610816040850160208701620005ab565b601f01601f19169190910160400192915050565b60805161174d620006946000396000818161012a01528181610305015281816103f30152818161049c0152818161055201528181610715015281816107f20152818161089b0152818161095101528181610e3b01528181610eeb01528181610fc30152611075015261174d6000f3fe608060405234801561001057600080fd5b50600436106100ea5760003560e01c8063925489a81161008c578063d1d58b2511610066578063d1d58b25146101ee578063f4359ce514610201578063fc0c546a1461020b578063fca3b5aa1461022457600080fd5b8063925489a8146101b8578063939ea66b146101db578063bee5dc32146101e457600080fd5b80634607bf60116100c85780634607bf601461016d57806378e979251461018d578063899519be146101965780638ec8468a146101a957600080fd5b806307546172146100ef5780631f85071614610125578063379607f51461014c575b600080fd5b66038d7ea4c6800454610108906001600160a01b031681565b6040516001600160a01b0390911681526020015b60405180910390f35b6101087f000000000000000000000000000000000000000000000000000000000000000081565b61015f61015a36600461138a565b610237565b60405190815260200161011c565b61015f61017b36600461138a565b60016020526000908152604090205481565b61015f60005481565b61015f6101a436600461138a565b6105de565b61015f66038d7ea4c680055481565b6101cb6101c63660046113a3565b6105fb565b604051901515815260200161011c565b61015f60025481565b6101ec610a0d565b005b61015f6101fc36600461138a565b610a48565b61015f62093a8081565b66038d7ea4c6800354610108906001600160a01b031681565b6101ec610232366004611430565b610a7d565b600062093a80610247814261146a565b610251919061148c565b66038d7ea4c6800460009054906101000a90046001600160a01b03166001600160a01b0316630a441f7b6040518163ffffffff1660e01b81526004016020604051808303816000875af11580156102ac573d6000803e3d6000fd5b505050506040513d601f19601f820116820180604052508101906102d091906114a3565b10156102ef5760405163465a1c3560e01b815260040160405180910390fd5b600160405161f8e560ef1b8152600481018490527f00000000000000000000000000000000000000000000000000000000000000006001600160a01b031690637c72800090602401602060405180830381865afa158015610354573d6000803e3d6000fd5b505050506040513d601f19601f8201168201806040525081019061037891906114d2565b6002811115610389576103896114bc565b036103a757604051635eb32db160e11b815260040160405180910390fd5b600254429062093a806103ba818361146a565b6103c4919061148c565b905060006103d28583610ad6565b905080156105d657604051635a2d1e0760e11b8152600481018690526000907f00000000000000000000000000000000000000000000000000000000000000006001600160a01b03169063b45a3c0e90602401606060405180830381865afa158015610442573d6000803e3d6000fd5b505050506040513d601f19601f82011682018060405250810190610466919061151a565b90508060200151841015801561047e57508060400151155b15610535576040516331a9108f60e11b8152600481018790526000907f00000000000000000000000000000000000000000000000000000000000000006001600160a01b031690636352211e90602401602060405180830381865afa1580156104eb573d6000803e3d6000fd5b505050506040513d601f19601f8201168201806040525081019061050f919061158d565b66038d7ea4c680035490915061052f906001600160a01b03168285610b58565b506105b7565b60405163076426ed60e11b815260048101879052602481018390527f00000000000000000000000000000000000000000000000000000000000000006001600160a01b031690630ec84dda90604401600060405180830381600087803b15801561059e57600080fd5b505af11580156105b2573d6000803e3d6000fd5b505050505b8166038d7ea4c6800560008282546105cf91906115aa565b9091555050505b949350505050565b60038166038d7ea4c6800081106105f457600080fd5b0154905081565b600062093a8061060b814261146a565b610615919061148c565b66038d7ea4c6800460009054906101000a90046001600160a01b03166001600160a01b0316630a441f7b6040518163ffffffff1660e01b81526004016020604051808303816000875af1158015610670573d6000803e3d6000fd5b505050506040513d601f19601f8201168201806040525081019061069491906114a3565b10156106b35760405163465a1c3560e01b815260040160405180910390fd5b600254429062093a806106c6818361146a565b6106d0919061148c565b9050600084815b818110156109d95760008888838181106106f3576106f36115bd565b602002919091013591506001905060405161f8e560ef1b8152600481018390527f00000000000000000000000000000000000000000000000000000000000000006001600160a01b031690637c72800090602401602060405180830381865afa158015610764573d6000803e3d6000fd5b505050506040513d601f19601f8201168201806040525081019061078891906114d2565b6002811115610799576107996114bc565b036107b757604051635eb32db160e11b815260040160405180910390fd5b806000036107c557506109d9565b60006107d18287610ad6565b905080156109c457604051635a2d1e0760e11b8152600481018390526000907f00000000000000000000000000000000000000000000000000000000000000006001600160a01b03169063b45a3c0e90602401606060405180830381865afa158015610841573d6000803e3d6000fd5b505050506040513d601f19601f82011682018060405250810190610865919061151a565b90508060200151881015801561087d57508060400151155b15610934576040516331a9108f60e11b8152600481018490526000907f00000000000000000000000000000000000000000000000000000000000000006001600160a01b031690636352211e90602401602060405180830381865afa1580156108ea573d6000803e3d6000fd5b505050506040513d601f19601f8201168201806040525081019061090e919061158d565b66038d7ea4c680035490915061092e906001600160a01b03168285610b58565b506109b6565b60405163076426ed60e11b815260048101849052602481018390527f00000000000000000000000000000000000000000000000000000000000000006001600160a01b031690630ec84dda90604401600060405180830381600087803b15801561099d57600080fd5b505af11580156109b1573d6000803e3d6000fd5b505050505b6109c082876115d3565b9550505b505080806109d1906115e6565b9150506106d7565b5081156109fe578166038d7ea4c6800560008282546109f891906115aa565b90915550505b60019450505050505b92915050565b66038d7ea4c68004546001600160a01b03163314610a3e57604051633e34a41b60e21b815260040160405180910390fd5b610a46610baf565b565b60008062093a8080600254610a5d919061146a565b610a67919061148c565b9050610a738382610e0e565b5090949350505050565b66038d7ea4c68004546001600160a01b03163314610aae57604051633e34a41b60e21b815260040160405180910390fd5b66038d7ea4c6800480546001600160a01b0319166001600160a01b0392909216919091179055565b600080600080610ae68686610e0e565b60008981526001602052604081208290559295509093509150839003610b125760009350505050610a07565b8082877fcae2990aa9af8eb1c64713b7eddb3a80bf18e49a94a13fe0d0002b5d61d58f0086604051610b4691815260200190565b60405180910390a45090949350505050565b604080516001600160a01b038416602482015260448082018490528251808303909101815260649091019091526020810180516001600160e01b031663a9059cbb60e01b179052610baa908490611190565b505050565b66038d7ea4c68003546040516370a0823160e01b81523060048201526000916001600160a01b0316906370a0823190602401602060405180830381865afa158015610bfe573d6000803e3d6000fd5b505050506040513d601f19601f82011682018060405250810190610c2291906114a3565b9050600066038d7ea4c680055482610c3a91906115aa565b66038d7ea4c680058390556002549091506000610c5782426115aa565b426002559050600062093a80610c6d818561146a565b610c77919061148c565b9050600042815b6014811015610dcb57610c9462093a80856115d3565b925082821015610d1d5784158015610cab57508582145b15610ce5578660038566038d7ea4c680008110610cca57610cca6115bd565b016000828254610cda91906115d3565b90915550610dcb9050565b84610cf087846115aa565b610cfa908961148c565b610d04919061146a565b60038566038d7ea4c680008110610cca57610cca6115bd565b84158015610d2a57508583145b15610d64578660038566038d7ea4c680008110610d4957610d496115bd565b016000828254610d5991906115d3565b90915550610db29050565b84610d6f87856115aa565b610d79908961148c565b610d83919061146a565b60038566038d7ea4c680008110610d9c57610d9c6115bd565b016000828254610dac91906115d3565b90915550505b8295508293508080610dc3906115e6565b915050610c7e565b5060408051828152602081018890527fce749457b74e10f393f2c6b1ce4261b78791376db5a3f501477a809f03f500d6910160405180910390a150505050505050565b600080548382526001602052604080832054905163e58f594760e01b8152600481018690529091829184907f00000000000000000000000000000000000000000000000000000000000000006001600160a01b03169063e58f594790602401602060405180830381865afa158015610e8a573d6000803e3d6000fd5b505050506040513d601f19601f82011682018060405250810190610eae91906114a3565b905080600003610ec357600094505050611189565b82600003610f85576040516322565a1560e11b815260048101889052600160248201526000907f00000000000000000000000000000000000000000000000000000000000000006001600160a01b0316906344acb42a9060440160a060405180830381865afa158015610f3a573d6000803e3d6000fd5b505050506040513d601f19601f82011682018060405250810190610f5e91906115ff565b905062093a80808260400151610f74919061146a565b610f7e919061148c565b9350839450505b858310610f9757600094505050611189565b81831015610fa3578192505b60005b603281101561118557868410156111855760006001600160a01b037f00000000000000000000000000000000000000000000000000000000000000001663e0514aba8a6001610ff862093a808a6115d3565b61100291906115aa565b6040516001600160e01b031960e085901b16815260048101929092526024820152604401602060405180830381865afa158015611043573d6000803e3d6000fd5b505050506040513d601f19601f8201168201806040525081019061106791906114a3565b905060006001600160a01b037f00000000000000000000000000000000000000000000000000000000000000001663981b24d060016110a962093a808a6115d3565b6110b391906115aa565b6040518263ffffffff1660e01b81526004016110d191815260200190565b602060405180830381865afa1580156110ee573d6000803e3d6000fd5b505050506040513d601f19601f8201168201806040525081019061111291906114a3565b905080156111205780611123565b60015b90508060038766038d7ea4c68000811061113f5761113f6115bd565b015461114b908461148c565b611155919061146a565b61115f90896115d3565b975061116e62093a80876115d3565b95505050808061117d906115e6565b915050610fa6565b5050505b9250925092565b60006111e5826040518060400160405280602081526020017f5361666545524332303a206c6f772d6c6576656c2063616c6c206661696c6564815250856001600160a01b03166112679092919063ffffffff16565b805190915015610baa57808060200190518101906112039190611689565b610baa5760405162461bcd60e51b815260206004820152602a60248201527f5361666545524332303a204552433230206f7065726174696f6e20646964206e6044820152691bdd081cdd58d8d9595960b21b60648201526084015b60405180910390fd5b60606105d6848460008585600080866001600160a01b0316858760405161128e91906116c8565b60006040518083038185875af1925050503d80600081146112cb576040519150601f19603f3d011682016040523d82523d6000602084013e6112d0565b606091505b50915091506112e1878383876112ec565b979650505050505050565b6060831561135b578251600003611354576001600160a01b0385163b6113545760405162461bcd60e51b815260206004820152601d60248201527f416464726573733a2063616c6c20746f206e6f6e2d636f6e7472616374000000604482015260640161125e565b50816105d6565b6105d683838151156113705781518083602001fd5b8060405162461bcd60e51b815260040161125e91906116e4565b60006020828403121561139c57600080fd5b5035919050565b600080602083850312156113b657600080fd5b823567ffffffffffffffff808211156113ce57600080fd5b818501915085601f8301126113e257600080fd5b8135818111156113f157600080fd5b8660208260051b850101111561140657600080fd5b60209290920196919550909350505050565b6001600160a01b038116811461142d57600080fd5b50565b60006020828403121561144257600080fd5b813561144d81611418565b9392505050565b634e487b7160e01b600052601160045260246000fd5b60008261148757634e487b7160e01b600052601260045260246000fd5b500490565b8082028115828204841417610a0757610a07611454565b6000602082840312156114b557600080fd5b5051919050565b634e487b7160e01b600052602160045260246000fd5b6000602082840312156114e457600080fd5b81516003811061144d57600080fd5b8051600f81900b811461150557600080fd5b919050565b8051801515811461150557600080fd5b60006060828403121561152c57600080fd5b6040516060810181811067ffffffffffffffff8211171561155d57634e487b7160e01b600052604160045260246000fd5b604052611569836114f3565b8152602083015160208201526115816040840161150a565b60408201529392505050565b60006020828403121561159f57600080fd5b815161144d81611418565b81810381811115610a0757610a07611454565b634e487b7160e01b600052603260045260246000fd5b80820180821115610a0757610a07611454565b6000600182016115f8576115f8611454565b5060010190565b600060a0828403121561161157600080fd5b60405160a0810181811067ffffffffffffffff8211171561164257634e487b7160e01b600052604160045260246000fd5b60405261164e836114f3565b815261165c602084016114f3565b60208201526040830151604082015260608301516060820152608083015160808201528091505092915050565b60006020828403121561169b57600080fd5b61144d8261150a565b60005b838110156116bf5781810151838201526020016116a7565b50506000910152565b600082516116da8184602087016116a4565b9190910192915050565b60208152600082518060208401526117038160408501602087016116a4565b601f01601f1916919091016040019291505056fea264697066735822122024d33fcc0f7fe71f09d087be518e4142b6ceb275ee107e68e74207094cbc35ec64736f6c63430008130033","linkReferences":{}},"methodIdentifiers":{"WEEK()":"f4359ce5","checkpointToken()":"bee5dc32","claim(uint256)":"379607f5","claimMany(uint256[])":"925489a8","claimable(uint256)":"d1d58b25","lastTokenTime()":"939ea66b","minter()":"07546172","setMinter(address)":"fca3b5aa","startTime()":"78e97925","timeCursorOf(uint256)":"4607bf60","token()":"fc0c546a","tokenLastBalance()":"8ec8468a","tokensPerWeek(uint256)":"899519be","ve()":"1f850716"},"id":4}