{"abi":[{"type":"constructor","inputs":[{"name":"_forwarder","type":"address","internalType":"address"},{"name":"_ve","type":"address","internalType":"address"},{"name":"_factoryRegistry","type":"address","internalType":"address"}],"stateMutability":"nonpayable"},{"type":"function","name":"claimBribes","inputs":[{"name":"_bribes","type":"address[]","internalType":"address[]"},{"name":"_tokens","type":"address[][]","internalType":"address[][]"},{"name":"_tokenId","type":"uint256","internalType":"uint256"}],"outputs":[],"stateMutability":"nonpayable"},{"type":"function","name":"claimFees","inputs":[{"name":"_fees","type":"address[]","internalType":"address[]"},{"name":"_tokens","type":"address[][]","internalType":"address[][]"},{"name":"_tokenId","type":"uint256","internalType":"uint256"}],"outputs":[],"stateMutability":"nonpayable"},{"type":"function","name":"claimRewards","inputs":[{"name":"_gauges","type":"address[]","internalType":"address[]"}],"outputs":[],"stateMutability":"nonpayable"},{"type":"function","name":"claimable","inputs":[{"name":"","type":"address","internalType":"address"}],"outputs":[{"name":"","type":"uint256","internalType":"uint256"}],"stateMutability":"view"},{"type":"function","name":"createGauge","inputs":[{"name":"_poolFactory","type":"address","internalType":"address"},{"name":"_pool","type":"address","internalType":"address"}],"outputs":[{"name":"","type":"address","internalType":"address"}],"stateMutability":"nonpayable"},{"type":"function","name":"depositManaged","inputs":[{"name":"_tokenId","type":"uint256","internalType":"uint256"},{"name":"_mTokenId","type":"uint256","internalType":"uint256"}],"outputs":[],"stateMutability":"nonpayable"},{"type":"function","name":"distribute","inputs":[{"name":"_gauges","type":"address[]","internalType":"address[]"}],"outputs":[],"stateMutability":"nonpayable"},{"type":"function","name":"distribute","inputs":[{"name":"_start","type":"uint256","internalType":"uint256"},{"name":"_finish","type":"uint256","internalType":"uint256"}],"outputs":[],"stateMutability":"nonpayable"},{"type":"function","name":"emergencyCouncil","inputs":[],"outputs":[{"name":"","type":"address","internalType":"address"}],"stateMutability":"view"},{"type":"function","name":"epochGovernor","inputs":[],"outputs":[{"name":"","type":"address","internalType":"address"}],"stateMutability":"view"},{"type":"function","name":"epochNext","inputs":[{"name":"_timestamp","type":"uint256","internalType":"uint256"}],"outputs":[{"name":"","type":"uint256","internalType":"uint256"}],"stateMutability":"pure"},{"type":"function","name":"epochStart","inputs":[{"name":"_timestamp","type":"uint256","internalType":"uint256"}],"outputs":[{"name":"","type":"uint256","internalType":"uint256"}],"stateMutability":"pure"},{"type":"function","name":"epochVoteEnd","inputs":[{"name":"_timestamp","type":"uint256","internalType":"uint256"}],"outputs":[{"name":"","type":"uint256","internalType":"uint256"}],"stateMutability":"pure"},{"type":"function","name":"epochVoteStart","inputs":[{"name":"_timestamp","type":"uint256","internalType":"uint256"}],"outputs":[{"name":"","type":"uint256","internalType":"uint256"}],"stateMutability":"pure"},{"type":"function","name":"factoryRegistry","inputs":[],"outputs":[{"name":"","type":"address","internalType":"address"}],"stateMutability":"view"},{"type":"function","name":"forwarder","inputs":[],"outputs":[{"name":"","type":"address","internalType":"address"}],"stateMutability":"view"},{"type":"function","name":"gaugeToBribe","inputs":[{"name":"","type":"address","internalType":"address"}],"outputs":[{"name":"","type":"address","internalType":"address"}],"stateMutability":"view"},{"type":"function","name":"gaugeToFees","inputs":[{"name":"","type":"address","internalType":"address"}],"outputs":[{"name":"","type":"address","internalType":"address"}],"stateMutability":"view"},{"type":"function","name":"gauges","inputs":[{"name":"","type":"address","internalType":"address"}],"outputs":[{"name":"","type":"address","internalType":"address"}],"stateMutability":"view"},{"type":"function","name":"governor","inputs":[],"outputs":[{"name":"","type":"address","internalType":"address"}],"stateMutability":"view"},{"type":"function","name":"initialize","inputs":[{"name":"_tokens","type":"address[]","internalType":"address[]"},{"name":"_minter","type":"address","internalType":"address"}],"outputs":[],"stateMutability":"nonpayable"},{"type":"function","name":"isAlive","inputs":[{"name":"","type":"address","internalType":"address"}],"outputs":[{"name":"","type":"bool","internalType":"bool"}],"stateMutability":"view"},{"type":"function","name":"isGauge","inputs":[{"name":"","type":"address","internalType":"address"}],"outputs":[{"name":"","type":"bool","internalType":"bool"}],"stateMutability":"view"},{"type":"function","name":"isTrustedForwarder","inputs":[{"name":"forwarder","type":"address","internalType":"address"}],"outputs":[{"name":"","type":"bool","internalType":"bool"}],"stateMutability":"view"},{"type":"function","name":"isWhitelistedNFT","inputs":[{"name":"","type":"uint256","internalType":"uint256"}],"outputs":[{"name":"","type":"bool","internalType":"bool"}],"stateMutability":"view"},{"type":"function","name":"isWhitelistedToken","inputs":[{"name":"","type":"address","internalType":"address"}],"outputs":[{"name":"","type":"bool","internalType":"bool"}],"stateMutability":"view"},{"type":"function","name":"killGauge","inputs":[{"name":"_gauge","type":"address","internalType":"address"}],"outputs":[],"stateMutability":"nonpayable"},{"type":"function","name":"lastVoted","inputs":[{"name":"","type":"uint256","internalType":"uint256"}],"outputs":[{"name":"","type":"uint256","internalType":"uint256"}],"stateMutability":"view"},{"type":"function","name":"length","inputs":[],"outputs":[{"name":"","type":"uint256","internalType":"uint256"}],"stateMutability":"view"},{"type":"function","name":"maxVotingNum","inputs":[],"outputs":[{"name":"","type":"uint256","internalType":"uint256"}],"stateMutability":"view"},{"type":"function","name":"minter","inputs":[],"outputs":[{"name":"","type":"address","internalType":"address"}],"stateMutability":"view"},{"type":"function","name":"notifyRewardAmount","inputs":[{"name":"_amount","type":"uint256","internalType":"uint256"}],"outputs":[],"stateMutability":"nonpayable"},{"type":"function","name":"poke","inputs":[{"name":"_tokenId","type":"uint256","internalType":"uint256"}],"outputs":[],"stateMutability":"nonpayable"},{"type":"function","name":"poolForGauge","inputs":[{"name":"","type":"address","internalType":"address"}],"outputs":[{"name":"","type":"address","internalType":"address"}],"stateMutability":"view"},{"type":"function","name":"poolVote","inputs":[{"name":"","type":"uint256","internalType":"uint256"},{"name":"","type":"uint256","internalType":"uint256"}],"outputs":[{"name":"","type":"address","internalType":"address"}],"stateMutability":"view"},{"type":"function","name":"pools","inputs":[{"name":"","type":"uint256","internalType":"uint256"}],"outputs":[{"name":"","type":"address","internalType":"address"}],"stateMutability":"view"},{"type":"function","name":"reset","inputs":[{"name":"_tokenId","type":"uint256","internalType":"uint256"}],"outputs":[],"stateMutability":"nonpayable"},{"type":"function","name":"reviveGauge","inputs":[{"name":"_gauge","type":"address","internalType":"address"}],"outputs":[],"stateMutability":"nonpayable"},{"type":"function","name":"setEmergencyCouncil","inputs":[{"name":"_council","type":"address","internalType":"address"}],"outputs":[],"stateMutability":"nonpayable"},{"type":"function","name":"setEpochGovernor","inputs":[{"name":"_epochGovernor","type":"address","internalType":"address"}],"outputs":[],"stateMutability":"nonpayable"},{"type":"function","name":"setGovernor","inputs":[{"name":"_governor","type":"address","internalType":"address"}],"outputs":[],"stateMutability":"nonpayable"},{"type":"function","name":"setMaxVotingNum","inputs":[{"name":"_maxVotingNum","type":"uint256","internalType":"uint256"}],"outputs":[],"stateMutability":"nonpayable"},{"type":"function","name":"totalWeight","inputs":[],"outputs":[{"name":"","type":"uint256","internalType":"uint256"}],"stateMutability":"view"},{"type":"function","name":"updateFor","inputs":[{"name":"_gauge","type":"address","internalType":"address"}],"outputs":[],"stateMutability":"nonpayable"},{"type":"function","name":"updateFor","inputs":[{"name":"start","type":"uint256","internalType":"uint256"},{"name":"end","type":"uint256","internalType":"uint256"}],"outputs":[],"stateMutability":"nonpayable"},{"type":"function","name":"updateFor","inputs":[{"name":"_gauges","type":"address[]","internalType":"address[]"}],"outputs":[],"stateMutability":"nonpayable"},{"type":"function","name":"usedWeights","inputs":[{"name":"","type":"uint256","internalType":"uint256"}],"outputs":[{"name":"","type":"uint256","internalType":"uint256"}],"stateMutability":"view"},{"type":"function","name":"ve","inputs":[],"outputs":[{"name":"","type":"address","internalType":"address"}],"stateMutability":"view"},{"type":"function","name":"vote","inputs":[{"name":"_tokenId","type":"uint256","internalType":"uint256"},{"name":"_poolVote","type":"address[]","internalType":"address[]"},{"name":"_weights","type":"uint256[]","internalType":"uint256[]"}],"outputs":[],"stateMutability":"nonpayable"},{"type":"function","name":"votes","inputs":[{"name":"","type":"uint256","internalType":"uint256"},{"name":"","type":"address","internalType":"address"}],"outputs":[{"name":"","type":"uint256","internalType":"uint256"}],"stateMutability":"view"},{"type":"function","name":"weights","inputs":[{"name":"","type":"address","internalType":"address"}],"outputs":[{"name":"","type":"uint256","internalType":"uint256"}],"stateMutability":"view"},{"type":"function","name":"whitelistNFT","inputs":[{"name":"_tokenId","type":"uint256","internalType":"uint256"},{"name":"_bool","type":"bool","internalType":"bool"}],"outputs":[],"stateMutability":"nonpayable"},{"type":"function","name":"whitelistToken","inputs":[{"name":"_token","type":"address","internalType":"address"},{"name":"_bool","type":"bool","internalType":"bool"}],"outputs":[],"stateMutability":"nonpayable"},{"type":"function","name":"withdrawManaged","inputs":[{"name":"_tokenId","type":"uint256","internalType":"uint256"}],"outputs":[],"stateMutability":"nonpayable"},{"type":"event","name":"Abstained","inputs":[{"name":"voter","type":"address","indexed":true,"internalType":"address"},{"name":"pool","type":"address","indexed":true,"internalType":"address"},{"name":"tokenId","type":"uint256","indexed":true,"internalType":"uint256"},{"name":"weight","type":"uint256","indexed":false,"internalType":"uint256"},{"name":"totalWeight","type":"uint256","indexed":false,"internalType":"uint256"},{"name":"timestamp","type":"uint256","indexed":false,"internalType":"uint256"}],"anonymous":false},{"type":"event","name":"DistributeReward","inputs":[{"name":"sender","type":"address","indexed":true,"internalType":"address"},{"name":"gauge","type":"address","indexed":true,"internalType":"address"},{"name":"amount","type":"uint256","indexed":false,"internalType":"uint256"}],"anonymous":false},{"type":"event","name":"GaugeCreated","inputs":[{"name":"poolFactory","type":"address","indexed":true,"internalType":"address"},{"name":"votingRewardsFactory","type":"address","indexed":true,"internalType":"address"},{"name":"gaugeFactory","type":"address","indexed":true,"internalType":"address"},{"name":"pool","type":"address","indexed":false,"internalType":"address"},{"name":"bribeVotingReward","type":"address","indexed":false,"internalType":"address"},{"name":"feeVotingReward","type":"address","indexed":false,"internalType":"address"},{"name":"gauge","type":"address","indexed":false,"internalType":"address"},{"name":"creator","type":"address","indexed":false,"internalType":"address"}],"anonymous":false},{"type":"event","name":"GaugeKilled","inputs":[{"name":"gauge","type":"address","indexed":true,"internalType":"address"}],"anonymous":false},{"type":"event","name":"GaugeRevived","inputs":[{"name":"gauge","type":"address","indexed":true,"internalType":"address"}],"anonymous":false},{"type":"event","name":"NotifyReward","inputs":[{"name":"sender","type":"address","indexed":true,"internalType":"address"},{"name":"reward","type":"address","indexed":true,"internalType":"address"},{"name":"amount","type":"uint256","indexed":false,"internalType":"uint256"}],"anonymous":false},{"type":"event","name":"Voted","inputs":[{"name":"voter","type":"address","indexed":true,"internalType":"address"},{"name":"pool","type":"address","indexed":true,"internalType":"address"},{"name":"tokenId","type":"uint256","indexed":true,"internalType":"uint256"},{"name":"weight","type":"uint256","indexed":false,"internalType":"uint256"},{"name":"totalWeight","type":"uint256","indexed":false,"internalType":"uint256"},{"name":"timestamp","type":"uint256","indexed":false,"internalType":"uint256"}],"anonymous":false},{"type":"event","name":"WhitelistNFT","inputs":[{"name":"whitelister","type":"address","indexed":true,"internalType":"address"},{"name":"tokenId","type":"uint256","indexed":true,"internalType":"uint256"},{"name":"_bool","type":"bool","indexed":true,"internalType":"bool"}],"anonymous":false},{"type":"event","name":"WhitelistToken","inputs":[{"name":"whitelister","type":"address","indexed":true,"internalType":"address"},{"name":"token","type":"address","indexed":true,"internalType":"address"},{"name":"_bool","type":"bool","indexed":true,"internalType":"bool"}],"anonymous":false},{"type":"error","name":"AlreadyVotedOrDeposited","inputs":[]},{"type":"error","name":"DistributeWindow","inputs":[]},{"type":"error","name":"FactoryPathNotApproved","inputs":[]},{"type":"error","name":"GaugeAlreadyKilled","inputs":[]},{"type":"error","name":"GaugeAlreadyRevived","inputs":[]},{"type":"error","name":"GaugeDoesNotExist","inputs":[{"name":"_pool","type":"address","internalType":"address"}]},{"type":"error","name":"GaugeExists","inputs":[]},{"type":"error","name":"GaugeNotAlive","inputs":[{"name":"_gauge","type":"address","internalType":"address"}]},{"type":"error","name":"InactiveManagedNFT","inputs":[]},{"type":"error","name":"MaximumVotingNumberTooLow","inputs":[]},{"type":"error","name":"NonZeroVotes","inputs":[]},{"type":"error","name":"NotAPool","inputs":[]},{"type":"error","name":"NotApprovedOrOwner","inputs":[]},{"type":"error","name":"NotEmergencyCouncil","inputs":[]},{"type":"error","name":"NotGovernor","inputs":[]},{"type":"error","name":"NotMinter","inputs":[]},{"type":"error","name":"NotWhitelistedNFT","inputs":[]},{"type":"error","name":"NotWhitelistedToken","inputs":[]},{"type":"error","name":"SameValue","inputs":[]},{"type":"error","name":"SpecialVotingWindow","inputs":[]},{"type":"error","name":"TooManyPools","inputs":[]},{"type":"error","name":"UnequalLengths","inputs":[]},{"type":"error","name":"ZeroAddress","inputs":[]},{"type":"error","name":"ZeroBalance","inputs":[]}],"bytecode":{"object":"0x6101206040523480156200001257600080fd5b50604051620044fa380380620044fa833981016040819052620000359162000169565b6001600160a01b038084166080819052600160005560a05282811660c081905290821660e05260408051637e062a3560e11b8152905163fc0c546a916004808201926020929091908290030181865afa15801562000097573d6000803e3d6000fd5b505050506040513d601f19601f82011682018060405250810190620000bd9190620001b3565b6001600160a01b0316610100526000620000d662000124565b600180546001600160a01b039092166001600160a01b031992831681179091556002805483168217905560038054831682179055600480549092161790555050601e60065550620001d89050565b6080516000906001600160a01b0316330362000147575060131936013560601c90565b503390565b80516001600160a01b03811681146200016457600080fd5b919050565b6000806000606084860312156200017f57600080fd5b6200018a846200014c565b92506200019a602085016200014c565b9150620001aa604085016200014c565b90509250925092565b600060208284031215620001c657600080fd5b620001d1826200014c565b9392505050565b60805160a05160c05160e05161010051614219620002e160003960008181610f0301528181610f7801528181611aa2015281816121d101528181612ace015281816131d901526132670152600081816104be0152818161160901526116f001526000818161042501528181610a1801528181610b0b01528181610c0a01528181610ce601528181610d7201528181610df4015281816111ed0152818161145e01528181611e3e01528181611f23015281816120230152818161257a0152818161261c015281816127120152818161279401528181612eaf015261371f01526000818161087b015281816119d40152611a6a0152600081816105360152612b2501526142196000f3fe608060405234801561001057600080fd5b50600436106103425760003560e01c80637ac09bf7116101b8578063c42cf53511610104578063e0c11f9a116100a2578063e8b3fd571161007c578063e8b3fd571461084d578063f3594be014610856578063f645d4f914610876578063f9f031df1461089d57600080fd5b8063e0c11f9a14610814578063e2819d5c14610827578063e586875f1461083a57600080fd5b8063d23254b4116100de578063d23254b4146107a0578063d4e2616f146107cb578063d560b0d7146107ee578063d58b15d41461080157600080fd5b8063c42cf53514610751578063c4f0816514610764578063c9ff6f4d1461078d57600080fd5b8063a7cac84611610171578063aa9354a31161014b578063aa9354a3146106df578063ab37f486146106f2578063ac4afa3814610715578063b9a09fd51461072857600080fd5b8063a7cac84614610689578063a86a366d146106a9578063aa79979b146106bc57600080fd5b80637ac09bf71461060b578063880e36fc1461061e578063929c8dcd1461063157806396c82e571461065a578063992a7933146106635780639f06247b1461067657600080fd5b80633aae971f116102925780636138889b116102305780637715ee751161020a5780637715ee75146105b25780637778960e146105c5578063794cea3c146105d857806379e93824146105eb57600080fd5b80636138889b14610579578063666256aa1461058c5780637625391a1461059f57600080fd5b8063402914f51161026c578063402914f5146104f3578063462d0b2e14610513578063572b6c0514610526578063598d521b1461056657600080fd5b80633aae971f146104a65780633bf0c9fb146104b95780633c6b16ab146104e057600080fd5b80631f7b6d32116102ff578063310bd74b116102d9578063310bd74b1461045a57806332145f901461046d578063370fb5fa1461048057806339e9f3b61461049357600080fd5b80631f7b6d321461040e5780631f8507161461042057806330331b2f1461044757600080fd5b806306d6a1b214610347578063075461721461038d5780630c340a24146103a05780630e0a5968146103b35780630ffb1d8b146103c85780631703e5f9146103db575b600080fd5b610370610355366004613ba4565b6009602052600090815260409020546001600160a01b031681565b6040516001600160a01b0390911681526020015b60405180910390f35b600154610370906001600160a01b031681565b600254610370906001600160a01b031681565b6103c66103c1366004613ba4565b6108b0565b005b6103c66103d6366004613bcf565b6108bc565b6103fe6103e9366004613ba4565b60146020526000908152604090205460ff1681565b6040519015158152602001610384565b6007545b604051908152602001610384565b6103707f000000000000000000000000000000000000000000000000000000000000000081565b6103c6610455366004613c08565b610905565b6103c6610468366004613c08565b610989565b6103c661047b366004613c08565b610abd565b6103c661048e366004613c08565b610b95565b6104126104a1366004613c08565b610ea6565b600354610370906001600160a01b031681565b6103707f000000000000000000000000000000000000000000000000000000000000000081565b6103c66104ee366004613c08565b610ebb565b610412610501366004613ba4565b60176020526000908152604090205481565b6103c6610521366004613c6d565b610fe8565b6103fe610534366004613ba4565b7f00000000000000000000000000000000000000000000000000000000000000006001600160a01b0390811691161490565b6103c6610574366004613ba4565b611098565b6103c6610587366004613da3565b61111c565b6103c661059a366004613dd8565b6111eb565b6103c66105ad366004613eb5565b611369565b6103c66105c0366004613dd8565b61145c565b600454610370906001600160a01b031681565b6103706105e6366004613ed7565b6115d3565b6104126105f9366004613c08565b600f6020526000908152604090205481565b6103c6610619366004613f05565b611d98565b61041261062c366004613c08565b61211c565b61037061063f366004613ba4565b600b602052600090815260409020546001600160a01b031681565b61041260055481565b6103c6610671366004613ba4565b61212d565b6103c6610684366004613ba4565b61225e565b610412610697366004613ba4565b600c6020526000908152604090205481565b6103706106b7366004613eb5565b61231f565b6103fe6106ca366004613ba4565b60116020526000908152604090205460ff1681565b6104126106ed366004613c08565b612357565b6103fe610700366004613ba4565b60126020526000908152604090205460ff1681565b610370610723366004613c08565b612366565b610370610736366004613ba4565b6008602052600090815260409020546001600160a01b031681565b6103c661075f366004613ba4565b612390565b610370610772366004613ba4565b600a602052600090815260409020546001600160a01b031681565b6103c661079b366004613eb5565b612414565b6104126107ae366004613f7f565b600d60209081526000928352604080842090915290825290205481565b6103fe6107d9366004613c08565b60136020526000908152604090205460ff1681565b6103c66107fc366004613da3565b61247f565b61041261080f366004613c08565b6124c0565b6103c6610822366004613eb5565b6124d4565b6103c6610835366004613fa4565b612822565b6103c6610848366004613ba4565b6128b4565b61041260065481565b610412610864366004613c08565b60106020526000908152604090205481565b6103707f000000000000000000000000000000000000000000000000000000000000000081565b6103c66108ab366004613da3565b612938565b6108b9816129e1565b50565b6002546001600160a01b03166108d0612b21565b6001600160a01b0316146108f757604051633b8d9d7560e21b815260040160405180910390fd5b6109018282612b65565b5050565b6002546001600160a01b0316610919612b21565b6001600160a01b03161461094057604051633b8d9d7560e21b815260040160405180910390fd5b600a81101561096257604051632db4ddc160e11b815260040160405180910390fd5b60065481036109845760405163c23f6ccb60e01b815260040160405180910390fd5b600655565b60008181526010602052604090205481906109a94262093a808106900390565b116109c75760405163cade311f60e01b815260040160405180910390fd5b62093a80429081069003610e100142116109f457604051635a780bad60e01b815260040160405180910390fd5b6109fc612bce565b60405163430c208160e01b8152336004820152602481018390527f00000000000000000000000000000000000000000000000000000000000000006001600160a01b03169063430c2081906044016020604051808303816000875af1158015610a69573d6000803e3d6000fd5b505050506040513d601f19601f82011682018060405250810190610a8d9190613fc9565b610aaa5760405163390cdd9b60e21b815260040160405180910390fd5b610ab382612c2c565b6109016001600055565b610ac5612bce565b62093a80429081069003610e10014211610af257604051635a780bad60e01b815260040160405180910390fd5b6040516339f890b560e21b8152600481018290526000907f00000000000000000000000000000000000000000000000000000000000000006001600160a01b03169063e7e242d490602401602060405180830381865afa158015610b5a573d6000803e3d6000fd5b505050506040513d601f19601f82011682018060405250810190610b7e9190613fe6565b9050610b8a8282612f54565b506108b96001600055565b610b9d612bce565b6000818152601060205260409020548190610bbd4262093a808106900390565b11610bdb5760405163cade311f60e01b815260040160405180910390fd5b62093a80429081069003610e10014211610c0857604051635a780bad60e01b815260040160405180910390fd5b7f00000000000000000000000000000000000000000000000000000000000000006001600160a01b031663430c2081610c3f612b21565b6040516001600160e01b031960e084901b1681526001600160a01b039091166004820152602481018590526044016020604051808303816000875af1158015610c8c573d6000803e3d6000fd5b505050506040513d601f19601f82011682018060405250810190610cb09190613fc9565b610ccd5760405163390cdd9b60e21b815260040160405180910390fd5b6040516319a0a9d560e01b8152600481018390526000907f00000000000000000000000000000000000000000000000000000000000000006001600160a01b0316906319a0a9d590602401602060405180830381865afa158015610d35573d6000803e3d6000fd5b505050506040513d601f19601f82011682018060405250810190610d599190613fe6565b604051631b87dafd60e11b8152600481018590529091507f00000000000000000000000000000000000000000000000000000000000000006001600160a01b03169063370fb5fa90602401600060405180830381600087803b158015610dbe57600080fd5b505af1158015610dd2573d6000803e3d6000fd5b5050604051637028a55d60e11b815260048101849052426024820152600092507f00000000000000000000000000000000000000000000000000000000000000006001600160a01b0316915063e0514aba90604401602060405180830381865afa158015610e44573d6000803e3d6000fd5b505050506040513d601f19601f82011682018060405250810190610e689190613fe6565b905080600003610e8f57610e7b82612c2c565b600082815260106020526040812055610e99565b610e998282612f54565b5050506108b96001600055565b600062093a8082068203610e10015b92915050565b6000610ec5612b21565b6001549091506001600160a01b03808316911614610ef657604051633e34a41b60e21b815260040160405180910390fd5b610f2b6001600160a01b037f00000000000000000000000000000000000000000000000000000000000000001682308561309f565b6000610f3a600554600161310a565b610f4c84670de0b6b3a7640000614015565b610f56919061402c565b90508015610f76578060156000828254610f70919061404e565b90915550505b7f00000000000000000000000000000000000000000000000000000000000000006001600160a01b0316826001600160a01b03167ff70d5c697de7ea828df48e5c4573cb2194c659f1901f70110c52b066dcf5082685604051610fdb91815260200190565b60405180910390a3505050565b6001546001600160a01b0316610ffc612b21565b6001600160a01b03161461102357604051633e34a41b60e21b815260040160405180910390fd5b8160005b818110156110725761106085858381811061104457611044614061565b90506020020160208101906110599190613ba4565b6001612b65565b8061106a81614077565b915050611027565b5050600180546001600160a01b0319166001600160a01b03929092169190911790555050565b6002546001600160a01b03166110ac612b21565b6001600160a01b0316146110d357604051633b8d9d7560e21b815260040160405180910390fd5b6001600160a01b0381166110fa5760405163d92e233d60e01b815260040160405180910390fd5b600380546001600160a01b0319166001600160a01b0392909216919091179055565b611124612bce565b600160009054906101000a90046001600160a01b03166001600160a01b031663a83627de6040518163ffffffff1660e01b81526004016020604051808303816000875af1158015611179573d6000803e3d6000fd5b505050506040513d601f19601f8201168201806040525081019061119d9190613fe6565b50805160005b818110156111df576111cd8382815181106111c0576111c0614061565b6020026020010151613122565b806111d781614077565b9150506111a3565b50506108b96001600055565b7f00000000000000000000000000000000000000000000000000000000000000006001600160a01b031663430c2081611222612b21565b6040516001600160e01b031960e084901b1681526001600160a01b039091166004820152602481018490526044016020604051808303816000875af115801561126f573d6000803e3d6000fd5b505050506040513d601f19601f820116820180604052508101906112939190613fc9565b6112b05760405163390cdd9b60e21b815260040160405180910390fd5b825160005b81811015611362578481815181106112cf576112cf614061565b60200260200101516001600160a01b031663f5f8d365848684815181106112f8576112f8614061565b60200260200101516040518363ffffffff1660e01b815260040161131d9291906140d4565b600060405180830381600087803b15801561133757600080fd5b505af115801561134b573d6000803e3d6000fd5b50505050808061135a90614077565b9150506112b5565b5050505050565b611371612bce565b600160009054906101000a90046001600160a01b03166001600160a01b031663a83627de6040518163ffffffff1660e01b81526004016020604051808303816000875af11580156113c6573d6000803e3d6000fd5b505050506040513d601f19601f820116820180604052508101906113ea9190613fe6565b50815b818110156114515761143f600860006007848154811061140f5761140f614061565b60009182526020808320909101546001600160a01b03908116845290830193909352604090910190205416613122565b8061144981614077565b9150506113ed565b506109016001600055565b7f00000000000000000000000000000000000000000000000000000000000000006001600160a01b031663430c2081611493612b21565b6040516001600160e01b031960e084901b1681526001600160a01b039091166004820152602481018490526044016020604051808303816000875af11580156114e0573d6000803e3d6000fd5b505050506040513d601f19601f820116820180604052508101906115049190613fc9565b6115215760405163390cdd9b60e21b815260040160405180910390fd5b825160005b818110156113625784818151811061154057611540614061565b60200260200101516001600160a01b031663f5f8d3658486848151811061156957611569614061565b60200260200101516040518363ffffffff1660e01b815260040161158e9291906140d4565b600060405180830381600087803b1580156115a857600080fd5b505af11580156115bc573d6000803e3d6000fd5b5050505080806115cb90614077565b915050611526565b60006115dd612bce565b60006115e7612b21565b60405163d1ea0a1d60e01b81526001600160a01b0386811660048301529192507f00000000000000000000000000000000000000000000000000000000000000009091169063d1ea0a1d90602401602060405180830381865afa158015611652573d6000803e3d6000fd5b505050506040513d601f19601f820116820180604052508101906116769190613fc9565b61169357604051634fe2017f60e01b815260040160405180910390fd5b6001600160a01b0383811660009081526008602052604090205416156116cc576040516348fe415b60e11b815260040160405180910390fd5b604051631217afdb60e01b81526001600160a01b03858116600483015260009182917f00000000000000000000000000000000000000000000000000000000000000001690631217afdb906024016040805180830381865afa158015611736573d6000803e3d6000fd5b505050506040513d601f19601f8201168201806040525081019061175a91906140ed565b6040805160028082526060820183529395509193506000929060208301908036833701905050604051635b16ebb760e01b81526001600160a01b038881166004830152919250600091891690635b16ebb790602401602060405180830381865afa1580156117cc573d6000803e3d6000fd5b505050506040513d601f19601f820116820180604052508101906117f09190613fc9565b9050600080821561192c57886001600160a01b0316630dfe16816040518163ffffffff1660e01b8152600401602060405180830381865afa158015611839573d6000803e3d6000fd5b505050506040513d601f19601f8201168201806040525081019061185d919061411c565b9150886001600160a01b031663d21220a76040518163ffffffff1660e01b8152600401602060405180830381865afa15801561189d573d6000803e3d6000fd5b505050506040513d601f19601f820116820180604052508101906118c1919061411c565b905081846000815181106118d7576118d7614061565b60200260200101906001600160a01b031690816001600160a01b031681525050808460018151811061190b5761190b614061565b60200260200101906001600160a01b031690816001600160a01b0316815250505b6002546001600160a01b038881169116146119be578261195f57604051632bab424160e01b815260040160405180910390fd5b6001600160a01b03821660009081526012602052604090205460ff1615806119a057506001600160a01b03811660009081526012602052604090205460ff16155b156119be576040516365a9cebb60e01b815260040160405180910390fd5b5050600080856001600160a01b0316634c455a977f0000000000000000000000000000000000000000000000000000000000000000866040518363ffffffff1660e01b8152600401611a11929190614139565b60408051808303816000875af1158015611a2f573d6000803e3d6000fd5b505050506040513d601f19601f82011682018060405250810190611a5391906140ed565b6040516322a60f9560e21b81526001600160a01b037f0000000000000000000000000000000000000000000000000000000000000000811660048301528c8116602483015283811660448301527f0000000000000000000000000000000000000000000000000000000000000000811660648301528615156084830152929450909250600091871690638a983e549060a4016020604051808303816000875af1158015611b04573d6000803e3d6000fd5b505050506040513d601f19601f82011682018060405250810190611b28919061411c565b905082600a6000836001600160a01b03166001600160a01b0316815260200190815260200160002060006101000a8154816001600160a01b0302191690836001600160a01b0316021790555081600b6000836001600160a01b03166001600160a01b0316815260200190815260200160002060006101000a8154816001600160a01b0302191690836001600160a01b0316021790555080600860008c6001600160a01b03166001600160a01b0316815260200190815260200160002060006101000a8154816001600160a01b0302191690836001600160a01b031602179055508960096000836001600160a01b03166001600160a01b0316815260200190815260200160002060006101000a8154816001600160a01b0302191690836001600160a01b03160217905550600160116000836001600160a01b03166001600160a01b0316815260200190815260200160002060006101000a81548160ff021916908315150217905550600160146000836001600160a01b03166001600160a01b0316815260200190815260200160002060006101000a81548160ff021916908315150217905550611cd7816129e1565b600780546001810182556000919091527fa66cc928b5edb82af9bd49922954155ab7b0942694bea4ce44661d9a8736c6880180546001600160a01b0319166001600160a01b038c811691821790925560408051918252848316602083015285831690820152828216606082015289821660808201528782169189811691908e16907fef9f7d1ffff3b249c6b9bf2528499e935f7d96bb6d6ec4e7da504d1d3c6279e19060a00160405180910390a4975050505050505050610eb56001600055565b6000858152601060205260409020548590611db84262093a808106900390565b11611dd65760405163cade311f60e01b815260040160405180910390fd5b62093a80429081069003610e10014211611e0357604051635a780bad60e01b815260040160405180910390fd5b611e0b612bce565b6000611e15612b21565b60405163430c208160e01b81526001600160a01b038083166004830152602482018a90529192507f00000000000000000000000000000000000000000000000000000000000000009091169063430c2081906044016020604051808303816000875af1158015611e89573d6000803e3d6000fd5b505050506040513d601f19601f82011682018060405250810190611ead9190613fc9565b611eca5760405163390cdd9b60e21b815260040160405180910390fd5b848314611eea5760405163332ac86360e21b815260040160405180910390fd5b600654851115611f0d5760405163ebcfae4b60e01b815260040160405180910390fd5b604051632a266cdb60e21b8152600481018890527f00000000000000000000000000000000000000000000000000000000000000006001600160a01b03169063a899b36c90602401602060405180830381865afa158015611f72573d6000803e3d6000fd5b505050506040513d601f19601f82011682018060405250810190611f969190613fc9565b15611fb4576040516308910b2560e01b815260040160405180910390fd5b4262093a808106810362092c700181118015611fdf575060008881526013602052604090205460ff16155b15611ffd57604051630392978d60e41b815260040160405180910390fd5b600088815260106020526040808220839055516339f890b560e21b8152600481018a90527f00000000000000000000000000000000000000000000000000000000000000006001600160a01b03169063e7e242d490602401602060405180830381865afa158015612072573d6000803e3d6000fd5b505050506040513d601f19601f820116820180604052508101906120969190613fe6565b905061210789828a8a8080602002602001604051908101604052809392919081815260200183836020028082843760009201919091525050604080516020808e0282810182019093528d82529093508d92508c9182918501908490808284376000920191909152506132e992505050565b5050506121146001600055565b505050505050565b600062093a80808306830301610eb5565b6004546001600160a01b0316612141612b21565b6001600160a01b0316146121685760405163c560129360e01b815260040160405180910390fd5b6001600160a01b03811660009081526014602052604090205460ff166121a157604051633f88da5160e21b815260040160405180910390fd5b6001600160a01b0381166000908152601760205260409020548015612214576001546121fa906001600160a01b037f000000000000000000000000000000000000000000000000000000000000000081169116836137b6565b6001600160a01b0382166000908152601760205260408120555b6001600160a01b038216600081815260146020526040808220805460ff19169055517f04a5d3f5d80d22d9345acc80618f4a4e7e663cf9e1aed23b57d975acec002ba79190a25050565b6004546001600160a01b0316612272612b21565b6001600160a01b0316146122995760405163c560129360e01b815260040160405180910390fd5b6001600160a01b03811660009081526014602052604090205460ff16156122d357604051635f5a482960e11b815260040160405180910390fd5b6001600160a01b038116600081815260146020526040808220805460ff19166001179055517fed18e9faa3dccfd8aa45f69c4de40546b2ca9cccc4538a2323531656516db1aa9190a250565b600e602052816000526040600020818154811061233b57600080fd5b6000918252602090912001546001600160a01b03169150829050565b600062093a8082068203610eb5565b6007818154811061237657600080fd5b6000918252602090912001546001600160a01b0316905081565b6002546001600160a01b03166123a4612b21565b6001600160a01b0316146123cb57604051633b8d9d7560e21b815260040160405180910390fd5b6001600160a01b0381166123f25760405163d92e233d60e01b815260040160405180910390fd5b600280546001600160a01b0319166001600160a01b0392909216919091179055565b815b8181101561247a57612468600860006007848154811061243857612438614061565b60009182526020808320909101546001600160a01b039081168452908301939093526040909101902054166129e1565b8061247281614077565b915050612416565b505050565b805160005b8181101561247a576124ae8382815181106124a1576124a1614061565b60200260200101516129e1565b806124b881614077565b915050612484565b600062093a808206820362092c7001610eb5565b6124dc612bce565b60008281526010602052604090205482906124fc4262093a808106900390565b1161251a5760405163cade311f60e01b815260040160405180910390fd5b62093a80429081069003610e1001421161254757604051635a780bad60e01b815260040160405180910390fd5b6000612551612b21565b60405163430c208160e01b81526001600160a01b038083166004830152602482018790529192507f00000000000000000000000000000000000000000000000000000000000000009091169063430c2081906044016020604051808303816000875af11580156125c5573d6000803e3d6000fd5b505050506040513d601f19601f820116820180604052508101906125e99190613fc9565b6126065760405163390cdd9b60e21b815260040160405180910390fd5b604051632a266cdb60e21b8152600481018490527f00000000000000000000000000000000000000000000000000000000000000006001600160a01b03169063a899b36c90602401602060405180830381865afa15801561266b573d6000803e3d6000fd5b505050506040513d601f19601f8201168201806040525081019061268f9190613fc9565b156126ad576040516308910b2560e01b815260040160405180910390fd5b6126b684612c2c565b4262093a808106810362092c70018111156126e457604051631f3ecf5b60e21b815260040160405180910390fd5b60008581526010602052604090819020829055516370608fcd60e11b815260048101869052602481018590527f00000000000000000000000000000000000000000000000000000000000000006001600160a01b03169063e0c11f9a90604401600060405180830381600087803b15801561275e57600080fd5b505af1158015612772573d6000803e3d6000fd5b5050604051637028a55d60e11b815260048101879052426024820152600092507f00000000000000000000000000000000000000000000000000000000000000006001600160a01b0316915063e0514aba90604401602060405180830381865afa1580156127e4573d6000803e3d6000fd5b505050506040513d601f19601f820116820180604052508101906128089190613fe6565b90506128148582612f54565b505050506109016001600055565b600061282c612b21565b6002549091506001600160a01b0380831691161461285d57604051633b8d9d7560e21b815260040160405180910390fd5b600083815260136020526040808220805460ff19168515159081179091559051909185916001600160a01b038516917f8a6ff732c8641e1e34d771e1f8b1673e988c1abdfb694ebdf6c910a5e3d0d85391a4505050565b6004546001600160a01b03166128c8612b21565b6001600160a01b0316146128ef5760405163c560129360e01b815260040160405180910390fd5b6001600160a01b0381166129165760405163d92e233d60e01b815260040160405180910390fd5b600480546001600160a01b0319166001600160a01b0392909216919091179055565b805160005b8181101561247a5782818151811061295757612957614061565b60200260200101516001600160a01b031663c00007b0612975612b21565b6040516001600160e01b031960e084901b1681526001600160a01b039091166004820152602401600060405180830381600087803b1580156129b657600080fd5b505af11580156129ca573d6000803e3d6000fd5b5050505080806129d990614077565b91505061293d565b6001600160a01b03808216600090815260096020908152604080832054909316808352600c909152919020548015612b00576001600160a01b038316600090815260166020526040812080546015549182905591612a3f838361415d565b90508015612114576000670de0b6b3a7640000612a5c8387614015565b612a66919061402c565b6001600160a01b03881660009081526014602052604090205490915060ff1615612abd576001600160a01b03871660009081526017602052604081208054839290612ab290849061404e565b90915550612af79050565b600154612af7906001600160a01b037f000000000000000000000000000000000000000000000000000000000000000081169116836137b6565b50505050505050565b6015546001600160a01b038416600090815260166020526040902055505050565b60007f00000000000000000000000000000000000000000000000000000000000000006001600160a01b03163303612b60575060131936013560601c90565b503390565b6001600160a01b0382166000818152601260205260409020805460ff191683151590811790915590612b95612b21565b6001600160a01b03167f44948130cf88523dbc150908a47dd6332c33a01a3869d7f2fa78e51d5a5f9c5760405160405180910390a45050565b600260005403612c255760405162461bcd60e51b815260206004820152601f60248201527f5265656e7472616e637947756172643a207265656e7472616e742063616c6c0060448201526064015b60405180910390fd5b6002600055565b6000818152600e6020526040812080549091805b82811015612e91576000848281548110612c5c57612c5c614061565b6000918252602080832090910154888352600d825260408084206001600160a01b03909216808552919092529120549091508015612e7c576001600160a01b03808316600090815260086020526040902054612cb891166129e1565b6001600160a01b0382166000908152600c602052604081208054839290612ce090849061415d565b90915550506000878152600d602090815260408083206001600160a01b038681168552908352818420849055600883528184205481168452600a9092529182902054915163278afc8b60e21b815260048101849052602481018a9052911690639e2bf22c90604401600060405180830381600087803b158015612d6257600080fd5b505af1158015612d76573d6000803e3d6000fd5b505050506001600160a01b0382811660009081526008602090815260408083205484168352600b9091529081902054905163278afc8b60e21b815260048101849052602481018a9052911690639e2bf22c90604401600060405180830381600087803b158015612de557600080fd5b505af1158015612df9573d6000803e3d6000fd5b505050508084612e09919061404e565b935086826001600160a01b0316612e1e612b21565b6001600160a01b038581166000908152600c6020908152604091829020548251888152918201524281830152905192909116917fadab630928b1d46214641293704a312ee7ad87e03ae14a7fd95e7308b93998df9181900360600190a45b50508080612e8990614077565b915050612c40565b50604051632d27a2cd60e11b815260048101859052600060248201527f00000000000000000000000000000000000000000000000000000000000000006001600160a01b031690635a4f459a90604401600060405180830381600087803b158015612efb57600080fd5b505af1158015612f0f573d6000803e3d6000fd5b505050508060056000828254612f25919061415d565b90915550506000848152600f60209081526040808320839055600e9091528120612f4e91613b5d565b50505050565b6000828152600e6020908152604080832080548251818502810185019093528083529192909190830182828015612fb457602002820191906000526020600020905b81546001600160a01b03168152600190910190602001808311612f96575b5050505050905060008151905060008167ffffffffffffffff811115612fdc57612fdc613cc4565b604051908082528060200260200182016040528015613005578160200160208202803683370190505b50905060005b8281101561309257600d6000878152602001908152602001600020600085838151811061303a5761303a614061565b60200260200101516001600160a01b03166001600160a01b031681526020019081526020016000205482828151811061307557613075614061565b60209081029190910101528061308a81614077565b91505061300b565b50611362858585846132e9565b6040516001600160a01b0380851660248301528316604482015260648101829052612f4e9085906323b872dd60e01b906084015b60408051601f198184030181529190526020810180516001600160e01b03166001600160e01b0319909316929092179091526137e6565b6000818311613119578161311b565b825b9392505050565b61312b816129e1565b6001600160a01b0381166000818152601760209081526040918290205482516302dcc80960e31b815292519093926316e640489260048083019391928290030181865afa158015613180573d6000803e3d6000fd5b505050506040513d601f19601f820116820180604052508101906131a49190613fe6565b811180156131b4575062093a8081115b15610901576001600160a01b03808316600090815260176020526040812055613200907f00000000000000000000000000000000000000000000000000000000000000001683836138b8565b604051633c6b16ab60e01b8152600481018290526001600160a01b03831690633c6b16ab90602401600060405180830381600087803b15801561324257600080fd5b505af1158015613256573d6000803e3d6000fd5b506132919250506001600160a01b037f00000000000000000000000000000000000000000000000000000000000000001690508360006138b8565b816001600160a01b03166132a3612b21565b6001600160a01b03167f4fa9693cae526341d334e2862ca2413b2e503f1266255f9e0869fb36e6d89b17836040516132dd91815260200190565b60405180910390a35050565b6132f284612c2c565b815160008080805b8481101561333b5785818151811061331457613314614061565b602002602001015184613327919061404e565b93508061333381614077565b9150506132fa565b5060005b848110156136fb57600087828151811061335b5761335b614061565b6020908102919091018101516001600160a01b038082166000908152600890935260409092205490925016806133af57604051634c89018560e01b81526001600160a01b0383166004820152602401612c1c565b6001600160a01b03811660009081526014602052604090205460ff166133f3576040516302b0b9ed60e61b81526001600160a01b0382166004820152602401612c1c565b6001600160a01b03811660009081526011602052604090205460ff16156136e6576000868b8a868151811061342a5761342a614061565b602002602001015161343c9190614015565b613446919061402c565b60008d8152600d602090815260408083206001600160a01b03881684529091529020549091501561348a5760405163315f6a3d60e01b815260040160405180910390fd5b806000036134ab5760405163334ab3f560e11b815260040160405180910390fd5b6134b4826129e1565b60008c8152600e6020908152604080832080546001810182559084528284200180546001600160a01b0319166001600160a01b0388169081179091558352600c9091528120805483929061350990849061404e565b909155505060008c8152600d602090815260408083206001600160a01b03871684529091528120805483929061354090849061404e565b90915550506001600160a01b038083166000908152600a60205260409081902054905163f320772360e01b815260048101849052602481018f905291169063f320772390604401600060405180830381600087803b1580156135a157600080fd5b505af11580156135b5573d6000803e3d6000fd5b50505050600b6000836001600160a01b03166001600160a01b0316815260200190815260200160002060009054906101000a90046001600160a01b03166001600160a01b031663f3207723828e6040518363ffffffff1660e01b8152600401613628929190918252602082015260400190565b600060405180830381600087803b15801561364257600080fd5b505af1158015613656573d6000803e3d6000fd5b505050508085613666919061404e565b9450613672818761404e565b95508b836001600160a01b0316613687612b21565b6001600160a01b038681166000908152600c6020908152604091829020548251888152918201524281830152905192909116917f452d440efc30dfa14a0ef803ccb55936af860ec6a6960ed27f129bef913f296a9181900360600190a4505b505080806136f390614077565b91505061333f565b50801561378457604051632d27a2cd60e11b815260048101899052600160248201527f00000000000000000000000000000000000000000000000000000000000000006001600160a01b031690635a4f459a90604401600060405180830381600087803b15801561376b57600080fd5b505af115801561377f573d6000803e3d6000fd5b505050505b8160056000828254613796919061404e565b90915550506000978852600f602052604090972096909655505050505050565b6040516001600160a01b03831660248201526044810182905261247a90849063a9059cbb60e01b906064016130d3565b600061383b826040518060400160405280602081526020017f5361666545524332303a206c6f772d6c6576656c2063616c6c206661696c6564815250856001600160a01b03166139cd9092919063ffffffff16565b80519091501561247a57808060200190518101906138599190613fc9565b61247a5760405162461bcd60e51b815260206004820152602a60248201527f5361666545524332303a204552433230206f7065726174696f6e20646964206e6044820152691bdd081cdd58d8d9595960b21b6064820152608401612c1c565b8015806139325750604051636eb1769f60e11b81523060048201526001600160a01b03838116602483015284169063dd62ed3e90604401602060405180830381865afa15801561390c573d6000803e3d6000fd5b505050506040513d601f19601f820116820180604052508101906139309190613fe6565b155b61399d5760405162461bcd60e51b815260206004820152603660248201527f5361666545524332303a20617070726f76652066726f6d206e6f6e2d7a65726f60448201527520746f206e6f6e2d7a65726f20616c6c6f77616e636560501b6064820152608401612c1c565b6040516001600160a01b03831660248201526044810182905261247a90849063095ea7b360e01b906064016130d3565b60606139dc84846000856139e4565b949350505050565b606082471015613a455760405162461bcd60e51b815260206004820152602660248201527f416464726573733a20696e73756666696369656e742062616c616e636520666f6044820152651c8818d85b1b60d21b6064820152608401612c1c565b600080866001600160a01b03168587604051613a619190614194565b60006040518083038185875af1925050503d8060008114613a9e576040519150601f19603f3d011682016040523d82523d6000602084013e613aa3565b606091505b5091509150613ab487838387613abf565b979650505050505050565b60608315613b2e578251600003613b27576001600160a01b0385163b613b275760405162461bcd60e51b815260206004820152601d60248201527f416464726573733a2063616c6c20746f206e6f6e2d636f6e74726163740000006044820152606401612c1c565b50816139dc565b6139dc8383815115613b435781518083602001fd5b8060405162461bcd60e51b8152600401612c1c91906141b0565b50805460008255906000526020600020908101906108b991905b80821115613b8b5760008155600101613b77565b5090565b6001600160a01b03811681146108b957600080fd5b600060208284031215613bb657600080fd5b813561311b81613b8f565b80151581146108b957600080fd5b60008060408385031215613be257600080fd5b8235613bed81613b8f565b91506020830135613bfd81613bc1565b809150509250929050565b600060208284031215613c1a57600080fd5b5035919050565b60008083601f840112613c3357600080fd5b50813567ffffffffffffffff811115613c4b57600080fd5b6020830191508360208260051b8501011115613c6657600080fd5b9250929050565b600080600060408486031215613c8257600080fd5b833567ffffffffffffffff811115613c9957600080fd5b613ca586828701613c21565b9094509250506020840135613cb981613b8f565b809150509250925092565b634e487b7160e01b600052604160045260246000fd5b604051601f8201601f1916810167ffffffffffffffff81118282101715613d0357613d03613cc4565b604052919050565b600067ffffffffffffffff821115613d2557613d25613cc4565b5060051b60200190565b600082601f830112613d4057600080fd5b81356020613d55613d5083613d0b565b613cda565b82815260059290921b84018101918181019086841115613d7457600080fd5b8286015b84811015613d98578035613d8b81613b8f565b8352918301918301613d78565b509695505050505050565b600060208284031215613db557600080fd5b813567ffffffffffffffff811115613dcc57600080fd5b6139dc84828501613d2f565b600080600060608486031215613ded57600080fd5b833567ffffffffffffffff80821115613e0557600080fd5b613e1187838801613d2f565b9450602091508186013581811115613e2857600080fd5b8601601f81018813613e3957600080fd5b8035613e47613d5082613d0b565b81815260059190911b8201840190848101908a831115613e6657600080fd5b8584015b83811015613e9e57803586811115613e825760008081fd5b613e908d8983890101613d2f565b845250918601918601613e6a565b50979a979950505050604095909501359450505050565b60008060408385031215613ec857600080fd5b50508035926020909101359150565b60008060408385031215613eea57600080fd5b8235613ef581613b8f565b91506020830135613bfd81613b8f565b600080600080600060608688031215613f1d57600080fd5b85359450602086013567ffffffffffffffff80821115613f3c57600080fd5b613f4889838a01613c21565b90965094506040880135915080821115613f6157600080fd5b50613f6e88828901613c21565b969995985093965092949392505050565b60008060408385031215613f9257600080fd5b823591506020830135613bfd81613b8f565b60008060408385031215613fb757600080fd5b823591506020830135613bfd81613bc1565b600060208284031215613fdb57600080fd5b815161311b81613bc1565b600060208284031215613ff857600080fd5b5051919050565b634e487b7160e01b600052601160045260246000fd5b8082028115828204841417610eb557610eb5613fff565b60008261404957634e487b7160e01b600052601260045260246000fd5b500490565b80820180821115610eb557610eb5613fff565b634e487b7160e01b600052603260045260246000fd5b60006001820161408957614089613fff565b5060010190565b600081518084526020808501945080840160005b838110156140c95781516001600160a01b0316875295820195908201906001016140a4565b509495945050505050565b8281526040602082015260006139dc6040830184614090565b6000806040838503121561410057600080fd5b825161410b81613b8f565b6020840151909250613bfd81613b8f565b60006020828403121561412e57600080fd5b815161311b81613b8f565b6001600160a01b03831681526040602082018190526000906139dc90830184614090565b81810381811115610eb557610eb5613fff565b60005b8381101561418b578181015183820152602001614173565b50506000910152565b600082516141a6818460208701614170565b9190910192915050565b60208152600082518060208401526141cf816040850160208701614170565b601f01601f1916919091016040019291505056fea2646970667358221220d6e4fc006ffe0828bc286a7e158f915452ba449797ae955561337271232cb21664736f6c63430008130033","linkReferences":{}},"methodIdentifiers":{"claimBribes(address[],address[][],uint256)":"7715ee75","claimFees(address[],address[][],uint256)":"666256aa","claimRewards(address[])":"f9f031df","claimable(address)":"402914f5","createGauge(address,address)":"794cea3c","depositManaged(uint256,uint256)":"e0c11f9a","distribute(address[])":"6138889b","distribute(uint256,uint256)":"7625391a","emergencyCouncil()":"7778960e","epochGovernor()":"3aae971f","epochNext(uint256)":"880e36fc","epochStart(uint256)":"aa9354a3","epochVoteEnd(uint256)":"d58b15d4","epochVoteStart(uint256)":"39e9f3b6","factoryRegistry()":"3bf0c9fb","forwarder()":"f645d4f9","gaugeToBribe(address)":"929c8dcd","gaugeToFees(address)":"c4f08165","gauges(address)":"b9a09fd5","governor()":"0c340a24","initialize(address[],address)":"462d0b2e","isAlive(address)":"1703e5f9","isGauge(address)":"aa79979b","isTrustedForwarder(address)":"572b6c05","isWhitelistedNFT(uint256)":"d4e2616f","isWhitelistedToken(address)":"ab37f486","killGauge(address)":"992a7933","lastVoted(uint256)":"f3594be0","length()":"1f7b6d32","maxVotingNum()":"e8b3fd57","minter()":"07546172","notifyRewardAmount(uint256)":"3c6b16ab","poke(uint256)":"32145f90","poolForGauge(address)":"06d6a1b2","poolVote(uint256,uint256)":"a86a366d","pools(uint256)":"ac4afa38","reset(uint256)":"310bd74b","reviveGauge(address)":"9f06247b","setEmergencyCouncil(address)":"e586875f","setEpochGovernor(address)":"598d521b","setGovernor(address)":"c42cf535","setMaxVotingNum(uint256)":"30331b2f","totalWeight()":"96c82e57","updateFor(address)":"0e0a5968","updateFor(address[])":"d560b0d7","updateFor(uint256,uint256)":"c9ff6f4d","usedWeights(uint256)":"79e93824","ve()":"1f850716","vote(uint256,address[],uint256[])":"7ac09bf7","votes(uint256,address)":"d23254b4","weights(address)":"a7cac846","whitelistNFT(uint256,bool)":"e2819d5c","whitelistToken(address,bool)":"0ffb1d8b","withdrawManaged(uint256)":"370fb5fa"},"id":10}