{"abi":[{"type":"constructor","inputs":[{"name":"_fallbackPoolFactory","type":"address","internalType":"address"},{"name":"_fallbackVotingRewardsFactory","type":"address","internalType":"address"},{"name":"_fallbackGaugeFactory","type":"address","internalType":"address"},{"name":"_newManagedRewardsFactory","type":"address","internalType":"address"}],"stateMutability":"nonpayable"},{"type":"function","name":"approve","inputs":[{"name":"poolFactory","type":"address","internalType":"address"},{"name":"votingRewardsFactory","type":"address","internalType":"address"},{"name":"gaugeFactory","type":"address","internalType":"address"}],"outputs":[],"stateMutability":"nonpayable"},{"type":"function","name":"factoriesToPoolFactory","inputs":[{"name":"poolFactory","type":"address","internalType":"address"}],"outputs":[{"name":"votingRewardsFactory","type":"address","internalType":"address"},{"name":"gaugeFactory","type":"address","internalType":"address"}],"stateMutability":"view"},{"type":"function","name":"fallbackPoolFactory","inputs":[],"outputs":[{"name":"","type":"address","internalType":"address"}],"stateMutability":"view"},{"type":"function","name":"isPoolFactoryApproved","inputs":[{"name":"poolFactory","type":"address","internalType":"address"}],"outputs":[{"name":"","type":"bool","internalType":"bool"}],"stateMutability":"view"},{"type":"function","name":"managedRewardsFactory","inputs":[],"outputs":[{"name":"","type":"address","internalType":"address"}],"stateMutability":"view"},{"type":"function","name":"owner","inputs":[],"outputs":[{"name":"","type":"address","internalType":"address"}],"stateMutability":"view"},{"type":"function","name":"poolFactories","inputs":[],"outputs":[{"name":"","type":"address[]","internalType":"address[]"}],"stateMutability":"view"},{"type":"function","name":"poolFactoriesLength","inputs":[],"outputs":[{"name":"","type":"uint256","internalType":"uint256"}],"stateMutability":"view"},{"type":"function","name":"renounceOwnership","inputs":[],"outputs":[],"stateMutability":"nonpayable"},{"type":"function","name":"setManagedRewardsFactory","inputs":[{"name":"_newManagedRewardsFactory","type":"address","internalType":"address"}],"outputs":[],"stateMutability":"nonpayable"},{"type":"function","name":"transferOwnership","inputs":[{"name":"newOwner","type":"address","internalType":"address"}],"outputs":[],"stateMutability":"nonpayable"},{"type":"function","name":"unapprove","inputs":[{"name":"poolFactory","type":"address","internalType":"address"}],"outputs":[],"stateMutability":"nonpayable"},{"type":"event","name":"Approve","inputs":[{"name":"poolFactory","type":"address","indexed":true,"internalType":"address"},{"name":"votingRewardsFactory","type":"address","indexed":true,"internalType":"address"},{"name":"gaugeFactory","type":"address","indexed":true,"internalType":"address"}],"anonymous":false},{"type":"event","name":"OwnershipTransferred","inputs":[{"name":"previousOwner","type":"address","indexed":true,"internalType":"address"},{"name":"newOwner","type":"address","indexed":true,"internalType":"address"}],"anonymous":false},{"type":"event","name":"SetManagedRewardsFactory","inputs":[{"name":"_newRewardsFactory","type":"address","indexed":true,"internalType":"address"}],"anonymous":false},{"type":"event","name":"Unapprove","inputs":[{"name":"poolFactory","type":"address","indexed":true,"internalType":"address"},{"name":"votingRewardsFactory","type":"address","indexed":true,"internalType":"address"},{"name":"gaugeFactory","type":"address","indexed":true,"internalType":"address"}],"anonymous":false},{"type":"error","name":"FallbackFactory","inputs":[]},{"type":"error","name":"InvalidFactoriesToPoolFactory","inputs":[]},{"type":"error","name":"PathAlreadyApproved","inputs":[]},{"type":"error","name":"PathNotApproved","inputs":[]},{"type":"error","name":"SameAddress","inputs":[]},{"type":"error","name":"ZeroAddress","inputs":[]}],"bytecode":{"object":"0x60a06040523480156200001157600080fd5b5060405162000f2238038062000f22833981016040819052620000349162000449565b6200003f336200006e565b6001600160a01b03841660805262000059848484620000be565b620000648162000295565b50505050620004a6565b600080546001600160a01b038381166001600160a01b0319831681178455604051919092169283917f8be0079c531659141344cd1fd0a4f28419497f9722a3daafe3b4186f6b6457e09190a35050565b620000c862000341565b6001600160a01b0383161580620000e657506001600160a01b038216155b80620000f957506001600160a01b038116155b15620001185760405163d92e233d60e01b815260040160405180910390fd5b62000125600284620003a2565b1562000144576040516362cee17560e11b815260040160405180910390fd5b6001600160a01b038084166000908152600460209081526040918290208251808401909352805484168084526001909101549093169082015290620001e5576040805180820182526001600160a01b03808616825284811660208084019182528883166000908152600490915293909320915182549082166001600160a01b0319918216178355925160019092018054929091169190921617905562000237565b80516001600160a01b03848116911614158062000218575080602001516001600160a01b0316826001600160a01b031614155b156200023757604051630358043160e01b815260040160405180910390fd5b62000244600285620003c9565b50816001600160a01b0316836001600160a01b0316856001600160a01b03167f5abe7702ac48299ef7647755d7af6d6a6beecd1c584bbb6fa55b7a882490efc760405160405180910390a450505050565b6200029f62000341565b6001546001600160a01b0390811690821603620002cf5760405163367558c360e01b815260040160405180910390fd5b6001600160a01b038116620002f75760405163d92e233d60e01b815260040160405180910390fd5b600180546001600160a01b0319166001600160a01b0383169081179091556040517f3123bae5152a999decbb5b69306adb30fa19885cf983c49427fd5b4594dcb03790600090a250565b6000546001600160a01b03163314620003a05760405162461bcd60e51b815260206004820181905260248201527f4f776e61626c653a2063616c6c6572206973206e6f7420746865206f776e6572604482015260640160405180910390fd5b565b6001600160a01b038116600090815260018301602052604081205415155b90505b92915050565b6000620003c0836001600160a01b03841660008181526001830160205260408120546200042357508154600181810184556000848152602080822090930184905584548482528286019093526040902091909155620003c3565b506000620003c3565b80516001600160a01b03811681146200044457600080fd5b919050565b600080600080608085870312156200046057600080fd5b6200046b856200042c565b93506200047b602086016200042c565b92506200048b604086016200042c565b91506200049b606086016200042c565b905092959194509250565b608051610a59620004c96000396000818161014a015261058e0152610a596000f3fe608060405234801561001057600080fd5b50600436106100b45760003560e01c8063715018a611610071578063715018a6146101815780638da5cb5b146101895780639b140a851461019a578063d1ea0a1d146101ad578063f2fde38b146101d0578063fbf1f78a146101e357600080fd5b806306121cd5146100b95780630cb299c9146100d75780630d0ae678146100ed5780631217afdb1461011257806356d9cb6414610145578063640769391461016c575b600080fd5b6100c16101f6565b6040516100ce919061090f565b60405180910390f35b6100df610207565b6040519081526020016100ce565b6001546001600160a01b03165b6040516001600160a01b0390911681526020016100ce565b610125610120366004610978565b610213565b604080516001600160a01b039384168152929091166020830152016100ce565b6100fa7f000000000000000000000000000000000000000000000000000000000000000081565b61017f61017a366004610978565b610251565b005b61017f6102f9565b6000546001600160a01b03166100fa565b61017f6101a8366004610993565b61030d565b6101c06101bb366004610978565b6104e4565b60405190151581526020016100ce565b61017f6101de366004610978565b610506565b61017f6101f1366004610978565b610584565b6060610202600261067f565b905090565b60006102026002610693565b6001600160a01b0390811660009081526004602090815260409182902082518084019093528054841680845260019091015490931691018190529091565b61025961069d565b6001546001600160a01b03908116908216036102885760405163367558c360e01b815260040160405180910390fd5b6001600160a01b0381166102af5760405163d92e233d60e01b815260040160405180910390fd5b600180546001600160a01b0319166001600160a01b0383169081179091556040517f3123bae5152a999decbb5b69306adb30fa19885cf983c49427fd5b4594dcb03790600090a250565b61030161069d565b61030b60006106f7565b565b61031561069d565b6001600160a01b038316158061033257506001600160a01b038216155b8061034457506001600160a01b038116155b156103625760405163d92e233d60e01b815260040160405180910390fd5b6001600160a01b03831660009081526003602052604090205415610399576040516362cee17560e11b815260040160405180910390fd5b6001600160a01b038084166000908152600460209081526040918290208251808401909352805484168084526001909101549093169082015290610438576040805180820182526001600160a01b03808616825284811660208084019182528883166000908152600490915293909320915182549082166001600160a01b03199182161783559251600190920180549290911691909216179055610488565b80516001600160a01b03848116911614158061046a575080602001516001600160a01b0316826001600160a01b031614155b1561048857604051630358043160e01b815260040160405180910390fd5b610493600285610747565b50816001600160a01b0316836001600160a01b0316856001600160a01b03167f5abe7702ac48299ef7647755d7af6d6a6beecd1c584bbb6fa55b7a882490efc760405160405180910390a450505050565b6001600160a01b03811660009081526003602052604081205415155b92915050565b61050e61069d565b6001600160a01b0381166105785760405162461bcd60e51b815260206004820152602660248201527f4f776e61626c653a206e6577206f776e657220697320746865207a65726f206160448201526564647265737360d01b60648201526084015b60405180910390fd5b610581816106f7565b50565b61058c61069d565b7f00000000000000000000000000000000000000000000000000000000000000006001600160a01b0316816001600160a01b0316036105de57604051630a235adf60e11b815260040160405180910390fd5b6001600160a01b0381166000908152600360205260409020546106145760405163d38afd6560e01b815260040160405180910390fd5b61061f60028261075c565b5060008061062c83610213565b91509150806001600160a01b0316826001600160a01b0316846001600160a01b03167fbbbf8609bccd24696f7d2d86357dbd1a55ff9b79853a72ea11b1c0968ada177660405160405180910390a4505050565b6060600061068c83610771565b9392505050565b6000610500825490565b6000546001600160a01b0316331461030b5760405162461bcd60e51b815260206004820181905260248201527f4f776e61626c653a2063616c6c6572206973206e6f7420746865206f776e6572604482015260640161056f565b600080546001600160a01b038381166001600160a01b0319831681178455604051919092169283917f8be0079c531659141344cd1fd0a4f28419497f9722a3daafe3b4186f6b6457e09190a35050565b600061068c836001600160a01b0384166107cd565b600061068c836001600160a01b03841661081c565b6060816000018054806020026020016040519081016040528092919081815260200182805480156107c157602002820191906000526020600020905b8154815260200190600101908083116107ad575b50505050509050919050565b600081815260018301602052604081205461081457508154600181810184556000848152602080822090930184905584548482528286019093526040902091909155610500565b506000610500565b600081815260018301602052604081205480156109055760006108406001836109d6565b8554909150600090610854906001906109d6565b90508181146108b9576000866000018281548110610874576108746109f7565b9060005260206000200154905080876000018481548110610897576108976109f7565b6000918252602080832090910192909255918252600188019052604090208390555b85548690806108ca576108ca610a0d565b600190038181906000526020600020016000905590558560010160008681526020019081526020016000206000905560019350505050610500565b6000915050610500565b6020808252825182820181905260009190848201906040850190845b818110156109505783516001600160a01b03168352928401929184019160010161092b565b50909695505050505050565b80356001600160a01b038116811461097357600080fd5b919050565b60006020828403121561098a57600080fd5b61068c8261095c565b6000806000606084860312156109a857600080fd5b6109b18461095c565b92506109bf6020850161095c565b91506109cd6040850161095c565b90509250925092565b8181038181111561050057634e487b7160e01b600052601160045260246000fd5b634e487b7160e01b600052603260045260246000fd5b634e487b7160e01b600052603160045260246000fdfea2646970667358221220315114c51a629e3df89df88a46ece2aeaca24e744b7357d920585f0b1038cf5864736f6c63430008130033","linkReferences":{}},"methodIdentifiers":{"approve(address,address,address)":"9b140a85","factoriesToPoolFactory(address)":"1217afdb","fallbackPoolFactory()":"56d9cb64","isPoolFactoryApproved(address)":"d1ea0a1d","managedRewardsFactory()":"0d0ae678","owner()":"8da5cb5b","poolFactories()":"06121cd5","poolFactoriesLength()":"0cb299c9","renounceOwnership()":"715018a6","setManagedRewardsFactory(address)":"64076939","transferOwnership(address)":"f2fde38b","unapprove(address)":"fbf1f78a"},"id":15}