{"abi":[{"type":"constructor","inputs":[],"stateMutability":"nonpayable"},{"type":"function","name":"DOMAIN_SEPARATOR","inputs":[],"outputs":[{"name":"","type":"bytes32","internalType":"bytes32"}],"stateMutability":"view"},{"type":"function","name":"allowance","inputs":[{"name":"owner","type":"address","internalType":"address"},{"name":"spender","type":"address","internalType":"address"}],"outputs":[{"name":"","type":"uint256","internalType":"uint256"}],"stateMutability":"view"},{"type":"function","name":"approve","inputs":[{"name":"spender","type":"address","internalType":"address"},{"name":"amount","type":"uint256","internalType":"uint256"}],"outputs":[{"name":"","type":"bool","internalType":"bool"}],"stateMutability":"nonpayable"},{"type":"function","name":"balanceOf","inputs":[{"name":"account","type":"address","internalType":"address"}],"outputs":[{"name":"","type":"uint256","internalType":"uint256"}],"stateMutability":"view"},{"type":"function","name":"decimals","inputs":[],"outputs":[{"name":"","type":"uint8","internalType":"uint8"}],"stateMutability":"view"},{"type":"function","name":"decreaseAllowance","inputs":[{"name":"spender","type":"address","internalType":"address"},{"name":"subtractedValue","type":"uint256","internalType":"uint256"}],"outputs":[{"name":"","type":"bool","internalType":"bool"}],"stateMutability":"nonpayable"},{"type":"function","name":"eip712Domain","inputs":[],"outputs":[{"name":"fields","type":"bytes1","internalType":"bytes1"},{"name":"name","type":"string","internalType":"string"},{"name":"version","type":"string","internalType":"string"},{"name":"chainId","type":"uint256","internalType":"uint256"},{"name":"verifyingContract","type":"address","internalType":"address"},{"name":"salt","type":"bytes32","internalType":"bytes32"},{"name":"extensions","type":"uint256[]","internalType":"uint256[]"}],"stateMutability":"view"},{"type":"function","name":"increaseAllowance","inputs":[{"name":"spender","type":"address","internalType":"address"},{"name":"addedValue","type":"uint256","internalType":"uint256"}],"outputs":[{"name":"","type":"bool","internalType":"bool"}],"stateMutability":"nonpayable"},{"type":"function","name":"mint","inputs":[{"name":"account","type":"address","internalType":"address"},{"name":"amount","type":"uint256","internalType":"uint256"}],"outputs":[{"name":"","type":"bool","internalType":"bool"}],"stateMutability":"nonpayable"},{"type":"function","name":"minter","inputs":[],"outputs":[{"name":"","type":"address","internalType":"address"}],"stateMutability":"view"},{"type":"function","name":"name","inputs":[],"outputs":[{"name":"","type":"string","internalType":"string"}],"stateMutability":"view"},{"type":"function","name":"nonces","inputs":[{"name":"owner","type":"address","internalType":"address"}],"outputs":[{"name":"","type":"uint256","internalType":"uint256"}],"stateMutability":"view"},{"type":"function","name":"permit","inputs":[{"name":"owner","type":"address","internalType":"address"},{"name":"spender","type":"address","internalType":"address"},{"name":"value","type":"uint256","internalType":"uint256"},{"name":"deadline","type":"uint256","internalType":"uint256"},{"name":"v","type":"uint8","internalType":"uint8"},{"name":"r","type":"bytes32","internalType":"bytes32"},{"name":"s","type":"bytes32","internalType":"bytes32"}],"outputs":[],"stateMutability":"nonpayable"},{"type":"function","name":"setMinter","inputs":[{"name":"_minter","type":"address","internalType":"address"}],"outputs":[],"stateMutability":"nonpayable"},{"type":"function","name":"symbol","inputs":[],"outputs":[{"name":"","type":"string","internalType":"string"}],"stateMutability":"view"},{"type":"function","name":"totalSupply","inputs":[],"outputs":[{"name":"","type":"uint256","internalType":"uint256"}],"stateMutability":"view"},{"type":"function","name":"transfer","inputs":[{"name":"to","type":"address","internalType":"address"},{"name":"amount","type":"uint256","internalType":"uint256"}],"outputs":[{"name":"","type":"bool","internalType":"bool"}],"stateMutability":"nonpayable"},{"type":"function","name":"transferFrom","inputs":[{"name":"from","type":"address","internalType":"address"},{"name":"to","type":"address","internalType":"address"},{"name":"amount","type":"uint256","internalType":"uint256"}],"outputs":[{"name":"","type":"bool","internalType":"bool"}],"stateMutability":"nonpayable"},{"type":"event","name":"Approval","inputs":[{"name":"owner","type":"address","indexed":true,"internalType":"address"},{"name":"spender","type":"address","indexed":true,"internalType":"address"},{"name":"value","type":"uint256","indexed":false,"internalType":"uint256"}],"anonymous":false},{"type":"event","name":"EIP712DomainChanged","inputs":[],"anonymous":false},{"type":"event","name":"Transfer","inputs":[{"name":"from","type":"address","indexed":true,"internalType":"address"},{"name":"to","type":"address","indexed":true,"internalType":"address"},{"name":"value","type":"uint256","indexed":false,"internalType":"uint256"}],"anonymous":false},{"type":"error","name":"NotMinter","inputs":[]},{"type":"error","name":"NotOwner","inputs":[]},{"type":"error","name":"StringTooLong","inputs":[{"name":"str","type":"string","internalType":"string"}]}],"bytecode":{"object":"0x6101606040523480156200001257600080fd5b506040518060400160405280600b81526020016a2b32b637b23937b6b2ab1960a91b81525080604051806040016040528060018152602001603160f81b8152506040518060400160405280600b81526020016a2b32b637b23937b6b2ab1960a91b8152506040518060400160405280600481526020016356454c4f60e01b8152508160039081620000a49190620002c1565b506004620000b38282620002c1565b50620000c59150839050600562000197565b60e052620000d581600662000197565b61010052815160208084019190912061012052815190820120610140524660a052620001656101205161014051604080517f8b73c3c69bb8fe3d512ecc4cf759cc79239f7b179b0ffacaa9a75d522b39400f60208201529081019290925260608201524660808201523060a082015260009060c00160405160208183030381529060405280519060200120905090565b60805250503060c0525060098054336001600160a01b03199182168117909255600a8054909116909117905562000402565b6000602083511015620001b757620001af83620001d0565b9050620001ca565b81620001c48482620002c1565b50600090505b92915050565b600080829050601f8151111562000207578260405163305a27a960e01b8152600401620001fe91906200038d565b60405180910390fd5b80516200021482620003dd565b179392505050565b634e487b7160e01b600052604160045260246000fd5b600181811c908216806200024757607f821691505b6020821081036200026857634e487b7160e01b600052602260045260246000fd5b50919050565b601f821115620002bc57600081815260208120601f850160051c81016020861015620002975750805b601f850160051c820191505b81811015620002b857828155600101620002a3565b5050505b505050565b81516001600160401b03811115620002dd57620002dd6200021c565b620002f581620002ee845462000232565b846200026e565b602080601f8311600181146200032d5760008415620003145750858301515b600019600386901b1c1916600185901b178555620002b8565b600085815260208120601f198616915b828110156200035e578886015182559484019460019091019084016200033d565b50858210156200037d5787850151600019600388901b60f8161c191681555b5050505050600190811b01905550565b600060208083528351808285015260005b81811015620003bc578581018301518582016040015282016200039e565b506000604082860101526040601f19601f8301168501019250505092915050565b80516020808301519190811015620002685760001960209190910360031b1b16919050565b60805160a05160c05160e0516101005161012051610140516112806200045d6000396000610b2701526000610aff015260006104420152600061041701526000610a5a01526000610a8401526000610aae01526112806000f3fe608060405234801561001057600080fd5b50600436106101165760003560e01c806370a08231116100a2578063a457c2d711610071578063a457c2d714610248578063a9059cbb1461025b578063d505accf1461026e578063dd62ed3e14610283578063fca3b5aa1461029657600080fd5b806370a08231146101e95780637ecebe001461021257806384b0196e1461022557806395d89b411461024057600080fd5b806323b872dd116100e957806323b872dd14610199578063313ce567146101ac5780633644e515146101bb57806339509351146101c357806340c10f19146101d657600080fd5b806306fdde031461011b5780630754617214610139578063095ea7b31461016457806318160ddd14610187575b600080fd5b6101236102a9565b6040516101309190610fec565b60405180910390f35b60095461014c906001600160a01b031681565b6040516001600160a01b039091168152602001610130565b610177610172366004611022565b61033b565b6040519015158152602001610130565b6002545b604051908152602001610130565b6101776101a736600461104c565b610355565b60405160128152602001610130565b61018b610379565b6101776101d1366004611022565b610388565b6101776101e4366004611022565b6103aa565b61018b6101f7366004611088565b6001600160a01b031660009081526020819052604090205490565b61018b610220366004611088565b6103eb565b61022d610409565b60405161013097969594939291906110a3565b610123610492565b610177610256366004611022565b6104a1565b610177610269366004611022565b610521565b61028161027c366004611139565b61052f565b005b61018b6102913660046111ac565b610693565b6102816102a4366004611088565b6106be565b6060600380546102b8906111df565b80601f01602080910402602001604051908101604052809291908181526020018280546102e4906111df565b80156103315780601f1061030657610100808354040283529160200191610331565b820191906000526020600020905b81548152906001019060200180831161031457829003601f168201915b5050505050905090565b60003361034981858561070b565b60019150505b92915050565b60003361036385828561082f565b61036e8585856108a9565b506001949350505050565b6000610383610a4d565b905090565b60003361034981858561039b8383610693565b6103a59190611213565b61070b565b6009546000906001600160a01b031633146103d857604051633e34a41b60e21b815260040160405180910390fd5b6103e28383610b78565b50600192915050565b6001600160a01b03811660009081526007602052604081205461034f565b60006060808280808361043d7f00000000000000000000000000000000000000000000000000000000000000006005610c37565b6104687f00000000000000000000000000000000000000000000000000000000000000006006610c37565b60408051600080825260208201909252600f60f81b9b939a50919850469750309650945092509050565b6060600480546102b8906111df565b600033816104af8286610693565b9050838110156105145760405162461bcd60e51b815260206004820152602560248201527f45524332303a2064656372656173656420616c6c6f77616e63652062656c6f77604482015264207a65726f60d81b60648201526084015b60405180910390fd5b61036e828686840361070b565b6000336103498185856108a9565b8342111561057f5760405162461bcd60e51b815260206004820152601d60248201527f45524332305065726d69743a206578706972656420646561646c696e65000000604482015260640161050b565b60007f6e71edae12b1b97f4d1f60370fef10105fa2faae0126114a169c64845d6126c98888886105ae8c610ce3565b6040805160208101969096526001600160a01b0394851690860152929091166060840152608083015260a082015260c0810186905260e001604051602081830303815290604052805190602001209050600061060982610d0b565b9050600061061982878787610d38565b9050896001600160a01b0316816001600160a01b03161461067c5760405162461bcd60e51b815260206004820152601e60248201527f45524332305065726d69743a20696e76616c6964207369676e61747572650000604482015260640161050b565b6106878a8a8a61070b565b50505050505050505050565b6001600160a01b03918216600090815260016020908152604080832093909416825291909152205490565b6009546001600160a01b031633146106e957604051633e34a41b60e21b815260040160405180910390fd5b600980546001600160a01b0319166001600160a01b0392909216919091179055565b6001600160a01b03831661076d5760405162461bcd60e51b8152602060048201526024808201527f45524332303a20617070726f76652066726f6d20746865207a65726f206164646044820152637265737360e01b606482015260840161050b565b6001600160a01b0382166107ce5760405162461bcd60e51b815260206004820152602260248201527f45524332303a20617070726f766520746f20746865207a65726f206164647265604482015261737360f01b606482015260840161050b565b6001600160a01b0383811660008181526001602090815260408083209487168084529482529182902085905590518481527f8c5be1e5ebec7d5bd14f71427d1e84f3dd0314c0f7b2291e5b200ac8c7c3b925910160405180910390a3505050565b600061083b8484610693565b905060001981146108a357818110156108965760405162461bcd60e51b815260206004820152601d60248201527f45524332303a20696e73756666696369656e7420616c6c6f77616e6365000000604482015260640161050b565b6108a3848484840361070b565b50505050565b6001600160a01b03831661090d5760405162461bcd60e51b815260206004820152602560248201527f45524332303a207472616e736665722066726f6d20746865207a65726f206164604482015264647265737360d81b606482015260840161050b565b6001600160a01b03821661096f5760405162461bcd60e51b815260206004820152602360248201527f45524332303a207472616e7366657220746f20746865207a65726f206164647260448201526265737360e81b606482015260840161050b565b6001600160a01b038316600090815260208190526040902054818110156109e75760405162461bcd60e51b815260206004820152602660248201527f45524332303a207472616e7366657220616d6f756e7420657863656564732062604482015265616c616e636560d01b606482015260840161050b565b6001600160a01b03848116600081815260208181526040808320878703905593871680835291849020805487019055925185815290927fddf252ad1be2c89b69c2b068fc378daa952ba7f163c4a11628f55a4df523b3ef910160405180910390a36108a3565b6000306001600160a01b037f000000000000000000000000000000000000000000000000000000000000000016148015610aa657507f000000000000000000000000000000000000000000000000000000000000000046145b15610ad057507f000000000000000000000000000000000000000000000000000000000000000090565b610383604080517f8b73c3c69bb8fe3d512ecc4cf759cc79239f7b179b0ffacaa9a75d522b39400f60208201527f0000000000000000000000000000000000000000000000000000000000000000918101919091527f000000000000000000000000000000000000000000000000000000000000000060608201524660808201523060a082015260009060c00160405160208183030381529060405280519060200120905090565b6001600160a01b038216610bce5760405162461bcd60e51b815260206004820152601f60248201527f45524332303a206d696e7420746f20746865207a65726f206164647265737300604482015260640161050b565b8060026000828254610be09190611213565b90915550506001600160a01b038216600081815260208181526040808320805486019055518481527fddf252ad1be2c89b69c2b068fc378daa952ba7f163c4a11628f55a4df523b3ef910160405180910390a35050565b606060ff831615610c5257610c4b83610d60565b905061034f565b818054610c5e906111df565b80601f0160208091040260200160405190810160405280929190818152602001828054610c8a906111df565b8015610cd75780601f10610cac57610100808354040283529160200191610cd7565b820191906000526020600020905b815481529060010190602001808311610cba57829003601f168201915b5050505050905061034f565b6001600160a01b03811660009081526007602052604090208054600181018255905b50919050565b600061034f610d18610a4d565b8360405161190160f01b8152600281019290925260228201526042902090565b6000806000610d4987878787610d95565b91509150610d5681610e59565b5095945050505050565b60408051602080825281830190925260609160ff84169160009180820181803683375050509182525060208101929092525090565b6000807f7fffffffffffffffffffffffffffffff5d576e7357a4501ddfe92f46681b20a0831115610dcc5750600090506003610e50565b6040805160008082526020820180845289905260ff881692820192909252606081018690526080810185905260019060a0016020604051602081039080840390855afa158015610e20573d6000803e3d6000fd5b5050604051601f1901519150506001600160a01b038116610e4957600060019250925050610e50565b9150600090505b94509492505050565b6000816004811115610e6d57610e6d611234565b03610e755750565b6001816004811115610e8957610e89611234565b03610ed65760405162461bcd60e51b815260206004820152601860248201527f45434453413a20696e76616c6964207369676e61747572650000000000000000604482015260640161050b565b6002816004811115610eea57610eea611234565b03610f375760405162461bcd60e51b815260206004820152601f60248201527f45434453413a20696e76616c6964207369676e6174757265206c656e67746800604482015260640161050b565b6003816004811115610f4b57610f4b611234565b03610fa35760405162461bcd60e51b815260206004820152602260248201527f45434453413a20696e76616c6964207369676e6174757265202773272076616c604482015261756560f01b606482015260840161050b565b50565b6000815180845260005b81811015610fcc57602081850181015186830182015201610fb0565b506000602082860101526020601f19601f83011685010191505092915050565b602081526000610fff6020830184610fa6565b9392505050565b80356001600160a01b038116811461101d57600080fd5b919050565b6000806040838503121561103557600080fd5b61103e83611006565b946020939093013593505050565b60008060006060848603121561106157600080fd5b61106a84611006565b925061107860208501611006565b9150604084013590509250925092565b60006020828403121561109a57600080fd5b610fff82611006565b60ff60f81b881681526000602060e0818401526110c360e084018a610fa6565b83810360408501526110d5818a610fa6565b606085018990526001600160a01b038816608086015260a0850187905284810360c0860152855180825283870192509083019060005b818110156111275783518352928401929184019160010161110b565b50909c9b505050505050505050505050565b600080600080600080600060e0888a03121561115457600080fd5b61115d88611006565b965061116b60208901611006565b95506040880135945060608801359350608088013560ff8116811461118f57600080fd5b9699959850939692959460a0840135945060c09093013592915050565b600080604083850312156111bf57600080fd5b6111c883611006565b91506111d660208401611006565b90509250929050565b600181811c908216806111f357607f821691505b602082108103610d0557634e487b7160e01b600052602260045260246000fd5b8082018082111561034f57634e487b7160e01b600052601160045260246000fd5b634e487b7160e01b600052602160045260246000fdfea264697066735822122044e9a7a2b0033356983110c99b7c1de1445a6917eba317fd26ee759bf9fa274764736f6c63430008130033","linkReferences":{}},"methodIdentifiers":{"DOMAIN_SEPARATOR()":"3644e515","allowance(address,address)":"dd62ed3e","approve(address,uint256)":"095ea7b3","balanceOf(address)":"70a08231","decimals()":"313ce567","decreaseAllowance(address,uint256)":"a457c2d7","eip712Domain()":"84b0196e","increaseAllowance(address,uint256)":"39509351","mint(address,uint256)":"40c10f19","minter()":"07546172","name()":"06fdde03","nonces(address)":"7ecebe00","permit(address,address,uint256,uint256,uint8,bytes32,bytes32)":"d505accf","setMinter(address)":"fca3b5aa","symbol()":"95d89b41","totalSupply()":"18160ddd","transfer(address,uint256)":"a9059cbb","transferFrom(address,address,uint256)":"23b872dd"},"id":7}