{"abi":[{"type":"constructor","inputs":[{"name":"_secondsPerBlock","type":"uint256","internalType":"uint256"}],"stateMutability":"nonpayable"},{"type":"function","name":"currentBlockNumber","inputs":[],"outputs":[{"name":"","type":"uint256","internalType":"uint256"}],"stateMutability":"view"},{"type":"function","name":"currentTimestamp","inputs":[],"outputs":[{"name":"","type":"uint256","internalType":"uint256"}],"stateMutability":"view"},{"type":"function","name":"increaseCurrentBlockNumber","inputs":[{"name":"blockJump","type":"uint256","internalType":"uint256"}],"outputs":[],"stateMutability":"nonpayable"},{"type":"function","name":"increaseCurrentTimestamp","inputs":[{"name":"timeJump","type":"uint256","internalType":"uint256"}],"outputs":[],"stateMutability":"nonpayable"},{"type":"function","name":"secondsPerBlock","inputs":[],"outputs":[{"name":"","type":"uint256","internalType":"uint256"}],"stateMutability":"view"}],"bytecode":{"object":"0x608060405234801561001057600080fd5b5060405161024138038061024183398101604081905261002f9161003f565b4260005543600155600255610058565b60006020828403121561005157600080fd5b5051919050565b6101da806100676000396000f3fe608060405234801561001057600080fd5b50600436106100575760003560e01c80631e2ff94f1461005c578063378ec23b14610077578063790ebf33146100805780637a7d493714610095578063c03521141461009e575b600080fd5b61006560005481565b60405190815260200160405180910390f35b61006560015481565b61009361008e366004610123565b6100b1565b005b61006560025481565b6100936100ac366004610123565b6100ef565b6002546100be9082610152565b6000808282546100ce919061016f565b9250508190555080600160008282546100e7919061016f565b909155505050565b80600080828254610100919061016f565b90915550506002546101129082610182565b600160008282546100e7919061016f565b60006020828403121561013557600080fd5b5035919050565b634e487b7160e01b600052601160045260246000fd5b80820281158282048414176101695761016961013c565b92915050565b808201808211156101695761016961013c565b60008261019f57634e487b7160e01b600052601260045260246000fd5b50049056fea26469706673582212205fc7464b554360b15d41a728657aced7a885b5aad42ed0484c7faaa475d9f0c564736f6c63430008130033","linkReferences":{}},"methodIdentifiers":{"currentBlockNumber()":"378ec23b","currentTimestamp()":"1e2ff94f","increaseCurrentBlockNumber(uint256)":"790ebf33","increaseCurrentTimestamp(uint256)":"c0352114","secondsPerBlock()":"7a7d4937"},"id":162}