{"abi":[{"type":"constructor","inputs":[{"name":"_forwarder","type":"address","internalType":"address"},{"name":"_factoryRegistry","type":"address","internalType":"address"},{"name":"_factory","type":"address","internalType":"address"},{"name":"_voter","type":"address","internalType":"address"},{"name":"_weth","type":"address","internalType":"address"}],"stateMutability":"nonpayable"},{"type":"receive","stateMutability":"payable"},{"type":"function","name":"ETHER","inputs":[],"outputs":[{"name":"","type":"address","internalType":"address"}],"stateMutability":"view"},{"type":"function","name":"UNSAFE_swapExactTokensForTokens","inputs":[{"name":"amounts","type":"uint256[]","internalType":"uint256[]"},{"name":"routes","type":"tuple[]","internalType":"struct IRouter.Route[]","components":[{"name":"from","type":"address","internalType":"address"},{"name":"to","type":"address","internalType":"address"},{"name":"stable","type":"bool","internalType":"bool"},{"name":"factory","type":"address","internalType":"address"}]},{"name":"to","type":"address","internalType":"address"},{"name":"deadline","type":"uint256","internalType":"uint256"}],"outputs":[{"name":"","type":"uint256[]","internalType":"uint256[]"}],"stateMutability":"nonpayable"},{"type":"function","name":"addLiquidity","inputs":[{"name":"tokenA","type":"address","internalType":"address"},{"name":"tokenB","type":"address","internalType":"address"},{"name":"stable","type":"bool","internalType":"bool"},{"name":"amountADesired","type":"uint256","internalType":"uint256"},{"name":"amountBDesired","type":"uint256","internalType":"uint256"},{"name":"amountAMin","type":"uint256","internalType":"uint256"},{"name":"amountBMin","type":"uint256","internalType":"uint256"},{"name":"to","type":"address","internalType":"address"},{"name":"deadline","type":"uint256","internalType":"uint256"}],"outputs":[{"name":"amountA","type":"uint256","internalType":"uint256"},{"name":"amountB","type":"uint256","internalType":"uint256"},{"name":"liquidity","type":"uint256","internalType":"uint256"}],"stateMutability":"nonpayable"},{"type":"function","name":"addLiquidityETH","inputs":[{"name":"token","type":"address","internalType":"address"},{"name":"stable","type":"bool","internalType":"bool"},{"name":"amountTokenDesired","type":"uint256","internalType":"uint256"},{"name":"amountTokenMin","type":"uint256","internalType":"uint256"},{"name":"amountETHMin","type":"uint256","internalType":"uint256"},{"name":"to","type":"address","internalType":"address"},{"name":"deadline","type":"uint256","internalType":"uint256"}],"outputs":[{"name":"amountToken","type":"uint256","internalType":"uint256"},{"name":"amountETH","type":"uint256","internalType":"uint256"},{"name":"liquidity","type":"uint256","internalType":"uint256"}],"stateMutability":"payable"},{"type":"function","name":"defaultFactory","inputs":[],"outputs":[{"name":"","type":"address","internalType":"address"}],"stateMutability":"view"},{"type":"function","name":"factoryRegistry","inputs":[],"outputs":[{"name":"","type":"address","internalType":"address"}],"stateMutability":"view"},{"type":"function","name":"generateZapInParams","inputs":[{"name":"tokenA","type":"address","internalType":"address"},{"name":"tokenB","type":"address","internalType":"address"},{"name":"stable","type":"bool","internalType":"bool"},{"name":"_factory","type":"address","internalType":"address"},{"name":"amountInA","type":"uint256","internalType":"uint256"},{"name":"amountInB","type":"uint256","internalType":"uint256"},{"name":"routesA","type":"tuple[]","internalType":"struct IRouter.Route[]","components":[{"name":"from","type":"address","internalType":"address"},{"name":"to","type":"address","internalType":"address"},{"name":"stable","type":"bool","internalType":"bool"},{"name":"factory","type":"address","internalType":"address"}]},{"name":"routesB","type":"tuple[]","internalType":"struct IRouter.Route[]","components":[{"name":"from","type":"address","internalType":"address"},{"name":"to","type":"address","internalType":"address"},{"name":"stable","type":"bool","internalType":"bool"},{"name":"factory","type":"address","internalType":"address"}]}],"outputs":[{"name":"amountOutMinA","type":"uint256","internalType":"uint256"},{"name":"amountOutMinB","type":"uint256","internalType":"uint256"},{"name":"amountAMin","type":"uint256","internalType":"uint256"},{"name":"amountBMin","type":"uint256","internalType":"uint256"}],"stateMutability":"view"},{"type":"function","name":"generateZapOutParams","inputs":[{"name":"tokenA","type":"address","internalType":"address"},{"name":"tokenB","type":"address","internalType":"address"},{"name":"stable","type":"bool","internalType":"bool"},{"name":"_factory","type":"address","internalType":"address"},{"name":"liquidity","type":"uint256","internalType":"uint256"},{"name":"routesA","type":"tuple[]","internalType":"struct IRouter.Route[]","components":[{"name":"from","type":"address","internalType":"address"},{"name":"to","type":"address","internalType":"address"},{"name":"stable","type":"bool","internalType":"bool"},{"name":"factory","type":"address","internalType":"address"}]},{"name":"routesB","type":"tuple[]","internalType":"struct IRouter.Route[]","components":[{"name":"from","type":"address","internalType":"address"},{"name":"to","type":"address","internalType":"address"},{"name":"stable","type":"bool","internalType":"bool"},{"name":"factory","type":"address","internalType":"address"}]}],"outputs":[{"name":"amountOutMinA","type":"uint256","internalType":"uint256"},{"name":"amountOutMinB","type":"uint256","internalType":"uint256"},{"name":"amountAMin","type":"uint256","internalType":"uint256"},{"name":"amountBMin","type":"uint256","internalType":"uint256"}],"stateMutability":"view"},{"type":"function","name":"getAmountsOut","inputs":[{"name":"amountIn","type":"uint256","internalType":"uint256"},{"name":"routes","type":"tuple[]","internalType":"struct IRouter.Route[]","components":[{"name":"from","type":"address","internalType":"address"},{"name":"to","type":"address","internalType":"address"},{"name":"stable","type":"bool","internalType":"bool"},{"name":"factory","type":"address","internalType":"address"}]}],"outputs":[{"name":"amounts","type":"uint256[]","internalType":"uint256[]"}],"stateMutability":"view"},{"type":"function","name":"getReserves","inputs":[{"name":"tokenA","type":"address","internalType":"address"},{"name":"tokenB","type":"address","internalType":"address"},{"name":"stable","type":"bool","internalType":"bool"},{"name":"_factory","type":"address","internalType":"address"}],"outputs":[{"name":"reserveA","type":"uint256","internalType":"uint256"},{"name":"reserveB","type":"uint256","internalType":"uint256"}],"stateMutability":"view"},{"type":"function","name":"isTrustedForwarder","inputs":[{"name":"forwarder","type":"address","internalType":"address"}],"outputs":[{"name":"","type":"bool","internalType":"bool"}],"stateMutability":"view"},{"type":"function","name":"poolFor","inputs":[{"name":"tokenA","type":"address","internalType":"address"},{"name":"tokenB","type":"address","internalType":"address"},{"name":"stable","type":"bool","internalType":"bool"},{"name":"_factory","type":"address","internalType":"address"}],"outputs":[{"name":"pool","type":"address","internalType":"address"}],"stateMutability":"view"},{"type":"function","name":"quoteAddLiquidity","inputs":[{"name":"tokenA","type":"address","internalType":"address"},{"name":"tokenB","type":"address","internalType":"address"},{"name":"stable","type":"bool","internalType":"bool"},{"name":"_factory","type":"address","internalType":"address"},{"name":"amountADesired","type":"uint256","internalType":"uint256"},{"name":"amountBDesired","type":"uint256","internalType":"uint256"}],"outputs":[{"name":"amountA","type":"uint256","internalType":"uint256"},{"name":"amountB","type":"uint256","internalType":"uint256"},{"name":"liquidity","type":"uint256","internalType":"uint256"}],"stateMutability":"view"},{"type":"function","name":"quoteRemoveLiquidity","inputs":[{"name":"tokenA","type":"address","internalType":"address"},{"name":"tokenB","type":"address","internalType":"address"},{"name":"stable","type":"bool","internalType":"bool"},{"name":"_factory","type":"address","internalType":"address"},{"name":"liquidity","type":"uint256","internalType":"uint256"}],"outputs":[{"name":"amountA","type":"uint256","internalType":"uint256"},{"name":"amountB","type":"uint256","internalType":"uint256"}],"stateMutability":"view"},{"type":"function","name":"quoteStableLiquidityRatio","inputs":[{"name":"tokenA","type":"address","internalType":"address"},{"name":"tokenB","type":"address","internalType":"address"},{"name":"_factory","type":"address","internalType":"address"}],"outputs":[{"name":"ratio","type":"uint256","internalType":"uint256"}],"stateMutability":"view"},{"type":"function","name":"removeLiquidity","inputs":[{"name":"tokenA","type":"address","internalType":"address"},{"name":"tokenB","type":"address","internalType":"address"},{"name":"stable","type":"bool","internalType":"bool"},{"name":"liquidity","type":"uint256","internalType":"uint256"},{"name":"amountAMin","type":"uint256","internalType":"uint256"},{"name":"amountBMin","type":"uint256","internalType":"uint256"},{"name":"to","type":"address","internalType":"address"},{"name":"deadline","type":"uint256","internalType":"uint256"}],"outputs":[{"name":"amountA","type":"uint256","internalType":"uint256"},{"name":"amountB","type":"uint256","internalType":"uint256"}],"stateMutability":"nonpayable"},{"type":"function","name":"removeLiquidityETH","inputs":[{"name":"token","type":"address","internalType":"address"},{"name":"stable","type":"bool","internalType":"bool"},{"name":"liquidity","type":"uint256","internalType":"uint256"},{"name":"amountTokenMin","type":"uint256","internalType":"uint256"},{"name":"amountETHMin","type":"uint256","internalType":"uint256"},{"name":"to","type":"address","internalType":"address"},{"name":"deadline","type":"uint256","internalType":"uint256"}],"outputs":[{"name":"amountToken","type":"uint256","internalType":"uint256"},{"name":"amountETH","type":"uint256","internalType":"uint256"}],"stateMutability":"nonpayable"},{"type":"function","name":"removeLiquidityETHSupportingFeeOnTransferTokens","inputs":[{"name":"token","type":"address","internalType":"address"},{"name":"stable","type":"bool","internalType":"bool"},{"name":"liquidity","type":"uint256","internalType":"uint256"},{"name":"amountTokenMin","type":"uint256","internalType":"uint256"},{"name":"amountETHMin","type":"uint256","internalType":"uint256"},{"name":"to","type":"address","internalType":"address"},{"name":"deadline","type":"uint256","internalType":"uint256"}],"outputs":[{"name":"amountETH","type":"uint256","internalType":"uint256"}],"stateMutability":"nonpayable"},{"type":"function","name":"sortTokens","inputs":[{"name":"tokenA","type":"address","internalType":"address"},{"name":"tokenB","type":"address","internalType":"address"}],"outputs":[{"name":"token0","type":"address","internalType":"address"},{"name":"token1","type":"address","internalType":"address"}],"stateMutability":"pure"},{"type":"function","name":"swapExactETHForTokens","inputs":[{"name":"amountOutMin","type":"uint256","internalType":"uint256"},{"name":"routes","type":"tuple[]","internalType":"struct IRouter.Route[]","components":[{"name":"from","type":"address","internalType":"address"},{"name":"to","type":"address","internalType":"address"},{"name":"stable","type":"bool","internalType":"bool"},{"name":"factory","type":"address","internalType":"address"}]},{"name":"to","type":"address","internalType":"address"},{"name":"deadline","type":"uint256","internalType":"uint256"}],"outputs":[{"name":"amounts","type":"uint256[]","internalType":"uint256[]"}],"stateMutability":"payable"},{"type":"function","name":"swapExactETHForTokensSupportingFeeOnTransferTokens","inputs":[{"name":"amountOutMin","type":"uint256","internalType":"uint256"},{"name":"routes","type":"tuple[]","internalType":"struct IRouter.Route[]","components":[{"name":"from","type":"address","internalType":"address"},{"name":"to","type":"address","internalType":"address"},{"name":"stable","type":"bool","internalType":"bool"},{"name":"factory","type":"address","internalType":"address"}]},{"name":"to","type":"address","internalType":"address"},{"name":"deadline","type":"uint256","internalType":"uint256"}],"outputs":[],"stateMutability":"payable"},{"type":"function","name":"swapExactTokensForETH","inputs":[{"name":"amountIn","type":"uint256","internalType":"uint256"},{"name":"amountOutMin","type":"uint256","internalType":"uint256"},{"name":"routes","type":"tuple[]","internalType":"struct IRouter.Route[]","components":[{"name":"from","type":"address","internalType":"address"},{"name":"to","type":"address","internalType":"address"},{"name":"stable","type":"bool","internalType":"bool"},{"name":"factory","type":"address","internalType":"address"}]},{"name":"to","type":"address","internalType":"address"},{"name":"deadline","type":"uint256","internalType":"uint256"}],"outputs":[{"name":"amounts","type":"uint256[]","internalType":"uint256[]"}],"stateMutability":"nonpayable"},{"type":"function","name":"swapExactTokensForETHSupportingFeeOnTransferTokens","inputs":[{"name":"amountIn","type":"uint256","internalType":"uint256"},{"name":"amountOutMin","type":"uint256","internalType":"uint256"},{"name":"routes","type":"tuple[]","internalType":"struct IRouter.Route[]","components":[{"name":"from","type":"address","internalType":"address"},{"name":"to","type":"address","internalType":"address"},{"name":"stable","type":"bool","internalType":"bool"},{"name":"factory","type":"address","internalType":"address"}]},{"name":"to","type":"address","internalType":"address"},{"name":"deadline","type":"uint256","internalType":"uint256"}],"outputs":[],"stateMutability":"nonpayable"},{"type":"function","name":"swapExactTokensForTokens","inputs":[{"name":"amountIn","type":"uint256","internalType":"uint256"},{"name":"amountOutMin","type":"uint256","internalType":"uint256"},{"name":"routes","type":"tuple[]","internalType":"struct IRouter.Route[]","components":[{"name":"from","type":"address","internalType":"address"},{"name":"to","type":"address","internalType":"address"},{"name":"stable","type":"bool","internalType":"bool"},{"name":"factory","type":"address","internalType":"address"}]},{"name":"to","type":"address","internalType":"address"},{"name":"deadline","type":"uint256","internalType":"uint256"}],"outputs":[{"name":"amounts","type":"uint256[]","internalType":"uint256[]"}],"stateMutability":"nonpayable"},{"type":"function","name":"swapExactTokensForTokensSupportingFeeOnTransferTokens","inputs":[{"name":"amountIn","type":"uint256","internalType":"uint256"},{"name":"amountOutMin","type":"uint256","internalType":"uint256"},{"name":"routes","type":"tuple[]","internalType":"struct IRouter.Route[]","components":[{"name":"from","type":"address","internalType":"address"},{"name":"to","type":"address","internalType":"address"},{"name":"stable","type":"bool","internalType":"bool"},{"name":"factory","type":"address","internalType":"address"}]},{"name":"to","type":"address","internalType":"address"},{"name":"deadline","type":"uint256","internalType":"uint256"}],"outputs":[],"stateMutability":"nonpayable"},{"type":"function","name":"voter","inputs":[],"outputs":[{"name":"","type":"address","internalType":"address"}],"stateMutability":"view"},{"type":"function","name":"weth","inputs":[],"outputs":[{"name":"","type":"address","internalType":"contract IWETH"}],"stateMutability":"view"},{"type":"function","name":"zapIn","inputs":[{"name":"tokenIn","type":"address","internalType":"address"},{"name":"amountInA","type":"uint256","internalType":"uint256"},{"name":"amountInB","type":"uint256","internalType":"uint256"},{"name":"zapInPool","type":"tuple","internalType":"struct IRouter.Zap","components":[{"name":"tokenA","type":"address","internalType":"address"},{"name":"tokenB","type":"address","internalType":"address"},{"name":"stable","type":"bool","internalType":"bool"},{"name":"factory","type":"address","internalType":"address"},{"name":"amountOutMinA","type":"uint256","internalType":"uint256"},{"name":"amountOutMinB","type":"uint256","internalType":"uint256"},{"name":"amountAMin","type":"uint256","internalType":"uint256"},{"name":"amountBMin","type":"uint256","internalType":"uint256"}]},{"name":"routesA","type":"tuple[]","internalType":"struct IRouter.Route[]","components":[{"name":"from","type":"address","internalType":"address"},{"name":"to","type":"address","internalType":"address"},{"name":"stable","type":"bool","internalType":"bool"},{"name":"factory","type":"address","internalType":"address"}]},{"name":"routesB","type":"tuple[]","internalType":"struct IRouter.Route[]","components":[{"name":"from","type":"address","internalType":"address"},{"name":"to","type":"address","internalType":"address"},{"name":"stable","type":"bool","internalType":"bool"},{"name":"factory","type":"address","internalType":"address"}]},{"name":"to","type":"address","internalType":"address"},{"name":"stake","type":"bool","internalType":"bool"}],"outputs":[{"name":"liquidity","type":"uint256","internalType":"uint256"}],"stateMutability":"payable"},{"type":"function","name":"zapOut","inputs":[{"name":"tokenOut","type":"address","internalType":"address"},{"name":"liquidity","type":"uint256","internalType":"uint256"},{"name":"zapOutPool","type":"tuple","internalType":"struct IRouter.Zap","components":[{"name":"tokenA","type":"address","internalType":"address"},{"name":"tokenB","type":"address","internalType":"address"},{"name":"stable","type":"bool","internalType":"bool"},{"name":"factory","type":"address","internalType":"address"},{"name":"amountOutMinA","type":"uint256","internalType":"uint256"},{"name":"amountOutMinB","type":"uint256","internalType":"uint256"},{"name":"amountAMin","type":"uint256","internalType":"uint256"},{"name":"amountBMin","type":"uint256","internalType":"uint256"}]},{"name":"routesA","type":"tuple[]","internalType":"struct IRouter.Route[]","components":[{"name":"from","type":"address","internalType":"address"},{"name":"to","type":"address","internalType":"address"},{"name":"stable","type":"bool","internalType":"bool"},{"name":"factory","type":"address","internalType":"address"}]},{"name":"routesB","type":"tuple[]","internalType":"struct IRouter.Route[]","components":[{"name":"from","type":"address","internalType":"address"},{"name":"to","type":"address","internalType":"address"},{"name":"stable","type":"bool","internalType":"bool"},{"name":"factory","type":"address","internalType":"address"}]}],"outputs":[],"stateMutability":"nonpayable"},{"type":"error","name":"ETHTransferFailed","inputs":[]},{"type":"error","name":"Expired","inputs":[]},{"type":"error","name":"InsufficientAmount","inputs":[]},{"type":"error","name":"InsufficientAmountA","inputs":[]},{"type":"error","name":"InsufficientAmountADesired","inputs":[]},{"type":"error","name":"InsufficientAmountAOptimal","inputs":[]},{"type":"error","name":"InsufficientAmountB","inputs":[]},{"type":"error","name":"InsufficientAmountBDesired","inputs":[]},{"type":"error","name":"InsufficientLiquidity","inputs":[]},{"type":"error","name":"InsufficientOutputAmount","inputs":[]},{"type":"error","name":"InvalidAmountInForETHDeposit","inputs":[]},{"type":"error","name":"InvalidPath","inputs":[]},{"type":"error","name":"InvalidRouteA","inputs":[]},{"type":"error","name":"InvalidRouteB","inputs":[]},{"type":"error","name":"InvalidTokenInForETHDeposit","inputs":[]},{"type":"error","name":"OnlyWETH","inputs":[]},{"type":"error","name":"PoolDoesNotExist","inputs":[]},{"type":"error","name":"PoolFactoryDoesNotExist","inputs":[]},{"type":"error","name":"SameAddresses","inputs":[]},{"type":"error","name":"ZeroAddress","inputs":[]}],"bytecode":{"object":"0x6101206040523480156200001257600080fd5b5060405162005e4a38038062005e4a83398101604081905262000035916200007c565b6001600160a01b0394851660805292841660a05290831660c052821660e0521661010052620000ec565b80516001600160a01b03811681146200007757600080fd5b919050565b600080600080600060a086880312156200009557600080fd5b620000a0866200005f565b9450620000b0602087016200005f565b9350620000c0604087016200005f565b9250620000d0606087016200005f565b9150620000e0608087016200005f565b90509295509295909350565b60805160a05160c05160e05161010051615c1d6200022d600039600081816101d6015281816103260152818161097301528181610b4901528181610bf501528181610c7901528181610cf801528181610d6c01528181611b7001528181611c8501528181611d1301528181611e9601528181612179015281816121af015281816122050152818161229a015281816123cc0152818161259e01528181612aca01528181612b1a01528181612e6101528181612e84015281816131eb015281816132a40152818161410301526141940152600081816103af01526130280152600081816106210152818161081d015281816112e70152818161150b01528181611713015281816121d101528181613c6a01528181613d0b0152613d950152600081816102c7015261176c01526000818161044e01526133460152615c1d6000f3fe6080604052600436106101c65760003560e01c8063874029d9116100f7578063c92de3ec11610095578063d7b0e0a511610064578063d7b0e0a514610643578063f5ba53c714610663578063fb49bafd14610691578063fe411f14146106a457600080fd5b8063c92de3ec146105af578063cac88ea9146105cf578063ce700c29146105ef578063d4b6846d1461060f57600080fd5b8063903638a4116100d1578063903638a414610549578063a81b91591461055c578063b7e0d4c01461057c578063c6b7f1b61461058f57600080fd5b8063874029d9146104e957806388cd821e146105095780638c0037dc1461052957600080fd5b806342cb1fbc116101645780635509a1ac1161013e5780635509a1ac14610411578063572b6c05146104315780635a47ddc31461048e5780637539d413146104c957600080fd5b806342cb1fbc1461037557806346c96aac1461039d578063544caa56146103d157600080fd5b80633bf0c9fb116101a05780633bf0c9fb146102b55780633da5acba146103015780633fc8cef3146103145780634111d5971461034857600080fd5b806307db50fa1461021b5780630dede6c41461026057806312bc3aca1461029557600080fd5b3661021657336001600160a01b037f00000000000000000000000000000000000000000000000000000000000000001614610214576040516301f180c960e01b815260040160405180910390fd5b005b600080fd5b34801561022757600080fd5b5061023b610236366004614e56565b6106c4565b6040805194855260208501939093529183015260608201526080015b60405180910390f35b34801561026c57600080fd5b5061028061027b366004614f26565b610806565b60408051928352602083019190915201610257565b3480156102a157600080fd5b506102146102b0366004614fab565b61095f565b3480156102c157600080fd5b506102e97f000000000000000000000000000000000000000000000000000000000000000081565b6040516001600160a01b039091168152602001610257565b61021461030f36600461501d565b610c6d565b34801561032057600080fd5b506102e97f000000000000000000000000000000000000000000000000000000000000000081565b34801561035457600080fd5b506103686103633660046150ec565b610ffe565b60405161025791906151b7565b34801561038157600080fd5b506102e973eeeeeeeeeeeeeeeeeeeeeeeeeeeeeeeeeeeeeeee81565b3480156103a957600080fd5b506102e97f000000000000000000000000000000000000000000000000000000000000000081565b3480156103dd57600080fd5b506103f16103ec3660046151fb565b61115e565b604080516001600160a01b03938416815292909116602083015201610257565b34801561041d57600080fd5b5061036861042c3660046152bc565b6111e9565b34801561043d57600080fd5b5061047e61044c366004615363565b7f00000000000000000000000000000000000000000000000000000000000000006001600160a01b0390811691161490565b6040519015158152602001610257565b34801561049a57600080fd5b506104ae6104a9366004615380565b6114de565b60408051938452602084019290925290820152606001610257565b3480156104d557600080fd5b5061023b6104e436600461540f565b6115d6565b3480156104f557600080fd5b506102e96105043660046154d4565b61170f565b34801561051557600080fd5b50610214610524366004614fab565b611927565b34801561053557600080fd5b506102806105443660046154d4565b611aa8565b61036861055736600461501d565b611b62565b34801561056857600080fd5b50610214610577366004615549565b611e43565b6104ae61058a3660046155e9565b612164565b34801561059b57600080fd5b506103686105aa366004614fab565b6123b6565b3480156105bb57600080fd5b506102806105ca36600461565b565b61267d565b3480156105db57600080fd5b506103686105ea366004614fab565b6127c6565b3480156105fb57600080fd5b506104ae61060a3660046156bf565b6128d5565b34801561061b57600080fd5b506102e97f000000000000000000000000000000000000000000000000000000000000000081565b34801561064f57600080fd5b5061028061065e3660046155e9565b612ab7565b34801561066f57600080fd5b5061068361067e36600461572d565b612b95565b604051908152602001610257565b61068361069f366004615778565b612e09565b3480156106b057600080fd5b506106836106bf3660046155e9565b6131d9565b8585600080606087156107595761072d8b8a8a808060200260200160405190810160405280939291908181526020016000905b828210156107235761071460808302860136819003810190615849565b815260200190600101906106f7565b50505050506111e9565b9050806001825161073e919061587b565b8151811061074e5761074e61588e565b602002602001015194505b85156107dd576107b18a8888808060200260200160405190810160405280939291908181526020016000905b82821015610723576107a260808302860136819003810190615849565b81526020019060010190610785565b905080600182516107c2919061587b565b815181106107d2576107d261588e565b602002602001015193505b6107eb8f8f8f8f89896128d5565b508093508194505050509a509a509a509a9650505050505050565b600080826108138161331e565b60006108418c8c8c7f000000000000000000000000000000000000000000000000000000000000000061170f565b905061086061084e613342565b6001600160a01b03831690838c613386565b60405163226bf2d160e21b81526001600160a01b03878116600483015260009182918416906389afcb449060240160408051808303816000875af11580156108ac573d6000803e3d6000fd5b505050506040513d601f19601f820116820180604052508101906108d091906158a4565b9150915060006108e08f8f61115e565b509050806001600160a01b03168f6001600160a01b031614610903578183610906565b82825b90975095508a87101561092c576040516323d9bb0560e21b815260040160405180910390fd5b8986101561094d57604051630d32418960e21b815260040160405180910390fd5b50505050509850989650505050505050565b806109698161331e565b6001600160a01b037f00000000000000000000000000000000000000000000000000000000000000001685856109a060018261587b565b8181106109af576109af61588e565b90506080020160200160208101906109c79190615363565b6001600160a01b0316146109ee576040516320db826760e01b815260040160405180910390fd5b610ad585856000818110610a0457610a0461588e565b610a1a9260206080909202019081019150615363565b610a22613342565b610acf88886000818110610a3857610a3861588e565b610a4e9260206080909202019081019150615363565b89896000818110610a6157610a6161588e565b9050608002016020016020810190610a799190615363565b8a8a6000818110610a8c57610a8c61588e565b9050608002016040016020810190610aa491906158c8565b8b8b6000818110610ab757610ab761588e565b90506080020160600160208101906105049190615363565b8a6133f7565b610b318585808060200260200160405190810160405280939291908181526020016000905b82821015610b2657610b1760808302860136819003810190615849565b81526020019060010190610afa565b5050505050306134ef565b6040516370a0823160e01b81523060048201526000907f00000000000000000000000000000000000000000000000000000000000000006001600160a01b0316906370a0823190602401602060405180830381865afa158015610b98573d6000803e3d6000fd5b505050506040513d601f19601f82011682018060405250810190610bbc91906158e5565b905086811015610bdf576040516342301c2360e01b815260040160405180910390fd5b604051632e1a7d4d60e01b8152600481018290527f00000000000000000000000000000000000000000000000000000000000000006001600160a01b031690632e1a7d4d90602401600060405180830381600087803b158015610c4157600080fd5b505af1158015610c55573d6000803e3d6000fd5b50505050610c638482613918565b5050505050505050565b80610c778161331e565b7f00000000000000000000000000000000000000000000000000000000000000006001600160a01b031685856000818110610cb457610cb461588e565b610cca9260206080909202019081019150615363565b6001600160a01b031614610cf1576040516320db826760e01b815260040160405180910390fd5b60003490507f00000000000000000000000000000000000000000000000000000000000000006001600160a01b031663d0e30db0826040518263ffffffff1660e01b81526004016000604051808303818588803b158015610d5157600080fd5b505af1158015610d65573d6000803e3d6000fd5b50505050507f00000000000000000000000000000000000000000000000000000000000000006001600160a01b031663a9059cbb610daf88886000818110610a3857610a3861588e565b6040516001600160e01b031960e084901b1681526001600160a01b039091166004820152602481018490526044016020604051808303816000875af1158015610dfc573d6000803e3d6000fd5b505050506040513d601f19601f82011682018060405250810190610e2091906158fe565b610e2c57610e2c61591b565b6000610e3960018761587b565b90506000878783818110610e4f57610e4f61588e565b9050608002016020016020810190610e679190615363565b6040516370a0823160e01b81526001600160a01b03888116600483015291909116906370a0823190602401602060405180830381865afa158015610eaf573d6000803e3d6000fd5b505050506040513d601f19601f82011682018060405250810190610ed391906158e5565b9050610f318888808060200260200160405190810160405280939291908181526020016000905b82821015610f2657610f1760808302860136819003810190615849565b81526020019060010190610efa565b5050505050876134ef565b8881898985818110610f4557610f4561588e565b9050608002016020016020810190610f5d9190615363565b6040516370a0823160e01b81526001600160a01b038a8116600483015291909116906370a08231906024015b602060405180830381865afa158015610fa6573d6000803e3d6000fd5b505050506040513d601f19601f82011682018060405250810190610fca91906158e5565b610fd4919061587b565b1015610ff3576040516342301c2360e01b815260040160405180910390fd5b505050505050505050565b60608161100a8161331e565b6110f3868660008181106110205761102061588e565b6110369260206080909202019081019150615363565b61103e613342565b6110d3898960008181106110545761105461588e565b61106a9260206080909202019081019150615363565b8a8a600081811061107d5761107d61588e565b90506080020160200160208101906110959190615363565b8b8b60008181106110a8576110a861588e565b90506080020160400160208101906110c091906158c8565b8c8c6000818110610ab757610ab761588e565b8a6000815181106110e6576110e661588e565b60200260200101516133f7565b611150878787808060200260200160405190810160405280939291908181526020016000905b828210156111455761113660808302860136819003810190615849565b81526020019060010190611119565b5050505050866139ab565b8691505b5095945050505050565b600080826001600160a01b0316846001600160a01b03160361119357604051633295f3fd60e21b815260040160405180910390fd5b826001600160a01b0316846001600160a01b0316106111b35782846111b6565b83835b90925090506001600160a01b0382166111e25760405163d92e233d60e01b815260040160405180910390fd5b9250929050565b606060018251101561120e576040516320db826760e01b815260040160405180910390fd5b815161121b906001615931565b6001600160401b0381111561123257611232615083565b60405190808252806020026020018201604052801561125b578160200160208202803683370190505b50905082816000815181106112725761127261588e565b6020908102919091010152815160005b818110156114d6576000806001600160a01b03168583815181106112a8576112a861588e565b6020026020010151606001516001600160a01b0316146112e5578482815181106112d4576112d461588e565b602002602001015160600151611307565b7f00000000000000000000000000000000000000000000000000000000000000005b9050600061136e8684815181106113205761132061588e565b60200260200101516000015187858151811061133e5761133e61588e565b60200260200101516020015188868151811061135c5761135c61588e565b6020026020010151604001518561170f565b604051635b16ebb760e01b81526001600160a01b03808316600483015291925090831690635b16ebb790602401602060405180830381865afa1580156113b8573d6000803e3d6000fd5b505050506040513d601f19601f820116820180604052508101906113dc91906158fe565b156114c157806001600160a01b031663f140a35a8685815181106114025761140261588e565b602002602001015188868151811061141c5761141c61588e565b6020026020010151600001516040518363ffffffff1660e01b81526004016114579291909182526001600160a01b0316602082015260400190565b602060405180830381865afa158015611474573d6000803e3d6000fd5b505050506040513d601f19601f8201168201806040525081019061149891906158e5565b856114a4856001615931565b815181106114b4576114b461588e565b6020026020010181815250505b505080806114ce90615944565b915050611282565b505092915050565b6000806000836114ed8161331e565b6114fc8d8d8d8d8d8d8d613c0b565b9094509250600061152f8e8e8e7f000000000000000000000000000000000000000000000000000000000000000061170f565b90506115448e61153d613342565b83886133f7565b6115578d611550613342565b83876133f7565b6040516335313c2160e11b81526001600160a01b038881166004830152821690636a627842906024016020604051808303816000875af115801561159f573d6000803e3d6000fd5b505050506040513d601f19601f820116820180604052508101906115c391906158e5565b9250505099509950999650505050505050565b6000806000806115e98d8d8d8d8d61267d565b90945092508391508290506060871561167a5761164e838a8a808060200260200160405190810160405280939291908181526020016000905b828210156107235761163f60808302860136819003810190615849565b81526020019060010190611622565b9050806001825161165f919061587b565b8151811061166f5761166f61588e565b602002602001015194505b85156116fe576116d2828888808060200260200160405190810160405280939291908181526020016000905b82821015610723576116c360808302860136819003810190615849565b815260200190600101906116a6565b905080600182516116e3919061587b565b815181106116f3576116f361588e565b602002602001015193505b509950995099509995505050505050565b60007f0000000000000000000000000000000000000000000000000000000000000000816001600160a01b03841615611748578361174a565b815b60405163d1ea0a1d60e01b81526001600160a01b0380831660048301529192507f00000000000000000000000000000000000000000000000000000000000000009091169063d1ea0a1d90602401602060405180830381865afa1580156117b5573d6000803e3d6000fd5b505050506040513d601f19601f820116820180604052508101906117d991906158fe565b6117f657604051634d39d5a360e11b815260040160405180910390fd5b600080611803898961115e565b6040516bffffffffffffffffffffffff19606084811b8216602084015283901b16603482015289151560f81b60488201529193509150600090604901604051602081830303815290604052805190602001209050611919846001600160a01b0316635c60da1b6040518163ffffffff1660e01b8152600401602060405180830381865afa158015611898573d6000803e3d6000fd5b505050506040513d601f19601f820116820180604052508101906118bc919061595d565b604051603881018790526f5af43d82803e903d91602b57fd5bf3ff60248201526014810191909152733d602d80600a3d3981f3363d3d373d3d3d363d738152605881018390526037600c8201206078820152605560439091012090565b9a9950505050505050505050565b806119318161331e565b61194785856000818110610a0457610a0461588e565b600061195460018661587b565b9050600086868381811061196a5761196a61588e565b90506080020160200160208101906119829190615363565b6040516370a0823160e01b81526001600160a01b03878116600483015291909116906370a0823190602401602060405180830381865afa1580156119ca573d6000803e3d6000fd5b505050506040513d601f19601f820116820180604052508101906119ee91906158e5565b9050611a4c8787808060200260200160405190810160405280939291908181526020016000905b82821015611a4157611a3260808302860136819003810190615849565b81526020019060010190611a15565b5050505050866134ef565b8781888885818110611a6057611a6061588e565b9050608002016020016020810190611a789190615363565b6040516370a0823160e01b81526001600160a01b03898116600483015291909116906370a0823190602401610f89565b6000806000611ab7878761115e565b509050600080611ac98989898961170f565b6001600160a01b0316630902f1ac6040518163ffffffff1660e01b8152600401606060405180830381865afa158015611b06573d6000803e3d6000fd5b505050506040513d601f19601f82011682018060405250810190611b2a919061597a565b5091509150826001600160a01b0316896001600160a01b031614611b4f578082611b52565b81815b909a909950975050505050505050565b606081611b6e8161331e565b7f00000000000000000000000000000000000000000000000000000000000000006001600160a01b031686866000818110611bab57611bab61588e565b611bc19260206080909202019081019150615363565b6001600160a01b031614611be8576040516320db826760e01b815260040160405180910390fd5b611c3a348787808060200260200160405190810160405280939291908181526020016000905b8282101561072357611c2b60808302860136819003810190615849565b81526020019060010190611c0e565b9150868260018451611c4c919061587b565b81518110611c5c57611c5c61588e565b60200260200101511015611c83576040516342301c2360e01b815260040160405180910390fd5b7f00000000000000000000000000000000000000000000000000000000000000006001600160a01b031663d0e30db083600081518110611cc557611cc561588e565b60200260200101516040518263ffffffff1660e01b81526004016000604051808303818588803b158015611cf857600080fd5b505af1158015611d0c573d6000803e3d6000fd5b50505050507f00000000000000000000000000000000000000000000000000000000000000006001600160a01b031663a9059cbb611d5688886000818110610a3857610a3861588e565b84600081518110611d6957611d6961588e565b60200260200101516040518363ffffffff1660e01b8152600401611da29291906001600160a01b03929092168252602082015260400190565b6020604051808303816000875af1158015611dc1573d6000803e3d6000fd5b505050506040513d601f19601f82011682018060405250810190611de591906158fe565b611df157611df161591b565b611154828787808060200260200160405190810160405280939291908181526020016000905b8282101561114557611e3460808302860136819003810190615849565b81526020019060010190611e17565b6000611e526020870187615363565b90506000611e666040880160208901615363565b905060006001600160a01b038a1673eeeeeeeeeeeeeeeeeeeeeeeeeeeeeeeeeeeeeeee14611e945789611eb6565b7f00000000000000000000000000000000000000000000000000000000000000005b9050611ec28989613e74565b6000816001600160a01b0316846001600160a01b03161461200e576040516370a0823160e01b81523060048201526001600160a01b038516906370a0823190602401602060405180830381865afa158015611f21573d6000803e3d6000fd5b505050506040513d601f19601f82011682018060405250810190611f4591906158e5565b90506001600160a01b0382168888611f5e60018261587b565b818110611f6d57611f6d61588e565b9050608002016020016020810190611f859190615363565b6001600160a01b031614611fac576040516309d41c6760e31b815260040160405180910390fd5b61200e84828b608001358b8b808060200260200160405190810160405280939291908181526020016000905b8282101561200457611ff560808302860136819003810190615849565b81526020019060010190611fd8565b5050505050613fd9565b816001600160a01b0316836001600160a01b03161461214e576040516370a0823160e01b81523060048201526001600160a01b038416906370a0823190602401602060405180830381865afa15801561206b573d6000803e3d6000fd5b505050506040513d601f19601f8201168201806040525081019061208f91906158e5565b90506001600160a01b03821686866120a860018261587b565b8181106120b7576120b761588e565b90506080020160200160208101906120cf9190615363565b6001600160a01b0316146120f6576040516332b2410360e21b815260040160405180910390fd5b61214e83828b60a001358989808060200260200160405190810160405280939291908181526020016000905b828210156120045761213f60808302860136819003810190615849565b81526020019060010190612122565b6121578b6140bb565b5050505050505050505050565b6000806000836121738161331e565b6121a28b7f00000000000000000000000000000000000000000000000000000000000000008c8c348d8d613c0b565b909450925060006121f58c7f00000000000000000000000000000000000000000000000000000000000000008d7f000000000000000000000000000000000000000000000000000000000000000061170f565b90506122038c61153d613342565b7f00000000000000000000000000000000000000000000000000000000000000006001600160a01b031663d0e30db0856040518263ffffffff1660e01b81526004016000604051808303818588803b15801561225e57600080fd5b505af1158015612272573d6000803e3d6000fd5b505060405163a9059cbb60e01b81526001600160a01b038581166004830152602482018990527f000000000000000000000000000000000000000000000000000000000000000016935063a9059cbb925060440190506020604051808303816000875af11580156122e7573d6000803e3d6000fd5b505050506040513d601f19601f8201168201806040525081019061230b91906158fe565b6123175761231761591b565b6040516335313c2160e11b81526001600160a01b038881166004830152821690636a627842906024016020604051808303816000875af115801561235f573d6000803e3d6000fd5b505050506040513d601f19601f8201168201806040525081019061238391906158e5565b9250833411156123a7576123a7612398613342565b6123a2863461587b565b613918565b50509750975097945050505050565b6060816123c28161331e565b6001600160a01b037f00000000000000000000000000000000000000000000000000000000000000001686866123f960018261587b565b8181106124085761240861588e565b90506080020160200160208101906124209190615363565b6001600160a01b031614612447576040516320db826760e01b815260040160405180910390fd5b612499888787808060200260200160405190810160405280939291908181526020016000905b828210156107235761248a60808302860136819003810190615849565b8152602001906001019061246d565b91508682600184516124ab919061587b565b815181106124bb576124bb61588e565b602002602001015110156124e2576040516342301c2360e01b815260040160405180910390fd5b61253f868660008181106124f8576124f861588e565b61250e9260206080909202019081019150615363565b612516613342565b61252c898960008181106110545761105461588e565b856000815181106110e6576110e661588e565b61259c828787808060200260200160405190810160405280939291908181526020016000905b828210156125915761258260808302860136819003810190615849565b81526020019060010190612565565b5050505050306139ab565b7f00000000000000000000000000000000000000000000000000000000000000006001600160a01b0316632e1a7d4d83600185516125da919061587b565b815181106125ea576125ea61588e565b60200260200101516040518263ffffffff1660e01b815260040161261091815260200190565b600060405180830381600087803b15801561262a57600080fd5b505af115801561263e573d6000803e3d6000fd5b50505050612672848360018551612655919061587b565b815181106126655761266561588e565b6020026020010151613918565b509695505050505050565b6000806000846001600160a01b03166379bc57d58989896040518463ffffffff1660e01b81526004016126b2939291906159a8565b602060405180830381865afa1580156126cf573d6000803e3d6000fd5b505050506040513d601f19601f820116820180604052508101906126f3919061595d565b90506001600160a01b0381166127105760008092509250506127bc565b60008061271f8a8a8a8a611aa8565b915091506000836001600160a01b03166318160ddd6040518163ffffffff1660e01b8152600401602060405180830381865afa158015612763573d6000803e3d6000fd5b505050506040513d601f19601f8201168201806040525081019061278791906158e5565b90508061279484896159cc565b61279e91906159f9565b9550806127ab83896159cc565b6127b591906159f9565b9450505050505b9550959350505050565b6060816127d28161331e565b612824888787808060200260200160405190810160405280939291908181526020016000905b828210156107235761281560808302860136819003810190615849565b815260200190600101906127f8565b9150868260018451612836919061587b565b815181106128465761284661588e565b6020026020010151101561286d576040516342301c2360e01b815260040160405180910390fd5b612883868660008181106124f8576124f861588e565b612672828787808060200260200160405190810160405280939291908181526020016000905b82821015611145576128c660808302860136819003810190615849565b815260200190600101906128a9565b600080600080866001600160a01b03166379bc57d58b8b8b6040518463ffffffff1660e01b815260040161290b939291906159a8565b602060405180830381865afa158015612928573d6000803e3d6000fd5b505050506040513d601f19601f8201168201806040525081019061294c919061595d565b9050600080806001600160a01b038416156129d757836001600160a01b03166318160ddd6040518163ffffffff1660e01b8152600401602060405180830381865afa15801561299f573d6000803e3d6000fd5b505050506040513d601f19601f820116820180604052508101906129c391906158e5565b90506129d18d8d8d8d611aa8565b90935091505b821580156129e3575081155b15612a14578896508795506103e8612a036129fe888a6159cc565b614286565b612a0d919061587b565b9450612aa7565b6000612a218a8585614375565b9050888111612a6957899750955085612a6284612a3e848b6159cc565b612a4891906159f9565b84612a53858b6159cc565b612a5d91906159f9565b6143de565b9550612aa5565b6000612a768a8587614375565b9850899750889050612aa185612a8c85846159cc565b612a9691906159f9565b85612a53868c6159cc565b9650505b505b5050505096509650969350505050565b60008082612ac48161331e565b612af48a7f00000000000000000000000000000000000000000000000000000000000000008b8b8b8b308b610806565b9093509150612b048a86856143f8565b604051632e1a7d4d60e01b8152600481018390527f00000000000000000000000000000000000000000000000000000000000000006001600160a01b031690632e1a7d4d90602401600060405180830381600087803b158015612b6657600080fd5b505af1158015612b7a573d6000803e3d6000fd5b50505050612b888583613918565b5097509795505050505050565b600080612ba5858560018661170f565b90506000856001600160a01b031663313ce5676040518163ffffffff1660e01b8152600401602060405180830381865afa158015612be7573d6000803e3d6000fd5b505050506040513d601f19601f82011682018060405250810190612c0b9190615a1b565b612c1690600a615b22565b90506000856001600160a01b031663313ce5676040518163ffffffff1660e01b8152600401602060405180830381865afa158015612c58573d6000803e3d6000fd5b505050506040513d601f19601f82011682018060405250810190612c7c9190615a1b565b612c8790600a615b22565b6040516378a051ad60e11b8152600481018490526001600160a01b03898116602483015291925083916000919086169063f140a35a90604401602060405180830381865afa158015612cdd573d6000803e3d6000fd5b505050506040513d601f19601f82011682018060405250810190612d0191906158e5565b9050600080612d158b8b60018c88886128d5565b50909250905085612d2e83670de0b6b3a76400006159cc565b612d3891906159f9565b915084612d4d82670de0b6b3a76400006159cc565b612d5791906159f9565b905084612d6c84670de0b6b3a76400006159cc565b612d7691906159f9565b925085612d8b85670de0b6b3a76400006159cc565b612d9591906159f9565b9350808285612dac86670de0b6b3a76400006159cc565b612db691906159f9565b612dc091906159cc565b612dca91906159f9565b9750612dde88670de0b6b3a7640000615931565b612df085670de0b6b3a76400006159cc565b612dfa91906159f9565b9b9a5050505050505050505050565b600080612e168a8c615931565b90508b3473eeeeeeeeeeeeeeeeeeeeeeeeeeeeeeeeeeeeeeed196001600160a01b03831601612efb57808314612e5f57604051633851fdc960e11b815260040160405180910390fd5b7f000000000000000000000000000000000000000000000000000000000000000091507f00000000000000000000000000000000000000000000000000000000000000006001600160a01b031663d0e30db0826040518263ffffffff1660e01b81526004016000604051808303818588803b158015612edd57600080fd5b505af1158015612ef1573d6000803e3d6000fd5b5050505050612f2d565b8015612f1a5760405163ae6d566f60e01b815260040160405180910390fd5b612f2d82612f26613342565b30866133f7565b612f3d828e8e8e8e8e8e8e6144e0565b612f468b614795565b6000612f91612f5860208e018e615363565b8d6020016020810190612f6b9190615363565b8e6040016020810190612f7e91906158c8565b8f60600160208101906105049190615363565b90508515613127576040516335313c2160e11b81523060048201526001600160a01b03821690636a627842906024016020604051808303816000875af1158015612fdf573d6000803e3d6000fd5b505050506040513d601f19601f8201168201806040525081019061300391906158e5565b60405163b9a09fd560e01b81526001600160a01b0383811660048301529196506000917f0000000000000000000000000000000000000000000000000000000000000000169063b9a09fd590602401602060405180830381865afa15801561306f573d6000803e3d6000fd5b505050506040513d601f19601f82011682018060405250810190613093919061595d565b90506130a96001600160a01b03831682886148fd565b604051636e553f6560e01b8152600481018790526001600160a01b038981166024830152821690636e553f6590604401600060405180830381600087803b1580156130f357600080fd5b505af1158015613107573d6000803e3d6000fd5b50613121925050506001600160a01b0383168260006148fd565b50613196565b6040516335313c2160e11b81526001600160a01b038881166004830152821690636a627842906024016020604051808303816000875af115801561316f573d6000803e3d6000fd5b505050506040513d601f19601f8201168201806040525081019061319391906158e5565b94505b61319f8f6140bb565b6131b46131af60208e018e615363565b6140bb565b6131c76131af60408e0160208f01615363565b505050509a9950505050505050505050565b6000816131e58161331e565b613215897f00000000000000000000000000000000000000000000000000000000000000008a8a8a8a308a610806565b6040516370a0823160e01b815230600482015290935061328e91508a9086906001600160a01b038316906370a0823190602401602060405180830381865afa158015613265573d6000803e3d6000fd5b505050506040513d601f19601f8201168201806040525081019061328991906158e5565b6143f8565b604051632e1a7d4d60e01b8152600481018390527f00000000000000000000000000000000000000000000000000000000000000006001600160a01b031690632e1a7d4d90602401600060405180830381600087803b1580156132f057600080fd5b505af1158015613304573d6000803e3d6000fd5b505050506133128483613918565b50979650505050505050565b4281101561333f57604051630407b05b60e31b815260040160405180910390fd5b50565b60007f00000000000000000000000000000000000000000000000000000000000000006001600160a01b03163303613381575060131936013560601c90565b503390565b6040516001600160a01b03808516602483015283166044820152606481018290526133f19085906323b872dd60e01b906084015b60408051601f198184030181529190526020810180516001600160e01b03166001600160e01b031990931692909217909152614a17565b50505050565b6000846001600160a01b03163b1161340e57600080fd5b604080516001600160a01b0385811660248301528481166044830152606480830185905283518084039091018152608490920183526020820180516001600160e01b03166323b872dd60e01b17905291516000928392908816916134729190615b55565b6000604051808303816000865af19150503d80600081146134af576040519150601f19603f3d011682016040523d82523d6000602084013e6134b4565b606091505b50915091508180156134de5750805115806134de5750808060200190518101906134de91906158fe565b6134e757600080fd5b505050505050565b815160005b818110156133f15760006135428583815181106135135761351361588e565b6020026020010151600001518684815181106135315761353161588e565b60200260200101516020015161115e565b50905060006135c786848151811061355c5761355c61588e565b60200260200101516000015187858151811061357a5761357a61588e565b6020026020010151602001518886815181106135985761359861588e565b6020026020010151604001518987815181106135b6576135b661588e565b60200260200101516060015161170f565b9050600080600061364e8987815181106135e3576135e361588e565b6020026020010151600001518a88815181106136015761360161588e565b6020026020010151602001518b898151811061361f5761361f61588e565b6020026020010151604001518c8a8151811061363d5761363d61588e565b602002602001015160600151611aa8565b509050808987815181106136645761366461588e565b6020908102919091010151516040516370a0823160e01b81526001600160a01b038781166004830152909116906370a0823190602401602060405180830381865afa1580156136b7573d6000803e3d6000fd5b505050506040513d601f19601f820116820180604052508101906136db91906158e5565b6136e5919061587b565b925050826001600160a01b031663f140a35a838a888151811061370a5761370a61588e565b6020026020010151600001516040518363ffffffff1660e01b81526004016137459291909182526001600160a01b0316602082015260400190565b602060405180830381865afa158015613762573d6000803e3d6000fd5b505050506040513d601f19601f8201168201806040525081019061378691906158e5565b9050600080856001600160a01b03168a88815181106137a7576137a761588e565b6020026020010151600001516001600160a01b0316146137c9578260006137cd565b6000835b91509150600060018b516137e1919061587b565b88106137ed578961388a565b61388a8b6137fc8a6001615931565b8151811061380c5761380c61588e565b6020026020010151600001518c8a60016138269190615931565b815181106138365761383661588e565b6020026020010151602001518d8b60016138509190615931565b815181106138605761386061588e565b6020026020010151604001518e8c600161387a9190615931565b815181106135b6576135b661588e565b6040805160008152602081019182905263022c0d9f60e01b9091529091506001600160a01b0387169063022c0d9f906138cc9086908690869060248101615b9d565b600060405180830381600087803b1580156138e657600080fd5b505af11580156138fa573d6000803e3d6000fd5b5050505050505050505050808061391090615944565b9150506134f4565b604080516000808252602082019092526001600160a01b0384169083906040516139429190615b55565b60006040518083038185875af1925050503d806000811461397f576040519150601f19603f3d011682016040523d82523d6000602084013e613984565b606091505b50509050806139a65760405163b12d13eb60e01b815260040160405180910390fd5b505050565b815160005b81811015613c045760006139cf8583815181106135135761351361588e565b5090506000866139e0846001615931565b815181106139f0576139f061588e565b60200260200101519050600080836001600160a01b0316888681518110613a1957613a1961588e565b6020026020010151600001516001600160a01b031614613a3b57826000613a3f565b6000835b91509150600060018951613a53919061587b565b8610613a5f5787613aec565b613aec89613a6e886001615931565b81518110613a7e57613a7e61588e565b6020026020010151600001518a886001613a989190615931565b81518110613aa857613aa861588e565b6020026020010151602001518b896001613ac29190615931565b81518110613ad257613ad261588e565b6020026020010151604001518c8a600161387a9190615931565b9050613b5d898781518110613b0357613b0361588e565b6020026020010151600001518a8881518110613b2157613b2161588e565b6020026020010151602001518b8981518110613b3f57613b3f61588e565b6020026020010151604001518c8a815181106135b6576135b661588e565b6001600160a01b031663022c0d9f84848460006040519080825280601f01601f191660200182016040528015613b9a576020820181803683370190505b506040518563ffffffff1660e01b8152600401613bba9493929190615b9d565b600060405180830381600087803b158015613bd457600080fd5b505af1158015613be8573d6000803e3d6000fd5b5050505050505050508080613bfc90615944565b9150506139b0565b5050505050565b60008083861015613c2f57604051636e35977960e11b815260040160405180910390fd5b82851015613c505760405163acee051360e01b815260040160405180910390fd5b6040516379bc57d560e01b81526000906001600160a01b037f000000000000000000000000000000000000000000000000000000000000000016906379bc57d590613ca3908d908d908d906004016159a8565b602060405180830381865afa158015613cc0573d6000803e3d6000fd5b505050506040513d601f19601f82011682018060405250810190613ce4919061595d565b90506001600160a01b038116613d8a576040516301b5fcad60e51b81526001600160a01b037f000000000000000000000000000000000000000000000000000000000000000016906336bf95a090613d44908d908d908d906004016159a8565b6020604051808303816000875af1158015613d63573d6000803e3d6000fd5b505050506040513d601f19601f82011682018060405250810190613d87919061595d565b90505b600080613db98c8c8c7f0000000000000000000000000000000000000000000000000000000000000000611aa8565b91509150816000148015613dcb575080155b15613ddb57889450879350613e65565b6000613de88a8484614375565b9050888111613e1d5786811015613e1257604051630d32418960e21b815260040160405180910390fd5b899550935083613e63565b6000613e2a8a8486614375565b90508a811115613e3c57613e3c61591b565b88811015613e5d576040516323d9bb0560e21b815260040160405180910390fd5b95508894505b505b50505097509795505050505050565b6000613e836020830183615363565b90506000613e976040840160208501615363565b90506000613ec08383613eb060608801604089016158c8565b6105046080890160608a01615363565b9050613ed76001600160a01b038216338388613386565b6000613ee3848461115e565b5060405163226bf2d160e21b815230600482015290915060009081906001600160a01b038516906389afcb449060240160408051808303816000875af1158015613f31573d6000803e3d6000fd5b505050506040513d601f19601f82011682018060405250810190613f5591906158a4565b91509150600080846001600160a01b0316886001600160a01b031614613f7c578284613f7f565b83835b915091508860c00135821015613fa8576040516323d9bb0560e21b815260040160405180910390fd5b8860e00135811015613fcd57604051630d32418960e21b815260040160405180910390fd5b50505050505050505050565b6000613fe584836111e9565b9050828160018351613ff7919061587b565b815181106140075761400761588e565b6020026020010151101561402e576040516342301c2360e01b815260040160405180910390fd5b60006140a3836000815181106140465761404661588e565b602002602001015160000151846000815181106140655761406561588e565b602002602001015160200151856000815181106140845761408461588e565b602002602001015160400151866000815181106135b6576135b661588e565b90506140b08682876143f8565b6134e78284306139ab565b60006140c5613342565b9050600073eeeeeeeeeeeeeeeeeeeeeeeeeeeeeeeeeeeeeeed196001600160a01b03841601614202576040516370a0823160e01b81523060048201527f00000000000000000000000000000000000000000000000000000000000000006001600160a01b0316906370a0823190602401602060405180830381865afa158015614152573d6000803e3d6000fd5b505050506040513d601f19601f8201168201806040525081019061417691906158e5565b905080156139a657604051632e1a7d4d60e01b8152600481018290527f00000000000000000000000000000000000000000000000000000000000000006001600160a01b031690632e1a7d4d90602401600060405180830381600087803b1580156141e057600080fd5b505af11580156141f4573d6000803e3d6000fd5b505050506139a68282613918565b6040516370a0823160e01b81523060048201526001600160a01b038416906370a0823190602401602060405180830381865afa158015614246573d6000803e3d6000fd5b505050506040513d601f19601f8201168201806040525081019061426a91906158e5565b905080156139a6576139a66001600160a01b0384168383614ae9565b60008160000361429857506000919050565b600060016142a584614b19565b901c6001901b905060018184816142be576142be6159e3565b048201901c905060018184816142d6576142d66159e3565b048201901c905060018184816142ee576142ee6159e3565b048201901c90506001818481614306576143066159e3565b048201901c9050600181848161431e5761431e6159e3565b048201901c90506001818481614336576143366159e3565b048201901c9050600181848161434e5761434e6159e3565b048201901c905061436e81828581614368576143686159e3565b046143de565b9392505050565b60008360000361439857604051632ca2f52b60e11b815260040160405180910390fd5b8215806143a3575081155b156143c15760405163bb55fd2760e01b815260040160405180910390fd5b826143cc83866159cc565b6143d691906159f9565b949350505050565b60008183106143ed57816143ef565b825b90505b92915050565b6000836001600160a01b03163b1161440f57600080fd5b604080516001600160a01b038481166024830152604480830185905283518084039091018152606490920183526020820180516001600160e01b031663a9059cbb60e01b179052915160009283929087169161446b9190615b55565b6000604051808303816000865af19150503d80600081146144a8576040519150601f19603f3d011682016040523d82523d6000602084013e6144ad565b606091505b50915091508180156144d75750805115806144d75750808060200190518101906144d791906158fe565b613c0457600080fd5b60006144ef6020870187615363565b905060006145036040880160208901615363565b905060006145176060890160408a016158c8565b9050600061452b60808a0160608b01615363565b9050600061453b8585858561170f565b9050600080826001600160a01b0316630902f1ac6040518163ffffffff1660e01b8152600401606060405180830381865afa15801561457e573d6000803e3d6000fd5b505050506040513d601f19601f820116820180604052508101906145a2919061597a565b50915091506103e8821115806145ba57506103e88111155b156145d8576040516302721e1f60e61b815260040160405180910390fd5b5050846001600160a01b03168d6001600160a01b0316146146b0576001600160a01b038516898961460a60018261587b565b8181106146195761461961588e565b90506080020160200160208101906146319190615363565b6001600160a01b031614614658576040516309d41c6760e31b815260040160405180910390fd5b6146b08d8d8c608001358c8c808060200260200160405190810160405280939291908181526020016000905b82821015612004576146a160808302860136819003810190615849565b81526020019060010190614684565b836001600160a01b03168d6001600160a01b031614614786576001600160a01b03841687876146e060018261587b565b8181106146ef576146ef61588e565b90506080020160200160208101906147079190615363565b6001600160a01b03161461472e576040516332b2410360e21b815260040160405180910390fd5b6147868d8c8c60a001358a8a808060200260200160405190810160405280939291908181526020016000905b828210156120045761477760808302860136819003810190615849565b8152602001906001019061475a565b50505050505050505050505050565b60006147a46020830183615363565b905060006147b86040840160208501615363565b905060006147cc60608501604086016158c8565b905060006147e06080860160608701615363565b905060006147f08585858561170f565b6040516370a0823160e01b815230600482015290915060009081906148e39088908890889088906001600160a01b038516906370a0823190602401602060405180830381865afa158015614848573d6000803e3d6000fd5b505050506040513d601f19601f8201168201806040525081019061486c91906158e5565b6040516370a0823160e01b81523060048201526001600160a01b038d16906370a0823190602401602060405180830381865afa1580156148b0573d6000803e3d6000fd5b505050506040513d601f19601f820116820180604052508101906148d491906158e5565b8e60c001358f60e00135614bad565b915091506148f28784846143f8565b610c638684836143f8565b8015806149775750604051636eb1769f60e11b81523060048201526001600160a01b03838116602483015284169063dd62ed3e90604401602060405180830381865afa158015614951573d6000803e3d6000fd5b505050506040513d601f19601f8201168201806040525081019061497591906158e5565b155b6149e75760405162461bcd60e51b815260206004820152603660248201527f5361666545524332303a20617070726f76652066726f6d206e6f6e2d7a65726f60448201527520746f206e6f6e2d7a65726f20616c6c6f77616e636560501b60648201526084015b60405180910390fd5b6040516001600160a01b0383166024820152604481018290526139a690849063095ea7b360e01b906064016133ba565b6000614a6c826040518060400160405280602081526020017f5361666545524332303a206c6f772d6c6576656c2063616c6c206661696c6564815250856001600160a01b0316614cbc9092919063ffffffff16565b8051909150156139a65780806020019051810190614a8a91906158fe565b6139a65760405162461bcd60e51b815260206004820152602a60248201527f5361666545524332303a204552433230206f7065726174696f6e20646964206e6044820152691bdd081cdd58d8d9595960b21b60648201526084016149de565b6040516001600160a01b0383166024820152604481018290526139a690849063a9059cbb60e01b906064016133ba565b600080608083901c15614b2e57608092831c92015b604083901c15614b4057604092831c92015b602083901c15614b5257602092831c92015b601083901c15614b6457601092831c92015b600883901c15614b7657600892831c92015b600483901c15614b8857600492831c92015b600283901c15614b9a57600292831c92015b600183901c156143f25760010192915050565b60008083861015614bd157604051636e35977960e11b815260040160405180910390fd5b82851015614bf25760405163acee051360e01b815260040160405180910390fd5b600080614c018c8c8c8c611aa8565b91509150816000148015614c13575080155b15614c2357879350869250614cad565b6000614c30898484614375565b9050878111614c655785811015614c5a57604051630d32418960e21b815260040160405180910390fd5b889450925082614cab565b6000614c72898486614375565b905089811115614c8457614c8461591b565b87811015614ca5576040516323d9bb0560e21b815260040160405180910390fd5b94508793505b505b50509850989650505050505050565b60606143d6848460008585600080866001600160a01b03168587604051614ce39190615b55565b60006040518083038185875af1925050503d8060008114614d20576040519150601f19603f3d011682016040523d82523d6000602084013e614d25565b606091505b5091509150614d3687838387614d41565b979650505050505050565b60608315614db0578251600003614da9576001600160a01b0385163b614da95760405162461bcd60e51b815260206004820152601d60248201527f416464726573733a2063616c6c20746f206e6f6e2d636f6e747261637400000060448201526064016149de565b50816143d6565b6143d68383815115614dc55781518083602001fd5b8060405162461bcd60e51b81526004016149de9190615bd4565b6001600160a01b038116811461333f57600080fd5b8035614dff81614ddf565b919050565b801515811461333f57600080fd5b60008083601f840112614e2457600080fd5b5081356001600160401b03811115614e3b57600080fd5b6020830191508360208260071b85010111156111e257600080fd5b6000806000806000806000806000806101008b8d031215614e7657600080fd5b8a35614e8181614ddf565b995060208b0135614e9181614ddf565b985060408b0135614ea181614e04565b975060608b0135614eb181614ddf565b965060808b0135955060a08b0135945060c08b01356001600160401b0380821115614edb57600080fd5b614ee78e838f01614e12565b909650945060e08d0135915080821115614f0057600080fd5b50614f0d8d828e01614e12565b915080935050809150509295989b9194979a5092959850565b600080600080600080600080610100898b031215614f4357600080fd5b8835614f4e81614ddf565b97506020890135614f5e81614ddf565b96506040890135614f6e81614e04565b9550606089013594506080890135935060a0890135925060c0890135614f9381614ddf565b8092505060e089013590509295985092959890939650565b60008060008060008060a08789031215614fc457600080fd5b863595506020870135945060408701356001600160401b03811115614fe857600080fd5b614ff489828a01614e12565b909550935050606087013561500881614ddf565b80925050608087013590509295509295509295565b60008060008060006080868803121561503557600080fd5b8535945060208601356001600160401b0381111561505257600080fd5b61505e88828901614e12565b909550935050604086013561507281614ddf565b949793965091946060013592915050565b634e487b7160e01b600052604160045260246000fd5b604051601f8201601f191681016001600160401b03811182821017156150c1576150c1615083565b604052919050565b60006001600160401b038211156150e2576150e2615083565b5060051b60200190565b60008060008060006080868803121561510457600080fd5b85356001600160401b038082111561511b57600080fd5b818801915088601f83011261512f57600080fd5b8135602061514461513f836150c9565b615099565b82815260059290921b8401810191818101908c84111561516357600080fd5b948201945b8386101561518157853582529482019490820190615168565b9950508901359250508082111561519757600080fd5b506151a488828901614e12565b9095509350615072905060408701614df4565b6020808252825182820181905260009190848201906040850190845b818110156151ef578351835292840192918401916001016151d3565b50909695505050505050565b6000806040838503121561520e57600080fd5b823561521981614ddf565b9150602083013561522981614ddf565b809150509250929050565b60006080828403121561524657600080fd5b604051608081018181106001600160401b038211171561526857615268615083565b604052905080823561527981614ddf565b8152602083013561528981614ddf565b6020820152604083013561529c81614e04565b604082015260608301356152af81614ddf565b6060919091015292915050565b600080604083850312156152cf57600080fd5b823591506020808401356001600160401b038111156152ed57600080fd5b8401601f810186136152fe57600080fd5b803561530c61513f826150c9565b81815260079190911b8201830190838101908883111561532b57600080fd5b928401925b82841015615354576153428985615234565b82528482019150608084019350615330565b80955050505050509250929050565b60006020828403121561537557600080fd5b813561436e81614ddf565b60008060008060008060008060006101208a8c03121561539f57600080fd5b89356153aa81614ddf565b985060208a01356153ba81614ddf565b975060408a01356153ca81614e04565b965060608a0135955060808a0135945060a08a0135935060c08a0135925060e08a01356153f681614ddf565b809250506101008a013590509295985092959850929598565b600080600080600080600080600060e08a8c03121561542d57600080fd5b893561543881614ddf565b985060208a013561544881614ddf565b975060408a013561545881614e04565b965060608a013561546881614ddf565b955060808a0135945060a08a01356001600160401b038082111561548b57600080fd5b6154978d838e01614e12565b909650945060c08c01359150808211156154b057600080fd5b506154bd8c828d01614e12565b915080935050809150509295985092959850929598565b600080600080608085870312156154ea57600080fd5b84356154f581614ddf565b9350602085013561550581614ddf565b9250604085013561551581614e04565b9150606085013561552581614ddf565b939692955090935050565b6000610100828403121561554357600080fd5b50919050565b6000806000806000806000610180888a03121561556557600080fd5b873561557081614ddf565b9650602088013595506155868960408a01615530565b94506101408801356001600160401b03808211156155a357600080fd5b6155af8b838c01614e12565b90965094506101608a01359150808211156155c957600080fd5b506155d68a828b01614e12565b989b979a50959850939692959293505050565b600080600080600080600060e0888a03121561560457600080fd5b873561560f81614ddf565b9650602088013561561f81614e04565b955060408801359450606088013593506080880135925060a088013561564481614ddf565b8092505060c0880135905092959891949750929550565b600080600080600060a0868803121561567357600080fd5b853561567e81614ddf565b9450602086013561568e81614ddf565b9350604086013561569e81614e04565b925060608601356156ae81614ddf565b949793965091946080013592915050565b60008060008060008060c087890312156156d857600080fd5b86356156e381614ddf565b955060208701356156f381614ddf565b9450604087013561570381614e04565b9350606087013561571381614ddf565b9598949750929560808101359460a0909101359350915050565b60008060006060848603121561574257600080fd5b833561574d81614ddf565b9250602084013561575d81614ddf565b9150604084013561576d81614ddf565b809150509250925092565b6000806000806000806000806000806101e08b8d03121561579857600080fd5b8a356157a381614ddf565b995060208b0135985060408b013597506157c08c60608d01615530565b96506101608b01356001600160401b03808211156157dd57600080fd5b6157e98e838f01614e12565b90985096506101808d013591508082111561580357600080fd5b506158108d828e01614e12565b9095509350506101a08b013561582581614ddf565b91506101c08b013561583681614e04565b809150509295989b9194979a5092959850565b60006080828403121561585b57600080fd5b6143ef8383615234565b634e487b7160e01b600052601160045260246000fd5b818103818111156143f2576143f2615865565b634e487b7160e01b600052603260045260246000fd5b600080604083850312156158b757600080fd5b505080516020909101519092909150565b6000602082840312156158da57600080fd5b813561436e81614e04565b6000602082840312156158f757600080fd5b5051919050565b60006020828403121561591057600080fd5b815161436e81614e04565b634e487b7160e01b600052600160045260246000fd5b808201808211156143f2576143f2615865565b60006001820161595657615956615865565b5060010190565b60006020828403121561596f57600080fd5b815161436e81614ddf565b60008060006060848603121561598f57600080fd5b8351925060208401519150604084015190509250925092565b6001600160a01b039384168152919092166020820152901515604082015260600190565b80820281158282048414176143f2576143f2615865565b634e487b7160e01b600052601260045260246000fd5b600082615a1657634e487b7160e01b600052601260045260246000fd5b500490565b600060208284031215615a2d57600080fd5b815160ff8116811461436e57600080fd5b600181815b80851115615a79578160001904821115615a5f57615a5f615865565b80851615615a6c57918102915b93841c9390800290615a43565b509250929050565b600082615a90575060016143f2565b81615a9d575060006143f2565b8160018114615ab35760028114615abd57615ad9565b60019150506143f2565b60ff841115615ace57615ace615865565b50506001821b6143f2565b5060208310610133831016604e8410600b8410161715615afc575081810a6143f2565b615b068383615a3e565b8060001904821115615b1a57615b1a615865565b029392505050565b60006143ef60ff841683615a81565b60005b83811015615b4c578181015183820152602001615b34565b50506000910152565b60008251615b67818460208701615b31565b9190910192915050565b60008151808452615b89816020860160208601615b31565b601f01601f19169290920160200192915050565b84815283602082015260018060a01b0383166040820152608060608201526000615bca6080830184615b71565b9695505050505050565b6020815260006143ef6020830184615b7156fea2646970667358221220f7a1fc26c03688a74af9bd34a76623855476072d5a1dd673606cc70a50f38f3964736f6c63430008130033","linkReferences":{}},"methodIdentifiers":{"ETHER()":"42cb1fbc","UNSAFE_swapExactTokensForTokens(uint256[],(address,address,bool,address)[],address,uint256)":"4111d597","addLiquidity(address,address,bool,uint256,uint256,uint256,uint256,address,uint256)":"5a47ddc3","addLiquidityETH(address,bool,uint256,uint256,uint256,address,uint256)":"b7e0d4c0","defaultFactory()":"d4b6846d","factoryRegistry()":"3bf0c9fb","generateZapInParams(address,address,bool,address,uint256,uint256,(address,address,bool,address)[],(address,address,bool,address)[])":"07db50fa","generateZapOutParams(address,address,bool,address,uint256,(address,address,bool,address)[],(address,address,bool,address)[])":"7539d413","getAmountsOut(uint256,(address,address,bool,address)[])":"5509a1ac","getReserves(address,address,bool,address)":"8c0037dc","isTrustedForwarder(address)":"572b6c05","poolFor(address,address,bool,address)":"874029d9","quoteAddLiquidity(address,address,bool,address,uint256,uint256)":"ce700c29","quoteRemoveLiquidity(address,address,bool,address,uint256)":"c92de3ec","quoteStableLiquidityRatio(address,address,address)":"f5ba53c7","removeLiquidity(address,address,bool,uint256,uint256,uint256,address,uint256)":"0dede6c4","removeLiquidityETH(address,bool,uint256,uint256,uint256,address,uint256)":"d7b0e0a5","removeLiquidityETHSupportingFeeOnTransferTokens(address,bool,uint256,uint256,uint256,address,uint256)":"fe411f14","sortTokens(address,address)":"544caa56","swapExactETHForTokens(uint256,(address,address,bool,address)[],address,uint256)":"903638a4","swapExactETHForTokensSupportingFeeOnTransferTokens(uint256,(address,address,bool,address)[],address,uint256)":"3da5acba","swapExactTokensForETH(uint256,uint256,(address,address,bool,address)[],address,uint256)":"c6b7f1b6","swapExactTokensForETHSupportingFeeOnTransferTokens(uint256,uint256,(address,address,bool,address)[],address,uint256)":"12bc3aca","swapExactTokensForTokens(uint256,uint256,(address,address,bool,address)[],address,uint256)":"cac88ea9","swapExactTokensForTokensSupportingFeeOnTransferTokens(uint256,uint256,(address,address,bool,address)[],address,uint256)":"88cd821e","voter()":"46c96aac","weth()":"3fc8cef3","zapIn(address,uint256,uint256,(address,address,bool,address,uint256,uint256,uint256,uint256),(address,address,bool,address)[],(address,address,bool,address)[],address,bool)":"fb49bafd","zapOut(address,uint256,(address,address,bool,address,uint256,uint256,uint256,uint256),(address,address,bool,address)[],(address,address,bool,address)[])":"a81b9159"},"id":5}