{"abi":[{"type":"constructor","inputs":[{"name":"_voter","type":"address","internalType":"address"},{"name":"_ve","type":"address","internalType":"address"},{"name":"_rewardsDistributor","type":"address","internalType":"address"}],"stateMutability":"nonpayable"},{"type":"function","name":"MAXIMUM_TAIL_RATE","inputs":[],"outputs":[{"name":"","type":"uint256","internalType":"uint256"}],"stateMutability":"view"},{"type":"function","name":"MAXIMUM_TEAM_RATE","inputs":[],"outputs":[{"name":"","type":"uint256","internalType":"uint256"}],"stateMutability":"view"},{"type":"function","name":"MAX_BPS","inputs":[],"outputs":[{"name":"","type":"uint256","internalType":"uint256"}],"stateMutability":"view"},{"type":"function","name":"MINIMUM_TAIL_RATE","inputs":[],"outputs":[{"name":"","type":"uint256","internalType":"uint256"}],"stateMutability":"view"},{"type":"function","name":"NUDGE","inputs":[],"outputs":[{"name":"","type":"uint256","internalType":"uint256"}],"stateMutability":"view"},{"type":"function","name":"TAIL_START","inputs":[],"outputs":[{"name":"","type":"uint256","internalType":"uint256"}],"stateMutability":"view"},{"type":"function","name":"WEEK","inputs":[],"outputs":[{"name":"","type":"uint256","internalType":"uint256"}],"stateMutability":"view"},{"type":"function","name":"WEEKLY_DECAY","inputs":[],"outputs":[{"name":"","type":"uint256","internalType":"uint256"}],"stateMutability":"view"},{"type":"function","name":"acceptTeam","inputs":[],"outputs":[],"stateMutability":"nonpayable"},{"type":"function","name":"activePeriod","inputs":[],"outputs":[{"name":"","type":"uint256","internalType":"uint256"}],"stateMutability":"view"},{"type":"function","name":"calculateGrowth","inputs":[{"name":"_minted","type":"uint256","internalType":"uint256"}],"outputs":[{"name":"_growth","type":"uint256","internalType":"uint256"}],"stateMutability":"view"},{"type":"function","name":"nudge","inputs":[],"outputs":[],"stateMutability":"nonpayable"},{"type":"function","name":"pendingTeam","inputs":[],"outputs":[{"name":"","type":"address","internalType":"address"}],"stateMutability":"view"},{"type":"function","name":"proposals","inputs":[{"name":"","type":"uint256","internalType":"uint256"}],"outputs":[{"name":"","type":"bool","internalType":"bool"}],"stateMutability":"view"},{"type":"function","name":"rewardsDistributor","inputs":[],"outputs":[{"name":"","type":"address","internalType":"contract IRewardsDistributor"}],"stateMutability":"view"},{"type":"function","name":"setTeam","inputs":[{"name":"_team","type":"address","internalType":"address"}],"outputs":[],"stateMutability":"nonpayable"},{"type":"function","name":"setTeamRate","inputs":[{"name":"_rate","type":"uint256","internalType":"uint256"}],"outputs":[],"stateMutability":"nonpayable"},{"type":"function","name":"tailEmissionRate","inputs":[],"outputs":[{"name":"","type":"uint256","internalType":"uint256"}],"stateMutability":"view"},{"type":"function","name":"team","inputs":[],"outputs":[{"name":"","type":"address","internalType":"address"}],"stateMutability":"view"},{"type":"function","name":"teamRate","inputs":[],"outputs":[{"name":"","type":"uint256","internalType":"uint256"}],"stateMutability":"view"},{"type":"function","name":"updatePeriod","inputs":[],"outputs":[{"name":"_period","type":"uint256","internalType":"uint256"}],"stateMutability":"nonpayable"},{"type":"function","name":"ve","inputs":[],"outputs":[{"name":"","type":"address","internalType":"contract IVotingEscrow"}],"stateMutability":"view"},{"type":"function","name":"velo","inputs":[],"outputs":[{"name":"","type":"address","internalType":"contract IVelo"}],"stateMutability":"view"},{"type":"function","name":"voter","inputs":[],"outputs":[{"name":"","type":"address","internalType":"contract IVoter"}],"stateMutability":"view"},{"type":"function","name":"weekly","inputs":[],"outputs":[{"name":"","type":"uint256","internalType":"uint256"}],"stateMutability":"view"},{"type":"event","name":"AcceptTeam","inputs":[{"name":"_newTeam","type":"address","indexed":true,"internalType":"address"}],"anonymous":false},{"type":"event","name":"Mint","inputs":[{"name":"_sender","type":"address","indexed":true,"internalType":"address"},{"name":"_weekly","type":"uint256","indexed":false,"internalType":"uint256"},{"name":"_circulating_supply","type":"uint256","indexed":false,"internalType":"uint256"},{"name":"_tail","type":"bool","indexed":true,"internalType":"bool"}],"anonymous":false},{"type":"event","name":"Nudge","inputs":[{"name":"_period","type":"uint256","indexed":true,"internalType":"uint256"},{"name":"_oldRate","type":"uint256","indexed":false,"internalType":"uint256"},{"name":"_newRate","type":"uint256","indexed":false,"internalType":"uint256"}],"anonymous":false},{"type":"error","name":"AlreadyNudged","inputs":[]},{"type":"error","name":"NotEpochGovernor","inputs":[]},{"type":"error","name":"NotPendingTeam","inputs":[]},{"type":"error","name":"NotTeam","inputs":[]},{"type":"error","name":"RateTooHigh","inputs":[]},{"type":"error","name":"TailEmissionsInactive","inputs":[]},{"type":"error","name":"ZeroAddress","inputs":[]}],"bytecode":{"object":"0x6101006040526101f4600055601e6001556a0c685fa11e01ec6f0000006002553480156200002c57600080fd5b50604051620015dd380380620015dd8339810160408190526200004f916200012b565b816001600160a01b031663fc0c546a6040518163ffffffff1660e01b8152600401602060405180830381865afa1580156200008e573d6000803e3d6000fd5b505050506040513d601f19601f82011682018060405250810190620000b4919062000175565b6001600160a01b0390811660805283811660a05282811660c052600580546001600160a01b03191633179055811660e05262093a80620000f581426200019a565b620001019190620001bd565b60035550620001e9915050565b80516001600160a01b03811681146200012657600080fd5b919050565b6000806000606084860312156200014157600080fd5b6200014c846200010e565b92506200015c602085016200010e565b91506200016c604085016200010e565b90509250925092565b6000602082840312156200018857600080fd5b62000193826200010e565b9392505050565b600082620001b857634e487b7160e01b600052601260045260246000fd5b500490565b8082028115828204841417620001e357634e487b7160e01b600052601160045260246000fd5b92915050565b60805160a05160c05160e05161135862000285600039600081816102440152818161099f01526109c60152600081816101e10152610c6101526000818161026b0152818161042101528181610a680152610aa30152600081816102ca015281816106cb0152818161081601528181610895015281816109470152818161097d01528181610a4401528181610b380152610d0201526113586000f3fe608060405234801561001057600080fd5b50600436106101735760003560e01c806385f2aef2116100de578063ac68da4411610097578063ea64743d11610071578063ea64743d14610328578063ef74b74c14610331578063f4359ce514610343578063fd967f471461034d57600080fd5b8063ac68da44146102fd578063b5cc143a1461030d578063e4a091da1461031557600080fd5b806385f2aef2146102b25780638c7c53ce146102c55780639008a642146102ec5780639ba6f976146102f45780639fa8cbf1146102fd578063a83627de1461030557600080fd5b80633a6d93a4116101305780633a6d93a4146102375780633f2a55401461023f57806346c96aac1461026657806359d46ffc1461028d57806378ef7f02146102a0578063817ad595146102a957600080fd5b8063013cf08b14610178578063095cf5c6146101b05780630a441f7b146101c55780631f850716146101dc57806326cfc17b1461021b5780632e8f7b1f14610224575b600080fd5b61019b610186366004611150565b60046020526000908152604090205460ff1681565b60405190151581526020015b60405180910390f35b6101c36101be366004611181565b610356565b005b6101ce60035481565b6040519081526020016101a7565b6102037f000000000000000000000000000000000000000000000000000000000000000081565b6040516001600160a01b0390911681526020016101a7565b6101ce60025481565b6101c3610232366004611150565b6103ca565b6101ce606481565b6102037f000000000000000000000000000000000000000000000000000000000000000081565b6102037f000000000000000000000000000000000000000000000000000000000000000081565b600654610203906001600160a01b031681565b6101ce60005481565b6101ce6101f481565b600554610203906001600160a01b031681565b6102037f000000000000000000000000000000000000000000000000000000000000000081565b6101c361041d565b6101ce60015481565b6101ce600181565b6101ce610688565b6101c3610bdd565b6101ce610323366004611150565b610c5c565b6101ce6126ac81565b6101ce6a04f68ca6d8cd91c600000081565b6101ce62093a8081565b6101ce61271081565b6005546001600160a01b0316331461038157604051633a7cfa5d60e21b815260040160405180910390fd5b6001600160a01b0381166103a85760405163d92e233d60e01b815260040160405180910390fd5b600680546001600160a01b0319166001600160a01b0392909216919091179055565b6005546001600160a01b031633146103f557604051633a7cfa5d60e21b815260040160405180910390fd5b6101f4811115610418576040516347765d3b60e11b815260040160405180910390fd5b600055565b60007f00000000000000000000000000000000000000000000000000000000000000006001600160a01b0316633aae971f6040518163ffffffff1660e01b8152600401602060405180830381865afa15801561047d573d6000803e3d6000fd5b505050506040513d601f19601f820116820180604052508101906104a191906111a5565b9050336001600160a01b038216146104cc576040516349bb6a7d60e11b815260040160405180910390fd5b6000816001600160a01b031663653721476040518163ffffffff1660e01b81526004016020604051808303816000875af115801561050e573d6000803e3d6000fd5b505050506040513d601f19601f8201168201806040525081019061053291906111c2565b90506a04f68ca6d8cd91c600000060025410610561576040516360d6b4d960e01b815260040160405180910390fd5b60035460008181526004602052604090205460ff16156105945760405163b292ec6560e01b815260040160405180910390fd5b6001548060068460078111156105ac576105ac6111e3565b146106235760048460078111156105c5576105c56111e3565b036105f65760646105d760018361120f565b116105ec576105e760018261120f565b6105ef565b60645b915061061d565b60016106028183611228565b1061061757610612600182611228565b61061a565b60015b91505b60018290555b60008381526004602052604090819020805460ff191660011790555183907f89f7f67bc867b6d7eefd5bd92b0df77051c2507700c7994efc25cfc679a0c526906106799084908690918252602082015260400190565b60405180910390a25050505050565b60035461069862093a808261120f565b4210610bda5762093a806106ac814261123b565b6106b6919061125d565b905080600381905550600060025490506000807f00000000000000000000000000000000000000000000000000000000000000006001600160a01b03166318160ddd6040518163ffffffff1660e01b8152600401602060405180830381865afa158015610727573d6000803e3d6000fd5b505050506040513d601f19601f8201168201806040525081019061074b9190611274565b90506a04f68ca6d8cd91c6000000831080156107835761271060015483610772919061125d565b61077c919061123b565b92506107a7565b8392506127106107956126ac8561125d565b61079f919061123b565b600281905593505b60006107b284610c5c565b600080549192506127106107c6878561120f565b6107d0908461125d565b6107da919061123b565b90506000816107e9888661120f565b6107f3919061120f565b6040516370a0823160e01b81523060048201529091506000906001600160a01b037f000000000000000000000000000000000000000000000000000000000000000016906370a0823190602401602060405180830381865afa15801561085d573d6000803e3d6000fd5b505050506040513d601f19601f820116820180604052508101906108819190611274565b905081811015610936576001600160a01b037f0000000000000000000000000000000000000000000000000000000000000000166340c10f19306108c58486611228565b6040516001600160e01b031960e085901b1681526001600160a01b03909216600483015260248201526044016020604051808303816000875af1158015610910573d6000803e3d6000fd5b505050506040513d601f19601f82011682018060405250810190610934919061128d565b505b600554610970906001600160a01b037f00000000000000000000000000000000000000000000000000000000000000008116911685610dd9565b6109c46001600160a01b037f0000000000000000000000000000000000000000000000000000000000000000167f000000000000000000000000000000000000000000000000000000000000000087610dd9565b7f00000000000000000000000000000000000000000000000000000000000000006001600160a01b031663bee5dc326040518163ffffffff1660e01b8152600401600060405180830381600087803b158015610a1f57600080fd5b505af1158015610a33573d6000803e3d6000fd5b50610a8d9250506001600160a01b037f00000000000000000000000000000000000000000000000000000000000000001690507f00000000000000000000000000000000000000000000000000000000000000008a610e41565b604051633c6b16ab60e01b8152600481018990527f00000000000000000000000000000000000000000000000000000000000000006001600160a01b031690633c6b16ab90602401600060405180830381600087803b158015610aef57600080fd5b505af1158015610b03573d6000803e3d6000fd5b50505050851515336001600160a01b03167fcd2127828092f586df56003faf212897e901bb47f89a227e1acd3a0738f1fe5f8a7f00000000000000000000000000000000000000000000000000000000000000006001600160a01b03166318160ddd6040518163ffffffff1660e01b8152600401602060405180830381865afa158015610b94573d6000803e3d6000fd5b505050506040513d601f19601f82011682018060405250810190610bb89190611274565b6040805192835260208301919091520160405180910390a35050505050505050505b90565b6006546001600160a01b03163314610c085760405163071110c760e51b815260040160405180910390fd5b60068054600580546001600160a01b0383166001600160a01b031991821681179092559091169091556040517fe25466fe8250322bee73bc230e10775fe0da57be723ebdabfdc8b62b4ba0d10c90600090a2565b6000807f00000000000000000000000000000000000000000000000000000000000000006001600160a01b031663981b24d06001600354610c9d9190611228565b6040518263ffffffff1660e01b8152600401610cbb91815260200190565b602060405180830381865afa158015610cd8573d6000803e3d6000fd5b505050506040513d601f19601f82011682018060405250810190610cfc9190611274565b905060007f00000000000000000000000000000000000000000000000000000000000000006001600160a01b03166318160ddd6040518163ffffffff1660e01b8152600401602060405180830381865afa158015610d5e573d6000803e3d6000fd5b505050506040513d601f19601f82011682018060405250810190610d829190611274565b905060028183818181610d95828b61125d565b610d9f919061123b565b610da9919061125d565b610db3919061123b565b610dbd919061125d565b610dc7919061123b565b610dd1919061123b565b949350505050565b6040516001600160a01b038316602482015260448101829052610e3c90849063a9059cbb60e01b906064015b60408051601f198184030181529190526020810180516001600160e01b03166001600160e01b031990931692909217909152610f5b565b505050565b801580610ebb5750604051636eb1769f60e11b81523060048201526001600160a01b03838116602483015284169063dd62ed3e90604401602060405180830381865afa158015610e95573d6000803e3d6000fd5b505050506040513d601f19601f82011682018060405250810190610eb99190611274565b155b610f2b5760405162461bcd60e51b815260206004820152603660248201527f5361666545524332303a20617070726f76652066726f6d206e6f6e2d7a65726f60448201527520746f206e6f6e2d7a65726f20616c6c6f77616e636560501b60648201526084015b60405180910390fd5b6040516001600160a01b038316602482015260448101829052610e3c90849063095ea7b360e01b90606401610e05565b6000610fb0826040518060400160405280602081526020017f5361666545524332303a206c6f772d6c6576656c2063616c6c206661696c6564815250856001600160a01b031661102d9092919063ffffffff16565b805190915015610e3c5780806020019051810190610fce919061128d565b610e3c5760405162461bcd60e51b815260206004820152602a60248201527f5361666545524332303a204552433230206f7065726174696f6e20646964206e6044820152691bdd081cdd58d8d9595960b21b6064820152608401610f22565b6060610dd1848460008585600080866001600160a01b0316858760405161105491906112d3565b60006040518083038185875af1925050503d8060008114611091576040519150601f19603f3d011682016040523d82523d6000602084013e611096565b606091505b50915091506110a7878383876110b2565b979650505050505050565b6060831561112157825160000361111a576001600160a01b0385163b61111a5760405162461bcd60e51b815260206004820152601d60248201527f416464726573733a2063616c6c20746f206e6f6e2d636f6e74726163740000006044820152606401610f22565b5081610dd1565b610dd183838151156111365781518083602001fd5b8060405162461bcd60e51b8152600401610f2291906112ef565b60006020828403121561116257600080fd5b5035919050565b6001600160a01b038116811461117e57600080fd5b50565b60006020828403121561119357600080fd5b813561119e81611169565b9392505050565b6000602082840312156111b757600080fd5b815161119e81611169565b6000602082840312156111d457600080fd5b81516008811061119e57600080fd5b634e487b7160e01b600052602160045260246000fd5b634e487b7160e01b600052601160045260246000fd5b80820180821115611222576112226111f9565b92915050565b81810381811115611222576112226111f9565b60008261125857634e487b7160e01b600052601260045260246000fd5b500490565b8082028115828204841417611222576112226111f9565b60006020828403121561128657600080fd5b5051919050565b60006020828403121561129f57600080fd5b8151801515811461119e57600080fd5b60005b838110156112ca5781810151838201526020016112b2565b50506000910152565b600082516112e58184602087016112af565b9190910192915050565b602081526000825180602084015261130e8160408501602087016112af565b601f01601f1916919091016040019291505056fea264697066735822122038a44efade12dd2ba52b2a161f90f926cadbf1d7b7abc83f5351666c60ec009c64736f6c63430008130033","linkReferences":{}},"methodIdentifiers":{"MAXIMUM_TAIL_RATE()":"3a6d93a4","MAXIMUM_TEAM_RATE()":"817ad595","MAX_BPS()":"fd967f47","MINIMUM_TAIL_RATE()":"9fa8cbf1","NUDGE()":"ac68da44","TAIL_START()":"ef74b74c","WEEK()":"f4359ce5","WEEKLY_DECAY()":"ea64743d","acceptTeam()":"b5cc143a","activePeriod()":"0a441f7b","calculateGrowth(uint256)":"e4a091da","nudge()":"9008a642","pendingTeam()":"59d46ffc","proposals(uint256)":"013cf08b","rewardsDistributor()":"3f2a5540","setTeam(address)":"095cf5c6","setTeamRate(uint256)":"2e8f7b1f","tailEmissionRate()":"9ba6f976","team()":"85f2aef2","teamRate()":"78ef7f02","updatePeriod()":"a83627de","ve()":"1f850716","velo()":"8c7c53ce","voter()":"46c96aac","weekly()":"26cfc17b"},"id":1}