{"abi":[{"type":"constructor","inputs":[{"name":"_token0","type":"address","internalType":"address"},{"name":"_token1","type":"address","internalType":"address"}],"stateMutability":"nonpayable"},{"type":"function","name":"claimFeesFor","inputs":[{"name":"_recipient","type":"address","internalType":"address"},{"name":"_amount0","type":"uint256","internalType":"uint256"},{"name":"_amount1","type":"uint256","internalType":"uint256"}],"outputs":[],"stateMutability":"nonpayable"},{"type":"error","name":"NotPool","inputs":[]}],"bytecode":{"object":"0x60e060405234801561001057600080fd5b5060405161058138038061058183398101604081905261002f91610066565b336080526001600160a01b0391821660a0521660c052610099565b80516001600160a01b038116811461006157600080fd5b919050565b6000806040838503121561007957600080fd5b6100828361004a565b91506100906020840161004a565b90509250929050565b60805160a05160c0516104bc6100c5600039600060db0152600060a101526000605001526104bc6000f3fe608060405234801561001057600080fd5b506004361061002b5760003560e01c8063533cf5ce14610030575b600080fd5b61004361003e3660046103a9565b610045565b005b336001600160a01b037f0000000000000000000000000000000000000000000000000000000000000000161461008e57604051636f61f64160e01b815260040160405180910390fd5b81156100c8576100c86001600160a01b037f0000000000000000000000000000000000000000000000000000000000000000168484610107565b8015610102576101026001600160a01b037f0000000000000000000000000000000000000000000000000000000000000000168483610107565b505050565b604080516001600160a01b03848116602483015260448083018590528351808403909101815260649092018352602080830180516001600160e01b031663a9059cbb60e01b17905283518085019094528084527f5361666545524332303a206c6f772d6c6576656c2063616c6c206661696c65649084015261010292869291600091610197918516908490610219565b80519091501561010257808060200190518101906101b591906103ea565b6101025760405162461bcd60e51b815260206004820152602a60248201527f5361666545524332303a204552433230206f7065726174696f6e20646964206e6044820152691bdd081cdd58d8d9595960b21b60648201526084015b60405180910390fd5b60606102288484600085610230565b949350505050565b6060824710156102915760405162461bcd60e51b815260206004820152602660248201527f416464726573733a20696e73756666696369656e742062616c616e636520666f6044820152651c8818d85b1b60d21b6064820152608401610210565b600080866001600160a01b031685876040516102ad9190610437565b60006040518083038185875af1925050503d80600081146102ea576040519150601f19603f3d011682016040523d82523d6000602084013e6102ef565b606091505b50915091506103008783838761030b565b979650505050505050565b6060831561037a578251600003610373576001600160a01b0385163b6103735760405162461bcd60e51b815260206004820152601d60248201527f416464726573733a2063616c6c20746f206e6f6e2d636f6e74726163740000006044820152606401610210565b5081610228565b610228838381511561038f5781518083602001fd5b8060405162461bcd60e51b81526004016102109190610453565b6000806000606084860312156103be57600080fd5b83356001600160a01b03811681146103d557600080fd5b95602085013595506040909401359392505050565b6000602082840312156103fc57600080fd5b8151801515811461040c57600080fd5b9392505050565b60005b8381101561042e578181015183820152602001610416565b50506000910152565b60008251610449818460208701610413565b9190910192915050565b6020815260008251806020840152610472816040850160208701610413565b601f01601f1916919091016040019291505056fea2646970667358221220c7dab60227f495ac6c04e6fcdb9ce2349e1d85559723274022b72beec6a0ed8c64736f6c63430008130033","linkReferences":{}},"methodIdentifiers":{"claimFeesFor(address,uint256,uint256)":"533cf5ce"},"id":3}