{"abi":[{"type":"constructor","inputs":[{"name":"_forwarder","type":"address","internalType":"address"},{"name":"_token","type":"address","internalType":"address"},{"name":"_factoryRegistry","type":"address","internalType":"address"}],"stateMutability":"nonpayable"},{"type":"function","name":"CLOCK_MODE","inputs":[],"outputs":[{"name":"","type":"string","internalType":"string"}],"stateMutability":"pure"},{"type":"function","name":"DELEGATION_TYPEHASH","inputs":[],"outputs":[{"name":"","type":"bytes32","internalType":"bytes32"}],"stateMutability":"view"},{"type":"function","name":"DOMAIN_TYPEHASH","inputs":[],"outputs":[{"name":"","type":"bytes32","internalType":"bytes32"}],"stateMutability":"view"},{"type":"function","name":"allowedManager","inputs":[],"outputs":[{"name":"","type":"address","internalType":"address"}],"stateMutability":"view"},{"type":"function","name":"approve","inputs":[{"name":"_approved","type":"address","internalType":"address"},{"name":"_tokenId","type":"uint256","internalType":"uint256"}],"outputs":[],"stateMutability":"nonpayable"},{"type":"function","name":"artProxy","inputs":[],"outputs":[{"name":"","type":"address","internalType":"address"}],"stateMutability":"view"},{"type":"function","name":"balanceOf","inputs":[{"name":"_owner","type":"address","internalType":"address"}],"outputs":[{"name":"","type":"uint256","internalType":"uint256"}],"stateMutability":"view"},{"type":"function","name":"balanceOfNFT","inputs":[{"name":"_tokenId","type":"uint256","internalType":"uint256"}],"outputs":[{"name":"","type":"uint256","internalType":"uint256"}],"stateMutability":"view"},{"type":"function","name":"balanceOfNFTAt","inputs":[{"name":"_tokenId","type":"uint256","internalType":"uint256"},{"name":"_t","type":"uint256","internalType":"uint256"}],"outputs":[{"name":"","type":"uint256","internalType":"uint256"}],"stateMutability":"view"},{"type":"function","name":"canSplit","inputs":[{"name":"","type":"address","internalType":"address"}],"outputs":[{"name":"","type":"bool","internalType":"bool"}],"stateMutability":"view"},{"type":"function","name":"checkpoint","inputs":[],"outputs":[],"stateMutability":"nonpayable"},{"type":"function","name":"checkpoints","inputs":[{"name":"_tokenId","type":"uint256","internalType":"uint256"},{"name":"_index","type":"uint48","internalType":"uint48"}],"outputs":[{"name":"","type":"tuple","internalType":"struct IVotingEscrow.Checkpoint","components":[{"name":"fromTimestamp","type":"uint256","internalType":"uint256"},{"name":"owner","type":"address","internalType":"address"},{"name":"delegatedBalance","type":"uint256","internalType":"uint256"},{"name":"delegatee","type":"uint256","internalType":"uint256"}]}],"stateMutability":"view"},{"type":"function","name":"clock","inputs":[],"outputs":[{"name":"","type":"uint48","internalType":"uint48"}],"stateMutability":"view"},{"type":"function","name":"createLock","inputs":[{"name":"_value","type":"uint256","internalType":"uint256"},{"name":"_lockDuration","type":"uint256","internalType":"uint256"}],"outputs":[{"name":"","type":"uint256","internalType":"uint256"}],"stateMutability":"nonpayable"},{"type":"function","name":"createLockFor","inputs":[{"name":"_value","type":"uint256","internalType":"uint256"},{"name":"_lockDuration","type":"uint256","internalType":"uint256"},{"name":"_to","type":"address","internalType":"address"}],"outputs":[{"name":"","type":"uint256","internalType":"uint256"}],"stateMutability":"nonpayable"},{"type":"function","name":"createManagedLockFor","inputs":[{"name":"_to","type":"address","internalType":"address"}],"outputs":[{"name":"_mTokenId","type":"uint256","internalType":"uint256"}],"stateMutability":"nonpayable"},{"type":"function","name":"deactivated","inputs":[{"name":"","type":"uint256","internalType":"uint256"}],"outputs":[{"name":"","type":"bool","internalType":"bool"}],"stateMutability":"view"},{"type":"function","name":"decimals","inputs":[],"outputs":[{"name":"","type":"uint8","internalType":"uint8"}],"stateMutability":"view"},{"type":"function","name":"delegate","inputs":[{"name":"delegator","type":"uint256","internalType":"uint256"},{"name":"delegatee","type":"uint256","internalType":"uint256"}],"outputs":[],"stateMutability":"nonpayable"},{"type":"function","name":"delegateBySig","inputs":[{"name":"delegator","type":"uint256","internalType":"uint256"},{"name":"delegatee","type":"uint256","internalType":"uint256"},{"name":"nonce","type":"uint256","internalType":"uint256"},{"name":"expiry","type":"uint256","internalType":"uint256"},{"name":"v","type":"uint8","internalType":"uint8"},{"name":"r","type":"bytes32","internalType":"bytes32"},{"name":"s","type":"bytes32","internalType":"bytes32"}],"outputs":[],"stateMutability":"nonpayable"},{"type":"function","name":"delegates","inputs":[{"name":"delegator","type":"uint256","internalType":"uint256"}],"outputs":[{"name":"","type":"uint256","internalType":"uint256"}],"stateMutability":"view"},{"type":"function","name":"depositFor","inputs":[{"name":"_tokenId","type":"uint256","internalType":"uint256"},{"name":"_value","type":"uint256","internalType":"uint256"}],"outputs":[],"stateMutability":"nonpayable"},{"type":"function","name":"depositManaged","inputs":[{"name":"_tokenId","type":"uint256","internalType":"uint256"},{"name":"_mTokenId","type":"uint256","internalType":"uint256"}],"outputs":[],"stateMutability":"nonpayable"},{"type":"function","name":"distributor","inputs":[],"outputs":[{"name":"","type":"address","internalType":"address"}],"stateMutability":"view"},{"type":"function","name":"epoch","inputs":[],"outputs":[{"name":"","type":"uint256","internalType":"uint256"}],"stateMutability":"view"},{"type":"function","name":"escrowType","inputs":[{"name":"","type":"uint256","internalType":"uint256"}],"outputs":[{"name":"","type":"uint8","internalType":"enum IVotingEscrow.EscrowType"}],"stateMutability":"view"},{"type":"function","name":"factoryRegistry","inputs":[],"outputs":[{"name":"","type":"address","internalType":"address"}],"stateMutability":"view"},{"type":"function","name":"forwarder","inputs":[],"outputs":[{"name":"","type":"address","internalType":"address"}],"stateMutability":"view"},{"type":"function","name":"getApproved","inputs":[{"name":"_tokenId","type":"uint256","internalType":"uint256"}],"outputs":[{"name":"","type":"address","internalType":"address"}],"stateMutability":"view"},{"type":"function","name":"getPastTotalSupply","inputs":[{"name":"_timestamp","type":"uint256","internalType":"uint256"}],"outputs":[{"name":"","type":"uint256","internalType":"uint256"}],"stateMutability":"view"},{"type":"function","name":"getPastVotes","inputs":[{"name":"_account","type":"address","internalType":"address"},{"name":"_tokenId","type":"uint256","internalType":"uint256"},{"name":"_timestamp","type":"uint256","internalType":"uint256"}],"outputs":[{"name":"","type":"uint256","internalType":"uint256"}],"stateMutability":"view"},{"type":"function","name":"idToManaged","inputs":[{"name":"","type":"uint256","internalType":"uint256"}],"outputs":[{"name":"","type":"uint256","internalType":"uint256"}],"stateMutability":"view"},{"type":"function","name":"increaseAmount","inputs":[{"name":"_tokenId","type":"uint256","internalType":"uint256"},{"name":"_value","type":"uint256","internalType":"uint256"}],"outputs":[],"stateMutability":"nonpayable"},{"type":"function","name":"increaseUnlockTime","inputs":[{"name":"_tokenId","type":"uint256","internalType":"uint256"},{"name":"_lockDuration","type":"uint256","internalType":"uint256"}],"outputs":[],"stateMutability":"nonpayable"},{"type":"function","name":"isApprovedForAll","inputs":[{"name":"_owner","type":"address","internalType":"address"},{"name":"_operator","type":"address","internalType":"address"}],"outputs":[{"name":"","type":"bool","internalType":"bool"}],"stateMutability":"view"},{"type":"function","name":"isApprovedOrOwner","inputs":[{"name":"_spender","type":"address","internalType":"address"},{"name":"_tokenId","type":"uint256","internalType":"uint256"}],"outputs":[{"name":"","type":"bool","internalType":"bool"}],"stateMutability":"view"},{"type":"function","name":"isTrustedForwarder","inputs":[{"name":"forwarder","type":"address","internalType":"address"}],"outputs":[{"name":"","type":"bool","internalType":"bool"}],"stateMutability":"view"},{"type":"function","name":"lockPermanent","inputs":[{"name":"_tokenId","type":"uint256","internalType":"uint256"}],"outputs":[],"stateMutability":"nonpayable"},{"type":"function","name":"locked","inputs":[{"name":"_tokenId","type":"uint256","internalType":"uint256"}],"outputs":[{"name":"","type":"tuple","internalType":"struct IVotingEscrow.LockedBalance","components":[{"name":"amount","type":"int128","internalType":"int128"},{"name":"end","type":"uint256","internalType":"uint256"},{"name":"isPermanent","type":"bool","internalType":"bool"}]}],"stateMutability":"view"},{"type":"function","name":"managedToFree","inputs":[{"name":"","type":"uint256","internalType":"uint256"}],"outputs":[{"name":"","type":"address","internalType":"address"}],"stateMutability":"view"},{"type":"function","name":"managedToLocked","inputs":[{"name":"","type":"uint256","internalType":"uint256"}],"outputs":[{"name":"","type":"address","internalType":"address"}],"stateMutability":"view"},{"type":"function","name":"merge","inputs":[{"name":"_from","type":"uint256","internalType":"uint256"},{"name":"_to","type":"uint256","internalType":"uint256"}],"outputs":[],"stateMutability":"nonpayable"},{"type":"function","name":"name","inputs":[],"outputs":[{"name":"","type":"string","internalType":"string"}],"stateMutability":"view"},{"type":"function","name":"nonces","inputs":[{"name":"","type":"address","internalType":"address"}],"outputs":[{"name":"","type":"uint256","internalType":"uint256"}],"stateMutability":"view"},{"type":"function","name":"numCheckpoints","inputs":[{"name":"","type":"uint256","internalType":"uint256"}],"outputs":[{"name":"","type":"uint48","internalType":"uint48"}],"stateMutability":"view"},{"type":"function","name":"ownerOf","inputs":[{"name":"_tokenId","type":"uint256","internalType":"uint256"}],"outputs":[{"name":"","type":"address","internalType":"address"}],"stateMutability":"view"},{"type":"function","name":"ownerToNFTokenIdList","inputs":[{"name":"","type":"address","internalType":"address"},{"name":"","type":"uint256","internalType":"uint256"}],"outputs":[{"name":"","type":"uint256","internalType":"uint256"}],"stateMutability":"view"},{"type":"function","name":"permanentLockBalance","inputs":[],"outputs":[{"name":"","type":"uint256","internalType":"uint256"}],"stateMutability":"view"},{"type":"function","name":"pointHistory","inputs":[{"name":"_loc","type":"uint256","internalType":"uint256"}],"outputs":[{"name":"","type":"tuple","internalType":"struct IVotingEscrow.GlobalPoint","components":[{"name":"bias","type":"int128","internalType":"int128"},{"name":"slope","type":"int128","internalType":"int128"},{"name":"ts","type":"uint256","internalType":"uint256"},{"name":"blk","type":"uint256","internalType":"uint256"},{"name":"permanentLockBalance","type":"uint256","internalType":"uint256"}]}],"stateMutability":"view"},{"type":"function","name":"safeTransferFrom","inputs":[{"name":"_from","type":"address","internalType":"address"},{"name":"_to","type":"address","internalType":"address"},{"name":"_tokenId","type":"uint256","internalType":"uint256"}],"outputs":[],"stateMutability":"nonpayable"},{"type":"function","name":"safeTransferFrom","inputs":[{"name":"_from","type":"address","internalType":"address"},{"name":"_to","type":"address","internalType":"address"},{"name":"_tokenId","type":"uint256","internalType":"uint256"},{"name":"_data","type":"bytes","internalType":"bytes"}],"outputs":[],"stateMutability":"nonpayable"},{"type":"function","name":"setAllowedManager","inputs":[{"name":"_allowedManager","type":"address","internalType":"address"}],"outputs":[],"stateMutability":"nonpayable"},{"type":"function","name":"setApprovalForAll","inputs":[{"name":"_operator","type":"address","internalType":"address"},{"name":"_approved","type":"bool","internalType":"bool"}],"outputs":[],"stateMutability":"nonpayable"},{"type":"function","name":"setArtProxy","inputs":[{"name":"_proxy","type":"address","internalType":"address"}],"outputs":[],"stateMutability":"nonpayable"},{"type":"function","name":"setManagedState","inputs":[{"name":"_mTokenId","type":"uint256","internalType":"uint256"},{"name":"_state","type":"bool","internalType":"bool"}],"outputs":[],"stateMutability":"nonpayable"},{"type":"function","name":"setTeam","inputs":[{"name":"_team","type":"address","internalType":"address"}],"outputs":[],"stateMutability":"nonpayable"},{"type":"function","name":"setVoterAndDistributor","inputs":[{"name":"_voter","type":"address","internalType":"address"},{"name":"_distributor","type":"address","internalType":"address"}],"outputs":[],"stateMutability":"nonpayable"},{"type":"function","name":"slopeChanges","inputs":[{"name":"","type":"uint256","internalType":"uint256"}],"outputs":[{"name":"","type":"int128","internalType":"int128"}],"stateMutability":"view"},{"type":"function","name":"split","inputs":[{"name":"_from","type":"uint256","internalType":"uint256"},{"name":"_amount","type":"uint256","internalType":"uint256"}],"outputs":[{"name":"_tokenId1","type":"uint256","internalType":"uint256"},{"name":"_tokenId2","type":"uint256","internalType":"uint256"}],"stateMutability":"nonpayable"},{"type":"function","name":"supply","inputs":[],"outputs":[{"name":"","type":"uint256","internalType":"uint256"}],"stateMutability":"view"},{"type":"function","name":"supportsInterface","inputs":[{"name":"_interfaceID","type":"bytes4","internalType":"bytes4"}],"outputs":[{"name":"","type":"bool","internalType":"bool"}],"stateMutability":"view"},{"type":"function","name":"symbol","inputs":[],"outputs":[{"name":"","type":"string","internalType":"string"}],"stateMutability":"view"},{"type":"function","name":"team","inputs":[],"outputs":[{"name":"","type":"address","internalType":"address"}],"stateMutability":"view"},{"type":"function","name":"toggleSplit","inputs":[{"name":"_account","type":"address","internalType":"address"},{"name":"_bool","type":"bool","internalType":"bool"}],"outputs":[],"stateMutability":"nonpayable"},{"type":"function","name":"token","inputs":[],"outputs":[{"name":"","type":"address","internalType":"address"}],"stateMutability":"view"},{"type":"function","name":"tokenId","inputs":[],"outputs":[{"name":"","type":"uint256","internalType":"uint256"}],"stateMutability":"view"},{"type":"function","name":"tokenURI","inputs":[{"name":"_tokenId","type":"uint256","internalType":"uint256"}],"outputs":[{"name":"","type":"string","internalType":"string"}],"stateMutability":"view"},{"type":"function","name":"totalSupply","inputs":[],"outputs":[{"name":"","type":"uint256","internalType":"uint256"}],"stateMutability":"view"},{"type":"function","name":"totalSupplyAt","inputs":[{"name":"_timestamp","type":"uint256","internalType":"uint256"}],"outputs":[{"name":"","type":"uint256","internalType":"uint256"}],"stateMutability":"view"},{"type":"function","name":"transferFrom","inputs":[{"name":"_from","type":"address","internalType":"address"},{"name":"_to","type":"address","internalType":"address"},{"name":"_tokenId","type":"uint256","internalType":"uint256"}],"outputs":[],"stateMutability":"nonpayable"},{"type":"function","name":"unlockPermanent","inputs":[{"name":"_tokenId","type":"uint256","internalType":"uint256"}],"outputs":[],"stateMutability":"nonpayable"},{"type":"function","name":"userPointEpoch","inputs":[{"name":"","type":"uint256","internalType":"uint256"}],"outputs":[{"name":"","type":"uint256","internalType":"uint256"}],"stateMutability":"view"},{"type":"function","name":"userPointHistory","inputs":[{"name":"_tokenId","type":"uint256","internalType":"uint256"},{"name":"_loc","type":"uint256","internalType":"uint256"}],"outputs":[{"name":"","type":"tuple","internalType":"struct IVotingEscrow.UserPoint","components":[{"name":"bias","type":"int128","internalType":"int128"},{"name":"slope","type":"int128","internalType":"int128"},{"name":"ts","type":"uint256","internalType":"uint256"},{"name":"blk","type":"uint256","internalType":"uint256"},{"name":"permanent","type":"uint256","internalType":"uint256"}]}],"stateMutability":"view"},{"type":"function","name":"version","inputs":[],"outputs":[{"name":"","type":"string","internalType":"string"}],"stateMutability":"view"},{"type":"function","name":"voted","inputs":[{"name":"","type":"uint256","internalType":"uint256"}],"outputs":[{"name":"","type":"bool","internalType":"bool"}],"stateMutability":"view"},{"type":"function","name":"voter","inputs":[],"outputs":[{"name":"","type":"address","internalType":"address"}],"stateMutability":"view"},{"type":"function","name":"voting","inputs":[{"name":"_tokenId","type":"uint256","internalType":"uint256"},{"name":"_voted","type":"bool","internalType":"bool"}],"outputs":[],"stateMutability":"nonpayable"},{"type":"function","name":"weights","inputs":[{"name":"","type":"uint256","internalType":"uint256"},{"name":"","type":"uint256","internalType":"uint256"}],"outputs":[{"name":"","type":"uint256","internalType":"uint256"}],"stateMutability":"view"},{"type":"function","name":"withdraw","inputs":[{"name":"_tokenId","type":"uint256","internalType":"uint256"}],"outputs":[],"stateMutability":"nonpayable"},{"type":"function","name":"withdrawManaged","inputs":[{"name":"_tokenId","type":"uint256","internalType":"uint256"}],"outputs":[],"stateMutability":"nonpayable"},{"type":"event","name":"Approval","inputs":[{"name":"owner","type":"address","indexed":true,"internalType":"address"},{"name":"approved","type":"address","indexed":true,"internalType":"address"},{"name":"tokenId","type":"uint256","indexed":true,"internalType":"uint256"}],"anonymous":false},{"type":"event","name":"ApprovalForAll","inputs":[{"name":"owner","type":"address","indexed":true,"internalType":"address"},{"name":"operator","type":"address","indexed":true,"internalType":"address"},{"name":"approved","type":"bool","indexed":false,"internalType":"bool"}],"anonymous":false},{"type":"event","name":"BatchMetadataUpdate","inputs":[{"name":"_fromTokenId","type":"uint256","indexed":false,"internalType":"uint256"},{"name":"_toTokenId","type":"uint256","indexed":false,"internalType":"uint256"}],"anonymous":false},{"type":"event","name":"CreateManaged","inputs":[{"name":"_to","type":"address","indexed":true,"internalType":"address"},{"name":"_mTokenId","type":"uint256","indexed":true,"internalType":"uint256"},{"name":"_from","type":"address","indexed":true,"internalType":"address"},{"name":"_lockedManagedReward","type":"address","indexed":false,"internalType":"address"},{"name":"_freeManagedReward","type":"address","indexed":false,"internalType":"address"}],"anonymous":false},{"type":"event","name":"DelegateChanged","inputs":[{"name":"delegator","type":"address","indexed":true,"internalType":"address"},{"name":"fromDelegate","type":"uint256","indexed":true,"internalType":"uint256"},{"name":"toDelegate","type":"uint256","indexed":true,"internalType":"uint256"}],"anonymous":false},{"type":"event","name":"DelegateVotesChanged","inputs":[{"name":"delegate","type":"address","indexed":true,"internalType":"address"},{"name":"previousBalance","type":"uint256","indexed":false,"internalType":"uint256"},{"name":"newBalance","type":"uint256","indexed":false,"internalType":"uint256"}],"anonymous":false},{"type":"event","name":"Deposit","inputs":[{"name":"provider","type":"address","indexed":true,"internalType":"address"},{"name":"tokenId","type":"uint256","indexed":true,"internalType":"uint256"},{"name":"depositType","type":"uint8","indexed":true,"internalType":"enum IVotingEscrow.DepositType"},{"name":"value","type":"uint256","indexed":false,"internalType":"uint256"},{"name":"locktime","type":"uint256","indexed":false,"internalType":"uint256"},{"name":"ts","type":"uint256","indexed":false,"internalType":"uint256"}],"anonymous":false},{"type":"event","name":"DepositManaged","inputs":[{"name":"_owner","type":"address","indexed":true,"internalType":"address"},{"name":"_tokenId","type":"uint256","indexed":true,"internalType":"uint256"},{"name":"_mTokenId","type":"uint256","indexed":true,"internalType":"uint256"},{"name":"_weight","type":"uint256","indexed":false,"internalType":"uint256"},{"name":"_ts","type":"uint256","indexed":false,"internalType":"uint256"}],"anonymous":false},{"type":"event","name":"LockPermanent","inputs":[{"name":"_owner","type":"address","indexed":true,"internalType":"address"},{"name":"_tokenId","type":"uint256","indexed":true,"internalType":"uint256"},{"name":"amount","type":"uint256","indexed":false,"internalType":"uint256"},{"name":"_ts","type":"uint256","indexed":false,"internalType":"uint256"}],"anonymous":false},{"type":"event","name":"Merge","inputs":[{"name":"_sender","type":"address","indexed":true,"internalType":"address"},{"name":"_from","type":"uint256","indexed":true,"internalType":"uint256"},{"name":"_to","type":"uint256","indexed":true,"internalType":"uint256"},{"name":"_amountFrom","type":"uint256","indexed":false,"internalType":"uint256"},{"name":"_amountTo","type":"uint256","indexed":false,"internalType":"uint256"},{"name":"_amountFinal","type":"uint256","indexed":false,"internalType":"uint256"},{"name":"_locktime","type":"uint256","indexed":false,"internalType":"uint256"},{"name":"_ts","type":"uint256","indexed":false,"internalType":"uint256"}],"anonymous":false},{"type":"event","name":"MetadataUpdate","inputs":[{"name":"_tokenId","type":"uint256","indexed":false,"internalType":"uint256"}],"anonymous":false},{"type":"event","name":"SetAllowedManager","inputs":[{"name":"_allowedManager","type":"address","indexed":true,"internalType":"address"}],"anonymous":false},{"type":"event","name":"Split","inputs":[{"name":"_from","type":"uint256","indexed":true,"internalType":"uint256"},{"name":"_tokenId1","type":"uint256","indexed":true,"internalType":"uint256"},{"name":"_tokenId2","type":"uint256","indexed":true,"internalType":"uint256"},{"name":"_sender","type":"address","indexed":false,"internalType":"address"},{"name":"_splitAmount1","type":"uint256","indexed":false,"internalType":"uint256"},{"name":"_splitAmount2","type":"uint256","indexed":false,"internalType":"uint256"},{"name":"_locktime","type":"uint256","indexed":false,"internalType":"uint256"},{"name":"_ts","type":"uint256","indexed":false,"internalType":"uint256"}],"anonymous":false},{"type":"event","name":"Supply","inputs":[{"name":"prevSupply","type":"uint256","indexed":false,"internalType":"uint256"},{"name":"supply","type":"uint256","indexed":false,"internalType":"uint256"}],"anonymous":false},{"type":"event","name":"Transfer","inputs":[{"name":"from","type":"address","indexed":true,"internalType":"address"},{"name":"to","type":"address","indexed":true,"internalType":"address"},{"name":"tokenId","type":"uint256","indexed":true,"internalType":"uint256"}],"anonymous":false},{"type":"event","name":"UnlockPermanent","inputs":[{"name":"_owner","type":"address","indexed":true,"internalType":"address"},{"name":"_tokenId","type":"uint256","indexed":true,"internalType":"uint256"},{"name":"amount","type":"uint256","indexed":false,"internalType":"uint256"},{"name":"_ts","type":"uint256","indexed":false,"internalType":"uint256"}],"anonymous":false},{"type":"event","name":"Withdraw","inputs":[{"name":"provider","type":"address","indexed":true,"internalType":"address"},{"name":"tokenId","type":"uint256","indexed":true,"internalType":"uint256"},{"name":"value","type":"uint256","indexed":false,"internalType":"uint256"},{"name":"ts","type":"uint256","indexed":false,"internalType":"uint256"}],"anonymous":false},{"type":"event","name":"WithdrawManaged","inputs":[{"name":"_owner","type":"address","indexed":true,"internalType":"address"},{"name":"_tokenId","type":"uint256","indexed":true,"internalType":"uint256"},{"name":"_mTokenId","type":"uint256","indexed":true,"internalType":"uint256"},{"name":"_weight","type":"uint256","indexed":false,"internalType":"uint256"},{"name":"_ts","type":"uint256","indexed":false,"internalType":"uint256"}],"anonymous":false},{"type":"error","name":"AlreadyVoted","inputs":[]},{"type":"error","name":"AmountTooBig","inputs":[]},{"type":"error","name":"ERC721ReceiverRejectedTokens","inputs":[]},{"type":"error","name":"ERC721TransferToNonERC721ReceiverImplementer","inputs":[]},{"type":"error","name":"InvalidManagedNFTId","inputs":[]},{"type":"error","name":"InvalidNonce","inputs":[]},{"type":"error","name":"InvalidSignature","inputs":[]},{"type":"error","name":"InvalidSignatureS","inputs":[]},{"type":"error","name":"LockDurationNotInFuture","inputs":[]},{"type":"error","name":"LockDurationTooLong","inputs":[]},{"type":"error","name":"LockExpired","inputs":[]},{"type":"error","name":"LockNotExpired","inputs":[]},{"type":"error","name":"NoLockFound","inputs":[]},{"type":"error","name":"NonExistentToken","inputs":[]},{"type":"error","name":"NotApprovedOrOwner","inputs":[]},{"type":"error","name":"NotDistributor","inputs":[]},{"type":"error","name":"NotEmergencyCouncilOrGovernor","inputs":[]},{"type":"error","name":"NotGovernor","inputs":[]},{"type":"error","name":"NotGovernorOrManager","inputs":[]},{"type":"error","name":"NotLockedNFT","inputs":[]},{"type":"error","name":"NotManagedNFT","inputs":[]},{"type":"error","name":"NotManagedOrNormalNFT","inputs":[]},{"type":"error","name":"NotNormalNFT","inputs":[]},{"type":"error","name":"NotOwner","inputs":[]},{"type":"error","name":"NotPermanentLock","inputs":[]},{"type":"error","name":"NotTeam","inputs":[]},{"type":"error","name":"NotVoter","inputs":[]},{"type":"error","name":"OwnershipChange","inputs":[]},{"type":"error","name":"PermanentLock","inputs":[]},{"type":"error","name":"SafeCastOverflow","inputs":[]},{"type":"error","name":"SafeCastUnderflow","inputs":[]},{"type":"error","name":"SameAddress","inputs":[]},{"type":"error","name":"SameNFT","inputs":[]},{"type":"error","name":"SameState","inputs":[]},{"type":"error","name":"SignatureExpired","inputs":[]},{"type":"error","name":"SplitNoOwner","inputs":[]},{"type":"error","name":"SplitNotAllowed","inputs":[]},{"type":"error","name":"TooManyTokenIDs","inputs":[]},{"type":"error","name":"ZeroAddress","inputs":[]},{"type":"error","name":"ZeroAmount","inputs":[]},{"type":"error","name":"ZeroBalance","inputs":[]}],"bytecode":{"object":"0x6101006040523480156200001257600080fd5b50604051620062c2380380620062c2833981016040819052620000359162000266565b6001600160a01b038084166080819052600160005560a05282811660e052811660c0526200006262000221565b600380546001600160a01b0319166001600160a01b03929092169190911790556200008c62000221565b600280546001600160a01b0319166001600160a01b0392909216919091179055437f54cdd369e4e8a8515e52ca72ec816c2101831ad1f18bf44102ed171459c9b4fa55427f54cdd369e4e8a8515e52ca72ec816c2101831ad1f18bf44102ed171459c9b4f95560076020527f1142c8ae8ad77901cd97fce843895a9ccf91a8cbd5b191350a94c1d957b07f74805460ff1990811660019081179092557f2379132be4428a30bdcf8f40c0757cba23c7e3f4204cd933dabcc3d42093e80480548216831790557f7108cf076693445f3e0461801864e91d74eb5e0eee196ef60b5961a16cd35b9380548216831790557fbc48a5b87e2e2cb168c956e8aca8ee5c5d50c657bb1c18b9ad30280d5cf98f5b805482168317905563da287a1d60e01b60009081527f7105fc4c24d760d461c0883f925f50b55888872394b962f52e936e529601d62a8054909216909217905560085460405190913091600080516020620062a2833981519152908290a46008546040516000903090600080516020620062a2833981519152908390a4505050620002b0565b6080516000906001600160a01b0316330362000244575060131936013560601c90565b503390565b80516001600160a01b03811681146200026157600080fd5b919050565b6000806000606084860312156200027c57600080fd5b620002878462000249565b9250620002976020850162000249565b9150620002a76040850162000249565b90509250925092565b60805160a05160c05160e051615f806200032260003960008181610d6b01528181611263015281816117870152818161186a01528181613f080152614e7e0152600081816106e90152611fdb015260008181610d4401526120600152600081816108a60152613cd40152615f806000f3fe608060405234801561001057600080fd5b50600436106104805760003560e01c806370a0823111610257578063b45a3c0e11610146578063e58f5947116100c3578063ec32e6df11610087578063ec32e6df14610ca7578063f04cb3a814610cba578063f52a36f714610d09578063f645d4f914610d3f578063fc0c546a14610d6657600080fd5b8063e58f594714610bfe578063e75b1c2e14610c1e578063e7a324dc14610c31578063e7e242d414610c58578063e985e9c514610c6b57600080fd5b8063c87b56dd1161010a578063c87b56dd14610b9f578063d1c2babb14610bb2578063d9a3495214610bc5578063e0514aba14610bd8578063e0c11f9a14610beb57600080fd5b8063b45a3c0e14610ad6578063b52c05fe14610b5e578063b88d4fde14610b71578063bfe1092814610b84578063c2c4c5c114610b9757600080fd5b806391ddadf4116101d4578063a22cb46511610198578063a22cb46514610a44578063a738da8214610a57578063a899b36c14610a80578063b1548afc14610aa3578063b2383e5514610ac357600080fd5b806391ddadf414610a1857806395d89b41146104de578063981b24d0146109d95780639954a98914610a1e5780639d507b8b14610a3157600080fd5b80638ad4c4471161021b5780638ad4c4471461099b5780638bf9d84c146109ae5780638e539e8c146109d95780638fbb38ff146109ec578063900cf0cf14610a0f57600080fd5b806370a08231146108fc5780637c728000146109255780637ecebe0014610955578063834b0b691461097557806385f2aef21461098857600080fd5b8063370fb5fa116103735780634bf5d7e9116102f057806354fd4d50116102b457806354fd4d501461085f5780635594a04514610883578063572b6c05146108965780635a4f459a146108d65780636352211e146108e957600080fd5b80634bf5d7e9146107af5780634d01cb66146107d95780634d6fb775146107e257806350589793146107f5578063515857d41461083457600080fd5b806342842e0e1161033757806342842e0e1461072e578063430c20811461074157806344acb42a1461075457806346c96aac146107745780634b19becc1461078757600080fd5b8063370fb5fa146106ab57806337b1f500146106be5780633a6396a5146106d15780633bf0c9fb146106e45780633d085a371461070b57600080fd5b806320606b70116104015780632e720f7d116103c55780632e720f7d146106455780632f7f9ba914610658578063313ce5671461066b57806333230dc01461068557806335b0f6bd1461069857600080fd5b806320606b70146105bc57806323b872dd146105e357806327a6ee98146105f65780632d0485ec1461061f5780632e1a7d4d1461063257600080fd5b8063095ea7b311610448578063095ea7b3146105655780630ec84dda1461057857806317d70f7c1461058b57806318160ddd1461059457806319a0a9d51461059c57600080fd5b806301ffc9a714610485578063047fc9aa146104c757806306fdde03146104de578063081812fc1461050f578063095cf5c614610550575b600080fd5b6104b2610493366004615761565b6001600160e01b03191660009081526007602052604090205460ff1690565b60405190151581526020015b60405180910390f35b6104d060175481565b6040519081526020016104be565b610502604051806040016040528060058152602001641d9953919560da1b81525081565b6040516104be91906157ce565b61053861051d3660046157e1565b6000908152601160205260409020546001600160a01b031690565b6040516001600160a01b0390911681526020016104be565b61056361055e36600461580f565b610d8d565b005b61056361057336600461582c565b610e11565b610563610586366004615858565b610f52565b6104d060085481565b6104d0610fdf565b6104d06105aa3660046157e1565b600a6020526000908152604090205481565b6104d07f8cad95687ba82c2ce50e74f7b754645e5117c3a5bec8151c0726d5857980a86681565b6105636105f136600461587a565b610fef565b6105386106043660046157e1565b600e602052600090815260409020546001600160a01b031681565b61056361062d3660046158bb565b611007565b6105636106403660046157e1565b611070565b61056361065336600461580f565b611324565b600554610538906001600160a01b031681565b610673601281565b60405160ff90911681526020016104be565b610563610693366004615902565b6113b8565b6105636106a63660046157e1565b61141e565b6105636106b93660046157e1565b61168d565b6105636106cc366004615930565b611c92565b6104d06106df36600461580f565b611e78565b6105387f000000000000000000000000000000000000000000000000000000000000000081565b6104b261071936600461580f565b601c6020526000908152604090205460ff1681565b61056361073c36600461587a565b612177565b6104b261074f36600461582c565b612192565b610767610762366004615858565b6121a7565b6040516104be9190615955565b600254610538906001600160a01b031681565b61079a610795366004615858565b612225565b604080519283526020830191909152016104be565b60408051808201909152600e81526d06d6f64653d74696d657374616d760941b6020820152610502565b6104d0601d5481565b6104d06107f0366004615994565b6125a2565b61081d6108033660046157e1565b60216020526000908152604090205465ffffffffffff1681565b60405165ffffffffffff90911681526020016104be565b6104d0610842366004615858565b600b60209081526000928352604080842090915290825290205481565b610502604051806040016040528060058152602001640322e302e360dc1b81525081565b600454610538906001600160a01b031681565b6104b26108a436600461580f565b7f00000000000000000000000000000000000000000000000000000000000000006001600160a01b0390811691161490565b6105636108e4366004615930565b612647565b6105386108f73660046157e1565b6126a2565b6104d061090a36600461580f565b6001600160a01b031660009081526010602052604090205490565b6109486109333660046157e1565b60096020526000908152604090205460ff1681565b6040516104be91906159df565b6104d061096336600461580f565b60226020526000908152604090205481565b610563610983366004615a07565b6126ad565b600354610538906001600160a01b031681565b6107676109a93660046157e1565b612987565b6104d06109bc36600461582c565b601460209081526000928352604080842090915290825290205481565b6104d06109e73660046157e1565b612a18565b6104b26109fa3660046157e1565b601e6020526000908152604090205460ff1681565b6104d060165481565b4261081d565b610563610a2c36600461580f565b612a23565b610563610a3f366004615858565b612b72565b610563610a52366004615902565b612d46565b610538610a653660046157e1565b600d602052600090815260409020546001600160a01b031681565b6104b2610a8e3660046157e1565b600c6020526000908152604090205460ff1681565b6104d0610ab13660046157e1565b6000908152601f602052604090205490565b610563610ad1366004615858565b612df1565b610b37610ae43660046157e1565b6040805160608082018352600080835260208084018290529284018190529384526018825292829020825193840183528054600f0b84526001810154918401919091526002015460ff1615159082015290565b604080518251600f0b815260208084015190820152918101511515908201526060016104be565b6104d0610b6c366004615858565b612e2d565b610563610b7f366004615adb565b612e55565b600154610538906001600160a01b031681565b610563612f78565b610502610bad3660046157e1565b612fca565b610563610bc0366004615858565b61306d565b610563610bd3366004615858565b6134cc565b6104d0610be6366004615858565b6134fe565b610563610bf9366004615858565b61350a565b6104d0610c0c3660046157e1565b601a6020526000908152604090205481565b610563610c2c3660046157e1565b6139c7565b6104d07f9947d5709c1682eaa3946b2d84115c9c0d1c946b149d76e69b457458b42ea29e81565b6104d0610c663660046157e1565b613bf6565b6104b2610c793660046158bb565b6001600160a01b03918216600090815260126020908152604080832093909416825291909152205460ff1690565b6104d0610cb5366004615b8a565b613c1e565b610ccd610cc8366004615bc3565b613c3f565b6040516104be9190815181526020808301516001600160a01b031690820152604080830151908201526060918201519181019190915260800190565b610d2c610d173660046157e1565b601b60205260009081526040902054600f0b81565b604051600f9190910b81526020016104be565b6105387f000000000000000000000000000000000000000000000000000000000000000081565b6105387f000000000000000000000000000000000000000000000000000000000000000081565b6003546001600160a01b0316610da1613cd0565b6001600160a01b031614610dc857604051633a7cfa5d60e21b815260040160405180910390fd5b6001600160a01b038116610def5760405163d92e233d60e01b815260040160405180910390fd5b600380546001600160a01b0319166001600160a01b0392909216919091179055565b6000610e1b613cd0565b90506000610e2883613d14565b90506001600160a01b038116610e515760405163d92e233d60e01b815260040160405180910390fd5b836001600160a01b0316816001600160a01b031603610e835760405163367558c360e01b815260040160405180910390fd5b6000826001600160a01b0316610e9885613d14565b6001600160a01b0384811660009081526012602090815260408083208985168452909152902054911691909114915060ff16811582610ed5575080155b15610ef35760405163390cdd9b60e21b815260040160405180910390fd5b60008581526011602052604080822080546001600160a01b0319166001600160a01b038a811691821790925591518893918716917f8c5be1e5ebec7d5bd14f71427d1e84f3dd0314c0f7b2291e5b200ac8c7c3b92591a4505050505050565b610f5a613d2f565b600260008381526009602052604090205460ff166002811115610f7f57610f7f6159c9565b148015610fa757506001546001600160a01b0316610f9b613cd0565b6001600160a01b031614155b15610fc55760405163385296d560e01b815260040160405180910390fd5b610fd182826000613d8d565b610fdb6001600055565b5050565b6000610fea42613fd8565b905090565b611002838383610ffd613cd0565b614068565b505050565b6002546001600160a01b031661101b613cd0565b6001600160a01b0316146110425760405163c18384c160e01b815260040160405180910390fd5b600280546001600160a01b039384166001600160a01b03199182161790915560018054929093169116179055565b611078613d2f565b6000611082613cd0565b905061108e8183614196565b6110ab5760405163390cdd9b60e21b815260040160405180910390fd5b6000828152601e602052604090205460ff16156110db57604051637c9a1cf960e01b815260040160405180910390fd5b60008281526009602052604081205460ff1660028111156110fe576110fe6159c9565b1461111c576040516317a66f3760e01b815260040160405180910390fd5b60008281526018602090815260409182902082516060810184528154600f0b81526001820154928101929092526002015460ff161580159282019290925290611178576040516334d10f9560e11b815260040160405180910390fd5b806020015142101561119d5760405163342ad40160e11b815260040160405180910390fd5b60006111af8260000151600f0b614200565b90506111ba8461422c565b6040805160608101825260008082526020808301828152838501838152898452601890925293909120915182546001600160801b0319166001600160801b039091161782559151600182015590516002909101805460ff19169115159190911790556017546112298282615c09565b601755604080516060810182526000808252602082018190529181019190915261125690869085906142dc565b61128a6001600160a01b037f0000000000000000000000000000000000000000000000000000000000000000168584614aad565b6040805183815242602082015286916001600160a01b038716917f02f25270a4d87bea75db541cdfe559334a275b4a233520ed6c0a2429667cca94910160405180910390a37f5e2aa66efd74cce82b21852e317e5490d9ecc9e6bb953ae24d90851258cc2f5c816112fb8482615c09565b6040805192835260208301919091520160405180910390a1505050506113216001600055565b50565b6003546001600160a01b0316611338613cd0565b6001600160a01b03161461135f57604051633a7cfa5d60e21b815260040160405180910390fd5b600480546001600160a01b0319166001600160a01b038316179055604080516000815260001960208201527f6bd5c950a8d8df17f772f5af37cb3655737899cbf903264b9795592da439661c910160405180910390a150565b6003546001600160a01b03166113cc613cd0565b6001600160a01b0316146113f357604051633a7cfa5d60e21b815260040160405180910390fd5b6001600160a01b03919091166000908152601c60205260409020805460ff1916911515919091179055565b6000611428613cd0565b90506114348183614196565b6114515760405163390cdd9b60e21b815260040160405180910390fd5b60008281526009602052604081205460ff166002811115611474576114746159c9565b14611492576040516317a66f3760e01b815260040160405180910390fd5b6000828152601e602052604090205460ff16156114c257604051637c9a1cf960e01b815260040160405180910390fd5b60008281526018602090815260409182902082516060810184528154600f0b81526001820154928101929092526002015460ff1615159181018290529061151c57604051632188f8ab60e01b815260040160405180910390fd5b600061152e8260000151600f0b614200565b905080601d60008282546115429190615c09565b9091555062093a8090508061155b630784ce0042615c1c565b6115659190615c45565b61156f9190615c59565b6020830152600060408301819052611588908590614b10565b60008481526018602090815260409182902082516060810184528154600f0b81526001820154928101929092526002015460ff161515918101919091526115d1908590846142dc565b600084815260186020908152604091829020845181546001600160801b0319166001600160801b03909116178155848201516001820155848301516002909101805460ff19169115159190911790558151838152429181019190915285916001600160a01b038616917f668d293c0a181c1f163fd0d3c757239a9c17bd26c5e483150e374455433b27fa91015b60405180910390a3604051848152600080516020615f2b8339815191529060200160405180910390a150505050565b611695613d2f565b6000818152600a60205260409020546002546001600160a01b03166116b8613cd0565b6001600160a01b0316146116df5760405163c18384c160e01b815260040160405180910390fd5b806000036117005760405163d7caa26160e01b815260040160405180910390fd5b600160008381526009602052604090205460ff166002811115611725576117256159c9565b1461174357604051630fd82f7760e11b815260040160405180910390fd5b6000818152600d6020908152604080832054600e835281842054868552600b8452828520868652909352818420549151633e491d4760e01b81526001600160a01b037f000000000000000000000000000000000000000000000000000000000000000081166004830152602482018890529182169491909316928490633e491d4790604401602060405180830381865afa1580156117e5573d6000803e3d6000fd5b505050506040513d601f19601f820116820180604052508101906118099190615c70565b905060006118178284615c1c565b9050600062093a808061182e630784ce0042615c1c565b6118389190615c45565b6118429190615c59565b60408051600180825281830190925291925060009190602080830190803683370190505090507f00000000000000000000000000000000000000000000000000000000000000008160008151811061189c5761189c615c89565b6001600160a01b03928316602091820292909201015260405163f5f8d36560e01b81529088169063f5f8d365906118d9908c908590600401615c9f565b600060405180830381600087803b1580156118f357600080fd5b505af1158015611907573d6000803e3d6000fd5b505050506000604051806060016040528061192186614c78565b600f90810b82526020808301879052600060409384018190528e8152601882528390208351606081018552815490930b83526001810154918301919091526002015460ff1615159181019190915290915061197e908b90836142dc565b60008a8152601860209081526040808320845181546001600160801b0319166001600160801b0390911617815584830151600180830191909155858301516002928301805460ff19169115159190911790558d85529382902082516060810184528154600f0b8082529582015494810194909452015460ff1615159082015290611a0786614c78565b600f0b12611a16578051611a1f565b611a1f85614c78565b81518290611a2e908390615cf6565b600f0b905250601d548510611a4557601d54611a47565b845b601d6000828254611a589190615c09565b909155505060008a8152601f6020526040812054611a77918790614ca6565b60008a81526018602090815260409182902082516060810184528154600f0b81526001820154928101929092526002015460ff16151591810191909152611ac0908b90836142dc565b60008a815260186020908152604091829020835181546001600160801b0319166001600160801b03909116178155908301516001820155828201516002909101805460ff19169115159190911790555163278afc8b60e21b815260048101889052602481018c90526001600160a01b038a1690639e2bf22c90604401600060405180830381600087803b158015611b5657600080fd5b505af1158015611b6a573d6000803e3d6000fd5b505060405163278afc8b60e21b8152600481018a9052602481018e90526001600160a01b038b169250639e2bf22c9150604401600060405180830381600087803b158015611bb757600080fd5b505af1158015611bcb573d6000803e3d6000fd5b50505060008c8152600a60209081526040808320839055600b82528083208e845282528083208390558e835260099091529020805460ff1916905550898b611c1281613d14565b6001600160a01b03167f5319474ec1e9d118585a40e615ea37be254007e6bb5b039756c3813c2d1354898842604051611c55929190918252602082015260400190565b60405180910390a46040518b8152600080516020615f2b8339815191529060200160405180910390a1505050505050505050506113216001600055565b600260009054906101000a90046001600160a01b03166001600160a01b0316637778960e6040518163ffffffff1660e01b8152600401602060405180830381865afa158015611ce5573d6000803e3d6000fd5b505050506040513d601f19601f82011682018060405250810190611d099190615d23565b6001600160a01b0316611d1a613cd0565b6001600160a01b031614158015611dc05750600260009054906101000a90046001600160a01b03166001600160a01b0316630c340a246040518163ffffffff1660e01b8152600401602060405180830381865afa158015611d7f573d6000803e3d6000fd5b505050506040513d601f19601f82011682018060405250810190611da39190615d23565b6001600160a01b0316611db4613cd0565b6001600160a01b031614155b15611dde5760405163459d6a3f60e01b815260040160405180910390fd5b600260008381526009602052604090205460ff166002811115611e0357611e036159c9565b14611e215760405163054b1e0160e51b815260040160405180910390fd5b6000828152600c602052604090205481151560ff909116151503611e5857604051631490ad1160e01b815260040160405180910390fd5b6000918252600c6020526040909120805460ff1916911515919091179055565b6000611e82613d2f565b6000611e8c613cd0565b6005549091506001600160a01b03808316911614801590611f355750600260009054906101000a90046001600160a01b03166001600160a01b0316630c340a246040518163ffffffff1660e01b8152600401602060405180830381865afa158015611efb573d6000803e3d6000fd5b505050506040513d601f19601f82011682018060405250810190611f1f9190615d23565b6001600160a01b0316816001600160a01b031614155b15611f5357604051633bc1d15f60e01b815260040160405180910390fd5b600860008154611f6290615d40565b91829055509150611f738383614d23565b50611fa58260008060405180606001604052806000600f0b815260200160008152602001600115158152506001614d92565b6000828152600960209081526040808320805460ff1916600217905580516301a15ccf60e31b8152905183926001600160a01b037f00000000000000000000000000000000000000000000000000000000000000001692630d0ae67892600480830193928290030181865afa158015612022573d6000803e3d6000fd5b505050506040513d601f19601f820116820180604052508101906120469190615d23565b60025460405163dabc8e8360e01b81526001600160a01b037f000000000000000000000000000000000000000000000000000000000000000081166004830152918216602482015291169063dabc8e839060440160408051808303816000875af11580156120b8573d6000803e3d6000fd5b505050506040513d601f19601f820116820180604052508101906120dc9190615d59565b6000868152600d6020908152604080832080546001600160a01b038781166001600160a01b03199283168117909355600e8552948390208054878716921682179055825191825292810192909252939550919350858116928792918916917fae65a147ec014982132ce8b32019735e3c5f41457848d2ce2e2c3e0cbc9df7bc910160405180910390a45050506121726001600055565b919050565b61100283838360405180602001604052806000815250612e55565b600061219e8383614196565b90505b92915050565b6121af615716565b600083815260196020526040902082633b9aca0081106121d1576121d1615c89565b6040805160a081018252600492909202929092018054600f81810b8452600160801b909104900b60208301526001810154928201929092526002820154606082015260039091015460808201529392505050565b600080612230613d2f565b600061223a613cd0565b9050600061224786613d14565b90506001600160a01b03811661227057604051632c2151ef60e11b815260040160405180910390fd5b6001600160a01b0381166000908152601c602052604090205460ff161580156122c4575060008052601c6020527fb9c6de81004e18dedadca3e5eabaab449ca91dff6f58efc9461da635fe77f8495460ff16155b156122e257604051633df16fd960e21b815260040160405180910390fd5b60008681526009602052604081205460ff166002811115612305576123056159c9565b14612323576040516317a66f3760e01b815260040160405180910390fd5b6000868152601e602052604090205460ff161561235357604051637c9a1cf960e01b815260040160405180910390fd5b61235d8287614196565b61237a5760405163390cdd9b60e21b815260040160405180910390fd5b60008681526018602090815260409182902082516060810184528154600f0b8152600182015492810183905260029091015460ff1615159281019290925242108015906123c957508060400151155b156123e7576040516307b7d7dd60e51b815260040160405180910390fd5b60006123f287614c78565b905080600f0b60000361241857604051631f2a200560e01b815260040160405180910390fd5b80600f0b8260000151600f0b1361244257604051636b2f218360e01b815260040160405180910390fd5b61244b8861422c565b6040805160608082018352600080835260208084018281528486018381528e845260188352868420955186546001600160801b0319166001600160801b0390911617865590516001860155516002909401805460ff19169415159490941790935583519182018452808252918101829052918201526124cd90899084906142dc565b80826000018181516124df9190615cf6565b600f0b9052506124ef8383614f57565b600f82900b835295506125028383614f57565b600087815260186020526040902054909550859087908a907f8303de8187a6102fdc3fe20c756dddd68df0ae027b77e2391c19a855e0821f3390889061254a90600f0b614200565b61255687600f0b614200565b6020808a0151604080516001600160a01b03909616865291850193909352830152606082015242608082015260a00160405180910390a45050505061259b6001600055565b9250929050565b6040516332b53f5360e11b815260216004820152602060248201526001600160a01b0384166044820152606481018390526084810182905260009073__$d6f092accc63e0bf8f1744f29529542834$__9063656a7ea69060a401602060405180830381865af4158015612619573d6000803e3d6000fd5b505050506040513d601f19601f8201168201806040525081019061263d9190615c70565b90505b9392505050565b6002546001600160a01b031661265b613cd0565b6001600160a01b0316146126825760405163c18384c160e01b815260040160405180910390fd5b6000918252601e6020526040909120805460ff1916911515919091179055565b60006121a182613d14565b7f7fffffffffffffffffffffffffffffff5d576e7357a4501ddfe92f46681b20a08111156126ee576040516317e97eb760e31b815260040160405180910390fd5b6040805180820182526005808252641d9953919560da1b60209283015282518084018452908152640322e302e360dc1b9082015281517f8cad95687ba82c2ce50e74f7b754645e5117c3a5bec8151c0726d5857980a866818301527fc792e9874e7b42c234d1e8448cec020a0f065019c8cd6f7ccdb65b8c110157e9818401527fb4bcb154e38601c389396fa918314da42d4626f13ef6d0ceb07e5f5d26b2fbc360608201524660808201523060a0808301919091528351808303909101815260c0820184528051908301207f9947d5709c1682eaa3946b2d84115c9c0d1c946b149d76e69b457458b42ea29e60e083015261010082018b905261012082018a905261014082018990526101608083018990528451808403909101815261018083019094528351939092019290922061190160f01b6101a08401526101a283018290526101c2830181905290916000906101e20160408051601f198184030181528282528051602091820120600080855291840180845281905260ff8a169284019290925260608301889052608083018790529092509060019060a0016020604051602081039080840390855afa1580156128ad573d6000803e3d6000fd5b5050506020604051035190506128c3818c614196565b6128e05760405163390cdd9b60e21b815260040160405180910390fd5b6001600160a01b03811661290757604051638baa579f60e01b815260040160405180910390fd5b6001600160a01b038116600090815260226020526040812080549161292b83615d40565b91905055891461294e57604051633ab3447f60e11b815260040160405180910390fd5b8742111561296f57604051630819bdcd60e01b815260040160405180910390fd5b6129798b8b614b10565b505050505b50505050505050565b6129bf6040518060a001604052806000600f0b81526020016000600f0b81526020016000815260200160008152602001600081525090565b50600090815260066020908152604091829020825160a0810184528154600f81810b8352600160801b909104900b9281019290925260018101549282019290925260028201546060820152600390910154608082015290565b60006121a182613fd8565b600260009054906101000a90046001600160a01b03166001600160a01b0316630c340a246040518163ffffffff1660e01b8152600401602060405180830381865afa158015612a76573d6000803e3d6000fd5b505050506040513d601f19601f82011682018060405250810190612a9a9190615d23565b6001600160a01b0316612aab613cd0565b6001600160a01b031614612ad257604051633b8d9d7560e21b815260040160405180910390fd5b6005546001600160a01b0390811690821603612b015760405163367558c360e01b815260040160405180910390fd5b6001600160a01b038116612b285760405163d92e233d60e01b815260040160405180910390fd5b600580546001600160a01b0319166001600160a01b0383169081179091556040517f1a6ce72407c68def4b7d2e724c896070d89cf2b2a2dd56b6897b5febd88420f590600090a250565b612b7a613d2f565b612b8b612b85613cd0565b83614196565b612ba85760405163390cdd9b60e21b815260040160405180910390fd5b60008281526009602052604081205460ff166002811115612bcb57612bcb6159c9565b14612be9576040516317a66f3760e01b815260040160405180910390fd5b60008281526018602090815260409182902082516060810184528154600f0b81526001820154928101929092526002015460ff161580159282019290925290612c45576040516334d10f9560e11b815260040160405180910390fd5b600062093a8080612c568542615c1c565b612c609190615c45565b612c6a9190615c59565b905042826020015111612c90576040516307b7d7dd60e51b815260040160405180910390fd5b60008260000151600f0b13612cb85760405163f90e998d60e01b815260040160405180910390fd5b81602001518111612cdc57604051638e6b5b6760e01b815260040160405180910390fd5b612cea630784ce0042615c1c565b811115612d0a5760405163f761f1cd60e01b815260040160405180910390fd5b612d1984600083856003614d92565b604051848152600080516020615f2b8339815191529060200160405180910390a15050610fdb6001600055565b6000612d50613cd0565b9050806001600160a01b0316836001600160a01b031603612d845760405163367558c360e01b815260040160405180910390fd5b6001600160a01b03818116600081815260126020908152604080832094881680845294825291829020805460ff191687151590811790915591519182527f17307eab39ab6107e8899845ad3d59bd9653f200f220920489ca2b5937696c31910160405180910390a3505050565b612df9613d2f565b612e04612b85613cd0565b612e215760405163390cdd9b60e21b815260040160405180910390fd5b610fd182826002613d8d565b6000612e37613d2f565b612e498383612e44613cd0565b614ff2565b90506121a16001600055565b6000612e5f613cd0565b9050612e6d85858584614068565b833b15612f7157604051630a85bd0160e11b81526001600160a01b0385169063150b7a0290612ea6908490899088908890600401615d88565b6020604051808303816000875af1925050508015612ee1575060408051601f3d908101601f19168201909252612ede91810190615dc5565b60015b612f3e573d808015612f0f576040519150601f19603f3d011682016040523d82523d6000602084013e612f14565b606091505b508051600003612f3657604051626b5e2960e61b815260040160405180910390fd5b805181602001fd5b6001600160e01b03198116630a85bd0160e11b14612f6f5760405163279929b160e21b815260040160405180910390fd5b505b5050505050565b612f80613d2f565b604080516060808201835260008083526020808401829052838501829052845192830185528183528201819052928101839052612fbe9291906142dc565b612fc86001600055565b565b60606000612fd783613d14565b6001600160a01b031603612ffe57604051634a1850bf60e11b815260040160405180910390fd5b6004805460405163c87b56dd60e01b81529182018490526001600160a01b03169063c87b56dd90602401600060405180830381865afa158015613045573d6000803e3d6000fd5b505050506040513d6000823e601f3d908101601f191682016040526121a19190810190615de2565b613075613d2f565b600061307f613cd0565b6000848152601e602052604090205490915060ff16156130b257604051637c9a1cf960e01b815260040160405180910390fd5b60008381526009602052604081205460ff1660028111156130d5576130d56159c9565b146130f3576040516317a66f3760e01b815260040160405180910390fd5b60008281526009602052604081205460ff166002811115613116576131166159c9565b14613134576040516317a66f3760e01b815260040160405180910390fd5b818303613154576040516349da877960e11b815260040160405180910390fd5b61315e8184614196565b61317b5760405163390cdd9b60e21b815260040160405180910390fd5b6131858183614196565b6131a25760405163390cdd9b60e21b815260040160405180910390fd5b60008281526018602090815260409182902082516060810184528154600f0b8152600182015492810183905260029091015460ff1615159281019290925242108015906131f157508060400151155b1561320f576040516307b7d7dd60e51b815260040160405180910390fd5b60008481526018602090815260409182902082516060810184528154600f0b81526001820154928101929092526002015460ff16158015928201929092529061326b576040516334d10f9560e11b815260040160405180910390fd5b600082602001518260200151101561328757826020015161328d565b81602001515b90506132988661422c565b6040805160608082018352600080835260208084018281528486018381528c845260188352868420955186546001600160801b0319166001600160801b0390911617865590516001860155516002909401805460ff191694151594909417909355835191820184528082529181018290529182015261331a90879084906142dc565b6040805160608101825260008082526020820181905291810191909152825184516133459190615e50565b600f0b81526040808501511580159183019190915261338857825161336c90600f0b614200565b601d600082825461337d9190615c1c565b909155506133909050565b602081018290525b6000868152601f602052604090205483516133b991906133b290600f0b614200565b6001614ca6565b6133c48685836142dc565b600086815260186020908152604091829020835181546001600160801b0319166001600160801b03909116178155908301516001820155908201516002909101805460ff19169115159190911790558251869088906001600160a01b038816907f986e3c958e3bdf1f58c2150357fc94624dd4e77b08f9802d8e2e885fa0d6a1989061345290600f0b614200565b885161346090600f0b614200565b865161346e90600f0b614200565b6020808901516040805195865291850193909352830152606082015242608082015260a00160405180910390a4604051868152600080516020615f2b833981519152906020015b60405180910390a15050505050610fdb6001600055565b6134d7612b85613cd0565b6134f45760405163390cdd9b60e21b815260040160405180910390fd5b610fdb8282614b10565b600061219e8383615104565b613512613d2f565b6002546001600160a01b0316613526613cd0565b6001600160a01b03161461354d5760405163c18384c160e01b815260040160405180910390fd5b600260008281526009602052604090205460ff166002811115613572576135726159c9565b146135905760405163054b1e0160e51b815260040160405180910390fd5b60008281526009602052604081205460ff1660028111156135b3576135b36159c9565b146135d1576040516317a66f3760e01b815260040160405180910390fd5b6135db8242615104565b6000036135fb5760405163334ab3f560e11b815260040160405180910390fd5b60008281526018602052604090208054600290910154600f9190910b9060ff161561364e5761362c81600f0b614200565b601d600082825461363d9190615c09565b9091555061364e9050836000614b10565b60008381526018602090815260408083208151606080820184528254600f0b825260018301548286015260029092015460ff1615158184015282519182018352848252928101849052908101929092526136aa918591906142dc565b60408051606081018252600080825260208083018281528385018381528884526018909252938220925183546001600160801b0319166001600160801b039091161783559251600183015591516002909101805460ff1916911515919091179055613718600f83900b614200565b905080601d600082825461372c9190615c1c565b909155505060008381526018602090815260409182902082516060810184528154600f0b80825260018301549382019390935260029091015460ff1615159281019290925283908290613780908390615e50565b600f0b9052506000848152601f60205260409020546137a190836001614ca6565b60008481526018602090815260409182902082516060810184528154600f0b81526001820154928101929092526002015460ff161515918101919091526137ea908590836142dc565b6000848152601860209081526040808320845181546001600160801b0319166001600160801b0390911617815584830151600180830191909155858301516002909201805460ff19908116931515939093179055898552600b84528285208986528452828520879055898552600a8452828520899055600984528285208054909216179055868352600d9091529081902054905163f320772360e01b815260048101849052602481018790526001600160a01b0390911690819063f320772390604401600060405180830381600087803b1580156138c757600080fd5b505af11580156138db573d6000803e3d6000fd5b5050506000868152600e60205260409081902054905163f320772360e01b815260048101869052602481018990526001600160a01b039091169150819063f320772390604401600060405180830381600087803b15801561393b57600080fd5b505af115801561394f573d6000803e3d6000fd5b50505050858761395e89613d14565b6001600160a01b03167ff7757ce35992f4ee014dee2e0c97ed6245758960a6ecc9e124897a5fb7b0142387426040516139a1929190918252602082015260400190565b60405180910390a4604051878152600080516020615f2b833981519152906020016134b5565b60006139d1613cd0565b90506139dd8183614196565b6139fa5760405163390cdd9b60e21b815260040160405180910390fd5b60008281526009602052604081205460ff166002811115613a1d57613a1d6159c9565b14613a3b576040516317a66f3760e01b815260040160405180910390fd5b60008281526018602090815260409182902082516060810184528154600f0b81526001820154928101929092526002015460ff161580159282019290925290613a97576040516334d10f9560e11b815260040160405180910390fd5b42816020015111613abb576040516307b7d7dd60e51b815260040160405180910390fd5b60008160000151600f0b13613ae35760405163f90e998d60e01b815260040160405180910390fd5b6000613af58260000151600f0b614200565b905080601d6000828254613b099190615c1c565b90915550506000602080840182905260016040808601829052878452601883529283902083516060810185528154600f0b8152918101549282019290925260029091015460ff16151591810191909152613b65908590846142dc565b600084815260186020908152604091829020845181546001600160801b0319166001600160801b03909116178155848201516001820155848301516002909101805460ff19169115159190911790558151838152429181019190915285916001600160a01b038616917f793cb7a30a4bb8669ec607dfcbdc93f5a3e9d282f38191fddab43ccaf79efb80910161165e565b600081815260136020526040812054439003613c1457506000919050565b6121a18242615104565b6000613c28613d2f565b613c33848484614ff2565b90506126406001600055565b613c7360405180608001604052806000815260200160006001600160a01b0316815260200160008152602001600081525090565b5060009182526020808052604080842065ffffffffffff9390931684529181529181902081516080810183528154815260018201546001600160a01b03169381019390935260028101549183019190915260030154606082015290565b60007f00000000000000000000000000000000000000000000000000000000000000006001600160a01b03163303613d0f575060131936013560601c90565b503390565b6000908152600f60205260409020546001600160a01b031690565b600260005403613d865760405162461bcd60e51b815260206004820152601f60248201527f5265656e7472616e637947756172643a207265656e7472616e742063616c6c0060448201526064015b60405180910390fd5b6002600055565b60008381526009602052604090205460ff166001816002811115613db357613db36159c9565b03613dd157604051635eb32db160e11b815260040160405180910390fd5b600084815260186020908152604080832081516060810183528154600f0b81526001820154938101939093526002015460ff1615159082015290849003613e2b57604051631f2a200560e01b815260040160405180910390fd5b60008160000151600f0b13613e535760405163f90e998d60e01b815260040160405180910390fd5b42816020015111158015613e6957508060400151155b15613e87576040516307b7d7dd60e51b815260040160405180910390fd5b806040015115613ea95783601d6000828254613ea39190615c1c565b90915550505b6000858152601f6020526040902054613ec490856001614ca6565b613ed2858560008487614d92565b6002826002811115613ee657613ee66159c9565b03613fb0576000858152600d60205260409020546001600160a01b03908116907f000000000000000000000000000000000000000000000000000000000000000090613f359082168388615190565b60405163b66503cf60e01b81526001600160a01b0382811660048301526024820188905283169063b66503cf90604401600060405180830381600087803b158015613f7f57600080fd5b505af1158015613f93573d6000803e3d6000fd5b50613fad925050506001600160a01b038216836000615190565b50505b604051858152600080516020615f2b8339815191529060200160405180910390a15050505050565b601654604051637259b01960e01b8152601b60048201526006602482015260448101919091526064810182905260009073__$227f16069b523eeecbbbd0559d29a49482$__90637259b01990608401602060405180830381865af4158015614044573d6000803e3d6000fd5b505050506040513d601f19601f820116820180604052508101906121a19190615c70565b600160008381526009602052604090205460ff16600281111561408d5761408d6159c9565b036140ab57604051635eb32db160e11b815260040160405180910390fd5b6140b58183614196565b6140d25760405163390cdd9b60e21b815260040160405180910390fd5b836001600160a01b03166140e583613d14565b6001600160a01b03161461410c576040516330cd747160e01b815260040160405180910390fd5b600082815260116020526040902080546001600160a01b031916905561413284836152a5565b61413e82600085615326565b6141488383615390565b6000828152601360205260408082204390555183916001600160a01b0380871692908816917fddf252ad1be2c89b69c2b068fc378daa952ba7f163c4a11628f55a4df523b3ef91a450505050565b6000806141a283613d14565b6000848152601160209081526040808320546001600160a01b0380861680865260128552838620828c1680885295529290942054949550908214939216149060ff1682806141ed5750815b806141f55750805b979650505050505050565b60008082600f0b12156142255760405162406f5d60e21b815260040160405180910390fd5b50600f0b90565b6000614236613cd0565b90506142428183614196565b61425f5760405163390cdd9b60e21b815260040160405180910390fd5b600061426a83613d14565b600084815260116020526040812080546001600160a01b031916905590915061429590849080615326565b61429f81846152a5565b60405183906000906001600160a01b038416907fddf252ad1be2c89b69c2b068fc378daa952ba7f163c4a11628f55a4df523b3ef908390a4505050565b6142e4615716565b6142ec615716565b6016546000908190871561443f57856040015161430a576000614318565b855161431890600f0b614200565b6080850152602087015142108015614337575060008760000151600f0b135b1561438557865161434d90630784ce0090615e7d565b600f0b6020808701919091528701516143709061436b904290615c09565b614c78565b856020015161437f9190615ebb565b600f0b85525b42866020015111801561439f575060008660000151600f0b135b156143e85785516143b590630784ce0090615e7d565b600f0b6020808601919091528601516143d39061436b904290615c09565b84602001516143e29190615ebb565b600f0b84525b6020808801516000908152601b8252604090205490870151600f9190910b93501561443f5786602001518660200151036144245782915061443f565b6020808701516000908152601b9091526040902054600f0b91505b6040805160a0810182526000808252602082018190524292820192909252436060820152608081019190915281156144c85750600081815260066020908152604091829020825160a0810184528154600f81810b8352600160801b909104900b928101929092526001810154928201929092526002820154606082015260039091015460808201525b60008160400151905060006040518060a001604052808460000151600f0b81526020018460200151600f0b8152602001846040015181526020018460600151815260200184608001518152509050600083604001514211156145615760408401516145339042615c09565b60608501516145429043615c09565b61455490670de0b6b3a7640000615c59565b61455e9190615c45565b90505b600062093a806145718186615c45565b61457b9190615c59565b905060005b60ff8110156147025761459662093a8083615c1c565b91506000428311156145aa574292506145be565b506000828152601b6020526040902054600f0b5b6145cb61436b8785615c09565b87602001516145da9190615ebb565b875188906145e9908390615cf6565b600f0b905250602087018051829190614603908390615e50565b600f90810b90915288516000910b1215905061461e57600087525b60008760200151600f0b121561463657600060208801525b60408088018490528501519295508592670de0b6b3a76400009061465a9085615c09565b6146649086615c59565b61466e9190615c45565b856060015161467d9190615c1c565b606088015261468d600189615c1c565b97504283036146a25750436060870152614702565b6000888152600660209081526040918290208951918a01516001600160801b03908116600160801b029216919091178155908801516001820155606088015160028201556080880151600390910155506146fb81615d40565b9050614580565b50508b15614791578860200151886020015161471e9190615cf6565b8460200181815161472f9190615e50565b600f0b905250885188516147439190615cf6565b84518590614752908390615e50565b600f90810b90915260208601516000910b1215905061477357600060208501525b60008460000151600f0b121561478857600084525b601d5460808501525b846001141580156147c1575042600660006147ad600189615c09565b815260200190815260200160002060010154145b1561482b5783600660006147d6600189615c09565b815260208082019290925260409081016000208351928401516001600160801b03908116600160801b029316929092178255820151600182015560608201516002820155608090910151600390910155614880565b60168590556000858152600660209081526040918290208651918701516001600160801b03908116600160801b0292169190911781559085015160018201556060850151600282015560808501516003909101555b8b15614a9f57428b6020015111156148f25760208901516148a19088615e50565b96508a602001518a60200151036148c45760208801516148c19088615cf6565b96505b60208b8101516000908152601b9091526040902080546001600160801b0319166001600160801b0389161790555b428a60200151111561494d578a602001518a60200151111561494d57602088015161491d9087615cf6565b60208b8101516000908152601b9091526040902080546001600160801b0319166001600160801b03831617905595505b426040808a01919091524360608a015260008d8152601a602052205480158015906149a1575060008d8152601960205260409020429082633b9aca00811061499757614997615c89565b6004020160010154145b15614a175760008d8152601960205260409020899082633b9aca0081106149ca576149ca615c89565b825160208401516001600160801b03908116600160801b02911617600491909102919091019081556040820151600182015560608201516002820155608090910151600390910155614a9d565b614a2081615d40565b60008e8152601a6020908152604080832084905560199091529020909150899082633b9aca008110614a5457614a54615c89565b825160208401516001600160801b03908116600160801b029116176004919091029190910190815560408201516001820155606082015160028201556080909101516003909101555b505b505050505050505050505050565b6040516001600160a01b03831660248201526044810182905261100290849063a9059cbb60e01b906064015b60408051601f198184030181529190526020810180516001600160e01b03166001600160e01b031990931692909217909152615422565b60008281526018602090815260409182902082516060810184528154600f0b81526001820154928101929092526002015460ff16151591810182905290614b6a57604051632188f8ab60e01b815260040160405180910390fd5b8115801590614b8a57506000614b7f83613d14565b6001600160a01b0316145b15614ba857604051634a1850bf60e11b815260040160405180910390fd5b600083815260136020526040902054439003614bd7576040516342d6fce760e01b815260040160405180910390fd5b828203614be357600091505b6000838152601f6020526040902054828103614bff5750505050565b6000614c118360000151600f0b614200565b9050614c268585614c2188613d14565b615326565b614c3284826001614ca6565b8382614c3c613cd0565b6001600160a01b03167ff1aa2a9e40138176a3ee6099df056f5c175f8511a0d8b8275d94d1ea5de4677360405160405180910390a45050505050565b600060016001607f1b03821115614ca2576040516393dafdf160e01b815260040160405180910390fd5b5090565b6040516375f199b960e11b815260216004820152602060248201526044810184905260648101839052811515608482015273__$d6f092accc63e0bf8f1744f29529542834$__9063ebe333729060a4015b60006040518083038186803b158015614d0f57600080fd5b505af415801561297e573d6000803e3d6000fd5b60006001600160a01b038316614d3b57614d3b615edb565b614d458383615390565b614d5182600085615326565b60405182906001600160a01b038516906000907fddf252ad1be2c89b69c2b068fc378daa952ba7f163c4a11628f55a4df523b3ef908290a450600192915050565b601754614d9f8582615c1c565b6017556040805160608101825260008082526020808301828152838501928352875191880151948801511515909252929052600f9190910b8152614de286614c78565b81518290614df1908390615e50565b600f0b9052508415614e0557602081018590525b600087815260186020908152604091829020835181546001600160801b0319166001600160801b03909116178155908301516001820155908201516002909101805460ff1916911515919091179055614e5f8785836142dc565b6000614e69613cd0565b90508615614ea657614ea66001600160a01b037f00000000000000000000000000000000000000000000000000000000000000001682308a6154f4565b836003811115614eb857614eb86159c9565b602083810151604080518b8152928301919091524282820152518a916001600160a01b038516917f8835c22a0c751188de86681e15904223c054bedd5c68ec8858945b78312902739181900360600190a47f5e2aa66efd74cce82b21852e317e5490d9ecc9e6bb953ae24d90851258cc2f5c83614f358982615c1c565b6040805192835260208301919091520160405180910390a15050505050505050565b6000600860008154614f6890615d40565b91829055506000818152601860209081526040808320865181546001600160801b0319166001600160801b03909116178155868301516001820155868201516002909101805460ff19169115159190911790558051606081018252838152918201839052810191909152909150614fe1908290846142dc565b614feb8382614d23565b5092915050565b60008062093a80806150048642615c1c565b61500e9190615c45565b6150189190615c59565b90508460000361503b57604051631f2a200560e01b815260040160405180910390fd5b42811161505b57604051638e6b5b6760e01b815260040160405180910390fd5b615069630784ce0042615c1c565b8111156150895760405163f761f1cd60e01b815260040160405180910390fd5b600060086000815461509a90615d40565b918290555090506150ab8482614d23565b5060008181526018602090815260409182902082516060810184528154600f0b81526001808301549382019390935260029091015460ff161515928101929092526150fb91839189918691614d92565b95945050505050565b604051637b29b3d160e01b8152601a600482015260196024820152604481018390526064810182905260009073__$227f16069b523eeecbbbd0559d29a49482$__90637b29b3d190608401602060405180830381865af415801561516c573d6000803e3d6000fd5b505050506040513d601f19601f8201168201806040525081019061219e9190615c70565b80158061520a5750604051636eb1769f60e11b81523060048201526001600160a01b03838116602483015284169063dd62ed3e90604401602060405180830381865afa1580156151e4573d6000803e3d6000fd5b505050506040513d601f19601f820116820180604052508101906152089190615c70565b155b6152755760405162461bcd60e51b815260206004820152603660248201527f5361666545524332303a20617070726f76652066726f6d206e6f6e2d7a65726f60448201527520746f206e6f6e2d7a65726f20616c6c6f77616e636560501b6064820152608401613d7d565b6040516001600160a01b03831660248201526044810182905261100290849063095ea7b360e01b90606401614ad9565b816001600160a01b03166152b882613d14565b6001600160a01b0316146152ce576152ce615edb565b6000818152600f6020526040902080546001600160a01b03191690556152f48282615532565b6001600160a01b038216600090815260106020526040812080546001929061531d908490615c09565b90915550505050565b60405163690f66bf60e01b8152601860048201526021602482015260206044820152601f60648201526084810184905260a481018390526001600160a01b03821660c482015273__$d6f092accc63e0bf8f1744f29529542834$__9063690f66bf9060e401614cf7565b600061539b82613d14565b6001600160a01b0316146153b1576153b1615edb565b6000818152600f6020908152604080832080546001600160a01b0319166001600160a01b03871690811790915580845260108084528285208054601486528487208188528652848720889055878752601586529386209390935590845290915280546001929061531d908490615c1c565b6000615477826040518060400160405280602081526020017f5361666545524332303a206c6f772d6c6576656c2063616c6c206661696c6564815250856001600160a01b03166155f19092919063ffffffff16565b80519091501561100257808060200190518101906154959190615ef1565b6110025760405162461bcd60e51b815260206004820152602a60248201527f5361666545524332303a204552433230206f7065726174696f6e20646964206e6044820152691bdd081cdd58d8d9595960b21b6064820152608401613d7d565b6040516001600160a01b038085166024830152831660448201526064810182905261552c9085906323b872dd60e01b90608401614ad9565b50505050565b6001600160a01b03821660009081526010602052604081205461555790600190615c09565b6000838152601560205260409020549091508082036155a6576001600160a01b03841660009081526014602090815260408083208584528252808320839055858352601590915281205561552c565b6001600160a01b039390931660009081526014602090815260408083209383529281528282208054868452848420819055835260159091528282209490945592839055908252812055565b606061263d848460008585600080866001600160a01b031685876040516156189190615f0e565b60006040518083038185875af1925050503d8060008114615655576040519150601f19603f3d011682016040523d82523d6000602084013e61565a565b606091505b509150915061566b87838387615678565b925050505b949350505050565b606083156156e75782516000036156e0576001600160a01b0385163b6156e05760405162461bcd60e51b815260206004820152601d60248201527f416464726573733a2063616c6c20746f206e6f6e2d636f6e74726163740000006044820152606401613d7d565b5081615670565b61567083838151156156fc5781518083602001fd5b8060405162461bcd60e51b8152600401613d7d91906157ce565b6040518060a001604052806000600f0b81526020016000600f0b81526020016000815260200160008152602001600081525090565b6001600160e01b03198116811461132157600080fd5b60006020828403121561577357600080fd5b81356126408161574b565b60005b83811015615799578181015183820152602001615781565b50506000910152565b600081518084526157ba81602086016020860161577e565b601f01601f19169290920160200192915050565b60208152600061219e60208301846157a2565b6000602082840312156157f357600080fd5b5035919050565b6001600160a01b038116811461132157600080fd5b60006020828403121561582157600080fd5b8135612640816157fa565b6000806040838503121561583f57600080fd5b823561584a816157fa565b946020939093013593505050565b6000806040838503121561586b57600080fd5b50508035926020909101359150565b60008060006060848603121561588f57600080fd5b833561589a816157fa565b925060208401356158aa816157fa565b929592945050506040919091013590565b600080604083850312156158ce57600080fd5b82356158d9816157fa565b915060208301356158e9816157fa565b809150509250929050565b801515811461132157600080fd5b6000806040838503121561591557600080fd5b8235615920816157fa565b915060208301356158e9816158f4565b6000806040838503121561594357600080fd5b8235915060208301356158e9816158f4565b60a081016121a182848051600f0b82526020810151600f0b60208301526040810151604083015260608101516060830152608081015160808301525050565b6000806000606084860312156159a957600080fd5b83356159b4816157fa565b95602085013595506040909401359392505050565b634e487b7160e01b600052602160045260246000fd5b6020810160038310615a0157634e487b7160e01b600052602160045260246000fd5b91905290565b600080600080600080600060e0888a031215615a2257600080fd5b87359650602088013595506040880135945060608801359350608088013560ff81168114615a4f57600080fd5b9699959850939692959460a0840135945060c09093013592915050565b634e487b7160e01b600052604160045260246000fd5b604051601f8201601f1916810167ffffffffffffffff81118282101715615aab57615aab615a6c565b604052919050565b600067ffffffffffffffff821115615acd57615acd615a6c565b50601f01601f191660200190565b60008060008060808587031215615af157600080fd5b8435615afc816157fa565b93506020850135615b0c816157fa565b925060408501359150606085013567ffffffffffffffff811115615b2f57600080fd5b8501601f81018713615b4057600080fd5b8035615b53615b4e82615ab3565b615a82565b818152886020838501011115615b6857600080fd5b8160208401602083013760006020838301015280935050505092959194509250565b600080600060608486031215615b9f57600080fd5b83359250602084013591506040840135615bb8816157fa565b809150509250925092565b60008060408385031215615bd657600080fd5b82359150602083013565ffffffffffff811681146158e957600080fd5b634e487b7160e01b600052601160045260246000fd5b818103818111156121a1576121a1615bf3565b808201808211156121a1576121a1615bf3565b634e487b7160e01b600052601260045260246000fd5b600082615c5457615c54615c2f565b500490565b80820281158282048414176121a1576121a1615bf3565b600060208284031215615c8257600080fd5b5051919050565b634e487b7160e01b600052603260045260246000fd5b6000604082018483526020604081850152818551808452606086019150828701935060005b81811015615ce95784516001600160a01b031683529383019391830191600101615cc4565b5090979650505050505050565b600f82810b9082900b0360016001607f1b0319811260016001607f1b03821317156121a1576121a1615bf3565b600060208284031215615d3557600080fd5b8151612640816157fa565b600060018201615d5257615d52615bf3565b5060010190565b60008060408385031215615d6c57600080fd5b8251615d77816157fa565b60208401519092506158e9816157fa565b6001600160a01b0385811682528416602082015260408101839052608060608201819052600090615dbb908301846157a2565b9695505050505050565b600060208284031215615dd757600080fd5b81516126408161574b565b600060208284031215615df457600080fd5b815167ffffffffffffffff811115615e0b57600080fd5b8201601f81018413615e1c57600080fd5b8051615e2a615b4e82615ab3565b818152856020838501011115615e3f57600080fd5b6150fb82602083016020860161577e565b600f81810b9083900b0160016001607f1b03811360016001607f1b0319821217156121a1576121a1615bf3565b600081600f0b83600f0b80615e9457615e94615c2f565b60016001607f1b0319821460001982141615615eb257615eb2615bf3565b90059392505050565b600082600f0b82600f0b0280600f0b9150808214614feb57614feb615bf3565b634e487b7160e01b600052600160045260246000fd5b600060208284031215615f0357600080fd5b8151612640816158f4565b60008251615f2081846020870161577e565b919091019291505056fef8e1a15aba9398e019f0b49df1a4fde98ee17ae345cb5f6b5e2c27f5033e8ce7a2646970667358221220178bcc5d3d4837ffd188413899be0e76f41a0be9900172ee40f832cad4f1569f64736f6c63430008130033ddf252ad1be2c89b69c2b068fc378daa952ba7f163c4a11628f55a4df523b3ef","linkReferences":{"contracts/libraries/BalanceLogicLibrary.sol":{"BalanceLogicLibrary":[{"start":17196,"length":20},{"start":21588,"length":20}]},"contracts/libraries/DelegationLogicLibrary.sol":{"DelegationLogicLibrary":[{"start":10497,"length":20},{"start":20475,"length":20},{"start":22160,"length":20}]}}},"methodIdentifiers":{"CLOCK_MODE()":"4bf5d7e9","DELEGATION_TYPEHASH()":"e7a324dc","DOMAIN_TYPEHASH()":"20606b70","allowedManager()":"2f7f9ba9","approve(address,uint256)":"095ea7b3","artProxy()":"5594a045","balanceOf(address)":"70a08231","balanceOfNFT(uint256)":"e7e242d4","balanceOfNFTAt(uint256,uint256)":"e0514aba","canSplit(address)":"3d085a37","checkpoint()":"c2c4c5c1","checkpoints(uint256,uint48)":"f04cb3a8","clock()":"91ddadf4","createLock(uint256,uint256)":"b52c05fe","createLockFor(uint256,uint256,address)":"ec32e6df","createManagedLockFor(address)":"3a6396a5","deactivated(uint256)":"a899b36c","decimals()":"313ce567","delegate(uint256,uint256)":"d9a34952","delegateBySig(uint256,uint256,uint256,uint256,uint8,bytes32,bytes32)":"834b0b69","delegates(uint256)":"b1548afc","depositFor(uint256,uint256)":"0ec84dda","depositManaged(uint256,uint256)":"e0c11f9a","distributor()":"bfe10928","epoch()":"900cf0cf","escrowType(uint256)":"7c728000","factoryRegistry()":"3bf0c9fb","forwarder()":"f645d4f9","getApproved(uint256)":"081812fc","getPastTotalSupply(uint256)":"8e539e8c","getPastVotes(address,uint256,uint256)":"4d6fb775","idToManaged(uint256)":"19a0a9d5","increaseAmount(uint256,uint256)":"b2383e55","increaseUnlockTime(uint256,uint256)":"9d507b8b","isApprovedForAll(address,address)":"e985e9c5","isApprovedOrOwner(address,uint256)":"430c2081","isTrustedForwarder(address)":"572b6c05","lockPermanent(uint256)":"e75b1c2e","locked(uint256)":"b45a3c0e","managedToFree(uint256)":"27a6ee98","managedToLocked(uint256)":"a738da82","merge(uint256,uint256)":"d1c2babb","name()":"06fdde03","nonces(address)":"7ecebe00","numCheckpoints(uint256)":"50589793","ownerOf(uint256)":"6352211e","ownerToNFTokenIdList(address,uint256)":"8bf9d84c","permanentLockBalance()":"4d01cb66","pointHistory(uint256)":"8ad4c447","safeTransferFrom(address,address,uint256)":"42842e0e","safeTransferFrom(address,address,uint256,bytes)":"b88d4fde","setAllowedManager(address)":"9954a989","setApprovalForAll(address,bool)":"a22cb465","setArtProxy(address)":"2e720f7d","setManagedState(uint256,bool)":"37b1f500","setTeam(address)":"095cf5c6","setVoterAndDistributor(address,address)":"2d0485ec","slopeChanges(uint256)":"f52a36f7","split(uint256,uint256)":"4b19becc","supply()":"047fc9aa","supportsInterface(bytes4)":"01ffc9a7","symbol()":"95d89b41","team()":"85f2aef2","toggleSplit(address,bool)":"33230dc0","token()":"fc0c546a","tokenId()":"17d70f7c","tokenURI(uint256)":"c87b56dd","totalSupply()":"18160ddd","totalSupplyAt(uint256)":"981b24d0","transferFrom(address,address,uint256)":"23b872dd","unlockPermanent(uint256)":"35b0f6bd","userPointEpoch(uint256)":"e58f5947","userPointHistory(uint256,uint256)":"44acb42a","version()":"54fd4d50","voted(uint256)":"8fbb38ff","voter()":"46c96aac","voting(uint256,bool)":"5a4f459a","weights(uint256,uint256)":"515857d4","withdraw(uint256)":"2e1a7d4d","withdrawManaged(uint256)":"370fb5fa"},"id":11}