{"abi":[{"type":"constructor","inputs":[],"stateMutability":"nonpayable"},{"type":"function","name":"DOMAIN_SEPARATOR","inputs":[],"outputs":[{"name":"","type":"bytes32","internalType":"bytes32"}],"stateMutability":"view"},{"type":"function","name":"allowance","inputs":[{"name":"owner","type":"address","internalType":"address"},{"name":"spender","type":"address","internalType":"address"}],"outputs":[{"name":"","type":"uint256","internalType":"uint256"}],"stateMutability":"view"},{"type":"function","name":"approve","inputs":[{"name":"spender","type":"address","internalType":"address"},{"name":"amount","type":"uint256","internalType":"uint256"}],"outputs":[{"name":"","type":"bool","internalType":"bool"}],"stateMutability":"nonpayable"},{"type":"function","name":"balanceOf","inputs":[{"name":"account","type":"address","internalType":"address"}],"outputs":[{"name":"","type":"uint256","internalType":"uint256"}],"stateMutability":"view"},{"type":"function","name":"blockTimestampLast","inputs":[],"outputs":[{"name":"","type":"uint256","internalType":"uint256"}],"stateMutability":"view"},{"type":"function","name":"burn","inputs":[{"name":"to","type":"address","internalType":"address"}],"outputs":[{"name":"amount0","type":"uint256","internalType":"uint256"},{"name":"amount1","type":"uint256","internalType":"uint256"}],"stateMutability":"nonpayable"},{"type":"function","name":"claimFees","inputs":[],"outputs":[{"name":"claimed0","type":"uint256","internalType":"uint256"},{"name":"claimed1","type":"uint256","internalType":"uint256"}],"stateMutability":"nonpayable"},{"type":"function","name":"claimable0","inputs":[{"name":"","type":"address","internalType":"address"}],"outputs":[{"name":"","type":"uint256","internalType":"uint256"}],"stateMutability":"view"},{"type":"function","name":"claimable1","inputs":[{"name":"","type":"address","internalType":"address"}],"outputs":[{"name":"","type":"uint256","internalType":"uint256"}],"stateMutability":"view"},{"type":"function","name":"currentCumulativePrices","inputs":[],"outputs":[{"name":"reserve0Cumulative","type":"uint256","internalType":"uint256"},{"name":"reserve1Cumulative","type":"uint256","internalType":"uint256"},{"name":"blockTimestamp","type":"uint256","internalType":"uint256"}],"stateMutability":"view"},{"type":"function","name":"decimals","inputs":[],"outputs":[{"name":"","type":"uint8","internalType":"uint8"}],"stateMutability":"view"},{"type":"function","name":"decreaseAllowance","inputs":[{"name":"spender","type":"address","internalType":"address"},{"name":"subtractedValue","type":"uint256","internalType":"uint256"}],"outputs":[{"name":"","type":"bool","internalType":"bool"}],"stateMutability":"nonpayable"},{"type":"function","name":"eip712Domain","inputs":[],"outputs":[{"name":"fields","type":"bytes1","internalType":"bytes1"},{"name":"name","type":"string","internalType":"string"},{"name":"version","type":"string","internalType":"string"},{"name":"chainId","type":"uint256","internalType":"uint256"},{"name":"verifyingContract","type":"address","internalType":"address"},{"name":"salt","type":"bytes32","internalType":"bytes32"},{"name":"extensions","type":"uint256[]","internalType":"uint256[]"}],"stateMutability":"view"},{"type":"function","name":"factory","inputs":[],"outputs":[{"name":"","type":"address","internalType":"address"}],"stateMutability":"view"},{"type":"function","name":"getAmountOut","inputs":[{"name":"amountIn","type":"uint256","internalType":"uint256"},{"name":"tokenIn","type":"address","internalType":"address"}],"outputs":[{"name":"","type":"uint256","internalType":"uint256"}],"stateMutability":"view"},{"type":"function","name":"getReserves","inputs":[],"outputs":[{"name":"_reserve0","type":"uint256","internalType":"uint256"},{"name":"_reserve1","type":"uint256","internalType":"uint256"},{"name":"_blockTimestampLast","type":"uint256","internalType":"uint256"}],"stateMutability":"view"},{"type":"function","name":"increaseAllowance","inputs":[{"name":"spender","type":"address","internalType":"address"},{"name":"addedValue","type":"uint256","internalType":"uint256"}],"outputs":[{"name":"","type":"bool","internalType":"bool"}],"stateMutability":"nonpayable"},{"type":"function","name":"index0","inputs":[],"outputs":[{"name":"","type":"uint256","internalType":"uint256"}],"stateMutability":"view"},{"type":"function","name":"index1","inputs":[],"outputs":[{"name":"","type":"uint256","internalType":"uint256"}],"stateMutability":"view"},{"type":"function","name":"initialize","inputs":[{"name":"_token0","type":"address","internalType":"address"},{"name":"_token1","type":"address","internalType":"address"},{"name":"_stable","type":"bool","internalType":"bool"}],"outputs":[],"stateMutability":"nonpayable"},{"type":"function","name":"lastObservation","inputs":[],"outputs":[{"name":"","type":"tuple","internalType":"struct IPool.Observation","components":[{"name":"timestamp","type":"uint256","internalType":"uint256"},{"name":"reserve0Cumulative","type":"uint256","internalType":"uint256"},{"name":"reserve1Cumulative","type":"uint256","internalType":"uint256"}]}],"stateMutability":"view"},{"type":"function","name":"metadata","inputs":[],"outputs":[{"name":"dec0","type":"uint256","internalType":"uint256"},{"name":"dec1","type":"uint256","internalType":"uint256"},{"name":"r0","type":"uint256","internalType":"uint256"},{"name":"r1","type":"uint256","internalType":"uint256"},{"name":"st","type":"bool","internalType":"bool"},{"name":"t0","type":"address","internalType":"address"},{"name":"t1","type":"address","internalType":"address"}],"stateMutability":"view"},{"type":"function","name":"mint","inputs":[{"name":"to","type":"address","internalType":"address"}],"outputs":[{"name":"liquidity","type":"uint256","internalType":"uint256"}],"stateMutability":"nonpayable"},{"type":"function","name":"name","inputs":[],"outputs":[{"name":"","type":"string","internalType":"string"}],"stateMutability":"view"},{"type":"function","name":"nonces","inputs":[{"name":"owner","type":"address","internalType":"address"}],"outputs":[{"name":"","type":"uint256","internalType":"uint256"}],"stateMutability":"view"},{"type":"function","name":"observationLength","inputs":[],"outputs":[{"name":"","type":"uint256","internalType":"uint256"}],"stateMutability":"view"},{"type":"function","name":"observations","inputs":[{"name":"","type":"uint256","internalType":"uint256"}],"outputs":[{"name":"timestamp","type":"uint256","internalType":"uint256"},{"name":"reserve0Cumulative","type":"uint256","internalType":"uint256"},{"name":"reserve1Cumulative","type":"uint256","internalType":"uint256"}],"stateMutability":"view"},{"type":"function","name":"periodSize","inputs":[],"outputs":[{"name":"","type":"uint256","internalType":"uint256"}],"stateMutability":"view"},{"type":"function","name":"permit","inputs":[{"name":"owner","type":"address","internalType":"address"},{"name":"spender","type":"address","internalType":"address"},{"name":"value","type":"uint256","internalType":"uint256"},{"name":"deadline","type":"uint256","internalType":"uint256"},{"name":"v","type":"uint8","internalType":"uint8"},{"name":"r","type":"bytes32","internalType":"bytes32"},{"name":"s","type":"bytes32","internalType":"bytes32"}],"outputs":[],"stateMutability":"nonpayable"},{"type":"function","name":"poolFees","inputs":[],"outputs":[{"name":"","type":"address","internalType":"address"}],"stateMutability":"view"},{"type":"function","name":"prices","inputs":[{"name":"tokenIn","type":"address","internalType":"address"},{"name":"amountIn","type":"uint256","internalType":"uint256"},{"name":"points","type":"uint256","internalType":"uint256"}],"outputs":[{"name":"","type":"uint256[]","internalType":"uint256[]"}],"stateMutability":"view"},{"type":"function","name":"quote","inputs":[{"name":"tokenIn","type":"address","internalType":"address"},{"name":"amountIn","type":"uint256","internalType":"uint256"},{"name":"granularity","type":"uint256","internalType":"uint256"}],"outputs":[{"name":"amountOut","type":"uint256","internalType":"uint256"}],"stateMutability":"view"},{"type":"function","name":"reserve0","inputs":[],"outputs":[{"name":"","type":"uint256","internalType":"uint256"}],"stateMutability":"view"},{"type":"function","name":"reserve0CumulativeLast","inputs":[],"outputs":[{"name":"","type":"uint256","internalType":"uint256"}],"stateMutability":"view"},{"type":"function","name":"reserve1","inputs":[],"outputs":[{"name":"","type":"uint256","internalType":"uint256"}],"stateMutability":"view"},{"type":"function","name":"reserve1CumulativeLast","inputs":[],"outputs":[{"name":"","type":"uint256","internalType":"uint256"}],"stateMutability":"view"},{"type":"function","name":"sample","inputs":[{"name":"tokenIn","type":"address","internalType":"address"},{"name":"amountIn","type":"uint256","internalType":"uint256"},{"name":"points","type":"uint256","internalType":"uint256"},{"name":"window","type":"uint256","internalType":"uint256"}],"outputs":[{"name":"","type":"uint256[]","internalType":"uint256[]"}],"stateMutability":"view"},{"type":"function","name":"setName","inputs":[{"name":"__name","type":"string","internalType":"string"}],"outputs":[],"stateMutability":"nonpayable"},{"type":"function","name":"setSymbol","inputs":[{"name":"__symbol","type":"string","internalType":"string"}],"outputs":[],"stateMutability":"nonpayable"},{"type":"function","name":"skim","inputs":[{"name":"to","type":"address","internalType":"address"}],"outputs":[],"stateMutability":"nonpayable"},{"type":"function","name":"stable","inputs":[],"outputs":[{"name":"","type":"bool","internalType":"bool"}],"stateMutability":"view"},{"type":"function","name":"supplyIndex0","inputs":[{"name":"","type":"address","internalType":"address"}],"outputs":[{"name":"","type":"uint256","internalType":"uint256"}],"stateMutability":"view"},{"type":"function","name":"supplyIndex1","inputs":[{"name":"","type":"address","internalType":"address"}],"outputs":[{"name":"","type":"uint256","internalType":"uint256"}],"stateMutability":"view"},{"type":"function","name":"swap","inputs":[{"name":"amount0Out","type":"uint256","internalType":"uint256"},{"name":"amount1Out","type":"uint256","internalType":"uint256"},{"name":"to","type":"address","internalType":"address"},{"name":"data","type":"bytes","internalType":"bytes"}],"outputs":[],"stateMutability":"nonpayable"},{"type":"function","name":"symbol","inputs":[],"outputs":[{"name":"","type":"string","internalType":"string"}],"stateMutability":"view"},{"type":"function","name":"sync","inputs":[],"outputs":[],"stateMutability":"nonpayable"},{"type":"function","name":"token0","inputs":[],"outputs":[{"name":"","type":"address","internalType":"address"}],"stateMutability":"view"},{"type":"function","name":"token1","inputs":[],"outputs":[{"name":"","type":"address","internalType":"address"}],"stateMutability":"view"},{"type":"function","name":"tokens","inputs":[],"outputs":[{"name":"","type":"address","internalType":"address"},{"name":"","type":"address","internalType":"address"}],"stateMutability":"view"},{"type":"function","name":"totalSupply","inputs":[],"outputs":[{"name":"","type":"uint256","internalType":"uint256"}],"stateMutability":"view"},{"type":"function","name":"transfer","inputs":[{"name":"to","type":"address","internalType":"address"},{"name":"amount","type":"uint256","internalType":"uint256"}],"outputs":[{"name":"","type":"bool","internalType":"bool"}],"stateMutability":"nonpayable"},{"type":"function","name":"transferFrom","inputs":[{"name":"from","type":"address","internalType":"address"},{"name":"to","type":"address","internalType":"address"},{"name":"amount","type":"uint256","internalType":"uint256"}],"outputs":[{"name":"","type":"bool","internalType":"bool"}],"stateMutability":"nonpayable"},{"type":"event","name":"Approval","inputs":[{"name":"owner","type":"address","indexed":true,"internalType":"address"},{"name":"spender","type":"address","indexed":true,"internalType":"address"},{"name":"value","type":"uint256","indexed":false,"internalType":"uint256"}],"anonymous":false},{"type":"event","name":"Burn","inputs":[{"name":"sender","type":"address","indexed":true,"internalType":"address"},{"name":"to","type":"address","indexed":true,"internalType":"address"},{"name":"amount0","type":"uint256","indexed":false,"internalType":"uint256"},{"name":"amount1","type":"uint256","indexed":false,"internalType":"uint256"}],"anonymous":false},{"type":"event","name":"Claim","inputs":[{"name":"sender","type":"address","indexed":true,"internalType":"address"},{"name":"recipient","type":"address","indexed":true,"internalType":"address"},{"name":"amount0","type":"uint256","indexed":false,"internalType":"uint256"},{"name":"amount1","type":"uint256","indexed":false,"internalType":"uint256"}],"anonymous":false},{"type":"event","name":"EIP712DomainChanged","inputs":[],"anonymous":false},{"type":"event","name":"Fees","inputs":[{"name":"sender","type":"address","indexed":true,"internalType":"address"},{"name":"amount0","type":"uint256","indexed":false,"internalType":"uint256"},{"name":"amount1","type":"uint256","indexed":false,"internalType":"uint256"}],"anonymous":false},{"type":"event","name":"Mint","inputs":[{"name":"sender","type":"address","indexed":true,"internalType":"address"},{"name":"amount0","type":"uint256","indexed":false,"internalType":"uint256"},{"name":"amount1","type":"uint256","indexed":false,"internalType":"uint256"}],"anonymous":false},{"type":"event","name":"Swap","inputs":[{"name":"sender","type":"address","indexed":true,"internalType":"address"},{"name":"to","type":"address","indexed":true,"internalType":"address"},{"name":"amount0In","type":"uint256","indexed":false,"internalType":"uint256"},{"name":"amount1In","type":"uint256","indexed":false,"internalType":"uint256"},{"name":"amount0Out","type":"uint256","indexed":false,"internalType":"uint256"},{"name":"amount1Out","type":"uint256","indexed":false,"internalType":"uint256"}],"anonymous":false},{"type":"event","name":"Sync","inputs":[{"name":"reserve0","type":"uint256","indexed":false,"internalType":"uint256"},{"name":"reserve1","type":"uint256","indexed":false,"internalType":"uint256"}],"anonymous":false},{"type":"event","name":"Transfer","inputs":[{"name":"from","type":"address","indexed":true,"internalType":"address"},{"name":"to","type":"address","indexed":true,"internalType":"address"},{"name":"value","type":"uint256","indexed":false,"internalType":"uint256"}],"anonymous":false},{"type":"error","name":"BelowMinimumK","inputs":[]},{"type":"error","name":"DepositsNotEqual","inputs":[]},{"type":"error","name":"FactoryAlreadySet","inputs":[]},{"type":"error","name":"InsufficientInputAmount","inputs":[]},{"type":"error","name":"InsufficientLiquidity","inputs":[]},{"type":"error","name":"InsufficientLiquidityBurned","inputs":[]},{"type":"error","name":"InsufficientLiquidityMinted","inputs":[]},{"type":"error","name":"InsufficientOutputAmount","inputs":[]},{"type":"error","name":"InvalidTo","inputs":[]},{"type":"error","name":"IsPaused","inputs":[]},{"type":"error","name":"K","inputs":[]},{"type":"error","name":"NotEmergencyCouncil","inputs":[]},{"type":"error","name":"StringTooLong","inputs":[{"name":"str","type":"string","internalType":"string"}]}],"bytecode":{"object":"0x6101606040523480156200001257600080fd5b50604080516020808201835260008083528351808501855260018152603160f81b81840152845180840186528281528551938401909552908252919283929160036200005f83826200025f565b5060046200006e82826200025f565b50620000809150839050600562000135565b60e0526200009081600662000135565b61010052815160208084019190912061012052815190820120610140524660a052620001206101205161014051604080517f8b73c3c69bb8fe3d512ecc4cf759cc79239f7b179b0ffacaa9a75d522b39400f60208201529081019290925260608201524660808201523060a082015260009060c00160405160208183030381529060405280519060200120905090565b60805250503060c052506001600955620003a0565b600060208351101562000155576200014d836200016e565b905062000168565b816200016284826200025f565b50600090505b92915050565b600080829050601f81511115620001a5578260405163305a27a960e01b81526004016200019c91906200032b565b60405180910390fd5b8051620001b2826200037b565b179392505050565b634e487b7160e01b600052604160045260246000fd5b600181811c90821680620001e557607f821691505b6020821081036200020657634e487b7160e01b600052602260045260246000fd5b50919050565b601f8211156200025a57600081815260208120601f850160051c81016020861015620002355750805b601f850160051c820191505b81811015620002565782815560010162000241565b5050505b505050565b81516001600160401b038111156200027b576200027b620001ba565b62000293816200028c8454620001d0565b846200020c565b602080601f831160018114620002cb5760008415620002b25750858301515b600019600386901b1c1916600185901b17855562000256565b600085815260208120601f198616915b82811015620002fc57888601518255948401946001909101908401620002db565b50858210156200031b5787850151600019600388901b60f8161c191681555b5050505050600190811b01905550565b600060208083528351808285015260005b818110156200035a578581018301518582016040015282016200033c565b506000604082860101526040601f19601f8301168501019250505092915050565b80516020808301519190811015620002065760001960209190910360031b1b16919050565b60805160a05160c05160e051610100516101205161014051615202620003fb60003960006132320152600061320a01526000611628015260006115fb015260006131620152600061318d015260006131b801526152026000f3fe60806040523480156200001157600080fd5b50600436106200034d5760003560e01c806389afcb4411620001bf578063c245febc11620000fc578063d505accf11620000af578063e4bbb5a81162000086578063e4bbb5a81462000817578063ebeb31db146200082e578063f140a35a1462000837578063fff6cae9146200084e57600080fd5b8063d505accf14620007df578063dd62ed3e14620007f6578063e4463eb2146200080d57600080fd5b8063c245febc1462000782578063c45a0155146200078c578063c47f002714620007a0578063c5700a0214620007b7578063d21220a714620007c1578063d294f09314620007d557600080fd5b8063a1ac4d131162000172578063b84c82461162000149578063b84c82461462000740578063bc25cf771462000757578063bda39cad146200076e578063bf944dbc146200077857600080fd5b8063a1ac4d1314620006ef578063a457c2d71462000712578063a9059cbb146200072957600080fd5b806389afcb44146200062a5780638a7b8cf2146200065757806395d89b4114620006845780639d63848a146200068e5780639e8cc04b14620006b55780639f767c8814620006cc57600080fd5b806332c0defd116200028e5780634d5a9f8a11620002415780636a62784211620002185780636a62784214620005b157806370a0823114620005c85780637ecebe0014620005f457806384b0196e146200060b57600080fd5b80634d5a9f8a146200056d5780635881c47514620005905780635a76f25e14620005a757600080fd5b806332c0defd14620004c15780633358095914620004cb5780633644e51514620004df578063392f37e914620004e957806339509351146200054c578063443cb4bc146200056357600080fd5b806318160ddd116200030457806322be3de111620002db57806322be3de1146200046e57806323b872dd1462000483578063252c09d7146200049a578063313ce56714620004b157600080fd5b806318160ddd146200042e5780631df8c7171462000441578063205aabf1146200044b57600080fd5b8063022c0d9f146200035257806306fdde03146200036b5780630902f1ac146200038d578063095ea7b314620003b35780630dfe168114620003db57806313345fe11462000408575b600080fd5b62000369620003633660046200410c565b62000858565b005b6200037562000ee3565b604051620003849190620041d0565b60405180910390f35b6014546015546016545b6040805193845260208401929092529082015260600162000384565b620003ca620003c4366004620041e5565b62000f7d565b604051901515815260200162000384565b600d54620003ef906001600160a01b031681565b6040516001600160a01b03909116815260200162000384565b6200041f6200041936600462004214565b62000f99565b6040516200038491906200428f565b6002545b60405190815260200162000384565b62000397620011c6565b620004326200045c366004620042a4565b601c6020526000908152604090205481565b600c54620003ca90600160a01b900460ff1681565b620003ca62000494366004620042c4565b62001241565b62000397620004ab3660046200430a565b6200126b565b6040516012815260200162000384565b6200043260195481565b600f54620003ef906001600160a01b031681565b620004326200129f565b601254601354601454601554600c54600d54600e54604080519788526020880196909652948601939093526060850191909152600160a01b900460ff16151560808401526001600160a01b0390811660a08401521660c082015260e00162000384565b620003ca6200055d366004620041e5565b620012b0565b6200043260145481565b620004326200057e366004620042a4565b601d6020526000908152604090205481565b6200041f620005a136600462004324565b620012d8565b6200043260155481565b62000432620005c2366004620042a4565b620012e9565b62000432620005d9366004620042a4565b6001600160a01b031660009081526020819052604090205490565b6200043262000605366004620042a4565b620015cd565b62000615620015ec565b6040516200038497969594939291906200435c565b620006416200063b366004620042a4565b62001679565b6040805192835260208301919091520162000384565b620006616200196f565b604080518251815260208084015190820152918101519082015260600162000384565b62000375620019f5565b600d54600e54604080516001600160a01b0393841681529290911660208301520162000384565b62000432620006c636600462004324565b62001a06565b62000432620006dd366004620042a4565b601b6020526000908152604090205481565b6200043262000700366004620042a4565b601e6020526000908152604090205481565b620003ca62000723366004620041e5565b62001a84565b620003ca6200073a366004620041e5565b62001b14565b6200036962000751366004620043d2565b62001b24565b6200036962000768366004620042a4565b62001be4565b62000432601a5481565b6200043260175481565b6200043260185481565b601054620003ef906001600160a01b031681565b62000369620007b1366004620043d2565b62001d31565b6200043260165481565b600e54620003ef906001600160a01b031681565b6200064162001dec565b62000369620007f036600462004428565b62001efc565b6200043262000807366004620044a0565b6200206c565b6200043261070881565b6200036962000828366004620044ed565b62002097565b60115462000432565b62000432620008483660046200453f565b62002545565b6200036962002615565b620008626200273d565b601060009054906101000a90046001600160a01b03166001600160a01b031663b187bd266040518163ffffffff1660e01b8152600401602060405180830381865afa158015620008b6573d6000803e3d6000fd5b505050506040513d601f19601f82011682018060405250810190620008dc919062004567565b15620008fb57604051631309a56360e01b815260040160405180910390fd5b8415801562000908575083155b1562000927576040516342301c2360e01b815260040160405180910390fd5b60145460155481871015806200093d5750808610155b156200095c5760405163bb55fd2760e01b815260040160405180910390fd5b600d54600e5460009182916001600160a01b0391821691908116908916821480620009985750806001600160a01b0316896001600160a01b0316145b15620009b757604051630521f43160e31b815260040160405180910390fd5b8a15620009d457620009d46001600160a01b0383168a8d62002798565b8915620009f157620009f16001600160a01b0382168a8c62002798565b861562000a6357604051639a7bff7960e01b81526001600160a01b038a1690639a7bff799062000a2e9033908f908f908e908e9060040162004587565b600060405180830381600087803b15801562000a4957600080fd5b505af115801562000a5e573d6000803e3d6000fd5b505050505b6040516370a0823160e01b81523060048201526001600160a01b038316906370a0823190602401602060405180830381865afa15801562000aa8573d6000803e3d6000fd5b505050506040513d601f19601f8201168201806040525081019062000ace9190620045d3565b6040516370a0823160e01b81523060048201529094506001600160a01b038216906370a0823190602401602060405180830381865afa15801562000b16573d6000803e3d6000fd5b505050506040513d601f19601f8201168201806040525081019062000b3c9190620045d3565b925050506000898562000b50919062004603565b831162000b5f57600062000b77565b62000b6b8a8662004603565b62000b77908462004603565b9050600062000b878a8662004603565b831162000b9657600062000bae565b62000ba28a8662004603565b62000bae908462004603565b90508115801562000bbd575080155b1562000bdc5760405163098fb56160e01b815260040160405180910390fd5b600d54600e546001600160a01b039182169116831562000ca157601054600c5460405163cc56b2c560e01b8152306004820152600160a01b90910460ff161515602482015262000ca191612710916001600160a01b039091169063cc56b2c590604401602060405180830381865afa15801562000c5d573d6000803e3d6000fd5b505050506040513d601f19601f8201168201806040525081019062000c839190620045d3565b62000c8f908762004619565b62000c9b919062004649565b620027ec565b821562000d5357601054600c5460405163cc56b2c560e01b8152306004820152600160a01b90910460ff161515602482015262000d5391612710916001600160a01b039091169063cc56b2c590604401602060405180830381865afa15801562000d0f573d6000803e3d6000fd5b505050506040513d601f19601f8201168201806040525081019062000d359190620045d3565b62000d41908662004619565b62000d4d919062004649565b620028a6565b6040516370a0823160e01b81523060048201526001600160a01b038316906370a0823190602401602060405180830381865afa15801562000d98573d6000803e3d6000fd5b505050506040513d601f19601f8201168201806040525081019062000dbe9190620045d3565b6040516370a0823160e01b81523060048201529096506001600160a01b038216906370a0823190602401602060405180830381865afa15801562000e06573d6000803e3d6000fd5b505050506040513d601f19601f8201168201806040525081019062000e2c9190620045d3565b945062000e3a88886200295a565b62000e4687876200295a565b101562000e665760405163a932492f60e01b815260040160405180910390fd5b505062000e768484888862002a79565b60408051838152602081018390529081018c9052606081018b90526001600160a01b038a169033907fb3e2773606abfd36b5bd91394b3a54d1398336c65005baf7bf7a05efeffaf75b9060800160405180910390a350505050505062000edc6001600955565b5050505050565b6060600a805462000ef4906200466c565b80601f016020809104026020016040519081016040528092919081815260200182805462000f22906200466c565b801562000f735780601f1062000f475761010080835404028352916020019162000f73565b820191906000526020600020905b81548152906001019060200180831162000f5557829003601f168201915b5050505050905090565b60003362000f8d81858562002c1f565b60019150505b92915050565b606060008367ffffffffffffffff81111562000fb95762000fb9620046a2565b60405190808252806020026020018201604052801562000fe3578160200160208202803683370190505b5060115490915060009062000ffb9060019062004603565b905060006200100b858762004619565b62001017908362004603565b90506000805b83831015620011b657620010328784620046b8565b91506000601184815481106200104c576200104c620046ce565b90600052602060002090600302016000015460118481548110620010745762001074620046ce565b90600052602060002090600302016000015462001092919062004603565b905060008160118681548110620010ad57620010ad620046ce565b90600052602060002090600302016001015460118681548110620010d557620010d5620046ce565b906000526020600020906003020160010154620010f3919062004603565b620010ff919062004649565b9050600082601187815481106200111a576200111a620046ce565b90600052602060002090600302016002015460118781548110620011425762001142620046ce565b90600052602060002090600302016002015462001160919062004603565b6200116c919062004649565b90506200117c8c8e848462002d47565b888581518110620011915762001191620046ce565b6020908102919091010152505050600101620011ae8784620046b8565b92506200101d565b509293505050505b949350505050565b6017546018544260008080620011e56014546015546016549192909190565b9250925092508381146200123957600062001201828662004603565b90506200120f818562004619565b6200121b9088620046b8565b965062001229818462004619565b620012359087620046b8565b9550505b505050909192565b6000336200125185828562002f1c565b6200125e85858562002f9d565b60019150505b9392505050565b601181815481106200127c57600080fd5b600091825260209091206003909102018054600182015460029092015490925083565b6000620012ab62003155565b905090565b60003362000f8d818585620012c683836200206c565b620012d29190620046b8565b62002c1f565b6060620011be848484600162000f99565b6000620012f56200273d565b601454601554600d546040516370a0823160e01b81523060048201526000916001600160a01b0316906370a0823190602401602060405180830381865afa15801562001345573d6000803e3d6000fd5b505050506040513d601f19601f820116820180604052508101906200136b9190620045d3565b600e546040516370a0823160e01b81523060048201529192506000916001600160a01b03909116906370a0823190602401602060405180830381865afa158015620013ba573d6000803e3d6000fd5b505050506040513d601f19601f82011682018060405250810190620013e09190620045d3565b90506000620013f0858462004603565b9050600062001400858462004603565b905060006200140e60025490565b905080600003620014fe576103e8620014326200142c848662004619565b62003283565b6200143e919062004603565b97506200144f60016103e862003388565b600c54600160a01b900460ff1615620014f8576013546200147983670de0b6b3a764000062004619565b62001485919062004649565b6012546200149c85670de0b6b3a764000062004619565b620014a8919062004649565b14620014c7576040516305026bfd60e11b815260040160405180910390fd5b6402540be400620014d984846200295a565b11620014f8576040516321c69d6f60e11b815260040160405180910390fd5b6200153d565b6200153a876200150f838662004619565b6200151b919062004649565b8762001528848662004619565b62001534919062004649565b62003459565b97505b6103e88810156200156157604051633489be7560e21b815260040160405180910390fd5b6200156d898962003388565b6200157b8585898962002a79565b604080518481526020810184905233917f4c209b5fc8ad50758f13e2e1088ba56a560dff690a1c6fef26394f4c03821c4f910160405180910390a250505050505050620015c86001600955565b919050565b6001600160a01b03811660009081526007602052604081205462000f93565b600060608082808083620016227f0000000000000000000000000000000000000000000000000000000000000000600562003471565b6200164f7f0000000000000000000000000000000000000000000000000000000000000000600662003471565b60408051600080825260208201909252600f60f81b9b939a50919850469750309650945092509050565b600080620016866200273d565b601454601554600d54600e546040516370a0823160e01b81523060048201526001600160a01b03928316929091169060009083906370a0823190602401602060405180830381865afa158015620016e1573d6000803e3d6000fd5b505050506040513d601f19601f82011682018060405250810190620017079190620045d3565b6040516370a0823160e01b81523060048201529091506000906001600160a01b038416906370a0823190602401602060405180830381865afa15801562001752573d6000803e3d6000fd5b505050506040513d601f19601f82011682018060405250810190620017789190620045d3565b3060009081526020819052604090205460025491925090806200179c858462004619565b620017a8919062004649565b995080620017b7848462004619565b620017c3919062004649565b9850891580620017d1575088155b15620017f05760405163749383ad60e01b815260040160405180910390fd5b620017fc308362003522565b620018126001600160a01b0387168c8c62002798565b620018286001600160a01b0386168c8b62002798565b6040516370a0823160e01b81523060048201526001600160a01b038716906370a0823190602401602060405180830381865afa1580156200186d573d6000803e3d6000fd5b505050506040513d601f19601f82011682018060405250810190620018939190620045d3565b6040516370a0823160e01b81523060048201529094506001600160a01b038616906370a0823190602401602060405180830381865afa158015620018db573d6000803e3d6000fd5b505050506040513d601f19601f82011682018060405250810190620019019190620045d3565b92506200191184848a8a62002a79565b604080518b8152602081018b90526001600160a01b038d169133917f5d624aa9c148153ab3446c1b154f660ee7701e549fe9b62dab7171b1c80e6fa2910160405180910390a350505050505050506200196a6001600955565b915091565b6200199460405180606001604052806000815260200160008152602001600081525090565b60118054620019a69060019062004603565b81548110620019b957620019b9620046ce565b90600052602060002090600302016040518060600160405290816000820154815260200160018201548152602001600282015481525050905090565b6060600b805462000ef4906200466c565b60008062001a18858585600162000f99565b8051909150600090815b8181101562001a6c5783818151811062001a405762001a40620046ce565b60200260200101518362001a559190620046b8565b92508062001a6381620046e4565b91505062001a22565b5062001a79858362004649565b979650505050505050565b6000338162001a9482866200206c565b90508381101562001afa5760405162461bcd60e51b815260206004820152602560248201527f45524332303a2064656372656173656420616c6c6f77616e63652062656c6f77604482015264207a65726f60d81b60648201526084015b60405180910390fd5b62001b09828686840362002c1f565b506001949350505050565b60003362000f8d81858562002f9d565b600c60009054906101000a90046001600160a01b03166001600160a01b0316637778960e6040518163ffffffff1660e01b8152600401602060405180830381865afa15801562001b78573d6000803e3d6000fd5b505050506040513d601f19601f8201168201806040525081019062001b9e919062004700565b6001600160a01b0316336001600160a01b03161462001bd05760405163c560129360e01b815260040160405180910390fd5b600b62001bdf82848362004772565b505050565b62001bee6200273d565b600d54600e546014546040516370a0823160e01b81523060048201526001600160a01b03938416939092169162001c8e91859185906370a0823190602401602060405180830381865afa15801562001c4a573d6000803e3d6000fd5b505050506040513d601f19601f8201168201806040525081019062001c709190620045d3565b62001c7c919062004603565b6001600160a01b038516919062002798565b6015546040516370a0823160e01b815230600482015262001d219185916001600160a01b038516906370a0823190602401602060405180830381865afa15801562001cdd573d6000803e3d6000fd5b505050506040513d601f19601f8201168201806040525081019062001d039190620045d3565b62001d0f919062004603565b6001600160a01b038416919062002798565b505062001d2e6001600955565b50565b600c60009054906101000a90046001600160a01b03166001600160a01b0316637778960e6040518163ffffffff1660e01b8152600401602060405180830381865afa15801562001d85573d6000803e3d6000fd5b505050506040513d601f19601f8201168201806040525081019062001dab919062004700565b6001600160a01b0316336001600160a01b03161462001ddd5760405163c560129360e01b815260040160405180910390fd5b600a62001bdf82848362004772565b60008062001dfa3362003666565b5050336000908152601d6020908152604080832054601e909252909120548115158062001e275750600081115b1562001ef857336000818152601d60209081526040808320839055601e90915280822091909155600f54905163299e7ae760e11b8152600481019290925260248201849052604482018390526001600160a01b03169063533cf5ce90606401600060405180830381600087803b15801562001ea157600080fd5b505af115801562001eb6573d6000803e3d6000fd5b505060408051858152602081018590523393508392507f865ca08d59f5cb456e85cd2f7ef63664ea4f73327414e9d8152c4158b0e94645910160405180910390a35b9091565b8342111562001f4e5760405162461bcd60e51b815260206004820152601d60248201527f45524332305065726d69743a206578706972656420646561646c696e65000000604482015260640162001af1565b60007f6e71edae12b1b97f4d1f60370fef10105fa2faae0126114a169c64845d6126c988888862001f7f8c620037d9565b6040805160208101969096526001600160a01b0394851690860152929091166060840152608083015260a082015260c0810186905260e001604051602081830303815290604052805190602001209050600062001fdc8262003801565b9050600062001fee8287878762003831565b9050896001600160a01b0316816001600160a01b031614620020535760405162461bcd60e51b815260206004820152601e60248201527f45524332305065726d69743a20696e76616c6964207369676e61747572650000604482015260640162001af1565b620020608a8a8a62002c1f565b50505050505050505050565b6001600160a01b03918216600090815260016020908152604080832093909416825291909152205490565b6010546001600160a01b031615620020c2576040516302a98a3760e31b815260040160405180910390fd5b601080546001600160a01b03191633908117909155604080516311b25aab60e21b815290516346c96aac916004808201926020929091908290030181865afa15801562002113573d6000803e3d6000fd5b505050506040513d601f19601f8201168201806040525081019062002139919062004700565b600c80546001600160a01b039283166001600160a81b031990911617600160a01b84151502179055600e80546001600160a01b031990811685841617909155600d8054909116918516919091179055604051839083906200219a906200409c565b6001600160a01b03928316815291166020820152604001604051809103906000f080158015620021ce573d6000803e3d6000fd5b50600f60006101000a8154816001600160a01b0302191690836001600160a01b031602179055506000836001600160a01b03166395d89b416040518163ffffffff1660e01b8152600401600060405180830381865afa15801562002236573d6000803e3d6000fd5b505050506040513d6000823e601f3d908101601f191682016040526200226091908101906200483f565b90506000836001600160a01b03166395d89b416040518163ffffffff1660e01b8152600401600060405180830381865afa158015620022a3573d6000803e3d6000fd5b505050506040513d6000823e601f3d908101601f19168201604052620022cd91908101906200483f565b9050821562002346578181604051602001620022eb929190620048ed565b604051602081830303815290604052600a90816200230a919062004948565b5081816040516020016200232092919062004a15565b604051602081830303815290604052600b90816200233f919062004948565b50620023b1565b81816040516020016200235b92919062004a68565b604051602081830303815290604052600a90816200237a919062004948565b5081816040516020016200239092919062004ac5565b604051602081830303815290604052600b9081620023af919062004948565b505b846001600160a01b031663313ce5676040518163ffffffff1660e01b8152600401602060405180830381865afa158015620023f0573d6000803e3d6000fd5b505050506040513d601f19601f8201168201806040525081019062002416919062004ae9565b6200242390600a62004c06565b601281905550836001600160a01b031663313ce5676040518163ffffffff1660e01b8152600401602060405180830381865afa15801562002468573d6000803e3d6000fd5b505050506040513d601f19601f820116820180604052508101906200248e919062004ae9565b6200249b90600a62004c06565b60135550506040805160608101825242815260006020820181815292820181815260118054600181018255925291517f31ecc21a745e3968a04e9570e4425bc18fa8019c68028196b546d1669c200c6860039092029182015591517f31ecc21a745e3968a04e9570e4425bc18fa8019c68028196b546d1669c200c69830155517f31ecc21a745e3968a04e9570e4425bc18fa8019c68028196b546d1669c200c6a90910155505050565b601454601554601054600c5460405163cc56b2c560e01b8152306004820152600160a01b90910460ff16151560248201526000939291612710916001600160a01b039091169063cc56b2c590604401602060405180830381865afa158015620025b2573d6000803e3d6000fd5b505050506040513d601f19601f82011682018060405250810190620025d89190620045d3565b620025e4908762004619565b620025f0919062004649565b620025fc908662004603565b94506200260c8585848462002d47565b95945050505050565b6200261f6200273d565b600254600003620026435760405163bb55fd2760e01b815260040160405180910390fd5b600d546040516370a0823160e01b815230600482015262002730916001600160a01b0316906370a0823190602401602060405180830381865afa1580156200268f573d6000803e3d6000fd5b505050506040513d601f19601f82011682018060405250810190620026b59190620045d3565b600e546040516370a0823160e01b81523060048201526001600160a01b03909116906370a0823190602401602060405180830381865afa158015620026fe573d6000803e3d6000fd5b505050506040513d601f19601f82011682018060405250810190620027249190620045d3565b60145460155462002a79565b6200273b6001600955565b565b600260095403620027915760405162461bcd60e51b815260206004820152601f60248201527f5265656e7472616e637947756172643a207265656e7472616e742063616c6c00604482015260640162001af1565b6002600955565b604080516001600160a01b038416602482015260448082018490528251808303909101815260649091019091526020810180516001600160e01b031663a9059cbb60e01b17905262001bdf9084906200385d565b80600003620027f85750565b600f54600d5462002817916001600160a01b0391821691168362002798565b60006200282360025490565b6200283783670de0b6b3a764000062004619565b62002843919062004649565b9050801562002866578060196000828254620028609190620046b8565b90915550505b604080518381526000602082015233917f112c256902bf554b6ed882d2936687aaeb4225e8cd5b51303c90ca6cf43a860291015b60405180910390a25050565b80600003620028b25750565b600f54600e54620028d1916001600160a01b0391821691168362002798565b6000620028dd60025490565b620028f183670de0b6b3a764000062004619565b620028fd919062004649565b90508015620029205780601a60008282546200291a9190620046b8565b90915550505b60408051600081526020810184905233917f112c256902bf554b6ed882d2936687aaeb4225e8cd5b51303c90ca6cf43a860291016200289a565b600c54600090600160a01b900460ff161562002a65576012546000906200298a85670de0b6b3a764000062004619565b62002996919062004649565b9050600060135484670de0b6b3a7640000620029b3919062004619565b620029bf919062004649565b90506000670de0b6b3a7640000620029d8838562004619565b620029e4919062004649565b90506000670de0b6b3a7640000620029fd848062004619565b62002a09919062004649565b670de0b6b3a764000062002a1e868062004619565b62002a2a919062004649565b62002a369190620046b8565b9050670de0b6b3a764000062002a4d828462004619565b62002a59919062004649565b94505050505062000f93565b62002a71828462004619565b905062000f93565b601654429060009062002a8d908362004603565b905060008111801562002a9f57508315155b801562002aab57508215155b1562002afb5762002abd818562004619565b6017600082825462002ad09190620046b8565b9091555062002ae29050818462004619565b6018600082825462002af59190620046b8565b90915550505b600062002b076200196f565b805190915062002b18908462004603565b915061070882111562002bce5760408051606081018252848152601754602082019081526018549282019283526011805460018101825560009190915291517f31ecc21a745e3968a04e9570e4425bc18fa8019c68028196b546d1669c200c68600390930292830155517f31ecc21a745e3968a04e9570e4425bc18fa8019c68028196b546d1669c200c6982015590517f31ecc21a745e3968a04e9570e4425bc18fa8019c68028196b546d1669c200c6a909101555b60148790556015869055601683905560408051888152602081018890527fcf2aa50876cdfbb541206f89af0ee78d44a2abf8d328e37fa4917f982149848a910160405180910390a150505050505050565b6001600160a01b03831662002c835760405162461bcd60e51b8152602060048201526024808201527f45524332303a20617070726f76652066726f6d20746865207a65726f206164646044820152637265737360e01b606482015260840162001af1565b6001600160a01b03821662002ce65760405162461bcd60e51b815260206004820152602260248201527f45524332303a20617070726f766520746f20746865207a65726f206164647265604482015261737360f01b606482015260840162001af1565b6001600160a01b0383811660008181526001602090815260408083209487168084529482529182902085905590518481527f8c5be1e5ebec7d5bd14f71427d1e84f3dd0314c0f7b2291e5b200ac8c7c3b925910160405180910390a3505050565b600c54600090600160a01b900460ff161562002ec357600062002d6b84846200295a565b60125490915062002d8585670de0b6b3a764000062004619565b62002d91919062004649565b60135490945062002dab84670de0b6b3a764000062004619565b62002db7919062004649565b600d5490935060009081906001600160a01b0388811691161462002ddd57848662002de0565b85855b600d5491935091506001600160a01b0388811691161462002e245760135462002e1289670de0b6b3a764000062004619565b62002e1e919062004649565b62002e47565b60125462002e3b89670de0b6b3a764000062004619565b62002e47919062004649565b9750600062002e6362002e5b848b620046b8565b858462003936565b62002e6f908362004603565b600d54909150670de0b6b3a7640000906001600160a01b038a811691161462002e9b5760125462002e9f565b6013545b62002eab908362004619565b62002eb7919062004649565b945050505050620011be565b600d5460009081906001600160a01b0387811691161462002ee657838562002ee9565b84845b909250905062002efa8783620046b8565b62002f06828962004619565b62002f12919062004649565b92505050620011be565b600062002f2a84846200206c565b9050600019811462002f97578181101562002f885760405162461bcd60e51b815260206004820152601d60248201527f45524332303a20696e73756666696369656e7420616c6c6f77616e6365000000604482015260640162001af1565b62002f97848484840362002c1f565b50505050565b6001600160a01b038316620030035760405162461bcd60e51b815260206004820152602560248201527f45524332303a207472616e736665722066726f6d20746865207a65726f206164604482015264647265737360d81b606482015260840162001af1565b6001600160a01b038216620030675760405162461bcd60e51b815260206004820152602360248201527f45524332303a207472616e7366657220746f20746865207a65726f206164647260448201526265737360e81b606482015260840162001af1565b6200307483838362003adc565b6001600160a01b03831660009081526020819052604090205481811015620030ee5760405162461bcd60e51b815260206004820152602660248201527f45524332303a207472616e7366657220616d6f756e7420657863656564732062604482015265616c616e636560d01b606482015260840162001af1565b6001600160a01b03848116600081815260208181526040808320878703905593871680835291849020805487019055925185815290927fddf252ad1be2c89b69c2b068fc378daa952ba7f163c4a11628f55a4df523b3ef910160405180910390a362002f97565b6000306001600160a01b037f000000000000000000000000000000000000000000000000000000000000000016148015620031af57507f000000000000000000000000000000000000000000000000000000000000000046145b15620031da57507f000000000000000000000000000000000000000000000000000000000000000090565b620012ab604080517f8b73c3c69bb8fe3d512ecc4cf759cc79239f7b179b0ffacaa9a75d522b39400f60208201527f0000000000000000000000000000000000000000000000000000000000000000918101919091527f000000000000000000000000000000000000000000000000000000000000000060608201524660808201523060a082015260009060c00160405160208183030381529060405280519060200120905090565b6000816000036200329657506000919050565b60006001620032a58462003af2565b901c6001901b90506001818481620032c157620032c162004633565b048201901c90506001818481620032dc57620032dc62004633565b048201901c90506001818481620032f757620032f762004633565b048201901c9050600181848162003312576200331262004633565b048201901c905060018184816200332d576200332d62004633565b048201901c9050600181848162003348576200334862004633565b048201901c9050600181848162003363576200336362004633565b048201901c9050620012648182858162003381576200338162004633565b0462003459565b6001600160a01b038216620033e05760405162461bcd60e51b815260206004820152601f60248201527f45524332303a206d696e7420746f20746865207a65726f206164647265737300604482015260640162001af1565b620033ee6000838362003adc565b8060026000828254620034029190620046b8565b90915550506001600160a01b038216600081815260208181526040808320805486019055518481527fddf252ad1be2c89b69c2b068fc378daa952ba7f163c4a11628f55a4df523b3ef910160405180910390a35050565b60008183106200346a578162001264565b5090919050565b606060ff831615620034885762002a718362003b8e565b81805462003496906200466c565b80601f0160208091040260200160405190810160405280929190818152602001828054620034c4906200466c565b8015620035155780601f10620034e95761010080835404028352916020019162003515565b820191906000526020600020905b815481529060010190602001808311620034f757829003601f168201915b5050505050905062000f93565b6001600160a01b038216620035845760405162461bcd60e51b815260206004820152602160248201527f45524332303a206275726e2066726f6d20746865207a65726f206164647265736044820152607360f81b606482015260840162001af1565b620035928260008362003adc565b6001600160a01b03821660009081526020819052604090205481811015620036085760405162461bcd60e51b815260206004820152602260248201527f45524332303a206275726e20616d6f756e7420657863656564732062616c616e604482015261636560f01b606482015260840162001af1565b6001600160a01b0383166000818152602081815260408083208686039055600280548790039055518581529192917fddf252ad1be2c89b69c2b068fc378daa952ba7f163c4a11628f55a4df523b3ef910160405180910390a3505050565b6001600160a01b0381166000908152602081905260409020548015620037a7576001600160a01b0382166000908152601b602090815260408083208054601c8085529285208054601954601a54948190559490955282905593620036cb858462004603565b90506000620036db858462004603565b905081156200373d576000670de0b6b3a7640000620036fb848a62004619565b62003707919062004649565b6001600160a01b038a166000908152601d602052604081208054929350839290919062003736908490620046b8565b9091555050505b80156200379d576000670de0b6b3a76400006200375b838a62004619565b62003767919062004649565b6001600160a01b038a166000908152601e602052604081208054929350839290919062003796908490620046b8565b9091555050505b5050505050505050565b6019546001600160a01b0383166000908152601b6020908152604080832093909355601a54601c909152919020555050565b6001600160a01b03811660009081526007602052604090208054600181018255905b50919050565b600062000f936200381162003155565b8360405161190160f01b8152600281019290925260228201526042902090565b6000806000620038448787878762003bc3565b91509150620038538162003c8c565b5095945050505050565b6000620038b4826040518060400160405280602081526020017f5361666545524332303a206c6f772d6c6576656c2063616c6c206661696c6564815250856001600160a01b031662003de99092919063ffffffff16565b80519091501562001bdf5780806020019051810190620038d5919062004567565b62001bdf5760405162461bcd60e51b815260206004820152602a60248201527f5361666545524332303a204552433230206f7065726174696f6e20646964206e6044820152691bdd081cdd58d8d9595960b21b606482015260840162001af1565b6000805b60ff81101562003aad57600062003952868562003dfa565b90508481101562003a075760006200396b878662003e93565b62003977838862004603565b6200398b90670de0b6b3a764000062004619565b62003997919062004649565b905080600003620039f257858203620039b65784935050505062001264565b85620039cf88620039c9886001620046b8565b6200295a565b1115620039ee57620039e3856001620046b8565b935050505062001264565b5060015b620039fe8186620046b8565b94505062003a97565b600062003a15878662003e93565b62003a21878462004603565b62003a3590670de0b6b3a764000062004619565b62003a41919062004649565b90508060000362003a87578582148062003a7157508562003a6f8862003a6960018962004603565b62003dfa565b105b1562003a835784935050505062001264565b5060015b62003a93818662004603565b9450505b508062003aa481620046e4565b9150506200393a565b5060405162461bcd60e51b8152602060048201526002602482015261217960f01b604482015260640162001af1565b62003ae78362003666565b62001bdf8262003666565b600080608083901c1562003b0857608092831c92015b604083901c1562003b1b57604092831c92015b602083901c1562003b2e57602092831c92015b601083901c1562003b4157601092831c92015b600883901c1562003b5457600892831c92015b600483901c1562003b6757600492831c92015b600283901c1562003b7a57600292831c92015b600183901c1562000f935760010192915050565b60408051602080825281830190925260609160ff84169160009180820181803683375050509182525060208101929092525090565b6000807f7fffffffffffffffffffffffffffffff5d576e7357a4501ddfe92f46681b20a083111562003bfc575060009050600362003c83565b6040805160008082526020820180845289905260ff881692820192909252606081018690526080810185905260019060a0016020604051602081039080840390855afa15801562003c51573d6000803e3d6000fd5b5050604051601f1901519150506001600160a01b03811662003c7c5760006001925092505062003c83565b9150600090505b94509492505050565b600081600481111562003ca35762003ca362004c17565b0362003cac5750565b600181600481111562003cc35762003cc362004c17565b0362003d125760405162461bcd60e51b815260206004820152601860248201527f45434453413a20696e76616c6964207369676e61747572650000000000000000604482015260640162001af1565b600281600481111562003d295762003d2962004c17565b0362003d785760405162461bcd60e51b815260206004820152601f60248201527f45434453413a20696e76616c6964207369676e6174757265206c656e67746800604482015260640162001af1565b600381600481111562003d8f5762003d8f62004c17565b0362001d2e5760405162461bcd60e51b815260206004820152602260248201527f45434453413a20696e76616c6964207369676e6174757265202773272076616c604482015261756560f01b606482015260840162001af1565b6060620011be848460008562003f23565b600080670de0b6b3a764000062003e12848662004619565b62003e1e919062004649565b90506000670de0b6b3a764000062003e37858062004619565b62003e43919062004649565b670de0b6b3a764000062003e58878062004619565b62003e64919062004649565b62003e709190620046b8565b9050670de0b6b3a764000062003e87828462004619565b6200260c919062004649565b6000670de0b6b3a7640000838162003eac828062004619565b62003eb8919062004649565b62003ec4919062004619565b62003ed0919062004649565b670de0b6b3a76400008062003ee6858062004619565b62003ef2919062004649565b62003eff86600362004619565b62003f0b919062004619565b62003f17919062004649565b620012649190620046b8565b60608247101562003f865760405162461bcd60e51b815260206004820152602660248201527f416464726573733a20696e73756666696369656e742062616c616e636520666f6044820152651c8818d85b1b60d21b606482015260840162001af1565b600080866001600160a01b0316858760405162003fa4919062004c2d565b60006040518083038185875af1925050503d806000811462003fe3576040519150601f19603f3d011682016040523d82523d6000602084013e62003fe8565b606091505b509150915062001a7987838387606083156200406957825160000362004061576001600160a01b0385163b620040615760405162461bcd60e51b815260206004820152601d60248201527f416464726573733a2063616c6c20746f206e6f6e2d636f6e7472616374000000604482015260640162001af1565b5081620011be565b620011be8383815115620040805781518083602001fd5b8060405162461bcd60e51b815260040162001af19190620041d0565b6105818062004c4c83390190565b6001600160a01b038116811462001d2e57600080fd5b60008083601f840112620040d357600080fd5b50813567ffffffffffffffff811115620040ec57600080fd5b6020830191508360208285010111156200410557600080fd5b9250929050565b6000806000806000608086880312156200412557600080fd5b853594506020860135935060408601356200414081620040aa565b9250606086013567ffffffffffffffff8111156200415d57600080fd5b6200416b88828901620040c0565b969995985093965092949392505050565b60005b83811015620041995781810151838201526020016200417f565b50506000910152565b60008151808452620041bc8160208601602086016200417c565b601f01601f19169290920160200192915050565b602081526000620012646020830184620041a2565b60008060408385031215620041f957600080fd5b82356200420681620040aa565b946020939093013593505050565b600080600080608085870312156200422b57600080fd5b84356200423881620040aa565b966020860135965060408601359560600135945092505050565b600081518084526020808501945080840160005b83811015620042845781518752958201959082019060010162004266565b509495945050505050565b60208152600062001264602083018462004252565b600060208284031215620042b757600080fd5b81356200126481620040aa565b600080600060608486031215620042da57600080fd5b8335620042e781620040aa565b92506020840135620042f981620040aa565b929592945050506040919091013590565b6000602082840312156200431d57600080fd5b5035919050565b6000806000606084860312156200433a57600080fd5b83356200434781620040aa565b95602085013595506040909401359392505050565b60ff60f81b8816815260e0602082015260006200437d60e0830189620041a2565b8281036040840152620043918189620041a2565b606084018890526001600160a01b038716608085015260a0840186905283810360c08501529050620043c4818562004252565b9a9950505050505050505050565b60008060208385031215620043e657600080fd5b823567ffffffffffffffff811115620043fe57600080fd5b6200440c85828601620040c0565b90969095509350505050565b60ff8116811462001d2e57600080fd5b600080600080600080600060e0888a0312156200444457600080fd5b87356200445181620040aa565b965060208801356200446381620040aa565b955060408801359450606088013593506080880135620044838162004418565b9699959850939692959460a0840135945060c09093013592915050565b60008060408385031215620044b457600080fd5b8235620044c181620040aa565b91506020830135620044d381620040aa565b809150509250929050565b801515811462001d2e57600080fd5b6000806000606084860312156200450357600080fd5b83356200451081620040aa565b925060208401356200452281620040aa565b915060408401356200453481620044de565b809150509250925092565b600080604083850312156200455357600080fd5b823591506020830135620044d381620040aa565b6000602082840312156200457a57600080fd5b81516200126481620044de565b60018060a01b038616815284602082015283604082015260806060820152816080820152818360a0830137600081830160a090810191909152601f909201601f19160101949350505050565b600060208284031215620045e657600080fd5b5051919050565b634e487b7160e01b600052601160045260246000fd5b8181038181111562000f935762000f93620045ed565b808202811582820484141762000f935762000f93620045ed565b634e487b7160e01b600052601260045260246000fd5b6000826200466757634e487b7160e01b600052601260045260246000fd5b500490565b600181811c908216806200468157607f821691505b602082108103620037fb57634e487b7160e01b600052602260045260246000fd5b634e487b7160e01b600052604160045260246000fd5b8082018082111562000f935762000f93620045ed565b634e487b7160e01b600052603260045260246000fd5b600060018201620046f957620046f9620045ed565b5060010190565b6000602082840312156200471357600080fd5b81516200126481620040aa565b601f82111562001bdf57600081815260208120601f850160051c81016020861015620047495750805b601f850160051c820191505b818110156200476a5782815560010162004755565b505050505050565b67ffffffffffffffff8311156200478d576200478d620046a2565b620047a5836200479e83546200466c565b8362004720565b6000601f841160018114620047dc5760008515620047c35750838201355b600019600387901b1c1916600186901b17835562000edc565b600083815260209020601f19861690835b828110156200480f5786850135825560209485019460019092019101620047ed565b50868210156200482d5760001960f88860031b161c19848701351681555b505060018560011b0183555050505050565b6000602082840312156200485257600080fd5b815167ffffffffffffffff808211156200486b57600080fd5b818401915084601f8301126200488057600080fd5b815181811115620048955762004895620046a2565b604051601f8201601f19908116603f01168101908382118183101715620048c057620048c0620046a2565b81604052828152876020848701011115620048da57600080fd5b62001a798360208301602088016200417c565b6e029ba30b13632ab191020a6a690169608d1b8152600083516200491981600f8501602088016200417c565b602f60f81b600f9184019182015283516200493c8160108401602088016200417c565b01601001949350505050565b815167ffffffffffffffff811115620049655762004965620046a2565b6200497d816200497684546200466c565b8462004720565b602080601f831160018114620049b557600084156200499c5750858301515b600019600386901b1c1916600185901b1785556200476a565b600085815260208120601f198616915b82811015620049e657888601518255948401946001909101908401620049c5565b508582101562004a055787850151600019600388901b60f8161c191681555b5050505050600190811b01905550565b6673414d4d56322d60c81b81526000835162004a398160078501602088016200417c565b602f60f81b600791840191820152835162004a5c8160088401602088016200417c565b01600801949350505050565b7002b37b630ba34b632ab191020a6a690169607d1b81526000835162004a968160118501602088016200417c565b602f60f81b601191840191820152835162004ab98160128401602088016200417c565b01601201949350505050565b6676414d4d56322d60c81b81526000835162004a398160078501602088016200417c565b60006020828403121562004afc57600080fd5b8151620012648162004418565b600181815b8085111562004b4a57816000190482111562004b2e5762004b2e620045ed565b8085161562004b3c57918102915b93841c939080029062004b0e565b509250929050565b60008262004b635750600162000f93565b8162004b725750600062000f93565b816001811462004b8b576002811462004b965762004bb6565b600191505062000f93565b60ff84111562004baa5762004baa620045ed565b50506001821b62000f93565b5060208310610133831016604e8410600b841016171562004bdb575081810a62000f93565b62004be7838362004b09565b806000190482111562004bfe5762004bfe620045ed565b029392505050565b60006200126460ff84168362004b52565b634e487b7160e01b600052602160045260246000fd5b6000825162004c418184602087016200417c565b919091019291505056fe60e060405234801561001057600080fd5b5060405161058138038061058183398101604081905261002f91610066565b336080526001600160a01b0391821660a0521660c052610099565b80516001600160a01b038116811461006157600080fd5b919050565b6000806040838503121561007957600080fd5b6100828361004a565b91506100906020840161004a565b90509250929050565b60805160a05160c0516104bc6100c5600039600060db0152600060a101526000605001526104bc6000f3fe608060405234801561001057600080fd5b506004361061002b5760003560e01c8063533cf5ce14610030575b600080fd5b61004361003e3660046103a9565b610045565b005b336001600160a01b037f0000000000000000000000000000000000000000000000000000000000000000161461008e57604051636f61f64160e01b815260040160405180910390fd5b81156100c8576100c86001600160a01b037f0000000000000000000000000000000000000000000000000000000000000000168484610107565b8015610102576101026001600160a01b037f0000000000000000000000000000000000000000000000000000000000000000168483610107565b505050565b604080516001600160a01b03848116602483015260448083018590528351808403909101815260649092018352602080830180516001600160e01b031663a9059cbb60e01b17905283518085019094528084527f5361666545524332303a206c6f772d6c6576656c2063616c6c206661696c65649084015261010292869291600091610197918516908490610219565b80519091501561010257808060200190518101906101b591906103ea565b6101025760405162461bcd60e51b815260206004820152602a60248201527f5361666545524332303a204552433230206f7065726174696f6e20646964206e6044820152691bdd081cdd58d8d9595960b21b60648201526084015b60405180910390fd5b60606102288484600085610230565b949350505050565b6060824710156102915760405162461bcd60e51b815260206004820152602660248201527f416464726573733a20696e73756666696369656e742062616c616e636520666f6044820152651c8818d85b1b60d21b6064820152608401610210565b600080866001600160a01b031685876040516102ad9190610437565b60006040518083038185875af1925050503d80600081146102ea576040519150601f19603f3d011682016040523d82523d6000602084013e6102ef565b606091505b50915091506103008783838761030b565b979650505050505050565b6060831561037a578251600003610373576001600160a01b0385163b6103735760405162461bcd60e51b815260206004820152601d60248201527f416464726573733a2063616c6c20746f206e6f6e2d636f6e74726163740000006044820152606401610210565b5081610228565b610228838381511561038f5781518083602001fd5b8060405162461bcd60e51b81526004016102109190610453565b6000806000606084860312156103be57600080fd5b83356001600160a01b03811681146103d557600080fd5b95602085013595506040909401359392505050565b6000602082840312156103fc57600080fd5b8151801515811461040c57600080fd5b9392505050565b60005b8381101561042e578181015183820152602001610416565b50506000910152565b60008251610449818460208701610413565b9190910192915050565b6020815260008251806020840152610472816040850160208701610413565b601f01601f1916919091016040019291505056fea2646970667358221220c7dab60227f495ac6c04e6fcdb9ce2349e1d85559723274022b72beec6a0ed8c64736f6c63430008130033a264697066735822122047046b46f9200c887dee19426b05778457a62807dcd97bcaa73695e0dbb9d51d64736f6c63430008130033","linkReferences":{}},"methodIdentifiers":{"DOMAIN_SEPARATOR()":"3644e515","allowance(address,address)":"dd62ed3e","approve(address,uint256)":"095ea7b3","balanceOf(address)":"70a08231","blockTimestampLast()":"c5700a02","burn(address)":"89afcb44","claimFees()":"d294f093","claimable0(address)":"4d5a9f8a","claimable1(address)":"a1ac4d13","currentCumulativePrices()":"1df8c717","decimals()":"313ce567","decreaseAllowance(address,uint256)":"a457c2d7","eip712Domain()":"84b0196e","factory()":"c45a0155","getAmountOut(uint256,address)":"f140a35a","getReserves()":"0902f1ac","increaseAllowance(address,uint256)":"39509351","index0()":"32c0defd","index1()":"bda39cad","initialize(address,address,bool)":"e4bbb5a8","lastObservation()":"8a7b8cf2","metadata()":"392f37e9","mint(address)":"6a627842","name()":"06fdde03","nonces(address)":"7ecebe00","observationLength()":"ebeb31db","observations(uint256)":"252c09d7","periodSize()":"e4463eb2","permit(address,address,uint256,uint256,uint8,bytes32,bytes32)":"d505accf","poolFees()":"33580959","prices(address,uint256,uint256)":"5881c475","quote(address,uint256,uint256)":"9e8cc04b","reserve0()":"443cb4bc","reserve0CumulativeLast()":"bf944dbc","reserve1()":"5a76f25e","reserve1CumulativeLast()":"c245febc","sample(address,uint256,uint256,uint256)":"13345fe1","setName(string)":"c47f0027","setSymbol(string)":"b84c8246","skim(address)":"bc25cf77","stable()":"22be3de1","supplyIndex0(address)":"9f767c88","supplyIndex1(address)":"205aabf1","swap(uint256,uint256,address,bytes)":"022c0d9f","symbol()":"95d89b41","sync()":"fff6cae9","token0()":"0dfe1681","token1()":"d21220a7","tokens()":"9d63848a","totalSupply()":"18160ddd","transfer(address,uint256)":"a9059cbb","transferFrom(address,address,uint256)":"23b872dd"},"id":2}