{"abi":[{"type":"function","name":"createRewards","inputs":[{"name":"_forwarder","type":"address","internalType":"address"},{"name":"_voter","type":"address","internalType":"address"}],"outputs":[{"name":"lockedManagedReward","type":"address","internalType":"address"},{"name":"freeManagedReward","type":"address","internalType":"address"}],"stateMutability":"nonpayable"},{"type":"event","name":"ManagedRewardCreated","inputs":[{"name":"voter","type":"address","indexed":true,"internalType":"address"},{"name":"lockedManagedReward","type":"address","indexed":true,"internalType":"address"},{"name":"freeManagedReward","type":"address","indexed":true,"internalType":"address"}],"anonymous":false}],"bytecode":{"object":"0x608060405234801561001057600080fd5b5061370a806100206000396000f3fe608060405234801561001057600080fd5b506004361061002b5760003560e01c8063dabc8e8314610030575b600080fd5b61004361003e366004610179565b610067565b604080516001600160a01b0393841681529290911660208301520160405180910390f35b600080838360405161007890610143565b6001600160a01b03928316815291166020820152604001604051809103906000f0801580156100ab573d6000803e3d6000fd5b50915083836040516100bc90610150565b6001600160a01b03928316815291166020820152604001604051809103906000f0801580156100ef573d6000803e3d6000fd5b509050806001600160a01b0316826001600160a01b0316846001600160a01b03167f951f6f2ffc705efc870b0c6023fb94c7edece24c87077884b6d08a5cd44e6aa760405160405180910390a49250929050565b611a80806101ad83390190565b611aa880611c2d83390190565b80356001600160a01b038116811461017457600080fd5b919050565b6000806040838503121561018c57600080fd5b6101958361015d565b91506101a36020840161015d565b9050925092905056fe60e06040523480156200001157600080fd5b5060405162001a8038038062001a80833981016040819052620000349162000240565b6001600160a01b038083166080526001600055811660a081905260408051630fc2838b60e11b81529051849284928492849291631f8507169160048083019260209291908290030181865afa15801562000092573d6000803e3d6000fd5b505050506040513d601f19601f82011682018060405250810190620000b8919062000278565b6001600160a01b031660c0816001600160a01b03168152505050506000816001600160a01b0316631f8507166040518163ffffffff1660e01b8152600401602060405180830381865afa15801562000114573d6000803e3d6000fd5b505050506040513d601f19601f820116820180604052508101906200013a919062000278565b90506000816001600160a01b031663fc0c546a6040518163ffffffff1660e01b8152600401602060405180830381865afa1580156200017d573d6000803e3d6000fd5b505050506040513d601f19601f82011682018060405250810190620001a3919062000278565b6006805460018082019092557ff652222313e28459528d920b65115c16c04f3efc82aaedc97be59f3f377c0d3f0180546001600160a01b03199081166001600160a01b03948516908117909255600091825260076020526040909120805460ff1916831790558154169390911692909217909155506200029d9350505050565b80516001600160a01b03811681146200023b57600080fd5b919050565b600080604083850312156200025457600080fd5b6200025f8362000223565b91506200026f6020840162000223565b90509250929050565b6000602082840312156200028b57600080fd5b620002968262000223565b9392505050565b60805160a05160c051611790620002f06000396000818161017d01528181610968015281816109ba01528181610b980152610c0c015260006101e20152600081816102ae0152610cfc01526117906000f3fe608060405234801561001057600080fd5b506004361061014d5760003560e01c806392777b29116100c3578063e8111a121161007c578063e8111a121461037f578063f25e55a514610388578063f301af42146103b3578063f3207723146103c6578063f5f8d365146103d9578063f7412baf146103ec57600080fd5b806392777b29146102f15780639cc7f7081461031c5780639e2bf22c1461033c578063a28d4c9c14610351578063b66503cf14610364578063e68863961461037757600080fd5b806346c96aac1161011557806346c96aac146101dd57806349dcc204146102045780634d5ce0381461024b578063505897931461027e578063572b6c051461029e57806376f4be36146102de57600080fd5b806318160ddd146101525780631be052891461016e5780631f850716146101785780633e491d47146101b7578063456cb7c6146101ca575b600080fd5b61015b60025481565b6040519081526020015b60405180910390f35b61015b62093a8081565b61019f7f000000000000000000000000000000000000000000000000000000000000000081565b6040516001600160a01b039091168152602001610165565b61015b6101c5366004611499565b610413565b60015461019f906001600160a01b031681565b61019f7f000000000000000000000000000000000000000000000000000000000000000081565b6102366102123660046114c5565b60086020908152600092835260408084209091529082529020805460019091015482565b60408051928352602083019190915201610165565b61026e6102593660046114e7565b60076020526000908152604090205460ff1681565b6040519015158152602001610165565b61015b61028c366004611504565b60096020526000908152604090205481565b61026e6102ac3660046114e7565b7f00000000000000000000000000000000000000000000000000000000000000006001600160a01b0390811691161490565b61015b6102ec366004611504565b6105f9565b61015b6102ff366004611499565b600460209081526000928352604080842090915290825290205481565b61015b61032a366004611504565b60036020526000908152604090205481565b61034f61034a3660046114c5565b61072d565b005b61015b61035f3660046114c5565b61080d565b61034f610372366004611499565b610952565b60065461015b565b61015b600b5481565b61015b610396366004611499565b600560209081526000928352604080842090915290825290205481565b61019f6103c1366004611504565b610a85565b61034f6103d43660046114c5565b610aaf565b61034f6103e7366004611533565b610b82565b6102366103fa366004611504565b600a602052600090815260409020805460019091015482565b6000818152600960205260408120548103610430575060006105f3565b6001600160a01b038316600090815260056020908152604080832085845290915281205460019062093a80810690038261046a868361080d565b60008781526008602090815260408083208484528252918290208251808401909352805480845260019091015491830191909152919250906104b590849062093a8081069003610ce2565b9250600062093a806104cc8542838106900361161a565b6104d6919061162d565b905080156105ea5760005b818110156105e8576105068960016104fc62093a808961164f565b61035f919061161a565b60008a815260086020908152604080832084845282528083208151808301909252805482526001908101549282019290925292965091945061057a91600a91906105619061055762093a808b61164f565b6102ec919061161a565b8152602001908152602001600020600101546001610ce2565b6001600160a01b038b1660009081526004602090815260408083208984528252909120549085015191975087916105b19190611662565b6105bb919061162d565b6105c5908861164f565b96506105d462093a808661164f565b9450806105e081611679565b9150506104e1565b505b50939450505050505b92915050565b600b5460009080820361060f5750600092915050565b82600a600061061f60018561161a565b815260200190815260200160002060000154116106485761064160018261161a565b9392505050565b60008052600a6020527f13da86008ba1c6922daee3e07db95305ef49ebced9f5467a0b8613fcc6b343e3548310156106835750600092915050565b60008061069160018461161a565b90505b8181111561072557600060026106aa848461161a565b6106b4919061162d565b6106be908361161a565b6000818152600a60209081526040918290208251808401909352805480845260019091015491830191909152919250908790036106ff575095945050505050565b80518711156107105781935061071e565b61071b60018361161a565b92505b5050610694565b509392505050565b6000610737610cf8565b6001549091506001600160a01b038083169116146107685760405163ea8e4eb560e01b815260040160405180910390fd5b826002600082825461077a919061161a565b90915550506000828152600360205260408120805485929061079d90849061161a565b90915550506000828152600360205260409020546107bc908390610d3c565b6107c4610e46565b81816001600160a01b03167ff279e6a1f5e320cca91135676d9cb6e44ca8a08c0b88342bcdb1144f6511b5688560405161080091815260200190565b60405180910390a3505050565b60008281526009602052604081205480820361082d5760009150506105f3565b6000848152600860205260408120849161084860018561161a565b815260200190815260200160002060000154116108725761086a60018261161a565b9150506105f3565b600084815260086020908152604080832083805290915290205483101561089d5760009150506105f3565b6000806108ab60018461161a565b90505b8181111561094957600060026108c4848461161a565b6108ce919061162d565b6108d8908361161a565b6000888152600860209081526040808320848452825291829020825180840190935280548084526001909101549183019190915291925090879003610923575093506105f392505050565b805187111561093457819350610942565b61093f60018361161a565b92505b50506108ae565b50949350505050565b61095a610efe565b6000610964610cf8565b90507f00000000000000000000000000000000000000000000000000000000000000006001600160a01b0316816001600160a01b0316146109b8576040516306b746df60e51b815260040160405180910390fd5b7f00000000000000000000000000000000000000000000000000000000000000006001600160a01b031663fc0c546a6040518163ffffffff1660e01b8152600401602060405180830381865afa158015610a16573d6000803e3d6000fd5b505050506040513d601f19601f82011682018060405250810190610a3a9190611692565b6001600160a01b0316836001600160a01b031614610a6b57604051630b9eb1c560e41b815260040160405180910390fd5b610a76818484610f5c565b50610a816001600055565b5050565b60068181548110610a9557600080fd5b6000918252602090912001546001600160a01b0316905081565b6000610ab9610cf8565b6001549091506001600160a01b03808316911614610aea5760405163ea8e4eb560e01b815260040160405180910390fd5b8260026000828254610afc919061164f565b909155505060008281526003602052604081208054859290610b1f90849061164f565b9091555050600082815260036020526040902054610b3e908390610d3c565b610b46610e46565b81816001600160a01b03167f90890809c654f11d6e72a28fa60149770a0d11ec6c92319d6ceb2bb0a4ea1a158560405161080091815260200190565b610b8a610efe565b6000610b94610cf8565b90507f00000000000000000000000000000000000000000000000000000000000000006001600160a01b0316816001600160a01b031614610be8576040516306b746df60e51b815260040160405180910390fd5b8151600114610c0a5760405163801f099f60e01b815260040160405180910390fd5b7f00000000000000000000000000000000000000000000000000000000000000006001600160a01b031663fc0c546a6040518163ffffffff1660e01b8152600401602060405180830381865afa158015610c68573d6000803e3d6000fd5b505050506040513d601f19601f82011682018060405250810190610c8c9190611692565b6001600160a01b031682600081518110610ca857610ca86116af565b60200260200101516001600160a01b031614610cd757604051630b9eb1c560e41b815260040160405180910390fd5b610a76818484611036565b6000818311610cf15781610641565b5090919050565b60007f00000000000000000000000000000000000000000000000000000000000000006001600160a01b03163303610d37575060131936013560601c90565b503390565b600082815260096020526040902054428115801590610d9a575062093a80810681036000858152600860205260408120610d9891610d7b60018761161a565b81526020019081526020016000206000015462093a808106900390565b145b15610df0576040805180820182528281526020808201869052600087815260089091529182209091610dcd60018661161a565b815260208082019290925260400160002082518155910151600190910155610e40565b6040805180820182528281526020808201868152600088815260088352848120878252909252929020905181559051600191820155610e3090839061164f565b6000858152600960205260409020555b50505050565b600b54428115801590610e70575062093a8081068103610e6e600a6000610d7b60018761161a565b145b15610ebb57604080518082019091528181526002546020820152600a6000610e9960018661161a565b8152602080820192909252604001600020825181559101516001909101555050565b60408051808201825282815260025460208083019182526000868152600a90915292909220905181559051600191820155610ef790839061164f565b600b555050565b600260005403610f555760405162461bcd60e51b815260206004820152601f60248201527f5265656e7472616e637947756172643a207265656e7472616e742063616c6c0060448201526064015b60405180910390fd5b6002600055565b80600003610f7d57604051631f2a200560e01b815260040160405180910390fd5b610f926001600160a01b03831684308461116f565b6000610fa34262093a808106900390565b6001600160a01b0384166000908152600460209081526040808320848452909152812080549293508492909190610fdb90849061164f565b9250508190555080836001600160a01b0316856001600160a01b03167f52977ea98a2220a03ee9ba5cb003ada08d394ea10155483c95dc2dc77a7eb24b8560405161102891815260200190565b60405180910390a450505050565b805160005b8181101561116857600061106884838151811061105a5761105a6116af565b602002602001015186610413565b90504260056000868581518110611081576110816116af565b6020908102919091018101516001600160a01b03168252818101929092526040908101600090812089825290925290205580156110ef576110ef86828685815181106110cf576110cf6116af565b60200260200101516001600160a01b03166111da9092919063ffffffff16565b838281518110611101576111016116af565b60200260200101516001600160a01b0316866001600160a01b03167f9aa05b3d70a9e3e2f004f039648839560576334fb45c81f91b6db03ad9e2efc98360405161114d91815260200190565b60405180910390a3508061116081611679565b91505061103b565b5050505050565b6040516001600160a01b0380851660248301528316604482015260648101829052610e409085906323b872dd60e01b906084015b60408051601f198184030181529190526020810180516001600160e01b03166001600160e01b03199093169290921790915261120f565b6040516001600160a01b03831660248201526044810182905261120a90849063a9059cbb60e01b906064016111a3565b505050565b6000611264826040518060400160405280602081526020017f5361666545524332303a206c6f772d6c6576656c2063616c6c206661696c6564815250856001600160a01b03166112e19092919063ffffffff16565b80519091501561120a578080602001905181019061128291906116c5565b61120a5760405162461bcd60e51b815260206004820152602a60248201527f5361666545524332303a204552433230206f7065726174696f6e20646964206e6044820152691bdd081cdd58d8d9595960b21b6064820152608401610f4c565b60606112f084846000856112f8565b949350505050565b6060824710156113595760405162461bcd60e51b815260206004820152602660248201527f416464726573733a20696e73756666696369656e742062616c616e636520666f6044820152651c8818d85b1b60d21b6064820152608401610f4c565b600080866001600160a01b03168587604051611375919061170b565b60006040518083038185875af1925050503d80600081146113b2576040519150601f19603f3d011682016040523d82523d6000602084013e6113b7565b606091505b50915091506113c8878383876113d3565b979650505050505050565b6060831561144257825160000361143b576001600160a01b0385163b61143b5760405162461bcd60e51b815260206004820152601d60248201527f416464726573733a2063616c6c20746f206e6f6e2d636f6e74726163740000006044820152606401610f4c565b50816112f0565b6112f083838151156114575781518083602001fd5b8060405162461bcd60e51b8152600401610f4c9190611727565b6001600160a01b038116811461148657600080fd5b50565b803561149481611471565b919050565b600080604083850312156114ac57600080fd5b82356114b781611471565b946020939093013593505050565b600080604083850312156114d857600080fd5b50508035926020909101359150565b6000602082840312156114f957600080fd5b813561064181611471565b60006020828403121561151657600080fd5b5035919050565b634e487b7160e01b600052604160045260246000fd5b6000806040838503121561154657600080fd5b8235915060208084013567ffffffffffffffff8082111561156657600080fd5b818601915086601f83011261157a57600080fd5b81358181111561158c5761158c61151d565b8060051b604051601f19603f830116810181811085821117156115b1576115b161151d565b6040529182528482019250838101850191898311156115cf57600080fd5b938501935b828510156115f4576115e585611489565b845293850193928501926115d4565b8096505050505050509250929050565b634e487b7160e01b600052601160045260246000fd5b818103818111156105f3576105f3611604565b60008261164a57634e487b7160e01b600052601260045260246000fd5b500490565b808201808211156105f3576105f3611604565b80820281158282048414176105f3576105f3611604565b60006001820161168b5761168b611604565b5060010190565b6000602082840312156116a457600080fd5b815161064181611471565b634e487b7160e01b600052603260045260246000fd5b6000602082840312156116d757600080fd5b8151801515811461064157600080fd5b60005b838110156117025781810151838201526020016116ea565b50506000910152565b6000825161171d8184602087016116e7565b9190910192915050565b60208152600082518060208401526117468160408501602087016116e7565b601f01601f1916919091016040019291505056fea264697066735822122050942c20ea37121a86298f4ad0455f111d8b1b5bd134dc4f2e5846be998e4b8f64736f6c6343000813003360e06040523480156200001157600080fd5b5060405162001aa838038062001aa8833981016040819052620000349162000240565b6001600160a01b038083166080526001600055811660a081905260408051630fc2838b60e11b81529051849284928492849291631f8507169160048083019260209291908290030181865afa15801562000092573d6000803e3d6000fd5b505050506040513d601f19601f82011682018060405250810190620000b8919062000278565b6001600160a01b031660c0816001600160a01b03168152505050506000816001600160a01b0316631f8507166040518163ffffffff1660e01b8152600401602060405180830381865afa15801562000114573d6000803e3d6000fd5b505050506040513d601f19601f820116820180604052508101906200013a919062000278565b90506000816001600160a01b031663fc0c546a6040518163ffffffff1660e01b8152600401602060405180830381865afa1580156200017d573d6000803e3d6000fd5b505050506040513d601f19601f82011682018060405250810190620001a3919062000278565b6006805460018082019092557ff652222313e28459528d920b65115c16c04f3efc82aaedc97be59f3f377c0d3f0180546001600160a01b03199081166001600160a01b03948516908117909255600091825260076020526040909120805460ff1916831790558154169390911692909217909155506200029d9350505050565b80516001600160a01b03811681146200023b57600080fd5b919050565b600080604083850312156200025457600080fd5b6200025f8362000223565b91506200026f6020840162000223565b90509250929050565b6000602082840312156200028b57600080fd5b620002968262000223565b9392505050565b60805160a05160c0516117bf620002e96000396000818161017d01528181610bb50152610c910152600081816101e201526109a60152600081816102ae0152610d2b01526117bf6000f3fe608060405234801561001057600080fd5b506004361061014d5760003560e01c806392777b29116100c3578063e8111a121161007c578063e8111a121461037f578063f25e55a514610388578063f301af42146103b3578063f3207723146103c6578063f5f8d365146103d9578063f7412baf146103ec57600080fd5b806392777b29146102f15780639cc7f7081461031c5780639e2bf22c1461033c578063a28d4c9c14610351578063b66503cf14610364578063e68863961461037757600080fd5b806346c96aac1161011557806346c96aac146101dd57806349dcc204146102045780634d5ce0381461024b578063505897931461027e578063572b6c051461029e57806376f4be36146102de57600080fd5b806318160ddd146101525780631be052891461016e5780631f850716146101785780633e491d47146101b7578063456cb7c6146101ca575b600080fd5b61015b60025481565b6040519081526020015b60405180910390f35b61015b62093a8081565b61019f7f000000000000000000000000000000000000000000000000000000000000000081565b6040516001600160a01b039091168152602001610165565b61015b6101c53660046114c8565b610413565b60015461019f906001600160a01b031681565b61019f7f000000000000000000000000000000000000000000000000000000000000000081565b6102366102123660046114f4565b60086020908152600092835260408084209091529082529020805460019091015482565b60408051928352602083019190915201610165565b61026e610259366004611516565b60076020526000908152604090205460ff1681565b6040519015158152602001610165565b61015b61028c366004611533565b60096020526000908152604090205481565b61026e6102ac366004611516565b7f00000000000000000000000000000000000000000000000000000000000000006001600160a01b0390811691161490565b61015b6102ec366004611533565b6105f9565b61015b6102ff3660046114c8565b600460209081526000928352604080842090915290825290205481565b61015b61032a366004611533565b60036020526000908152604090205481565b61034f61034a3660046114f4565b61072d565b005b61015b61035f3660046114f4565b61080d565b61034f6103723660046114c8565b610952565b60065461015b565b61015b600b5481565b61015b6103963660046114c8565b600560209081526000928352604080842090915290825290205481565b61019f6103c1366004611533565b610aae565b61034f6103d43660046114f4565b610ad8565b61034f6103e7366004611562565b610bab565b6102366103fa366004611533565b600a602052600090815260409020805460019091015482565b6000818152600960205260408120548103610430575060006105f3565b6001600160a01b038316600090815260056020908152604080832085845290915281205460019062093a80810690038261046a868361080d565b60008781526008602090815260408083208484528252918290208251808401909352805480845260019091015491830191909152919250906104b590849062093a8081069003610d11565b9250600062093a806104cc85428381069003611649565b6104d6919061165c565b905080156105ea5760005b818110156105e8576105068960016104fc62093a808961167e565b61035f9190611649565b60008a815260086020908152604080832084845282528083208151808301909252805482526001908101549282019290925292965091945061057a91600a91906105619061055762093a808b61167e565b6102ec9190611649565b8152602001908152602001600020600101546001610d11565b6001600160a01b038b1660009081526004602090815260408083208984528252909120549085015191975087916105b19190611691565b6105bb919061165c565b6105c5908861167e565b96506105d462093a808661167e565b9450806105e0816116a8565b9150506104e1565b505b50939450505050505b92915050565b600b5460009080820361060f5750600092915050565b82600a600061061f600185611649565b8152602001908152602001600020600001541161064857610641600182611649565b9392505050565b60008052600a6020527f13da86008ba1c6922daee3e07db95305ef49ebced9f5467a0b8613fcc6b343e3548310156106835750600092915050565b600080610691600184611649565b90505b8181111561072557600060026106aa8484611649565b6106b4919061165c565b6106be9083611649565b6000818152600a60209081526040918290208251808401909352805480845260019091015491830191909152919250908790036106ff575095945050505050565b80518711156107105781935061071e565b61071b600183611649565b92505b5050610694565b509392505050565b6000610737610d27565b6001549091506001600160a01b038083169116146107685760405163ea8e4eb560e01b815260040160405180910390fd5b826002600082825461077a9190611649565b90915550506000828152600360205260408120805485929061079d908490611649565b90915550506000828152600360205260409020546107bc908390610d6b565b6107c4610e75565b81816001600160a01b03167ff279e6a1f5e320cca91135676d9cb6e44ca8a08c0b88342bcdb1144f6511b5688560405161080091815260200190565b60405180910390a3505050565b60008281526009602052604081205480820361082d5760009150506105f3565b60008481526008602052604081208491610848600185611649565b815260200190815260200160002060000154116108725761086a600182611649565b9150506105f3565b600084815260086020908152604080832083805290915290205483101561089d5760009150506105f3565b6000806108ab600184611649565b90505b8181111561094957600060026108c48484611649565b6108ce919061165c565b6108d89083611649565b6000888152600860209081526040808320848452825291829020825180840190935280548084526001909101549183019190915291925090879003610923575093506105f392505050565b805187111561093457819350610942565b61093f600183611649565b92505b50506108ae565b50949350505050565b61095a610f2d565b6000610964610d27565b6001600160a01b03841660009081526007602052604090205490915060ff16610a945760405163559bfa4360e11b81526001600160a01b0384811660048301527f0000000000000000000000000000000000000000000000000000000000000000169063ab37f48690602401602060405180830381865afa1580156109ed573d6000803e3d6000fd5b505050506040513d601f19601f82011682018060405250810190610a1191906116c1565b610a2e57604051630b094f2760e31b815260040160405180910390fd5b6001600160a01b0383166000818152600760205260408120805460ff191660019081179091556006805491820181559091527ff652222313e28459528d920b65115c16c04f3efc82aaedc97be59f3f377c0d3f0180546001600160a01b03191690911790555b610a9f818484610f8b565b50610aaa6001600055565b5050565b60068181548110610abe57600080fd5b6000918252602090912001546001600160a01b0316905081565b6000610ae2610d27565b6001549091506001600160a01b03808316911614610b135760405163ea8e4eb560e01b815260040160405180910390fd5b8260026000828254610b25919061167e565b909155505060008281526003602052604081208054859290610b4890849061167e565b9091555050600082815260036020526040902054610b67908390610d6b565b610b6f610e75565b81816001600160a01b03167f90890809c654f11d6e72a28fa60149770a0d11ec6c92319d6ceb2bb0a4ea1a158560405161080091815260200190565b610bb3610f2d565b7f00000000000000000000000000000000000000000000000000000000000000006001600160a01b031663430c2081610bea610d27565b6040516001600160e01b031960e084901b1681526001600160a01b039091166004820152602481018590526044016020604051808303816000875af1158015610c37573d6000803e3d6000fd5b505050506040513d601f19601f82011682018060405250810190610c5b91906116c1565b610c785760405163ea8e4eb560e01b815260040160405180910390fd5b6040516331a9108f60e11b8152600481018390526000907f00000000000000000000000000000000000000000000000000000000000000006001600160a01b031690636352211e90602401602060405180830381865afa158015610ce0573d6000803e3d6000fd5b505050506040513d601f19601f82011682018060405250810190610d0491906116e3565b9050610a9f818484611065565b6000818311610d205781610641565b5090919050565b60007f00000000000000000000000000000000000000000000000000000000000000006001600160a01b03163303610d66575060131936013560601c90565b503390565b600082815260096020526040902054428115801590610dc9575062093a80810681036000858152600860205260408120610dc791610daa600187611649565b81526020019081526020016000206000015462093a808106900390565b145b15610e1f576040805180820182528281526020808201869052600087815260089091529182209091610dfc600186611649565b815260208082019290925260400160002082518155910151600190910155610e6f565b6040805180820182528281526020808201868152600088815260088352848120878252909252929020905181559051600191820155610e5f90839061167e565b6000858152600960205260409020555b50505050565b600b54428115801590610e9f575062093a8081068103610e9d600a6000610daa600187611649565b145b15610eea57604080518082019091528181526002546020820152600a6000610ec8600186611649565b8152602080820192909252604001600020825181559101516001909101555050565b60408051808201825282815260025460208083019182526000868152600a90915292909220905181559051600191820155610f2690839061167e565b600b555050565b600260005403610f845760405162461bcd60e51b815260206004820152601f60248201527f5265656e7472616e637947756172643a207265656e7472616e742063616c6c0060448201526064015b60405180910390fd5b6002600055565b80600003610fac57604051631f2a200560e01b815260040160405180910390fd5b610fc16001600160a01b03831684308461119e565b6000610fd24262093a808106900390565b6001600160a01b038416600090815260046020908152604080832084845290915281208054929350849290919061100a90849061167e565b9250508190555080836001600160a01b0316856001600160a01b03167f52977ea98a2220a03ee9ba5cb003ada08d394ea10155483c95dc2dc77a7eb24b8560405161105791815260200190565b60405180910390a450505050565b805160005b8181101561119757600061109784838151811061108957611089611700565b602002602001015186610413565b905042600560008685815181106110b0576110b0611700565b6020908102919091018101516001600160a01b031682528181019290925260409081016000908120898252909252902055801561111e5761111e86828685815181106110fe576110fe611700565b60200260200101516001600160a01b03166112099092919063ffffffff16565b83828151811061113057611130611700565b60200260200101516001600160a01b0316866001600160a01b03167f9aa05b3d70a9e3e2f004f039648839560576334fb45c81f91b6db03ad9e2efc98360405161117c91815260200190565b60405180910390a3508061118f816116a8565b91505061106a565b5050505050565b6040516001600160a01b0380851660248301528316604482015260648101829052610e6f9085906323b872dd60e01b906084015b60408051601f198184030181529190526020810180516001600160e01b03166001600160e01b03199093169290921790915261123e565b6040516001600160a01b03831660248201526044810182905261123990849063a9059cbb60e01b906064016111d2565b505050565b6000611293826040518060400160405280602081526020017f5361666545524332303a206c6f772d6c6576656c2063616c6c206661696c6564815250856001600160a01b03166113109092919063ffffffff16565b80519091501561123957808060200190518101906112b191906116c1565b6112395760405162461bcd60e51b815260206004820152602a60248201527f5361666545524332303a204552433230206f7065726174696f6e20646964206e6044820152691bdd081cdd58d8d9595960b21b6064820152608401610f7b565b606061131f8484600085611327565b949350505050565b6060824710156113885760405162461bcd60e51b815260206004820152602660248201527f416464726573733a20696e73756666696369656e742062616c616e636520666f6044820152651c8818d85b1b60d21b6064820152608401610f7b565b600080866001600160a01b031685876040516113a4919061173a565b60006040518083038185875af1925050503d80600081146113e1576040519150601f19603f3d011682016040523d82523d6000602084013e6113e6565b606091505b50915091506113f787838387611402565b979650505050505050565b6060831561147157825160000361146a576001600160a01b0385163b61146a5760405162461bcd60e51b815260206004820152601d60248201527f416464726573733a2063616c6c20746f206e6f6e2d636f6e74726163740000006044820152606401610f7b565b508161131f565b61131f83838151156114865781518083602001fd5b8060405162461bcd60e51b8152600401610f7b9190611756565b6001600160a01b03811681146114b557600080fd5b50565b80356114c3816114a0565b919050565b600080604083850312156114db57600080fd5b82356114e6816114a0565b946020939093013593505050565b6000806040838503121561150757600080fd5b50508035926020909101359150565b60006020828403121561152857600080fd5b8135610641816114a0565b60006020828403121561154557600080fd5b5035919050565b634e487b7160e01b600052604160045260246000fd5b6000806040838503121561157557600080fd5b8235915060208084013567ffffffffffffffff8082111561159557600080fd5b818601915086601f8301126115a957600080fd5b8135818111156115bb576115bb61154c565b8060051b604051601f19603f830116810181811085821117156115e0576115e061154c565b6040529182528482019250838101850191898311156115fe57600080fd5b938501935b8285101561162357611614856114b8565b84529385019392850192611603565b8096505050505050509250929050565b634e487b7160e01b600052601160045260246000fd5b818103818111156105f3576105f3611633565b60008261167957634e487b7160e01b600052601260045260246000fd5b500490565b808201808211156105f3576105f3611633565b80820281158282048414176105f3576105f3611633565b6000600182016116ba576116ba611633565b5060010190565b6000602082840312156116d357600080fd5b8151801515811461064157600080fd5b6000602082840312156116f557600080fd5b8151610641816114a0565b634e487b7160e01b600052603260045260246000fd5b60005b83811015611731578181015183820152602001611719565b50506000910152565b6000825161174c818460208701611716565b9190910192915050565b6020815260008251806020840152611775816040850160208701611716565b601f01601f1916919091016040019291505056fea2646970667358221220d2c1cfbb8c91672915b2b8b43dc3e10802eade3f78ad654ef184875a4aeb45b564736f6c63430008130033a2646970667358221220cd0d2fee5b89a3f6539f9b2ce5bfd8ea75413277e7cb3574bdb139e00d45ba6a64736f6c63430008130033","linkReferences":{}},"methodIdentifiers":{"createRewards(address,address)":"dabc8e83"},"id":17}