{"abi":[{"type":"function","name":"noise2d","inputs":[{"name":"x","type":"int256","internalType":"int256"},{"name":"y","type":"int256","internalType":"int256"}],"outputs":[{"name":"","type":"int256","internalType":"int256"}],"stateMutability":"pure"},{"type":"function","name":"noise3d","inputs":[{"name":"x","type":"int256","internalType":"int256"},{"name":"y","type":"int256","internalType":"int256"},{"name":"z","type":"int256","internalType":"int256"}],"outputs":[{"name":"","type":"int256","internalType":"int256"}],"stateMutability":"pure"}],"bytecode":{"object":"0x61296561003a600b82828239805160001a60731461002d57634e487b7160e01b600052600060045260246000fd5b30600052607381538281f3fe73000000000000000000000000000000000000000030146080604052600436106100405760003560e01c8063657d14d11461004557806370ab32b31461006a575b600080fd5b610058610053366004612830565b61007d565b60405190815260200160405180910390f35b61005861007836600461285c565b61032c565b6040805160e08101825260ff601086811d8216835285811d8216602084015284901d16918101919091526000606082018190526080820181905260a0820181905260c0820181905261ffff9485169493841693909216919081806100e68382602002015161042a565b90506101078360015b602002015161010290600884901d612894565b61042a565b91506101228360015b60200201516101029060ff8416612894565b905061013d836002602002015161010290600885901d612894565b60608401526040830151610158906101029060ff8516612894565b60808401526101688360026100ef565b60a0840152610178836002610110565b60c08401526000808061018a8a611526565b945061019589611526565b93506101dc856101b260088960036020020151901d8d8d8d61156f565b6101d760088a60056020020151901d620100008f6101d091906128bc565b8e8e61156f565b6115fb565b92506102388561020560088960046020020151901d8d6101ff620100008f6128bc565b8d61156f565b6101d760088a60066020020151901d620100008f61022391906128bc565b620100008f61023291906128bc565b8e61156f565b91506102458484846115fb565b905061029a8561026d886003602002015160ff168d8d610268620100008f6128bc565b61156f565b6101d7896005602002015160ff16620100008f61028a91906128bc565b8e620100008f61026891906128bc565b9250610304856102c9886004602002015160ff168d6102bc620100008f6128bc565b610268620100008f6128bc565b6101d7896006602002015160ff16620100008f6102e691906128bc565b620100008f6102f591906128bc565b620100008f61026891906128bc565b915061031e61031289611526565b826101d78787876115fb565b9a9950505050505050505050565b60008061033f601085901d60ff1661042a565b9050600061035b61010260ff601087901d16600885901d612894565b9050600061037661010260ff601088901d8116908616612894565b905061ffff8616955061ffff85169450600061039187611526565b905060006103c3826103a8600887901d8b8b611626565b6101d7600887901d6103bd620100008e6128bc565b8c611626565b90506000610406836103e560ff88168c6103e0620100008e6128bc565b611626565b6101d760ff88166103f9620100008f6128bc565b6103e0620100008f6128bc565b905061041b61041489611526565b83836115fb565b96505050505050505b92915050565b60ff166000607f8213610cae57603f821361087657601f821361065f57600f821361055757600782136104d7576003821361049b5760018213610481578160000361047857506197a0919050565b5061a089919050565b81600203610492575061895b919050565b50615b5a919050565b600582136104bd57816004036104b45750615a0f919050565b50610f83919050565b816006036104ce575061830d919050565b50610dc9919050565b600b821361051b576009821361050157816008036104f8575061c95f919050565b50615f60919050565b81600a036105125750616035919050565b506135c2919050565b600d821361053d5781600c03610534575061c2e9919050565b5061e907919050565b81600e0361054e57506107e1919050565b5061e18c919050565b601782136105df57601382136105a3576011821361058957816010036105805750618c24919050565b50612467919050565b8160120361059a575061671e919050565b50611e45919050565b601582136105c557816014036105bc575061458e919050565b50618e08919050565b816016036105d65750610863919050565b50616325919050565b601b82136106235760198213610609578160180361060057506125f0919050565b5061f015919050565b81601a0361061a575061150a919050565b50610a17919050565b601d82136106455781601c0361063c57506117be919050565b5061be06919050565b81601e036106565750610694919050565b506194f7919050565b602f821361076e57602782136106ee57602382136106b357602182136106995781602003610690575061f778919050565b506178ea919050565b816022036106aa575061ea4b919050565b50614b00919050565b602582136106d457816024036106cb5750601a919050565b50611ac5919050565b816026036106e5575061c53e919050565b50613e5e919050565b602b82136107325760298213610718578160280361070f5750615efc919050565b5061fcdb919050565b81602a03610729575061dbcb919050565b5061cb75919050565b602d82136107545781602c0361074b5750617523919050565b5061230b919050565b81602e036107655750610b20919050565b50612039919050565b603782136107f657603382136107ba57603182136107a0578160300361079757506139b1919050565b5061b121919050565b816032036107b15750612158919050565b506158ed919050565b603582136107dc57816034036107d3575061ed95919050565b50619538919050565b816036036107ed5750613857919050565b506157ae919050565b603b821361083a57603982136108205781603803610817575061ae14919050565b5061147d919050565b81603a036108315750617d88919050565b506188ab919050565b603d821361085c5781603c03610853575061aba8919050565b5061a844919050565b81603e0361086d57506144af919050565b5061af4a919050565b605f8213610a9657604f821361098e576047821361090e57604382136108d257604182136108b857816040036108af5750614aa5919050565b5061a547919050565b816042036108c95750614786919050565b5061868b919050565b604582136108f457816044036108eb5750618b30919050565b5061301b919050565b816046036109055750611ba6919050565b5061a64d919050565b604b82136109525760498213610938578160480361092f5750614d92919050565b5061929e919050565b81604a036109495750619ee7919050565b5061e753919050565b604d82136109745781604c0361096b575061536f919050565b50616fe5919050565b81604e03610985575061e57a919050565b50617a3c919050565b60578213610a1657605382136109da57605182136109c057816050036109b75750613cd3919050565b5061d385919050565b816052036109d157506185e6919050565b5061e6dc919050565b605582136109fc57816054036109f3575061dc69919050565b5061695c919050565b81605603610a0d5750615c29919050565b50612937919050565b605b8213610a5a5760598213610a405781605803610a37575061372e919050565b50612ef5919050565b81605a03610a51575061f528919050565b506128f4919050565b605d8213610a7c5781605c03610a73575061f466919050565b5061668f919050565b81605e03610a8d5750618f36919050565b50613641919050565b606f8213610ba65760678213610b265760638213610aea5760618213610ad05781606003610ac75750614119919050565b5061193f919050565b81606203610ae15750613fa1919050565b5061a101919050565b60658213610b0c5781606403610b0357506101d8919050565b5061d850919050565b81606603610b1d5750615049919050565b506149d1919050565b606b8213610b6a5760698213610b505781606803610b47575061d14c919050565b50614c84919050565b81606a03610b6157506184bb919050565b5061bbd0919050565b606d8213610b8c5781606c03610b83575061d059919050565b50615912919050565b81606e03610b9d57506112a9919050565b5061a9c8919050565b60778213610c2e5760738213610bf25760718213610bd85781607003610bcf575061c8c4919050565b5061c487919050565b81607203610be95750618782919050565b50618274919050565b60758213610c145781607403610c0b57506174bc919050565b5061bc9f919050565b81607603610c255750619f56919050565b506156a4919050565b607b8213610c725760798213610c585781607803610c4f575061a464919050565b5061646d919050565b81607a03610c695750616dc6919050565b5061c6ad919050565b607d8213610c945781607c03610c8b575061adba919050565b5061ba03919050565b81607e03610ca55750610340919050565b50614034919050565b60bf82136110ee57609f8213610ed657608f8213610dce5760878213610d4e5760838213610d125760818213610cf85781608003610cef57506134d9919050565b5061d9e2919050565b81608203610d09575061e2fa919050565b5061fa7c919050565b60858213610d345781608403610d2b5750617c7b919050565b50617b05919050565b81608603610d4557506105ca919050565b5061ca26919050565b608b8213610d925760898213610d785781608803610d6f5750612693919050565b50619376919050565b81608a03610d89575061767e919050565b50617eff919050565b608d8213610db45781608c03610dab575061ff52919050565b50615255919050565b81608e03610dc557506155d4919050565b5061d4cf919050565b60978213610e565760938213610e1a5760918213610e005781609003610df7575061cfce919050565b5061ce3b919050565b81609203610e115750613be3919050565b5061e32f919050565b60958213610e3c5781609403610e335750612f10919050565b5061103a919050565b81609603610e4d5750613a11919050565b506111b6919050565b609b8213610e9a5760998213610e805781609803610e77575061b6bd919050565b5061bd1c919050565b81609a03610e915750611c2a919050565b50612adf919050565b609d8213610ebc5781609c03610eb3575061dfb7919050565b5061b7aa919050565b81609e03610ecd575061aad5919050565b5061d577919050565b60af8213610fe65760a78213610f665760a38213610f2a5760a18213610f10578160a003610f0757506177f8919050565b5061f898919050565b8160a203610f215750619802919050565b5061022c919050565b60a58213610f4c578160a403610f435750612c9a919050565b50619aa3919050565b8160a603610f5d575061a346919050565b506146dd919050565b60ab8213610faa5760a98213610f90578160a803610f87575061dd99919050565b50619965919050565b8160aa03610fa1575061659b919050565b50619ba7919050565b60ad8213610fcc578160ac03610fc3575061a72b919050565b50612bac919050565b8160ae03610fdd575061ac09919050565b50610981919050565b60b7821361106e5760b382136110325760b18213611018578160b00361100f5750618116919050565b50611627919050565b8160b20361102957506127fd919050565b5061fd13919050565b60b58213611054578160b40361104b5750611362919050565b5061626c919050565b8160b6036110655750616c6e919050565b50616e4f919050565b60bb82136110b25760b98213611098578160b80361108f5750614f71919050565b506171e0919050565b8160ba036110a9575061e0e8919050565b5061e8b2919050565b60bd82136110d4578160bc036110cb575061b2b9919050565b5061b970919050565b8160be036110e55750617068919050565b506168da919050565b60df821361130e5760cf82136112065760c782136111865760c3821361114a5760c18213611130578160c003611127575061daf6919050565b5061f661919050565b8160c20361114157506161e4919050565b5061e4fb919050565b60c5821361116c578160c403611163575061fb22919050565b506122f2919050565b8160c60361117d575061f2c1919050565b5061c1ee919050565b60cb82136111ca5760c982136111b0578160c8036111a7575061eed2919050565b5061d290919050565b8160ca036111c1575061900c919050565b50610cbf919050565b60cd82136111ec578160cc036111e3575061bfb3919050565b5061b3a2919050565b8160ce036111fd575061a2f1919050565b5061f151919050565b60d7821361128e5760d382136112525760d18213611238578160d00361122f5750615133919050565b50613391919050565b8160d20361124957506191eb919050565b5061ebf9919050565b60d58213611274578160d40361126b575061f90e919050565b50610eef919050565b8160d603611285575061ef6b919050565b50616b31919050565b60db82136112d25760d982136112b8578160d8036112af57506131c0919050565b5061c0d6919050565b8160da036112c9575061d61f919050565b50611fb5919050565b60dd82136112f4578160dc036112eb575061b5c7919050565b5061c76a919050565b8160de036113055750616a9d919050565b50619db8919050565b60ef821361141e5760e7821361139e5760e382136113625760e18213611348578160e00361133f575061b854919050565b506154cc919050565b8160e203611359575061ccb0919050565b5061b073919050565b60e58213611384578160e40361137b5750617379919050565b50617932919050565b8160e603611395575061322d919050565b50612d7f919050565b60eb82136113e25760e982136113c8578160e8036113bf5750617f04919050565b50610496919050565b8160ea036113d957506196fe919050565b5061fe8a919050565b60ed8213611404578160ec036113fb5750618aec919050565b5061eccd919050565b8160ee03611415575061cd5d919050565b50615dde919050565b60f782136114a65760f3821361146a5760f18213611450578160f003611447575061de72919050565b50617243919050565b8160f203611461575061431d919050565b50611d18919050565b60f5821361148c578160f4036114835750611848919050565b506148f3919050565b8160f60361149d575061f38d919050565b50618d80919050565b60fb82136114ea5760f982136114d0578160f8036114c757506180c3919050565b5061c34e919050565b8160fa036114e15750614e42919050565b506142d7919050565b60fd821361150c578160fc03611503575061d73d919050565b50613d9c919050565b8160fe0361151d5750619cb4919050565b5061b497919050565b600080611536600884901d611680565b9050600c81901d610fff8216600861154e83836128bc565b61155b9060ff88166128e3565b611566911d83612894565b95945050505050565b6000600f851694506000600886121561158957508361158c565b50825b6000600487121561159e5750836115bc565b86600c14806115ad575086600e145b156115b95750846115bc565b50825b60018716156115d1576115ce82612913565b91505b60028716156115e6576115e381612913565b90505b6115f08183612894565b979650505050505050565b6000600c61160984846128bc565b61161390866128e3565b61161e911d84612894565b949350505050565b600060038416935060008460011660000361164257508261164e565b61164b84612913565b90505b6000600286121561166057508261166c565b61166984612913565b90505b6116768183612894565b9695505050505050565b6000607f8213611f5657603f8213611ade57601f82136118a657600f8213611792576007821361171257600382136116e257600182136116d257816000036116ca57506000919050565b506000919050565b816002036116ca57506000919050565b600582136116fa57816004036116ca57506000919050565b8160060361170a57506000919050565b506001919050565b600b8213611756576009821361173c57816008036117335750611001919050565b50611002919050565b81600a0361174d5750612003919050565b50613003919050565b600d82136117785781600c0361176f5750613004919050565b50614006919050565b81600e036117895750616007919050565b50617009919050565b6017821361181e57601382136117de57601182136117c457816010036117bb575061900a919050565b5061a00c919050565b816012036117d5575061c00e919050565b5061e011919050565b6015821361180257816014036117f8575062011013919050565b5062013016919050565b81601603611814575062016019919050565b506201901d919050565b601b8213611866576019821361184a578160180361184057506201d020919050565b5062020024919050565b81601a0361185c575062024028919050565b506202802d919050565b601d821361188a5781601c0361188057506202d031919050565b5062031036919050565b81601e0361189c57506203603c919050565b506203c041919050565b602f82136119c6576027821361193e57602382136118fe57602182136118e257816020036118d8575062041047919050565b506204704d919050565b816022036118f457506204d054919050565b506205405b919050565b60258213611922578160240361191857506205b062919050565b5062062069919050565b81602603611934575062069071919050565b5062071079919050565b602b8213611986576029821361196a5781602803611960575062079082919050565b506208208b919050565b81602a0361197c57506208b094919050565b506209409e919050565b602d82136119aa5781602c036119a057506209e0a7919050565b50620a70b2919050565b81602e036119bc5750620b20bc919050565b50620bc0c7919050565b60378213611a565760338213611a1657603182136119fa57816030036119f05750620c70d3919050565b50620d30de919050565b81603203611a0c5750620de0ea919050565b50620ea0f7919050565b60358213611a3a5781603403611a305750620f7103919050565b5062103111919050565b81603603611a4c57506211111e919050565b506211e12c919050565b603b8213611a9e5760398213611a825781603803611a7857506212c13a919050565b506213a149919050565b81603a03611a94575062149158919050565b5062158167919050565b603d8213611ac25781603c03611ab8575062167176919050565b5062176186919050565b81603e03611ad4575062186197919050565b50621971a8919050565b605f8213611d1e57604f8213611c065760478213611b7e5760438213611b3e5760418213611b225781604003611b185750621a81b9919050565b50621b91ca919050565b81604203611b345750621ca1dc919050565b50621dc1ee919050565b60458213611b625781604403611b585750621ee200919050565b5062200213919050565b81604603611b74575062213226919050565b506222623a919050565b604b8213611bc65760498213611baa5781604803611ba057506223a24d919050565b506224d261919050565b81604a03611bbc575062261276919050565b506227628b919050565b604d8213611bea5781604c03611be057506228b2a0919050565b50622a02b5919050565b81604e03611bfc5750622b52cb919050565b50622cb2e1919050565b60578213611c965760538213611c565760518213611c3a5781605003611c305750622e12f7919050565b50622f730e919050565b81605203611c4c57506230e325919050565b506232533c919050565b60558213611c7a5781605403611c7057506233c353919050565b506235336b919050565b81605603611c8c57506236b383919050565b506238339b919050565b605b8213611cde5760598213611cc25781605803611cb857506239b3b4919050565b50623b43cd919050565b81605a03611cd45750623cd3e6919050565b50623e63ff919050565b605d8213611d025781605c03611cf85750623ff419919050565b5062419432919050565b81605e03611d1457506243244c919050565b506244c467919050565b606f8213611e3e5760678213611db65760638213611d765760618213611d5a5781606003611d50575062467481919050565b506248149c919050565b81606203611d6c57506249c4b7919050565b50624b74d2919050565b60658213611d9a5781606403611d905750624d24ed919050565b50624ed509919050565b81606603611dac575062509524919050565b5062524540919050565b606b8213611dfe5760698213611de25781606803611dd857506254055c919050565b506255c578919050565b81606a03611df4575062578595919050565b50625955b1919050565b606d8213611e225781606c03611e185750625b15ce919050565b50625ce5eb919050565b81606e03611e345750625eb607919050565b5062607624919050565b60778213611ece5760738213611e8e5760718213611e725781607003611e68575062624642919050565b506264265f919050565b81607203611e8457506265f67c919050565b506267c69a919050565b60758213611eb25781607403611ea857506269a6b7919050565b50626b76d5919050565b81607603611ec45750626d56f2919050565b50626f2710919050565b607b8213611f165760798213611efa5781607803611ef057506271072e919050565b506272e74c919050565b81607a03611f0c57506274c76a919050565b506276a788919050565b607d8213611f3a5781607c03611f305750627887a6919050565b50627a67c4919050565b81607e03611f4c5750627c47e2919050565b50627e2800919050565b60bf82136123d657609f821361219e57608f82136120865760878213611ffe5760838213611fbe5760818213611fa25781608003611f9857506280081d919050565b506281d83b919050565b81608203611fb457506283b859919050565b5062859877919050565b60858213611fe25781608403611fd8575062877895919050565b50628958b3919050565b81608603611ff45750628b38d1919050565b50628d18ef919050565b608b8213612046576089821361202a57816088036120205750628ef90d919050565b506290d92a919050565b81608a0361203c57506292a948919050565b5062948965919050565b608d821361206a5781608c03612060575062965983919050565b50629839a0919050565b81608e0361207c5750629a09bd919050565b50629bd9db919050565b6097821361211657609382136120d657609182136120ba57816090036120b05750629db9f8919050565b50629f8a14919050565b816092036120cc575062a14a31919050565b5062a31a4e919050565b609582136120fa57816094036120f0575062a4ea6a919050565b5062a6aa87919050565b8160960361210c575062a87aa3919050565b5062aa3abf919050565b609b821361215e57609982136121425781609803612138575062abfadb919050565b5062adbaf6919050565b81609a03612154575062af6b12919050565b5062b12b2d919050565b609d82136121825781609c03612178575062b2db48919050565b5062b48b63919050565b81609e03612194575062b63b7e919050565b5062b7eb98919050565b60af82136122be5760a782136122365760a382136121f65760a182136121da578160a0036121d0575062b98bb3919050565b5062bb3bcd919050565b8160a2036121ec575062bcdbe6919050565b5062be6c00919050565b60a5821361221a578160a403612210575062c00c19919050565b5062c19c32919050565b8160a60361222c575062c32c4b919050565b5062c4bc64919050565b60ab821361227e5760a98213612262578160a803612258575062c64c7c919050565b5062c7cc94919050565b8160aa03612274575062c94cac919050565b5062caccc3919050565b60ad82136122a2578160ac03612298575062cc3cda919050565b5062cdacf1919050565b8160ae036122b4575062cf1d08919050565b5062d08d1e919050565b60b7821361234e5760b3821361230e5760b182136122f2578160b0036122e8575062d1ed34919050565b5062d34d4a919050565b8160b203612304575062d4ad5f919050565b5062d5fd74919050565b60b58213612332578160b403612328575062d74d89919050565b5062d89d9e919050565b8160b603612344575062d9edb2919050565b5062db2dc5919050565b60bb82136123965760b9821361237a578160b803612370575062dc5dd9919050565b5062dd9dec919050565b8160ba0361238c575062decdff919050565b5062dffe11919050565b60bd82136123ba578160bc036123b0575062e11e23919050565b5062e23e35919050565b8160be036123cc575062e35e46919050565b5062e46e58919050565b60df82136126165760cf82136124fe5760c782136124765760c382136124365760c1821361241a578160c003612410575062e58e68919050565b5062e68e79919050565b8160c20361242c575062e79e89919050565b5062e89e98919050565b60c5821361245a578160c403612450575062e98ea7919050565b5062ea7eb6919050565b8160c60361246c575062eb6ec5919050565b5062ec5ed3919050565b60cb82136124be5760c982136124a2578160c803612498575062ed3ee1919050565b5062ee1eee919050565b8160ca036124b4575062eeeefc919050565b5062efcf08919050565b60cd82136124e2578160cc036124d8575062f08f15919050565b5062f15f21919050565b8160ce036124f4575062f21f2c919050565b5062f2cf38919050565b60d7821361258e5760d3821361254e5760d18213612532578160d003612528575062f38f43919050565b5062f43f4d919050565b8160d203612544575062f4df58919050565b5062f58f61919050565b60d58213612572578160d403612568575062f61f6b919050565b5062f6bf74919050565b8160d603612584575062f74f7d919050565b5062f7df86919050565b60db82136125d65760d982136125ba578160d8036125b0575062f86f8e919050565b5062f8ef96919050565b8160da036125cc575062f96f9d919050565b5062f9dfa4919050565b60dd82136125fa578160dc036125f0575062fa4fab919050565b5062fabfb2919050565b8160de0361260c575062fb2fb8919050565b5062fb8fbe919050565b60ef82136127365760e782136126ae5760e3821361266e5760e18213612652578160e003612648575062fbefc3919050565b5062fc3fc9919050565b8160e203612664575062fc9fce919050565b5062fcefd2919050565b60e58213612692578160e403612688575062fd2fd7919050565b5062fd7fdb919050565b8160e6036126a4575062fdbfdf919050565b5062fdffe2919050565b60eb82136126f65760e982136126da578160e8036126d0575062fe2fe6919050565b5062fe6fe9919050565b8160ea036126ec575062fe9fec919050565b5062fecfee919050565b60ed821361271a578160ec03612710575062feeff1919050565b5062ff1ff3919050565b8160ee0361272c575062ff3ff5919050565b5062ff5ff6919050565b60f782136127c65760f382136127865760f1821361276a578160f003612760575062ff6ff8919050565b5062ff8ff9919050565b8160f20361277c575062ff9ffb919050565b5062ffbffc919050565b60f582136127aa578160f4036127a0575062ffcffc919050565b5062ffcffd919050565b8160f6036127bc575062ffdffe919050565b5062ffeffe919050565b60fb82136128045760f982136127f2578160f8036127e8575062ffefff919050565b5062ffffff919050565b8160fa036127e8575062ffffff919050565b60fd821361281e578160fc036127e8575062ffffff919050565b8160fe036127e8575062ffffff919050565b60008060006060848603121561284557600080fd5b505081359360208301359350604090920135919050565b6000806040838503121561286f57600080fd5b50508035926020909101359150565b634e487b7160e01b600052601160045260246000fd5b80820182811260008312801582168215821617156128b4576128b461287e565b505092915050565b81810360008312801583831316838312821617156128dc576128dc61287e565b5092915050565b80820260008212600160ff1b841416156128ff576128ff61287e565b81810583148215176104245761042461287e565b6000600160ff1b82016129285761292861287e565b506000039056fea2646970667358221220eafa381b0482633a66fde80c64efbf6c48242d412a3dd78aa77eefb10d6f2ce364736f6c63430008130033","linkReferences":{}},"methodIdentifiers":{"noise2d(int256,int256)":"70ab32b3","noise3d(int256,int256,int256)":"657d14d1"},"id":13}